:100000000C9414010C943C010C943C010C943C01A4
:100010000C943C010C943C010C943C010C94701722
:100020000C943C010C943C010C943C010C948D19F3
:100030000C943C010C943C010C943C010C943C014C
:100040000C9424180C943C010C94F2170C94CC17CB
:100050000C943C010C943C010C943C010C943C012C
:100060000C946E180C943C0105A84CCDB2D44EB93A
:100070003836A9020C50B9918688083CA6AAAA2A4B
:10008000BE000000803F07634236B79BD8A71A39ED
:10009000685618AEBAAB558C1D3CB7CC5763BD6DD6
:1000A000EDFD753EF6177231BF000000803F08007D
:1000B0000000BE922449123EABAAAA2ABECDCCCCE7
:1000C0004C3E00000080BEABAAAAAA3E0000000081
:1000D000BF000000803F0000000000084178D3BB53
:1000E0004387D1133D190E3CC3BD4282AD2B3E6800
:1000F000EC8276BED98FE1A93E4C80EFFFBE01C4F1
:10010000FF7F3F0000000000010000010000000030
:1001100000000000000000000000000000000000DF
:1001200023002600290000000000240027002A00E8
:1001300000000000250028002B000404040404042F
:100140000404020202020202030303030303010286
:100150000408102040800102040810200102040855
:100160001020024C6F616420736B696C6C730052D9
:10017000656164792100426974746C65000A2A2003
:100180005374617274202A003E00000000080002CF
:1001900001000003040700000000000000004C6F95
:1001A0007720706F7765723A007A65726F006A79AE
:1001B00000636B007065650070750068690073749A
:1001C000720073697400747200776B00637200765A
:1001D0007400630042007000520062616C616E63E3
:1001E00065004C00670046006400493243204545E5
:1001F00050524F4D206F766572666C6F77212044A8
:10020000656C65746520736F6D6520736B696C6CCC
:1002100073210A0061626F727465640073617665B0
:1002200064003F007A1A1D2911241FBECFEFD8E0C9
:10023000DEBFCDBF11E0A0E0B1E0E6EFF3E602C023
:1002400005900D92AE3DB107D9F724E0AEEDB1E0D7
:1002500001C01D92AC3EB207E1F711E0C3E1D1E06D
:1002600004C02197FE010E94D430C231D107C9F7E2
:100270000E941D1B0C94EE310C94000080E090E075
:10028000A0E0B0E48093A9029093AA02A093AB02ED
:10029000B093AC02E091E004F091E1048181082E7A
:1002A000000C990B9093AF028093AE028281082ECE
:1002B000000C990B9093B1028093B00283818093DC
:1002C000B2028091A80287FF0CC084818093B302A0
:1002D00085818093B40286818093B50287E090E0A7
:1002E00005C0813061F05CF084E098E09093B60244
:1002F000E80FF11DF093B802E093B702089584E08F
:10030000EECF8091A0029091A102891B990B0895D4
:10031000089508950895AF92BF92CF92DF92EF9221
:10032000FF920F931F93CF93DF936C017B018B019F
:10033000040F151FEB015E01AE18BF08C017D107EF
:1003400059F06991D601ED91FC910190F081E02D79
:10035000C6010995892B79F7C501DF91CF911F91CE
:100360000F91FF90EF90DF90CF90BF90AF900895E6
:10037000FC01538D448D252F30E0842F90E0821BAB
:10038000930B541710F0CF96089501970895FC0130
:10039000918D828D981761F0A28DAE0FBF2FB11D88
:1003A0005D968C91928D9F5F9F73928F90E00895E0
:1003B0008FEF9FEF0895FC01918D828D981731F09A
:1003C000828DE80FF11D858D90E008958FEF9FEFEE
:1003D0000895FC01918D228D892F90E0805C9F4FC4
:1003E000821B91098F739927089589E093E00E94F9
:1003F000E90121E0892B09F420E0822F089580E0B3
:1004000090E0892B29F00E94F50181110C940000E5
:100410000895FC01A48DA80FB92FB11DA35ABF4F99
:100420002C91848D90E001968F739927848FA689F3
:10043000B7892C93A089B1898C91837080648C9347
:10044000938D848D981306C00288F389E02D8081F6
:100450008F7D80830895EF92FF920F931F93CF9328
:10046000DF93EC0181E0888F9B8D8C8D98131AC0EF
:10047000E889F989808185FF15C09FB7F894EE89D6
:10048000FF896083E889F989808183708064808333
:100490009FBF81E090E0DF91CF911F910F91FF907E
:1004A000EF900895F62E0B8D10E00F5F1F4F0F7326
:1004B0001127E02E8C8D8E110CC00FB607FCFACFE1
:1004C000E889F989808185FFF5CFCE010E94090274
:1004D000F1CFEB8DEC0FFD2FF11DE35AFF4FF082B2
:1004E0009FB7F8940B8FEA89FB8980818062CFCF18
:1004F0000F931F93CF93DF938C01D0E0C0E0F801FE
:10050000EC0FFD1F6491662341F089E093E00E94A7
:100510002B02892B11F02196F2CFCE01DF91CF91E2
:100520001F910F910895CF93DF93EC01888D88235D
:10053000B9F0AA89BB89E889F9898C9185FD03C046
:10054000808186FD0DC00FB607FCF7CF8C9185FF2B
:10055000F2CF808185FFEDCFCE010E940902E9CF65
:10056000DF91CF910895833081F028F4813099F0A4
:100570008230A9F008958730A9F08830C9F084301E
:10058000B1F4809180008F7D03C0809180008F77CF
:1005900080938000089584B58F7784BD089584B5D5
:1005A0008F7DFBCF8091B0008F778093B00008954E
:1005B0008091B0008F7DF9CF1F93CF93DF93282FC9
:1005C00030E0F901E657FE4F8491F901E25BFE4FFE
:1005D000D491F901E65CFE4FC491CC23A9F0162F0B
:1005E00081110E94B302EC2FF0E0EE0FFF1FE05DDF
:1005F000FE4FA591B4918FB7F894EC91111108C0FA
:10060000D095DE23DC938FBFDF91CF911F910895AA
:10061000DE2BF8CF9091000189130BC0E2E6F1E0E8
:10062000E4919FEF90930001E13049F028F0E2302F
:1006300061F060E00C94DC0210926E00FACF9091B1
:100640006F009D7F90936F00F4CF909170009D7F1D
:100650009093700091E09093B0009091B100987FDA
:1006600094609093B1001092B300E3CFCF93DF93E7
:1006700090E0FC01E25BFE4F2491865C9E4FFC0102
:1006800084918823D1F090E0880F991FFC01EA5DE6
:10069000FE4FA591B491FC01E05DFE4FC591D49150
:1006A00061110EC09FB7F8948C91E22FE0958E23D4
:1006B0008C932881E223E8839FBFDF91CF91089537
:1006C0008FB7F894EC91E22BEC938FBFF6CF8E307E
:1006D00008F08E50806480937C0080917A00806462
:1006E00080937A0080917A0086FDFCCF809178001B
:1006F0009091790008953FB7F894809151029091BC
:100700005202A0915302B091540226B5A89B05C095
:100710002F3F19F00196A11DB11D3FBFBA2FA92F80
:10072000982F8827BC01CD01620F711D811D911D7D
:1007300042E0660F771F881F991F4A95D1F70895E9
:100740008F929F92AF92BF92CF92DF92EF92FF92E1
:100750006B017C010E947B034B015C01C114D1043D
:10076000E104F104B9F00E947B03681979098A0950
:100770009B09683E73408105910580F321E0C21A10
:10078000D108E108F10888EE880E83E0981EA11CCC
:10079000B11CE4CFFF90EF90DF90CF90BF90AF906F
:1007A0009F908F9008952FB7F89460914D027091AB
:1007B0004E0280914F02909150022FBF08950F93E7
:1007C0001F93CF93DF93EC010E94D303688779874F
:1007D0008A879B87E881F9810284F385E02DCE0129
:1007E000099597FF15C00E94D303088519852A85AE
:1007F0003B85601B710B820B930B0C811D812E813D
:100800003F81601771078207930720F38FEF9FEFF7
:10081000DF91CF911F910F91089520912902260F0A
:100820003327331F21323105ECF420910303FC01FF
:1008300090E080E0243069F082E00895A0912902E0
:100840002191AC01475F5D4FA40FB52FB11D2C93D3
:100850000196861798F380912902680F6093290208
:1008600080E0089581E008951092030381E0809371
:10087000E2021092DD0261E082E10E94DC0261E0AE
:1008800083E10E94DC02E9EBF0E080818E7F8083CF
:1008900080818D7F808388E48093B80085E4809395
:1008A000BC000895CF93DF9391E0909308028823D2
:1008B000B9F0C091B800D091BA008091BC008A7B99
:1008C0008093BC0060E082E10E94DC0260E083E192
:1008D0000E94DC020E943404D093BA00C093B80096
:1008E000DF91CF910895CF92DF92EF92FF920F9315
:1008F0001F93CF93DF93D82FC62F613208F098C093
:100900000E947B036B017C018091030381116BC00A
:1009100081E0809303038093E2029FEF9093E102D2
:100920001092E0029C0F9093DF028093DE02809190
:10093000DE02DD0FD82BD093DE028091DD02813004
:1009400009F078C01092DD020E947B036B017C01EC
:100950008091DE028093BB00809105039091060395
:10096000A0910703B0910803892B8A2B8B2BA1F050
:100970000E947B0300910503109106032091070359
:10098000309108036C197D098E099F090617170716
:100990002807390708F448C08091BC0083FDD8CFF0
:1009A00085EC8093BC000E947B036B017C018091ED
:1009B0000303813009F440C08091E0028C1710F4E9
:1009C000C091E002EDEBF2E0A3EEB2E080E08C1328
:1009D00055C08C2FDF91CF911F910F91FF90EF9019
:1009E000DF90CF9008958091050390910603A09128
:1009F0000703B0910803892B8A2B8B2B09F484CF32
:100A00000E947B03009105031091060320910703C8
:100A1000309108036C197D098E099F090617170785
:100A20002807390708F070CF809104030E94520410
:100A3000C0E0CFCF85EEB5CF80910503909106033E
:100A4000A0910703B0910803892B8A2B8B2B09F403
:100A5000AECF0E947B030091050310910603209105
:100A60000703309108036C197D098E099F09061749
:100A700017072807390708F09ACFD6CF91919D9391
:100A80008F5FA5CF0895E091A1028091A002E817A1
:100A900030F4F0E0ED51FD4F808190E008958FEF4C
:100AA0009FEF08959091A1028091A0022FEF3FEF58
:100AB000981748F4E92FF0E0ED51FD4F208130E028
:100AC0009F5F9093A102C9010895CF92DF92EF92A8
:100AD000FF920F931F93CF93DF937C01CB018A0189
:100AE0002091BC02222389F0EB016B01C40ED51EBC
:100AF000CC15DD0569F06991D701ED91FC9101906C
:100B0000F081E02DC7010995F3CF642F0E940D04F9
:100B1000C801DF91CF911F910F91FF90EF90DF906F
:100B2000CF900895CF93DF931F92CDB7DEB769833F
:100B30002091BC022223F9F02091B902203258F012
:100B400021E030E0FC013383228390E080E00F90CD
:100B5000DF91CF9108958091BA02E82FF0E0E8513B
:100B6000FE4F998190838F5F8093BA028093B90280
:100B700081E090E0ECCF61E0CE0101960E940D048F
:100B8000F7CFCF92DF92EF92FF920F931F93CF9305
:100B9000DF93D091B90281E0D13208F09CC0C091BE
:100BA000BB020E947B036B017C01809103038111D6
:100BB0006CC082E08093030381E08093E2028FEFB8
:100BC0008093E1021092E002D093DF02A8EEB1E040
:100BD000EDEBF2E080E0D8138DC01092DE02809140
:100BE000DE02CC0FC82BC093DE028091DD02813083
:100BF00009F084C01092DD020E947B036B017C012E
:100C00008091DE028093BB008091050390910603E2
:100C1000A0910703B0910803892B8A2B8B2BA1F09D
:100C20000E947B03009105031091060320910703A6
:100C3000309108036C197D098E099F090617170763
:100C40002807390708F442C08091BC0083FDD8CF43
:100C500085EC8093BC000E947B036B017C0180913A
:100C60000303823009F44CC08091E1028F3F09F404
:100C700069C08091E102803209F466C08091E1028E
:100C8000803309F463C084E026C08091050390910D
:100C90000603A0910703B0910803892B8A2B8B2BA5
:100CA00009F483CF0E947B03009105031091060392
:100CB00020910703309108036C197D098E099F0963
:100CC000061717072807390708F06FCF809104032C
:100CD0000E94520485E01092BA021092B90210925A
:100CE000BC02DF91CF911F910F91FF90EF90DF90A9
:100CF000CF9008959D9191938F5F6DCF85EEA9CF91
:100D00008091050390910603A0910703B091080319
:100D1000892B8A2B8B2B09F4A2CF0E947B03009195
:100D200005031091060320910703309108036C1905
:100D30007D098E099F09061717072807390708F04C
:100D40008ECFC4CF80E0C7CF82E0C5CF83E0C3CFD2
:100D500090E080E00895BF92CF92DF92EF92FF92F1
:100D60000F931F93CF93DF93EC017B018A0184E003
:100D7000B82E6E0186E0C80ED11CEE81FF81048082
:100D8000F581E02DC601099581115BC02D853E8559
:100D90002115310509F451C0EB85FC85309751F0E0
:100DA000215031093E872D8722A533A53C872B870B
:100DB0001CAE1BAE9281913109F04DC09381D801D8
:100DC0009C93248130E0D7012D933C939581911120
:100DD00091E0D80111969C939581992391F190E02F
:100DE00065E02581921768F5492F50E0969FD00164
:100DF0001124EF01CA0FDB1F2E817D01E00EF11ED1
:100E0000D70112962C9312972F8113962C93139738
:100E1000288514962C9379854F5F5F4F649F9001CE
:100E2000659F300D1124200F311FD9017C932A8535
:100E3000D70116962C939F5FD4CFBA94B1109DCF53
:100E400083E0DF91CF911F910F91FF90EF90DF90A2
:100E5000CF90BF90089580E1F4CF2F923F924F92B0
:100E60005F926F927F928F929F92AF92BF92CF923A
:100E7000DF92EF92FF920F931F93CF93DF93CDB743
:100E8000DEB7E3970FB6F894DEBF0FBECDBF6C019F
:100E90008B01DC0117968D919C91009709F454C049
:100EA000F12CE12C039708F0D7C0F12CE12CAA24F7
:100EB000A394B12C0115110509F4CEC0AE01455D16
:100EC0005F4FBE016E5C7F4FD60115968D919C9150
:100ED0000E94AB068111C0C04AA95BA9CA01019753
:100EE0009501082E02C0220F331F0A94E2F7B801C1
:100EF00062237323672BF1F241155105D9F2493072
:100F00005105C4F6880F991FF601E80FF91FA18556
:100F1000B285109779F28CA511968C9311978BA5B9
:100F20008C938CA5882341F085E0FE01BD96129636
:100F300001900D928A95E1F7C9018095909508235B
:100F40001923E22AF32AB6CF4601F12CE12CAA2478
:100F5000A394B12C66246394712C1E01B5E02B0E72
:100F6000311CF2E04F2E512CC5010197F30102C054
:100F7000EE0FFF1F8A95E2F7CF0180239123892B83
:100F800009F45FC0D40119968D919C91892B09F4C5
:100F900058C0F60185819681D101E6E21D92EA955D
:100FA000E9F75A824982F2E1FB83AC82DC011696B2
:100FB000ED91FC910680F781E02DBE016F5F7F4FC0
:100FC00006960995AE01455D5F4FBE016E5C7F4F91
:100FD000F601858196810E94AB0681113DC02AA948
:100FE0003BA9C9010197A301082E02C0440F551F58
:100FF0000A94E2F7BA0160237123672BF9F0880F96
:10100000991FF601E80FF91FA185B2859C918BA568
:101010009817A1F021153105A9F22930310574F492
:1010200087E0FE01BB9601900D928A95E1F7CA0117
:101030008095909508231923E42AF52A2A153B0563
:1010400009F6FFEFAF1ABF0A22E0820E911C39E0C9
:10105000A316B10409F088CFC701E3960FB6F89440
:10106000DEBF0FBECDBFDF91CF911F910F91FF90DB
:10107000EF90DF90CF90BF90AF909F908F907F9038
:101080006F905F904F903F902F900895DC01ED910D
:10109000FC910284F385E02D0995862F0895DC01EB
:1010A000ED91FC910084F185E02D0995862F08953E
:1010B0001F93CF93DF93EC01142F8E819F812A81A0
:1010C00031E03093BC022093BB021092BA0210921E
:1010D000B902DC01ED91FC910190F081E02D0995C0
:1010E000811108C063E070E080E090E0DF91CF9173
:1010F0001F9108958E819F81DC01ED91FC910190FB
:10110000F081E02D612F0995882361F38E819F8105
:101110000E94C10560E070E0CB01E8CF0895462F42
:10112000DC0115968D919C91DC01ED91FC9106807E
:10113000F781E02D65E009941F93CF93DF93EC01D5
:10114000142F89819A81288131E03093BC02209349
:10115000BB021092BA021092B902DC01ED91FC912F
:101160000190F081E02D099589819A81DC01ED9152
:10117000FC910190F081E02D612F099589819A8180
:10118000DF91CF911F910C94C105DC01ED91FC9191
:101190000190F081E02D0994FC0187E094E116169E
:1011A00034F484E098E0613011F484E090E19083BD
:1011B000062E000C770B77FF03C0719561957109BE
:1011C000969FA001979F500D1124840F952F911D7C
:1011D0000895DC01ED91FC910190F081E02D0994DE
:1011E0000F931F93CF93DF938B01C5E8D4E0298140
:1011F0003A81988141E04093BC029093BB021092E7
:10120000BA021092B90294E0899FB00111246A5F7A
:101210007F4FC9010E94E90870E060E089819A81EE
:101220000E94C50870E060E089819A810E94C5082B
:10123000B80189819A810E94C508612F70E0898177
:101240009A810E94C50889819A81DF91CF911F916F
:101250000F910C94C105CF93C0E060E070E18C2F3A
:101260000E94F008CF5FC031C1F7CF9108959F92DF
:10127000AF92BF92CF92DF92EF92FF920F931F93A4
:10128000CF93DF93EC0181E08093BC0284E58093EF
:10129000BB021092BA021092B9026D2F70E086EA7A
:1012A00093E00E94E908BE01772786EA93E00E9456
:1012B000E90886EA93E00E94C10561E084E50E94A6
:1012C00073041092A1028093A00286EA93E00E9428
:1012D0005205C090E004D090E104F6018083609153
:1012E000A8028DEA92E00E94CC08EC01F12CE12CDE
:1012F0001C161D064CF56C2FCF31D1050CF06EE19C
:1013000084E50E947304982E1092A1028093A0029B
:101310005E01FEE1AF1AB1088E018091A10298161C
:1013200059F086EA93E00E9452059FEFE91AF90A04
:10133000F601EE0DFF1D80830150110929F0E50132
:101340000A151B0551F7D4CFDF91CF911F910F9153
:10135000FF90EF90DF90CF90BF90AF909F90089557
:101360000F931F93CF93DF93EC018A018E819F81AE
:101370002A8131E03093BC022093BB021092BA0262
:101380001092B902DC01ED91FC910190F081E02D09
:101390000995811109C063E070E080E090E0DF9181
:1013A000CF911F910F9108958E819F810E94C10559
:1013B00061E08A810E9473041092A1028093A002CE
:1013C000813049F78E819F81DC01ED91FC9102848F
:1013D000F385E02D0995F801808360E070E0CB0192
:1013E000DECF8F929F92AF92BF92CF92DF92EF9219
:1013F000FF921F93CF93DF93EC016A017B0120E002
:1014000030E040E85FE3CB01B6010E94ED2B87FDA1
:10141000A3C020E030EC4AE555E4C701B6010E94C4
:101420001A2F18163CF4C12C30ECD32E3AE5E32EDB
:1014300035E4F32E6B817C818D819E810E94F22B9D
:101440004B015C0120E030E040E855E4C701B60103
:101450000E94532C9B01AC01C501B4010E94332EA4
:1014600020E030E040E05FE30E94C22D20E030E069
:1014700040E85FE30E94C12D6B017C0120E030E079
:1014800040E450E40E94ED2B87FD6DC020E030E089
:101490004FE753E4C701B6010E941A2F181634F41F
:1014A000C12CD12C9FE7E92E93E4F92E89819A81F2
:1014B000288131E03093BC022093BB021092BA0223
:1014C0001092B902DC01ED91FC910190F081E02DC8
:1014D00060E0099589819A810E94C10561E0888157
:1014E0000E9473041092A1028093A00289819A81C4
:1014F000DC01ED91FC910284F385E02D0995182F14
:10150000482F4F76406160E0CE010E949C08C701E1
:10151000B6010E94AC2E462F6EEFCE010E949C08B1
:10152000412F60E0CE010E949C0865E070E080E001
:1015300090E00E94A003412F406A60E0CE01DF915D
:10154000CF911F91FF90EF90DF90CF90BF90AF9021
:101550009F908F900C949C08C12CD12C20E8E22EF7
:101560002FE3F22E67CFC12CD12C80E4E82EFE2C85
:101570009DCF8F929F92AF92BF92CF92DF92EF92C8
:10158000FF920F931F93CF93DF931F92CDB7DEB7D8
:101590008C016B01F12CE12CAA24A394B12CC50180
:1015A0000E2C02C0880F991F0A94E2F78C219D210E
:1015B000892B09F43EC0D80115968D919C91DC01D0
:1015C000ED91FC910680F781E02D41E04E0D60E247
:1015D0000995811162C0F80185819681DC01ED9148
:1015E000FC910480F581E02DAE014F5F5F4F61E219
:1015F0000995811152C0498140FF3EC04701880CC6
:10160000991C800E911EF40181859285892B39F4F5
:1016100087E090E00E943129F401928781878981D7
:1016200086958695837090E0D80118969C938E934A
:101630001797BFEFEB1AFB0AE8E0EE16F10409F08A
:10164000AECF64E170E080E090E00E94A003F8017A
:10165000108617826801F9E0CF0ED11CFF24F394A5
:10166000D6018D919D916D01892B29F5F394B9E0F7
:10167000FB12F6CF80E011C041604983D801159676
:101680008D919C91DC01ED91FC910680F781E02D1C
:1016900061E20995882309F4B1CF0F90DF91CF91D2
:1016A0001F910F91FF90EF90DF90CF90BF90AF9080
:1016B0009F908F900895F80185819681DC01ED91CE
:1016C000FC910680F781E02D4F2D60E20995811194
:1016D000E4CFF80185819681DC01ED91FC910480D5
:1016E000F581E02DAE014F5F5F4F61E209958111F9
:1016F000D4CF4981842F86958695837009F4B6CF1F
:10170000437F4983F80185819681DC01ED91FC914D
:101710000680F781E02D61E20995882309F4A6CFC0
:10172000BCCFEF92FF920F931F93CF93DF9300D024
:10173000CDB7DEB78C01DC0115968D919C91009799
:1017400039F0DC01ED91FC910280F381E02D0995E7
:1017500081E090E0F8019483838388E090E00E9428
:101760003129FC01D80112968C9190E0B0E0A0E004
:1017700082839383A483B58389E391E091838083FB
:1017800086EA93E097838683D8011696FC93EE93BE
:1017900015971A8284E0E82EF12CF8018581968154
:1017A000DC01ED91FC910480F581E02DAE014E5FEE
:1017B0005F4F61E00995811103C08A81833031F068
:1017C000B1E0EB1AF10849F781E121C084E0898397
:1017D000F80185819681DC01ED91FC910680F7810D
:1017E000E02D44E064E00995998192FF10C0F80172
:1017F00085819681DC01ED91FC910480F581E02DDD
:10180000AE014F5F5F4F64E00995882369F30F9045
:101810000F90DF91CF911F910F91FF90EF9008955E
:10182000FC0101900020E9F73197AF01481B590BEB
:10183000BC0189E093E00C948B0181E791E00C946A
:10184000100CCF93DF93FC0144815581608171813D
:1018500089E093E00E948B01EC010E941D0C8C0F2B
:101860009D1FDF91CF910895CF93DF930E9478025F
:10187000EC010E941D0C8C0F9D1FDF91CF910895EC
:10188000CF93DF93682F89E093E00E942B02EC0155
:101890000E941D0C8C0F9D1FDF91CF9108958F9298
:1018A0009F92AF92BF920F931F93CF93DF93CDB7C9
:1018B000DEB7A1970FB6F894DEBF0FBECDBF19A259
:1018C000423008F44AE08E010F5D1F4F842E912CA8
:1018D000B12CA12CA50194010E94902DE62FB901F5
:1018E000CA01EA30F4F4E05DD801EE938D01232BB8
:1018F000242B252B79F790E080E0109719F0CD018B
:101900000E94100CA1960FB6F894DEBF0FBECDBF9B
:10191000DF91CF911F910F91BF90AF909F908F90CB
:101920000895E95CE1CFCF92DF92EF92FF92C12C54
:10193000D12C76014AE0C701B6010E944F0C69E044
:1019400089E093E00E942B028FEFC81AD80AE80AB8
:10195000F80A80E1C816D104E104F10459F7FF90B8
:10196000EF90DF90CF900C941D0CCF93DF930E94EB
:10197000100CEC010E941D0C8C0F9D1FDF91CF916C
:101980000895FC0124813581232B39F421E0FB01EA
:101990008081882349F020E007C0808191810E94E6
:1019A000D03121E0892BB9F7822F08950C94CD29ED
:1019B000CF93DF93EC0188819981009711F00E9409
:1019C000CD29198218821D821C821B821A82DF9106
:1019D000CF910895FC0180819181009711F00C94C2
:1019E000CD2908950F931F93CF93DF93EC018DE6DC
:1019F00091E0998388838D819E81009739F0DC0185
:101A0000ED91FC910280F381E02D09958E01075F35
:101A10001F4F6996F801819191918F01009731F0E4
:101A20000E94CD29F8013297118210820C171D07F0
:101A300089F7DF91CF911F910F910895CF93DF9395
:101A4000EC010E94F20CCE01DF91CF910C94CD29D4
:101A50000F931F93CF93DF938C01EB01FC018081E7
:101A600091810097E1F06881798161157105A9F094
:101A7000428153812C813D814217530770F00E94AF
:101A8000D9318C819D81F801958384831D821C82CC
:101A9000DF91CF911F910F9108950E94CD298881E8
:101AA0009981F801918380838A819B8193838283CA
:101AB0008C819D8195838483198218821B821A826E
:101AC000E5CF0C94112D6F927F928F929F92AF92DF
:101AD000BF92CF92DF92EF92FF920F931F93CF931B
:101AE000DF936C01712CD0E0C0E083E191E00E94B3
:101AF000610D082E000C990B781619060CF06DC0BC
:101B00004E018FEF881A980ACE018A5E9E4F0E947E
:101B1000610D682EE82EF12CC70101960E94312933
:101B20008C015C01C95EDE4FC81BD90B8A2D801B5E
:101B3000861548F4CE018A0D9B1D0E94610DF501AA
:101B400081935F01F3CFE401CE0DDF1D5801AE0C90
:101B5000BF1CF5011082B601C8010E94D031892B4B
:101B600009F501151105A9F5CE01895E9E4F0E9468
:101B7000610D8093A802682F8DEA92E00E94CC0844
:101B8000CE018A5E9E4FDF91CF911F910F91FF9002
:101B9000EF90DF90CF90BF90AF909F908F907F900D
:101BA0006F900895F501319780818C3449F4A70135
:101BB00041505109B601C8010E94E031892B89F2D8
:101BC0000115110519F0C8010E94CD2924967394BE
:101BD0008CCFC8010E94CD29C7CF82E292E00E943B
:101BE000340C8FEF9FEFCFCF1F93CF93DF93EC0198
:101BF0000E94610D182FCE0101960E94610D90E0A8
:101C0000982F8827810F911DDF91CF911F91089503
:101C1000CF92DF92EF92FF920F931F93CF936A01BF
:101C20007B01082F10E0C801805B9F4F880F991F30
:101C30000E94F40DBC01990F880B990B0E94F42BA4
:101C400020E030E04AE754E40E94332EA7019601D9
:101C50000E94532C6B017C0182E191E00E94610D96
:101C6000C82FC8010E94610D182F8AE0C89FB001DB
:101C70001124072E000C880B990B0E94F42BA7014E
:101C800096010E94C22D0E94AC2E812FCF911F91F0
:101C90000F91FF90EF90DF90CF900C94F00890E0C0
:101CA000C096880F991F860F911D880F991F0C945D
:101CB000F40D7F928F929F92AF92BF92CF92DF925C
:101CC000EF92FF920F931F93CF93DF93B82E6A0189
:101CD000D62FC72F60E00E944F0EBC01990F880BD2
:101CE000990B0E94F42B7B018C0161E08B2D0E94EB
:101CF0004F0EBC01990F880B990B0E94F42B762E86
:101D0000872E982EA92E96014D2F5C2F0E94ED2B29
:101D100087FF71C0772D682D992D8A2D272F362F9B
:101D2000492F582FB701C8010E941A2F181694F096
:101D300096014D2F5C2F672D782D892D9A2D0E94AD
:101D4000ED2B76010D2F1C2F87FF04C0E72CF82CFC
:101D5000092D1A2DCB2DD0E06E0180E3C80ED11CC9
:101D6000CC0FDD1FCD5FDE4FB701C8010E94A52E4D
:101D700079836883C601880F991F0E94F40DEC01D6
:101D8000C6010E94610D682F880F770B880B990B95
:101D90000E94F42B9701A8010E94532C6B017C0137
:101DA000BE01DD0F880B990B0E94F42B9B01AC0147
:101DB000C701B6010E94C22D0E94A52E072E000C5D
:101DC000880B990B0E94F42B20E030E0A9010E94BF
:101DD000C22DAB01BC018B2DDF91CF911F910F91D3
:101DE000FF90EF90DF90CF90BF90AF909F908F903B
:101DF0007F900C94080E7C2D6D2DCE018FCF2F92ED
:101E00003F924F925F926F927F928F929F92AF928A
:101E1000BF92CF92DF92EF92FF920F931F93CF93D7
:101E2000DF93CDB7DEB72E970FB6F894DEBF0FBEA7
:101E3000CDBF5C016A017B0120E030E0A901CB014C
:101E4000B6010E94ED2B9501205E3F4F39018111B3
:101E500030C089013FE03983D8017E916E918D01B8
:101E6000072E000C880B990B0E94F42BAB01BC01D0
:101E700089810E94590EB981B150B983BF3F61F782
:101E80002E960FB6F894DEBF0FBECDBFDF91CF9177
:101E90001F910F91FF90EF90DF90CF90BF90AF9088
:101EA0009F908F907F906F905F904F903F902F907A
:101EB000089580E290E00E9431298C0183E0882E11
:101EC00081E0982E9801F50170E060E0D4018D91D9
:101ED0009D914D0141915191841B950BD9018D9399
:101EE0009D939D0197FF03C0919581959109681776
:101EF00079070CF4BC01E615F70541F7072E000C35
:101F0000880B990B0E94F42BA70196010E94332E97
:101F10006B017C0120E030E0A9010E941A2F20E033
:101F200030E040E05FE387FD91C0C701B6010E9449
:101F3000C22D0E94A52E7E876D87D12CC12C8D8548
:101F40009E85092E000CAA0BBB0B89879A87AB874D
:101F5000BC87AD85BE85AC15BD050CF47CC04801C1
:101F60001501F12CC6010D2C000CAA0BBB0B8D83A7
:101F70009E83AF83B887D1016D917D911D01072E9E
:101F8000000C880B990B0E94F42B2B013C01ED8572
:101F9000FE8520E030E0A901EF2B09F443C06D81FC
:101FA0007E818F8198850E94F42B2BED3FE049E4E0
:101FB00050E40E94532C69837A838B839C836985C8
:101FC0007A858B859C850E94F42B9B01AC016981ED
:101FD0007A818B819C810E94332E0E942E2E20E0DC
:101FE00030E040E85FE30E94C22D20E030E040E0B6
:101FF0005FE30E94532C69837A838B839C83D40193
:102000006D917C91072E000C880B990B0E94F42B8C
:102010009B01AC0169817A818B819C810E94532C48
:102020009B01AC01C301B2010E94C22DAB01BC01F6
:102030008F2D0E94590EF394B2E08B0E911CE0E1BB
:10204000FE1299CFFFEFCF1ADF0A83CFC701B60187
:102050000E94C12D6ECF0115110509F411CFC801E1
:102060002E960FB6F894DEBF0FBECDBFDF91CF9195
:102070001F910F91FF90EF90DF90CF90BF90AF90A6
:102080009F908F907F906F905F904F903F902F9098
:102090000C94CD292F923F924F925F926F927F9234
:1020A0008F929F92AF92BF92CF92DF92EF92FF9268
:1020B0000F931F93CF93DF93CDB7DEB72F970FB654
:1020C000F894DEBF0FBECDBF4C016D8369017A016C
:1020D000202F30E03A83298320E030E0A901C701B6
:1020E000B6010E94ED2B81111DC01FE0812F012E32
:1020F000000C990BA981BA818A179B070CF419C1AE
:10210000880D991DFC016081062E000C770B880B51
:10211000990B0E94F42BAB01BC01812F0E94590E38
:102120001150E4CF80E190E029813A81821B930B2A
:10213000811530E4930770F5880F991F0E943129AB
:102140005C01E981FA81EE0FFF1FCF018D5F9E4F89
:102150003C012501D401402F70E060E04031E8F4FB
:10216000F301819191913F012D915D8125039001B2
:102170001124821B930BF201819391932F0197FFFE
:1021800003C0919581959109681779070CF4BC01FA
:102190004F5FE4CF8FEF9FEFD1CF072E000C880B5E
:1021A000990B0E94F42BA70196010E94332E6B011C
:1021B0007C0120E030E0A9010E941A2F20E030E0ED
:1021C00040E05FE387FD8BC0C701B6010E94C22DCE
:1021D0000E94A52E1B011F861E86CB01770FAA0B1E
:1021E000BB0B8A879B87AC87BD87AE85BF852A16C8
:1021F0003B060CF480C0BA82A9829C828B82102F8D
:10220000CD01092E000CAA0BBB0B8E839F83A887E0
:10221000B987103108F068C0AB81BC816D91BC8377
:10222000AB832D816203B0011124072E000C880BB3
:10223000990B0E94F42B6B017C0120E030E0A90196
:1022400021143104E1F16E817F81888599850E9496
:10225000F42B2BED3FE049E450E40E94532C2B017A
:102260003C016A857B858C859D850E94F42B9B01B2
:10227000AC01C301B2010E94332E0E942E2E20E039
:1022800030E040E85FE30E94C22D20E030E040E013
:102290005FE30E94532C2B013C01A981BA816D910F
:1022A0007C91072E000C880B990B0E94F42B9B014C
:1022B000AC01C301B2010E94532C9B01AC01C701C8
:1022C000B6010E94C22DAB01BC01812F0E94590EA4
:1022D0001F5FE981FA813296FA83E9839ACFC701B9
:1022E000B6010E94C12D74CF2E853F852F5F3F4FD1
:1022F0003F872E877ACFA114B104D9F0C5012F965C
:102300000FB6F894DEBF0FBECDBFDF91CF911F9106
:102310000F91FF90EF90DF90CF90BF90AF909F9084
:102320008F907F906F905F904F903F902F900C9484
:10233000CD292F960FB6F894DEBF0FBECDBFDF912B
:10234000CF911F910F91FF90EF90DF90CF90BF90B2
:10235000AF909F908F907F906F905F904F903F9045
:102360002F9008950F93CF93DF93E091E004F091C5
:10237000E1046081C4EAD2E06C838DEA92E00E94BD
:10238000CC080E943E011092A3021092A2022D815D
:102390003E814F8158850A896E858B899C890E9470
:1023A0004A10DF91CF910F910895FF920F931F93E1
:1023B000CF93DF938C01FC0101900020E9F7329765
:1023C00080818C3409F4CEC0823509F0CDC087EE0F
:1023D0008093A702C8010E94630DEC01CF3FDC0788
:1023E00009F40CC1CE010E94610DF82ECE010296B7
:1023F0000E94F40DEC0189E4F812B8C0CE010E94ED
:1024000037090E943E0164E771E0C8010E94D031A3
:10241000892B09F4C5C08091A802813009F0C0C0A1
:102420000E94FE2A24E630E040E050E00E94272D82
:102430000E94F42B20E030E040E251E40E94332E71
:1024400020E030E040EA50E40E94C12D60939C02FD
:1024500070939D0280939E0290939F028091A802A8
:1024600082300CF4A6C08091A70287FFB1C0809192
:10247000AE029091AF029195819591099093AF0230
:102480008093AE0290E080E04091A802242F042EB9
:10249000000C330B37FF03C03195219531098217AA
:1024A00093070CF095C042301CF54091AD02489F57
:1024B0009001499F300D1124E091B702F091B802CC
:1024C000E20FF31F2081219520832091AD02289FE8
:1024D000F001299FF00D11249F012E5F3F4FE091E5
:1024E000B702F091B802E20FF31F208121952083FB
:1024F0002091A80260E022300CF462E0E62FF0E0C8
:102500002091A80222300CF47FC024E030E04091FA
:10251000B7025091B802E217F3070CF078C09F01A0
:10252000220F331F7091AD02789FF001799FF00D5B
:102530001124E20FF31FE40FF51F408151815083F6
:102540005091AD02589FD001599FB00D1124E091D8
:10255000B702F091B802E20FF31FEA0FFB1F4183AD
:102560006F5FCCCF89E134CF80E032CF6091A80299
:102570008DEA92E00E94CC082091E0043091E104C1
:10258000D901C21BD30BFE01EA0FFB1FAD01421B99
:10259000530B481759070CF034CFE491ED93F3CF68
:1025A00010929C0210929D0210929E0210929F0225
:1025B00055CF0E94FE2A24E630E040E050E00E9421
:1025C000272D60FF05C080919B02833609F04FCF15
:1025D0001092A3021092A2022091A9023091AA02A5
:1025E0004091AB025091AC020091B6026091B202F0
:1025F0008091B7029091B8020E944A10DF91CF916A
:102600001F910F91FF90089528E030E080CF019650
:102610003BCF0F931F93CF93DF93EC018B010E946D
:10262000112D081721F0602FCE010E94192D21963F
:10263000CE010E94112D181721F0612FCE010E94AA
:10264000192D65E070E080E090E0DF91CF911F915F
:102650000F910C94A0030E94BA310F931F93CF9354
:10266000DF93EC0188819981009759F02A813B81A1
:102670002617370730F081E0DF91CF911F910F913E
:1026800008958B016F5F7F4F0E94FD30009759F0D6
:10269000998388831B830A832C813D81232B59F7DF
:1026A000FC011082E8CF80E0E7CFEF92FF920F931A
:1026B0001F93CF93DF936115710541F480E0DF91A3
:1026C000CF911F910F91FF90EF9008954115510503
:1026D000B1F07B01EC010C811D81040F151FB801C5
:1026E0000E942D13882351F3288139818C819D818B
:1026F000B701820F931F0E94D9311D830C8381E0A3
:10270000DECFEF92FF920F931F93CF93DF93EC01F5
:102710007B018A01BA010E942D1381110BC0CE01E9
:102720000E94D80CCE01DF91CF911F910F91FF90A5
:10273000EF9008951D830C83B701888199810E94D1
:10274000D931F0CFFB01DC0111961C921E92139639
:102750001C921E92129715961C921E921497861721
:10276000970759F0608171816115710521F04481ED
:1027700055810C9481130C94D80C0895FB010190A1
:102780000020E9F73197AF01461B570B0C948113DA
:102790000F931F93CF93DF93CDB7DEB762970FB63A
:1027A000F894DEBF0FBECDBF8C01CB01F8011182C2
:1027B000108213821282158214824AE0BE016F5F7A
:1027C0007F4F0E94B02BBE016F5F7F4FC8010E94F8
:1027D000BE1362960FB6F894DEBF0FBECDBFDF9179
:1027E000CF911F910F910895FC01118210821382E5
:1027F000128215821482FB0101900020E9F73197C3
:10280000AF01461B570B0C948113EF92FF920F936D
:102810001F93CF93DF9300D0CDB7DEB78C01E62EA8
:102820006CEC71E00E94F41389E093E00E94DF03F6
:102830000E2C000CFF0897FD12C08E159F0579F035
:1028400089831A8241E050E0BE016F5F7F4FC8016B
:102850000E94551389E093E00E94DF03ECCFC8018A
:102860000F900F90DF91CF911F910F91FF90EF90FC
:102870000895EF92FF920F931F93CF93DF93EC0194
:102880008B01198218821B821A821D821C82CB0145
:102890000E947B2B7C01BC01CE010E942D13811173
:1028A00009C0CE01DF91CF911F910F91FF90EF9062
:1028B0000C94D80CFD82EC82B80188819981DF915B
:1028C000CF911F910F91FF90EF900C94742B85ED99
:1028D0008093BC008091050390910603A0910703AB
:1028E000B09108030796A11DB11D23E0B695A795E9
:1028F000979587952A95D1F72091BC0024FD03C0B8
:1029000010920303089540910503509106036091CE
:10291000070370910803452B462B472B69F300975B
:10292000A105B10541F025E32A95F1F700000197D3
:10293000A109B109E1CF809104030C9452042F92B4
:102940003F924F925F926F927F928F929F92AF923F
:10295000BF92CF92DF92EF92FF920F931F93CF938C
:10296000DF93CDB7DEB766970FB6F894DEBF0FBE24
:10297000CDBF69877A878B879C872D873E874F8756
:10298000588BC801EE8A10E088248A94982C540150
:1029900068E4462E68EE562E66246394712C05E09A
:1029A0007FE3272E71E0372E9C01990F440B550BC6
:1029B000298B3A8B4B8B5C8B6D857E858F859889B7
:1029C0000E94AC2E6D837E838F83988720E030E059
:1029D000A90169857A858B859C850E94ED2B8823CA
:1029E00009F499C129853A854B855C8563E67CE9C4
:1029F00087E89FE30E941F2F20E030ED42E854E477
:102A00000E94532C0E94AC2E6B01809100018530F6
:102A100009F06AC0E2E6F1E0F491FD8BF7FDD9C15F
:102A200061E085E00E943603FD89FF2321F02D89B6
:102A3000223009F024C1F12CE12C60E072E18AE738
:102A400090E0A70196010E94272D29833A834B83AA
:102A50005C83DA01C9010197A109B1098F3F910592
:102A6000A105B10509F00CF4F0C060E472E48FE058
:102A700090E0A70196010E94272D215031094109BC
:102A800051098D89823009F0A2C082E02F3F3105C3
:102A90004105510509F00CF48CC160E970ED83E04B
:102AA00090E0A70196010E94272D2150310941098C
:102AB000510983E02F3F31054105510509F00CF420
:102AC00078C1C301B201A70196010E94272D2150B0
:102AD0003109410951092F3F31054105510511F0D7
:102AE0000CF092C084E065C18F3F09F072C1009381
:102AF0000001E2E6F1E0F491FD8BFF3F09F469C1CA
:102B0000F13029F158F0F23009F43FC03D8937FD2A
:102B100060C161E085E00E94360389CF14BC15BC1A
:102B200084B5826084BD85B5816085BDF1018491E5
:102B3000E82FF0E0EE0FFF1FE05DFE4F85919491CE
:102B4000E3E5F1E084918093DF011D8A69CF109263
:102B500080001092810080918100886080938100C4
:102B600080918100816080938100F1018491E82F40
:102B7000F0E0EE0FFF1FE05DFE4F85919491E3E5DD
:102B8000F1E084918093DE014BCF1092B00010925F
:102B9000B1008091B00082608093B0008091B1005C
:102BA00081608093B100F1018491E82FF0E0EE0F95
:102BB000FF1FE05DFE4F85919491909356028093A4
:102BC0005502E3E5F1E084918093570229CF2F3F2E
:102BD00031054105510509F00CF44FC0C301B201A4
:102BE000A70196010E94272D215031094109510961
:102BF0009D89992309F4AFC02F3F31054105510547
:102C000011F00CF0B0C06ECF64E274EF80E090E0A1
:102C1000A70196010E94272D215031094109510930
:102C200085E02F3F31054105510509F008F4C1C089
:102C300062E17AE780E090E0A70196010E94272DEB
:102C400021503109410951099DC09C0181E0FD8954
:102C5000F111AFC095B5987F892B85BD27BD8092B6
:102C6000E4019092E501A092E601B092E701809123
:102C70006E00826080936E00ACC082E0E8CFF12CE1
:102C8000E12C60E072E18AE790E0A70196010E94E2
:102C9000272D215031094109510991E021153105B4
:102CA00081E0480751055CF0C301B201A70196011C
:102CB0000E94272D215031094109510993E0ED89E6
:102CC000E13009F07CC080918100887F892B80935E
:102CD000810030938900209388008092E0019092D7
:102CE000E101A092E201B092E30180916F00826065
:102CF00080936F006EC02093B30080925802909230
:102D00005902A0925A02B0925B02809170008260D8
:102D1000809370005EC06D817E818F8198850E9456
:102D2000A00357C084E02F3F31054105510509F04C
:102D300008F490CF29813A814B815C818AE05595D6
:102D40004795379527958A95D1F721503109410943
:102D5000510985E07FCF83E02F3F310541055105C3
:102D600009F00CF477CF62E17AE780E090E0A70108
:102D700096010E94272D2150310941095109ED8901
:102D8000EE2381F286E02F3F31054105510589F0A0
:102D900080F029813A814B815C819AE05595479575
:102DA000379527959A95D1F7215031094109510955
:102DB00087E09091B100987F892B8093B100FD89C5
:102DC000F13009F486CFF23009F495CFFF2309F4EE
:102DD00045CF6D817E818F8198850E94A00385E01B
:102DE0000E940A0369897A898B899C890E94A003C1
:102DF0001F5F2E892113E0CD66960FB6F894DEBFD3
:102E00000FBECDBFDF91CF911F910F91FF90EF903B
:102E1000DF90CF90BF90AF909F908F907F906F90FA
:102E20005F904F903F902F9008954F925F926F92D6
:102E30007F928F929F92AF92BF92CF92DF92EF924A
:102E40000F931F93CF93DF93D82E192F0E94610DFC
:102E50008695CD2DD12FB12CA12CC82ED12C88EE4A
:102E6000882E83E0982E2197AC14BD044CF5CE013A
:102E70008C199D090E94610D782ECE010E94610D72
:102E8000182F672D70E0C4010E94C030072E000C7F
:102E9000880B990B0E94F42B2B013C01612F70E0F1
:102EA00090E080E00E94F22BEE24E39410E000E03A
:102EB000A30192010E949F148FEFA81AB80AD3CFE2
:102EC000DF91CF911F910F91EF90DF90CF90BF9046
:102ED000AF909F908F907F906F905F904F900895EC
:102EE0001F920F920FB60F9211242F933F934F937F
:102EF0005F936F937F938F939F93AF93BF93EF9362
:102F0000FF938091580290915902A0915A02B0917A
:102F10005B02892B8A2B8B2BD1F190915702E09188
:102F20005502F09156028081892780838091580252
:102F300090915902A0915A02B0915B02181619069D
:102F40001A061B069CF48091580290915902A09198
:102F50005A02B0915B020197A109B109809358020E
:102F600090935902A0935A02B0935B02FF91EF91A4
:102F7000BF91AF919F918F917F916F915F914F9191
:102F80003F912F910F900FBE0F901F901895809139
:102F900000010E940A03EACF1F920F920FB60F9210
:102FA00011242F933F934F935F936F937F938F934E
:102FB0009F93AF93BF93EF93FF9389E093E00E94B9
:102FC0000902FF91EF91BF91AF919F918F917F91F6
:102FD0006F915F914F913F912F910F900FBE0F9086
:102FE0001F9018951F920F920FB60F9211242F93D6
:102FF0008F939F93EF93FF93E0911903F0911A033E
:103000008081E0911F03F091200382FD1BC090811D
:10301000809122038F5F8F7320912303821741F0E9
:10302000E0912203F0E0E75FFC4F958F809322034D
:10303000FF91EF919F918F912F910F900FBE0F9065
:103040001F9018958081F4CF1F920F920FB60F92A8
:1030500011242F933F938F939F93AF93BF938091AE
:103060004D0290914E02A0914F02B09150023091CA
:103070004C0223E0230F2D3758F50196A11DB11DF9
:1030800020934C0280934D0290934E02A0934F02E6
:10309000B09350028091510290915202A09153023C
:1030A000B09154020196A11DB11D809351029093DD
:1030B0005202A0935302B0935402BF91AF919F91DB
:1030C0008F913F912F910F900FBE0F901F901895E9
:1030D00026E8230F0296A11DB11DD2CF1F920F9299
:1030E0000FB60F9211242F933F934F935F936F93DB
:1030F0007F938F939F93AF93BF93EF93FF938091B1
:10310000B900887F803609F44AC0F0F5883209F4A6
:10311000A7C018F5803109F49BC0B8F4882309F4DE
:10312000F9C0883009F494C0FF91EF91BF91AF913D
:103130009F918F917F916F915F914F913F912F91CF
:103140000F900FBE0F901F901895883109F488C01A
:10315000803251F78093E10214C0803409F49DC09D
:1031600040F48033B9F38833F9F68093E10285ECBB
:10317000B0C0803509F485C0883509F496C088341C
:1031800099F60E946714D0CF883909F48CC038F5BD
:10319000883729F050F4883611F0803729F683E01B
:1031A0008093030310924B0257C0883809F47BC008
:1031B000803919F0803809F0B7CF80914B02803206
:1031C00008F071C0E0914B0281E08E0F80934B02BA
:1031D0008091BB00F0E0E55DFD4F80833DC0803B0A
:1031E00039F0E0F4803A09F479C0883A09F09CCFCC
:1031F00084E08093030310922A0210922902E09146
:103200005C02F0915D0209958091290281110FC045
:1032100081E0809329021092090209C0803C09F4E0
:10322000A6CF883C09F4A3CF883B09F07DCFE0917D
:103230002A0281E08E0F80932A02F0E0E75FFD4FC3
:1032400080818093BB0090912A028091290229C03D
:103250008091DE028093BB0085EC8093BC0064CF3C
:103260009091E0028091DF02981758F5E091E0021A
:1032700081E08E0F8093E002F0E0E354FD4F808107
:10328000E9CFE091E00281E08E0F8093E00280912F
:10329000BB00F0E0E354FD4F80839091E002809109
:1032A000DF029817C8F285E8D8CFE091E00281E00C
:1032B0008E0F8093E0028091BB00F0E0E354FD4F5D
:1032C00080838091E20281115CCF81E08093DD02F6
:1032D00084EA8093BC001092030326CF85EC809390
:1032E000BC001092030380914B02803230F4E091D5
:1032F0004B02F0E0E55DFD4F108260914B0270E003
:10330000E0915E02F0915F028BE292E009951092EB
:103310004B020ACF1092E10234CF1F920F920FB6E8
:103320000F9211242F933F934F935F936F937F934B
:103330008F939F93AF93BF93CF93DF93EF93FF93BD
:103340002091B30330E0F901E657FE4F8491F90173
:10335000E25BFE4FD491F901E65CFE4FC491CC23B1
:1033600079F081110E94B302EC2FF0E0EE0FFF1F05
:10337000E45EFE4FA591B491EC91ED2381E009F458
:1033800080E02091B8033091B9032F5F3F4F309315
:10339000B9032093B8032091B6033091B7032536C3
:1033A000310518F094E09093B2039091B20391111B
:1033B00030C0811169C02091B8033091B90324361F
:1033C000310528F41092B9031092B8035DC0109231
:1033D00084041092B7031092B6032091B603309183
:1033E000B703A9014F5F5F4F5093B7034093B603F4
:1033F0004091B8035091B903220F331FF901E654ED
:10340000FC4F518340831092B9031092B80391E0AE
:1034100021C09091B203913001F58130A9F520913E
:10342000B6033091B703A9014F5F5F4F5093B703C5
:103430004093B6034091B8035091B903220F331F54
:10344000F901E654FC4F518340831092B903109266
:10345000B80392E09093B20317C09091B2039230F8
:1034600061F4882309F4B9CF2091B8033091B903EE
:103470002536310548F093E0EDCF9091B2039330BB
:1034800099F4882309F49ECF9091B5039923A9F06C
:10349000811126C08091B403882371F08091B40318
:1034A00061E00E94DC0209C09091B203943061F7A0
:1034B00091E090938404DFCF2D9AFF91EF91DF91FB
:1034C000CF91BF91AF919F918F917F916F915F91BC
:1034D0004F913F912F910F900FBE0F901F90189515
:1034E0008091B403882321F08091B40360E0D9CFA8
:1034F0002D98E3CFCF93DF93E9E0F3E013821282BC
:1035000088EE93E0A0E0B0E084839583A683B78340
:1035100029E431E03183208325EC30E035872487AE
:1035200024EC30E03787268720EC30E0318B208B8D
:1035300021EC30E0338B228B22EC30E0358B248B76
:1035400026EC30E0378B268B118E128E138E148E64
:10355000C6EAD3E01B821A828C839D83AE83BF832D
:103560008BE591E0998388838AE090E00E9431297D
:103570009093E5048093E40482E090E00E94312976
:103580009093E3048093E20482EC91E00E9431295D
:103590009093E1048093E004E2EBF3E084E0818324
:1035A00013826AE771E08AED94E00E94F413E1EC83
:1035B000F4E04DE651E05183408380E582832FEFB4
:1035C00030E034832383168215821086178280E1CF
:1035D000EAECF4E0DF01982F1D929A95E9F7E8EA0A
:1035E000F4E05183408390E69283348323831682F0
:1035F000158210861782E1EBF4E0DF011D928A95B7
:10360000E9F76DE771E08CE994E00E94F41362E859
:1036100071E082EA94E00E94F413EBE8F4E081E1C7
:10362000DF011D928A95E9F7E5E8F4E080E4808304
:10363000D283C183DF91CF910895CF93DF93CDB72C
:10364000DEB7EA970FB6F894DEBF0FBECDBF789411
:1036500084B5826084BD84B5816084BD85B5826097
:1036600085BD85B5816085BD80916E008160809348
:103670006E001092810080918100826080938100B1
:1036800080918100816080938100809180008160C1
:10369000809380008091B10084608093B10080911C
:1036A000B00081608093B00080917A008460809344
:1036B0007A0080917A00826080937A0080917A000B
:1036C000816080937A0080917A00806880937A008C
:1036D0001092C100E0911903F0911A0312E01083D7
:1036E000E0911503F09116031082E0911703F09119
:1036F000180380E1808310922103E0911D03F09173
:103700001E0386E08083E0911B03F0911C038081FF
:1037100080618083E0911B03F0911C0380818860AD
:103720008083E0911B03F0911C038081806880837B
:10373000E0911B03F0911C0380818F7D808385E0E5
:1037400090E0A0E0B0E080930D0390930E03A0936F
:103750000F03B093100388E891E00E94340C10929C
:10376000A1021092A0021092BA021092B9020E9415
:10377000340488E891E090935D0280935C0289E8CC
:1037800091E090935F0280935E0288E18093B8009D
:10379000F8941092800089E08093810080E293E0A9
:1037A0009093890080938800109285001092840085
:1037B00010936F0078941092B2031092B703109296
:1037C000B6038091B30360E00E94360364E070E0CA
:1037D0008AED94E00E942D1361E08AE00E94360396
:1037E00087E891E00E94B50C17E8E12E12E0F12E77
:1037F00000E110E0C8010E94610DD7018D937D01A9
:103800000F5F1F4F00321105A9F71092A10210920D
:10381000A0021092BA021092B9020E94340488E801
:1038200091E090935D0280935C0289E891E090932F
:103830005F0280935E0240E860E085E894E00E94C9
:103840009C086AE070E080E090E00E94A00340E005
:1038500050E06AE774E485E894E00E94F109B0E47E
:10386000CB2EB8E7DB2EBDE7EB2EFF24F394C092FE
:103870008804D0928904E0928A04F0928B0440E09C
:1038800050E060EA73E485E894E00E94F109C09298
:103890008E04D0928F04E0929004F0929104C09232
:1038A0008804D0928904E0928A04F0928B040E94EA
:1038B0002B0980E00E946703BC01990F880B990BCC
:1038C000611571058105910511F00E944D2B83E66C
:1038D00091E00E94340C90E080E08C010F5F1F4F5C
:1038E0008A5E9E4F0E94610D080F111DC8018A5EFD
:1038F0009E4F0E94610D8E3419F0C8010496EDCFE1
:1039000068E071E0C801885E9E4F0E9409138091B3
:10391000C4049091C504019709F088C083E991E03F
:103920000E94B50C81EC94E0909382028093810216
:10393000E0918302F0918402EE0FFF1FEF5CFE4FD7
:103940006081718180918102909182020E94B90A06
:103950000E94D30360937D0270937E0280937F0266
:10396000909380028FEF93E00E94151760ED77E04F
:1039700080E090E00E94A0038DE791E00E94340C6B
:1039800086E791E00E94340C8FE691E00E94340CAF
:1039900073E6C72ED12CAA24AA94B12C85E10E94EB
:1039A00067037C018A3892400CF0C3C080916002AA
:1039B00090916102E816F90609F0BBC08EE991E02A
:1039C0000E947802C701B6010E94C0302B01072E69
:1039D000000C6608770877FF52C06DE289E093E03B
:1039E0000E942B0266277727CB0164197509860987
:1039F00097094AE00E944F0C86E50E94400C81ED39
:103A000093E00E9415178824839499249394850148
:103A10000919110961E08AE00E94360301151105B8
:103A200091F560E08AE00E94DC0251C081EC94E0F4
:103A30000E94910B882309F471CF82EA91E00E94E1
:103A4000B50C8091AB049091AC04019789F483E9A3
:103A500091E00E94B50C88EA94E0909382028093F2
:103A6000810268EE73E080E090E00E94A00360CFE6
:103A700088EA94E00E94910B8111F3CFE8CF4AE0ED
:103A8000C301B201B7CFE4E9F1E084918330B9F129
:103A900050F48130C1F0823069F1003811050CF426
:103AA000C0CF61E0BFCF8730A1F18830D1F1843041
:103AB000A1F78091800080628093800010938B003A
:103AC00000938A0004C084B5806884BD07BDFFEF01
:103AD0009F1202C088248A9465E070E080E090E044
:103AE0000E94A003980C09F092CFF0926102E0923C
:103AF000600254CF84B5806284BD08BDE8CF809158
:103B00008000806880938000109389000093880073
:103B1000DECF8091B00080688093B0000093B30046
:103B2000D6CF8091B00080628093B0000093B40043
:103B3000CECFF0926102E09260028AEB93E0909324
:103B4000700280936F028091B6039091B7039093B7
:103B50007202809371028091840490E090937402C9
:103B6000809373028091B203833009F093C08091F7
:103B7000BC039091BD03875891098E35910508F0DB
:103B800083C08091B6039091B703049709F04BC0AE
:103B90008091BE039091BF038097479708F043C080
:103BA0008091C0039091C10309970997E0F51092A5
:103BB0006E0210926D022FEF3FEFA9012093670272
:103BC000309368024093690250936A0283E090E068
:103BD00090936402809363028091670290916802DF
:103BE000A0916902B0916A02892F9A2FAB2FBB274F
:103BF000823609F463C108F037C1803309F46DC11E
:103C000008F01CC1803109F471C108F0C5C06AED2B
:103C100071E0823009F4C8C06CEC71E0CE0181968D
:103C20000E94F413C5C08091B6039091B703843409
:103C3000910550F18091BE039091BF038154910989
:103C40008F9710F530E020E080E090E0DC01F90192
:103C5000E054FC4F40815181495051094930510590
:103C600098F4F901EE53FC4F4081518147515109BD
:103C70004231510508F471C04081518146505109CB
:103C80004730510508F483C01092B2031092B70375
:103C90001092B60389E093E00E94E9011816190614
:103CA0008CF582E080939A0289E093E00E94C7013C
:103CB000182F80939B0261E070E080E090E00E940A
:103CC000A0031B3409F0ABC1E090E004F090E104E4
:103CD00010E000E089E093E00E94E901892B51F0B7
:103CE00089E093E00E94C701F701E00FF11F808394
:103CF0000F5F1F4FF8013197EE0DFF1D80818E374A
:103D000049F7108219A21AA282E08093020118AA30
:103D10001FA680918302909184022FA538A9821753
:103D2000930709F045C3E0908102F0908202F90107
:103D3000EE0FFF1FEF5CFE4F80809180D70113963E
:103D40008D919C91009719F0019709F4BFC1B401BE
:103D5000C7010E942D076C01ADC2880F991FAA1FD1
:103D6000BB1F81602C5F3F4F2038310509F06FCFBA
:103D700020E230E030936E0220936D028093670260
:103D800090936802A0936902B0936A021FCF880FD4
:103D9000991FAA1FBB1FE6CF883109F4A1C062EEAC
:103DA00071E0823209F038CFCE0181960E94391439
:103DB00065EB71E0CE0181960E94C10C882309F465
:103DC000A1C067EB71E08AED94E00E94BE136AED3A
:103DD00074E0CE0187960E94A213CE0181960E94C4
:103DE000EA0C6CEC71E0CE0187960E94C10C811147
:103DF0001AC00091E4041091E5046FA178A5C801F0
:103E00000E94D931D8010D900020E9F7CD01029729
:103E10008017910709F001C1F801808180939B020E
:103E200081E080939A021092B2031092B70310922D
:103E3000B603CE0187960E94EA0C2CCF8A3409F48F
:103E40005BC048F4883309F454C061EB71E08234FC
:103E500009F4AACFE1CE823509F451C064EB71E0D8
:103E60008A3509F4A1CFD8CE823A29F188F48A376D
:103E7000D1F130F46FEC71E0883609F495CFCCCEF7
:103E8000803941F16CEC71E0883909F48DCFC4CEF2
:103E9000823CB9F040F4883AD1F069EC71E0803BA3
:103EA00009F482CFB9CE803E79F064EE71E0823EB3
:103EB00009F47ACFB1CE68EE71E076CF66EE71E0AC
:103EC00073CF68ED71E070CF66ED71E06DCF64ED9A
:103ED00071E06ACF62ED71E067CF66EC71E064CFAC
:103EE00062EC71E061CF6EEB71E05ECF6BEB71E085
:103EF0005BCF68EB71E058CF6EEA71E055CF69EAAD
:103F000071E052CF6AEB71E0CE0181960E94C10C44
:103F1000811110C06CEB71E0CE0181960E94C10C42
:103F2000811108C06EEB71E0CE0181960E94C10C38
:103F30008823D1F18DA19EA1892B21F0E9A1FAA1BD
:103F4000309721F410926202E2E6F2E010811093C1
:103F50000101163431F46AE771E08AED94E00E94C1
:103F6000BE136AED74E0CE0101960E94A2131FA356
:103F700018A641E050E0BE01695D7F4FCE01019679
:103F80000E945513811104C0CE0101960E94D80CE5
:103F9000BE016F5F7F4FCE0187960E94A213CE01B4
:103FA00001960E94EA0C19CF60EC71E0CE01819677
:103FB0000E94C10C81111EC063EC71E0CE0181969C
:103FC0000E94C10C811116C06AE771E0CE01819692
:103FD0000E94C10C81110EC018A61FA21AA619A614
:103FE0001CA61BA6BE016F5D7F4FCE0187960E9467
:103FF000280DF3CE69A17AA16115710549F04DA193
:104000005EA18AED94E00E94811310910101A9CF75
:104010008AED94E00E94D80CF8CF8BE6FFCE89E0C1
:1040200093E00E94E901181619060CF06BCE6CECB7
:1040300071E0CE0181960E94F413193439F084EBBB
:10404000810F823018F06AE0123409F46EE7CE0175
:1040500001960E940514BE016F5F7F4FCE018196CD
:104060000E94280DCE0101960E94EA0C2DA13EA1CE
:10407000309386022093850280919B028B3611F04B
:10408000843789F48091E4049091E50449A15AA110
:10409000DC01FA01BF01641B750B6217730744F45E
:1040A00061916D93F7CF8091E0049091E104EECFA0
:1040B000820F931FDC011C92CE0181960E94EA0CB4
:1040C00021CEE1E0F0E0F8ABEFA723CEF701858148
:1040D0009681DC01ED91FC910480F581E02DAE012B
:1040E0004F5F5F4F6FE10995D12CC12C8111E2C068
:1040F000FEA6EDA6312C212CD12CC12CBB24B394CF
:10410000B20CE1E0F0E0022C02C0EE0FFF1F0A94B7
:10411000E2F7FCABEBABCF0188219921892B09F4A5
:10412000BBC0ADA5BEA51996ED91FC91309709F4E1
:10413000B3C099818081981709F4AEC061E0C701CE
:104140000E948F08F70105811681D801ED91FC913D
:104150000284F385E02D4B2D60E2C80109956111C1
:10416000A9C0D801ED91FC910084F185E02DAE014C
:104170004E5F5F4F64E3C801099561119BC08A815E
:10418000882309F476C0D801ED91FC910084F18573
:10419000E02DAE014F5F5F4F6FE1C80109956111DE
:1041A00089C08A81811181E08A83FE0131965F0195
:1041B000412C512C32018A8190E0B0E0A0E04816F9
:1041C00059066A067B0608F054C0D801ED91FC91AF
:1041D0000284F385E02D41E0440D65E3C8010995B3
:1041E000F5013596FAABE9AB611164C0A5014E5FEC
:1041F0005F4FD801ED91FC910084F185E02D60E4E2
:10420000C8010995A5014D5F5F4FD801ED91FC9163
:104210000084F185E02D61E4C8010995A5014C5F9A
:104220005F4FD801ED91FC910084F185E02D62E4AF
:10423000C8010995D801ED91FC910084F185E02D2C
:1042400049A95AA963E4C8010995A5014A5F5F4FCE
:10425000D801ED91FC910084F185E02D64E4C80162
:104260000995BFEF4B1A5B0A6B0A7B0AA9A8BAA88B
:10427000A2CF60E0C7010E948F08EDA5FEA5A18531
:10428000B28587E0FE01319601900D928A95E1F7A3
:104290002BA93CA9C22AD32A3FEF231A330A4DA5E2
:1042A0005EA54E5F5F4F5EA74DA758E0251631040F
:1042B00009F024CFC820D920CD2809F43FCD80E0D3
:1042C00080FC04C0969487948F5FFACF282F30E04B
:1042D000220F331FE20EF31ED7011996ED91FC91C8
:1042E000309791F1893080F581810091830210919E
:1042F0008402E1E2F0E0EC0FFD1FE00FF11F91E01E
:10430000811101C090E09083882309F451C00E947C
:10431000D30360937D0270937E0280937F0290931B
:1043200080022091810230918202000F111FF8015A
:10433000EF5CFE4F40815181BA0180E060FD06C014
:10434000769567958F5FFACF80E0CFCFE82FF0E0CA
:10435000EE0FFF1FE20FF31F0184F285E02D30976F
:1043600079F0893068F4828190E090937C028093A8
:104370007B0280E040FD06C0569547958F5FFACFDF
:1043800080E0F2CF482F50E0440F551F240F351F17
:10439000D9011996ED91FC91309709F4D5C1893076
:1043A00008F0D2C1838190E090937A0280937902E1
:1043B000EFA5F8A9319709F084CE89A1811104C035
:1043C0008AA1882309F4C4C180917B0290917C0268
:1043D000C29720EE3FEF813AFFEF9F0754F020E2B3
:1043E00030E0803691052CF463E070E00E94C0302C
:1043F0009B018091790290917A02C29768EE7FEFDB
:10440000893B4FEF94074CF068E170E088349105E8
:1044100024F463E070E00E94C030C90137FF04C09B
:1044200088279927821B930B039754F4CB0177FFBE
:1044300004C088279927861B970B03970CF4F9C0B3
:104440000091770210917802021B130B0B351105B6
:1044500014F00AE510E0063A5FEF150714F406EAD7
:104460001FEF1093780200937702E0907502F090AE
:104470007602E61AF70A8CE4E816F1041CF02BE445
:10448000E22EF12C95EBE9169FEFF90624F495EB5B
:10449000E92EFF24FA94F0927602E0927502FE0172
:1044A00033968EE0DF011D928A95E9F71A8309831E
:1044B000B701F7FE02C06F5F7F4F759567957195E5
:1044C000619571099B01245C3F4FC80166E070E073
:1044D0000E94C030620F731F7A8B698BC8016AEF2C
:1044E0007FEF0E94C030620F731F7C8B6B8BC70104
:1044F00063E070E00E94C030665A7F4FC80117FD2C
:104500000796B3E095958795BA95E1F7FB01E81B0F
:10451000F90BFE8BED8BC80117FD0796A3E095956F
:104520008795AA95E1F7860F971F988F8F8BB70114
:104530000F2C000C880B990B0E94F42B2AE939E907
:1045400049E95FE30E94332E20E030E040E251E48D
:104550000E94C22D4B015C01B80117FF02C06F5FC2
:104560007F4F75956795072E000C880B990B0E945D
:10457000F42B2B013C01AC019B01C501B4010E944D
:10458000C12D0E94A52E7A8F698FA3019201C501CA
:10459000B4010E94C22D0E94A52E7C8F6B8FC70193
:1045A0006DEF7FEF0E94C0306E517109C80117FD99
:1045B00003969595879595958795860F971F9E8F5E
:1045C0008D8F17FF02C00D5F1F4F1595079515952D
:1045D0000795601B710B78A36F8F80E190E090933B
:1045E0008602809385028CE480939B026091E004B4
:1045F0007091E104DB019E012F5F3F4F40E0F90124
:10460000819191919F018F3791050CF09FC0803867
:10461000FFEF9F0714F480E89FEF8D934F5F4031C9
:1046200071F7DB0150961C924093020186E0809363
:104630009A0260919A02662309F433C1F0909B02BA
:10464000653010F5E2E6FE16F9F0FCE4FF16E1F045
:1046500029E4F216C9F08CE88F0D8230A8F070E0E2
:104660006B5F7F4F660F771F072E000C880B990B2F
:104670000E94F42BEE24E39410E000E020E030E010
:1046800048E452E40E949F1480919902835682303C
:1046900030F433E6F31619F087E40E94400C809161
:1046A0009B02803751F080919802811106C081E011
:1046B0008093980280E70E94400C10919B02EEEBE1
:1046C000E10FE93308F093C00E2E000CFF0BE55903
:1046D000FC4D0C94D4305427F723F723F723F7230A
:1046E000F723F723FC26F723A3274227FC26F723EB
:1046F000F723F723F723F723F7239327F723F7234A
:10470000F723F723F723F723F723F723F723F723D9
:10471000F723F72355256C256C252E28F723F7233F
:10472000F723F7236C25C4241828F7236C25F723D7
:10473000F724B324F723F723FC246C256C25F723F7
:10474000F723F723F723ED2380E02DCE8FE765CF06
:104750000E94D30300917D0210917E0220917F027E
:1047600030918002601B710B820B930B613D77408F
:104770008105910508F45DCF8091830290918402B8
:104780000196817099279093840280938302880F09
:10479000991FFC01EF5CFE4F608171818091810265
:1047A000909182020E94B90A209183023091840282
:1047B00046E0429FC001439F900D112484569B4FB9
:1047C0000E94210C0E94D30360937D0270937E02AD
:1047D00080937F02909380022CCF8091970291E08A
:1047E00089278093970281111AE510939B0280918B
:1047F0009B028B3621F49091A8021916E4F40E94D2
:10480000400C10919B02812F012E000C990B0E94ED
:10481000BF31873631F0863721F0823611F01A36F3
:1048200021F4809199028B3619F01B7F103719F40F
:104830008BE680939B02E090E404F090E50462ED47
:1048400071E0C7010E94D03110919B02892B01F1C8
:104850001934F1F085EB810F8330D0F08091E204C0
:104860009091E304009711F00E94CD2981E090E03F
:104870000E943129F70101900020E9F7EE19DC01CF
:10488000EC939093E3048093E204B7010E94D93142
:1048900010929A0210939902177F133611F010921A
:1048A0009B0280919B028B3609F072C41091A80282
:1048B00017FFE6C3D090B502DA9410E082E3C82E69
:1048C000212F30E08091A802082E000C990B97FF51
:1048D00003C0919581959109281739070CF058C4A8
:1048E000E090B702F090B8028091AD02189FE00C02
:1048F000F11C1124F7016089062E000C770B880B40
:10490000990B0E94F42B20E030E040E85EE30E9427
:10491000532C9B01AC0100E06091B202C7010E94E0
:104920004A108091AD02E091B702F091B802189F51
:10493000E00DF11D11242189022E000C330BAC2D4A
:104940000C2C000CBB0B0E94DA300E94A00380915B
:10495000B402181306C01D1424F41091B3021150B0
:10496000DA941F5FADCF8091980291E0811190E0C1
:1049700090939802811110E510939B02882309F40B
:1049800036CF0E942B0933CF0E94930C6CEC71E060
:10499000CE0181960E94F41303E011E0D8016D91DD
:1049A0007D918D01CE0101960E94C8134D815E81DB
:1049B00069817A81CE0181960E945513CE010196BC
:1049C0000E94EA0C42E050E06AEC71E0CE01819670
:1049D0000E945513B1E003321B0701F7CE01819607
:1049E0000E94210CCE0181960E94EA0C00CF86EC39
:1049F00093E00E941517FBCE8CE192E00E94340CEC
:104A000097E8892E92E0992E20E4E22EF12C00E125
:104A100010E0F401D1904F01C8010E94112DD81669
:104A200021F06D2DC8010E94192DC7010E94F40DBF
:104A30006C01C80180960E94610DB82EF401319777
:104A40006081062E000C770B880B990B0E94F42BCB
:104A50002B013C016B2DBB0C770B880B990B0E9433
:104A6000F42B9B01AC01C301B2010E94532C2B011A
:104A70003C01B601DD0C880B990B0E94F42B9B01C5
:104A8000AC01C301B2010E94C22D0E94A52EC70134
:104A900080960E9409130F5F1F4FF2E0EF0EF11C8A
:104AA0000032110509F0B5CFA2CE84E192E00E9458
:104AB000340C07E812E080E1E82EF12CC7010E94D7
:104AC000610DD8018D938D01BFEFEB1AFB0AE0E277
:104AD000EE16F10499F78BCEE3E0F1E0DE011196DA
:104AE0001D01819191918D939D9321E0E332F20715
:104AF000C1F78091E4049091E504143721F080918E
:104B0000E0049091E10466EC71E00E94842B6C015A
:104B1000C114D10409F4CAC0C6010E94562B8C01ED
:104B200069EC71E090E080E00E94842B6C01F12C34
:104B3000E12C99249394009761F00E94562B7C01FC
:104B400069EC71E090E080E00E94842B6C01B2E09F
:104B50009B2EF801EE0FFF1FE20DF31DF182E082A4
:104B600080919B02833609F0A7C010929702809132
:104B70009902833661F0A090E404B090E50464E704
:104B800071E0C5010E94D931C5010E94D511A8016B
:104B900049575D4F5A0152E0951202C0D501EC927F
:104BA000C8018096880F991F0E94F40D7C01C801EE
:104BB0009927C0960E94610D182FF5016081062E7D
:104BC000000C770B880B990B0E94F42B4B015C01B6
:104BD000612F110F770B880B990B0E94F42B9B010F
:104BE000AC01C501B4010E94532C4B015C01B7011B
:104BF000FF0C880B990B0E94F42B9B01AC01C501A3
:104C0000B4010E94C22D0E94A52E072E000C880B15
:104C1000990B0E94F42BAB01BC01802F0E94080E5F
:104C20000E94930C6CEC71E0CE0187960E94F41305
:104C300007E812E0D8016D918D01062E000C770B6C
:104C4000CE0181960E94C8134DA15EA169A17AA1EF
:104C5000CE0187960E945513CE0181960E94EA0CE0
:104C600042E050E06AEC71E0CE0187960E94551355
:104C7000E7E9F2E0E017F107E9F6CE0187960E9436
:104C8000210CCE0187960E94EA0CC114D10409F0D0
:104C90003FCF80919B02893609F0A9CD40E050E0DA
:104CA00060E070E4C1010E94FF0EA1CDF12CE12C67
:104CB00010E000E0912C4DCF8D3641F440E050E003
:104CC00060E070E4C1010E94FF0EDFCF8437E9F29B
:104CD000853709F077C00E94A22A6AE070E00E943E
:104CE000C030845289AB0E94A22A6AE070E00E9420
:104CF000C0308E528FA70E94A22A8C010E94A22A45
:104D000062E070E00E94C0308F5F8BABC80164E04E
:104D100070E00E94C0300296282F220F220F280F29
:104D200030E0A8EEB3E00E94B22D6DAB7EAB8FAB4E
:104D300098AF10E03FA5232F30E03AAF29AF4BA941
:104D4000141708F0A2CF0FA5F12CE12C59A90517D3
:104D5000B8F589AC9AAC8E0C9F1CC401880F991FC2
:104D6000880F991FDC011597BEA7ADA7880C991C69
:104D7000B12CA12C412C512C32012DA93EA94FA9B7
:104D800058AD4216530664067506ACF461E085E042
:104D90000E94DC028DA59EA50197F1F760E085E0F9
:104DA0000E94DC028DA59EA50197F1F7480C591CC5
:104DB0006A1C7B1CE2CF0F5F3FEFE31AF30AC6CFFA
:104DC0001F5FBDCF823609F060CFB701FF0C880BA3
:104DD000990B0E94F42B4B015C01B801110F880B59
:104DE000990B0E94F42BEE24E39402E310E0A5015A
:104DF00094010E949F1449CFE3E0F1E0DE01119697
:104E000083E291E08D01219131912D933D938E1795
:104E10009F07C9F7F12CE12C20919B02809185021C
:104E200090918602E816F906FCF4A091E004B09196
:104E3000E104AE0DBF1DEC91EE0FFF0BE00FF11F73
:104E400011968C91082E000C990B918380832D3440
:104E500039F440E050E060E070E4C8010E94FF0EC9
:104E600042E0E40EF11CD8CF293409F0C0CC6091A7
:104E7000020170E090E080E00E94F22BAB01BC01E7
:104E8000C80111CF6091020170E090E080E00E94C3
:104E9000F22B9B01AC0100E061E08091E004909175
:104EA000E1040E944A10A3CCF12C68EEC62E63E008
:104EB000D62E2F2D30E0809185029091860297FDAD
:104EC000019695958795281739070CF0B1C1009187
:104ED000E0041091E104220F331F020F131FD801C9
:104EE00011966C91062E000C770BC6010E94C03003
:104EF000072E000C880B990B0E94F42B4B015C01D0
:104F0000F8016081062E000C770B880B990B0E942C
:104F1000F42BEE24E39410E000E0A50194010E943C
:104F20009F14F394C6CF84E191E00E94F40D0E9497
:104F300037090E94B21180919B020E94400C8BE6BF
:104F400080939B0254CCA090E004B090E10484E1F3
:104F500091E00E94F40D8C01D5016C916093A80240
:104F60008DEA92E00E94CC0801967C01D12CC12CE4
:104F70005524539424E5422E1E141F049CF5509290
:104F8000BC024092BB021092BA021092B902612F89
:104F900070E086EA93E00E94E908B801772786EA84
:104FA00093E00E94E90845018C0C9D1C3801B0E19A
:104FB0006B0E711C0115E0E21E07B9F40E941D0C76
:104FC0008AEE91E00E94340C92E0E92E02E310E0B8
:104FD00020E030E048EC52E460E070E080E291E4F0
:104FE0000E949F140E94B211AACFFFEFCF1ADF0ACE
:104FF000D4016D914D0186EA93E00E9492050F5F06
:105000001F4FB1E0EB1AF10841F0C8018F719927E9
:10501000892B19F06016710669F686EA93E00E9402
:10502000C10566E070E080E090E00E94A003A4CF9C
:10503000E090E404F090E504B7018091E2049091DF
:10504000E3040E94D031892B29F48091A802823098
:105050000CF0F1C0C7010E94D511C9CB0091E40446
:105060001091E5046DEC71E0C8010E94D931C801CE
:105070000E94D5110E942B0987E60E94400CB7CBF5
:105080008091A402803108F4AFC02091A202309137
:10509000A3021092A40280919802820F932F911D77
:1050A000212F012E000C330B821793070CF098C0B0
:1050B0009093A3028093A2028091A402843019F4F9
:1050C00088E08093A4020091A4022091B602C090CF
:1050D000A202D090A302E02EF12C021708F08DC09E
:1050E00012300CF48AC0812C912C5401013059F0FB
:1050F0006091A702062E000C770B880B990B0E947B
:10510000F42B4B015C01F2E0EF0EF11CEC9CB001C2
:10511000ED9C700DFC9C700D1124072E000C880B6B
:10512000990B0E94F42B2BED3FE049E450E40E94E0
:10513000532C6B017C01612F110F770B880B990B9E
:105140000E94F42B9B01AC01C701B6010E94332ED3
:105150000E946F2F20E030E040E251E40E94532C87
:10516000A50194010E94C22D20919C0230919D02C4
:1051700040919E0250919F020E94C22DAB01BC0142
:10518000802F0E94590E8091A4028F5F8093A40209
:105190008091A80287FF14C00091E4041091E504F7
:1051A00065ED71E0C8010E94D931F8018081882342
:1051B00019F0C8010E94D51180919B020E94400CF9
:1051C00080E090E0892B11F40C94C81C0E94F5013A
:1051D000882311F40C94C81C0E9400000C94C81C75
:1051E0001092A3021092A2028091A402823009F0D0
:1051F00063CF88E08093A4025FCF3091AD023C9DE5
:10520000C0013D9D900D1124E80EF91EE21AF1082F
:105210008091B7029091B802E80EF91ED7016C9107
:10522000062E000C770B880B990B0E94F42B9CCF59
:1052300080919B02E4CA812FDECA82EA94E00E9438
:10524000EA0C8CE994E00E94EA0C88EA94E00E945F
:10525000F20C81EC94E00E94F20C8AED94E00C9444
:10526000EA0C0F931F93CF93DF938230910510F4D4
:1052700082E090E0E091EA04F091EB0430E020E07D
:10528000B0E0A0E0309799F42115310509F44AC047
:10529000281B390B24303105D8F58A819B81611593
:1052A000710589F1FB0193838283FE0111C0408166
:1052B00051810281138148175907E0F048175907B7
:1052C00099F4109761F012960C93129713961C9311
:1052D0003296CF01DF91CF911F910F9108950093E6
:1052E000EA041093EB04F4CF2115310551F0421775
:1052F000530738F0A901DB019A01BD01DF01F80174
:10530000C1CFEF01F9CF9093EB048093EA04CDCFA6
:10531000FE01E20FF31F81939193225031093983EB
:105320002883D7CF2091E8043091E904232B41F45E
:1053300020912501309126013093E9042093E8045F
:1053400020912301309124012115310541F42DB71D
:105350003EB74091270150912801241B350BE09165
:10536000E804F091E904E217F307A0F42E1B3F0BC9
:105370002817390778F0AC014E5F5F4F24173507C7
:1053800048F04E0F5F1F5093E9044093E804819367
:1053900091939FCFF0E0E0E09CCFCF93DF93009715
:1053A000E9F0FC01329713821282A091EA04B091D5
:1053B000EB04ED0130E020E01097A1F42081318171
:1053C000820F931F2091E8043091E90428173907D0
:1053D00009F061C0F093E904E093E804DF91CF9114
:1053E0000895EA01CE17DF07E8F54A815B819E0147
:1053F00041155105B1F7E901FB83EA8349915991C0
:10540000C40FD51FEC17FD0761F4808191810296CE
:10541000840F951FE90199838883828193819B83FF
:105420008A83F0E0E0E012968D919C9113970097AB
:10543000B9F52D913C911197CD010296820F931FE2
:105440002091E8043091E9042817390739F630979C
:1054500051F51092EB041092EA04B093E904A09382
:10546000E804BCCFD383C28340815181840F951F50
:10547000C817D90761F44E5F5F4F88819981480F43
:10548000591F518340838A819B8193838283211595
:10549000310509F0B0CFF093EB04E093EA049ECF1E
:1054A000FD01DC01C0CF13821282D7CF8F929F9271
:1054B000AF92BF92CF92DF92EF92FF92CF93DF93A2
:1054C000EC01688179818A819B8161157105810573
:1054D000910521F464E279ED8BE597E02DE133EF5E
:1054E00041E050E00E94272D49015A019B01AC0187
:1054F000A7EAB1E40E94462D6B017C01ACEEB4EF4B
:10550000A50194010E94542DDC01CB018C0D9D1D41
:10551000AE1DBF1DB7FF03C00197A109B048888326
:105520009983AA83BB839F77DF91CF91FF90EF9000
:10553000DF90CF90BF90AF909F908F9008950E9482
:10554000562A089589E291E00E94562A0895B0E013
:10555000A0E08093290190932A01A0932B01B0939E
:105560002C0108958F929F92AF92BF92CF92DF92BB
:10557000EF92FF92CF93DF93EC01688179818A816A
:105580009B81611571058105910521F464E279ED36
:105590008BE597E02DE133EF41E050E00E94272DAD
:1055A00049015A019B01AC01A7EAB1E40E94462DD2
:1055B0006B017C01ACEEB4EFA50194010E94542D67
:1055C000C60ED71EE81EF91EF7FE06C081E0C81AF7
:1055D000D108E10880E8F80AC882D982EA82FB8211
:1055E000C701B6019F77DF91CF91FF90EF90DF90D9
:1055F000CF90BF90AF909F908F9008958F929F9281
:10560000AF92BF92CF92DF92EF92FF9260912D0105
:1056100070912E0180912F019091300161157105DB
:105620008105910521F464E279ED8BE597E02DE1A8
:1056300033EF41E050E00E94272D49015A019B01C0
:10564000AC01A7EAB1E40E94462D6B017C01ACEEEF
:10565000B4EFA50194010E94542DC60ED71EE81E7A
:10566000F91EF7FE06C081E0C81AD108E10880E8FB
:10567000F80AC0922D01D0922E01E0922F01F092F3
:105680003001C701B6019F77FF90EF90DF90CF9078
:10569000BF90AF909F908F90089560932D0170936D
:1056A0002E0180932F01909330010895FC018827EB
:1056B0009927E89421912032E9F3293010F02E3017
:1056C000C8F32B3241F02D3239F4689404C00E94A3
:1056D000BB2B820F911D219120532A30C0F31EF461
:1056E000909581959F4F0895FB01DC0105900D92E7
:1056F0000020E1F70895FC0105900020E9F780956E
:1057000090958E0F9F1F089546EE54E00E94892BBE
:105710000895FA01A191B081009719F41097E1F072
:10572000CD01DC01CD010D90002011F4C00113C0AA
:10573000FB012191222319F02015D9F7F3CFFB01AA
:105740002191201519F41E92119606C02223C1F74B
:105750000D900020A1F7D001FA01A193B083089524
:10576000BB274A3031F4992322F4BDE2909581950C
:105770009F4F0C94C42B7AE0979F902D879F802D8C
:10578000910D11240895BB27FB015527AA27880FE7
:10579000991FAA1FA41710F0A41B83955051B9F7A5
:1057A000A05DAA3308F0A95DA193009779F7B11124
:1057B000B1931192CB010C94DD2BDC01FC01672F1E
:1057C00071917723E1F7329704C07C916D937083D8
:1057D0006291AE17BF07C8F308950E942F2C08F4FA
:1057E00081E00895E89409C097FB3EF49095809578
:1057F000709561957F4F8F4F9F4F9923A9F0F92F97
:1058000096E9BB279395F695879577956795B79514
:10581000F111F8CFFAF4BB0F11F460FF1BC06F5FFA
:105820007F4F8F4F9F4F16C0882311F096E911C00C
:10583000772321F09EE8872F762F05C0662371F02D
:1058400096E8862F70E060E02AF09A95660F771F41
:10585000881FDAF7880F9695879597F90895990F1D
:105860000008550FAA0BE0E8FEEF16161706E8072A
:10587000F907C0F012161306E407F50798F0621B4B
:10588000730B840B950B39F40A2661F0232B242B20
:10589000252B21F408950A2609F4A140A6958FEF3F
:1058A000811D811D08950E94662C0C94D72C0E94A6
:1058B000C92C38F00E94D02C20F0952311F00C94C4
:1058C000C02C0C94C62C11240C940B2D0E94E82C97
:1058D00070F3959FC1F3950F50E0551F629FF00143
:1058E000729FBB27F00DB11D639FAA27F00DB11D5C
:1058F000AA1F649F6627B00DA11D661F829F2227E5
:10590000B00DA11D621F739FB00DA11D621F839F6B
:10591000A00D611D221F749F3327A00D611D231F41
:10592000849F600D211D822F762F6A2F11249F578F
:1059300050409AF0F1F088234AF0EE0FFF1FBB1F92
:10594000661F771F881F91505040A9F79E3F510551
:1059500080F00C94C02C0C940B2D5F3FE4F3983E28
:10596000D4F3869577956795B795F795E7959F5FFB
:10597000C1F7FE2B880F911D9695879597F908958D
:1059800097F99F6780E870E060E008959FEF80ECF2
:10599000089500240A941616170618060906089595
:1059A00000240A9412161306140605060895092EFB
:1059B0000394000C11F4882352F0BB0F40F4BF2B6A
:1059C00011F460FF04C06F5F7F4F8F4F9F4F0895AA
:1059D00057FD9058440F551F59F05F3F71F04795A0
:1059E000880F97FB991F61F09F3F79F08795089585
:1059F000121613061406551FF2CF4695F1DF08C0A4
:105A0000161617061806991FF1CF869571056105C0
:105A100008940895E894BB2766277727CB0197F968
:105A20000895F999FECF92BD81BDF89A992780B566
:105A30000895262FF999FECF1FBA92BD81BD20BDD2
:105A40000FB6F894FA9AF99A0FBE01960895052EAA
:105A500097FB1EF400940E943E2D57FD07D00E9434
:105A6000902D07FC03D04EF40C943E2D509540959C
:105A7000309521953F4F4F4F5F4F089590958095FA
:105A8000709561957F4F8F4F9F4F08950E94B22D63
:105A9000A59F900DB49F900DA49F800D911D112482
:105AA0000895B7FF0C94462D0E94462D821B930B40
:105AB00008952F923F924F925F926F927F928F92B2
:105AC0009F92AF92BF92CF92DF92EF92FF920F938D
:105AD0001F93CF93DF93CDB7DEB7CA1BDB0B0FB697
