:100000000C94BD010C94E5010C94E5010C94E50100
:100010000C94E5010C94E5010C94E5010C94561444
:100020000C94E5010C94E5010C94E5010C94731615
:100030000C94E5010C94E5010C94E5010C94E501A8
:100040000C940A150C94E5010C94D8140C94B21479
:100050000C94E5010C94E5010C94E5010C94E50188
:100060000C9454150C94E50105A84CCDB2D44EB9AE
:100070003836A9020C50B9918688083CA6AAAA2A4B
:10008000BE000000803F07634236B79BD8A71A39ED
:10009000685618AEBAAB558C1D3CB7CC5763BD6DD6
:1000A000EDFD753EF6177231BF000000803F08007D
:1000B0000000BE922449123EABAAAA2ABECDCCCCE7
:1000C0004C3E00000080BEABAAAAAA3E0000000081
:1000D000BF000000803F0000000000084178D3BB53
:1000E0004387D1133D190E3CC3BD4282AD2B3E6800
:1000F000EC8276BED98FE1A93E4C80EFFFBE01C4F1
:10010000FF7F3F0000000000010000010000000030
:1001100000000000000000000000000063686F6E37
:10012000672066753A54200079616F20746F753AC4
:100130006D30202D343520302034352030202D34C2
:100140003520302034350073692064616E20646589
:1001500020612070753A6B62616C616E6365006846
:1001600065206C6F753A6B6869006775616E206316
:1001700068613A6B636B0073687569206A69616FC7
:100180003A6420006C69616E67207A6869206C614E
:100190006F2068753A62382039302031302039308C
:1001A0002031322039302038203930203820393081
:1001B0002031302039302031322039302038203978
:1001C0003020313220393020313320393020313560
:1001D000203138302031322039302031332039304D
:1001E000203135203138300074612062753A6B76E9
:1001F00074006A696120796F753A6B6A7900667577
:1002000020776F206368656E673A6B7075007A754A
:100210006F207869613A6B736974007169206C6949
:100220003A6B62616C616E6365006E692068616F34
:100230003A6B6869006D61207069206A696E673A7F
:100240006D302035302030202D31302030203330BB
:100250000000000000230026002900000000002408
:100260000027002A0000000000250028002B0004C1
:10027000040404040404040202020202020303034D
:100280000303030102040810204080010204081047
:1002900020010204081020024C6F616420736B6916
:1002A0006C6C730052656164792100426974746CEE
:1002B00065000A2A205374617274202A003E0000EF
:1002C0000000080002010000030407000000000015
:1002D0000000004C6F7720706F7765723A007A6586
:1002E000726F006A7900636B00706565007075005D
:1002F0006869007374720073697400747200776BBC
:100300000063720076740063004200700052006265
:10031000616C616E6365004C0067004600640035E7
:10032000022A021B020E02FE01F201E8018401779B
:10033000016A015F01470128011C01493243204540
:100340004550524F4D206F766572666C6F77212055
:1003500044656C65746520736F6D6520736B696CA3
:100360006C73210A0061626F727465640073617658
:100370006564003F00006017502311241FBECFEFBB
:10038000D8E0DEBFCDBF11E0A0E0B1E0E2E3F8E5E8
:1003900002C005900D92A23AB107D9F724E0A2EA73
:1003A000B1E001C01D92A636B207E1F711E0CCEB37
:1003B000D1E004C02197FE010E94F72ACB3BD10770
:1003C000C9F70E94CD170C940C2C0C94000091E0FE
:1003D00090937402809373021092720210927102D1
:1003E000089580E090E0A0E0B0E4809361029093F3
:1003F0006202A0936302B0936402E0915A04F09108
:100400005B048181082E000C990B90936702809306
:1004100066028281082E000C990B909369028093EA
:100420006802838180936A028091600287FF0CC01A
:10043000848180936B02858180936C028681809396
:100440006D0287E090E005C0813061F05CF084E0EF
:1004500098E090936E02E80FF11DF0937002E09324
:100460006F02089584E0EECF80915402909155027E
:10047000891B990B0895089508950895AF92BF922E
:10048000CF92DF92EF92FF920F931F93CF93DF9360
:100490006C017B018B01040F151FEB015E01AE188F
:1004A000BF08C017D10759F06991D601ED91FC91B1
:1004B0000190F081E02DC6010995892B79F7C501DE
:1004C000DF91CF911F910F91FF90EF90DF90CF9030
:1004D000BF90AF900895FC01538D448D252F30E0DF
:1004E000842F90E0821B930B541710F0CF96089541
:1004F00001970895FC01918D828D981761F0A28D6E
:10050000AE0FBF2FB11D5D968C91928D9F5F9F7333
:10051000928F90E008958FEF9FEF08952FB7F89492
:100520008091580290915902A0915A02B0915B02B9
:100530002FBF8093C9029093CA02A093CB02B093BD
:10054000CC0281EC92E00E947A0297FF26C02FB77E
:10055000F8948091580290915902A0915A02B0915A
:100560005B022FBF4091C9025091CA026091CB0239
:100570007091CC02841B950BA60BB70B4091C50262
:100580005091C6026091C7027091C8028417950706
:10059000A607B707B0F28FEF9FEF0895FC01918D8A
:1005A000828D981731F0828DE80FF11D858D90E0D6
:1005B00008958FEF9FEF0895FC01918D228D892F73
:1005C00090E0805C9F4F821B91098F73992708955B
:1005D00081EC92E00E94DC0221E0892B09F420E00A
:1005E000822F089580E090E0892B29F00E94E80294
:1005F00081110C9400000895FC01A48DA80FB92F5F
:10060000B11DA35ABF4F2C91848D90E001968F733A
:100610009927848FA689B7892C93A089B1898C9159
:10062000837080648C93938D848D981306C00288A8
:10063000F389E02D80818F7D80830895EF92FF9272
:100640000F931F93CF93DF93EC0181E0888F9B8DF5
:100650008C8D98131AC0E889F989808185FF15C0AF
:100660009FB7F894EE89FF896083E889F9898081D2
:100670008370806480839FBF81E090E0DF91CF91A1
:100680001F910F91FF90EF900895F62E0B8D10E0C3
:100690000F5F1F4F0F731127E02E8C8D8E110CC032
:1006A0000FB607FCFACFE889F989808185FFF5CF7D
:1006B000CE010E94FC02F1CFEB8DEC0FFD2FF11D5E
:1006C000E35AFF4FF0829FB7F8940B8FEA89FB89BA
:1006D00080818062CFCF0F931F93CF93DF938C01E4
:1006E000D0E0C0E0F801EC0FFD1F6491662341F0FB
:1006F00081EC92E00E941E03892B11F02196F2CF2B
:10070000CE01DF91CF911F910F910895CF93DF9389
:10071000EC01888D8823B9F0AA89BB89E889F98919
:100720008C9185FD03C0808186FD0DC00FB607FC4E
:10073000F7CF8C9185FFF2CF808185FFEDCFCE0181
:100740000E94FC02E9CFDF91CF910895833081F0C0
:1007500028F4813099F08230A9F008958730A9F00B
:100760008830C9F08430B1F4809180008F7D03C05F
:10077000809180008F7780938000089584B58F7773
:1007800084BD089584B58F7DFBCF8091B0008F77B5
:100790008093B00008958091B0008F7DF9CF1F93B2
:1007A000CF93DF93282F30E0F901E154FD4F84917E
:1007B000F901ED57FD4FD491F901E159FD4FC49175
:1007C000CC23A9F0162F81110E94A603EC2FF0E094
:1007D000EE0FFF1FEB59FD4FA591B4918FB7F89421
:1007E000EC91111108C0D095DE23DC938FBFDF910F
:1007F000CF911F910895DE2BF8CF909100018913BE
:100800000BC0E7E9F2E0E4919FEF90930001E13043
:1008100049F028F0E23061F060E00C94CF031092D0
:100820006E00FACF90916F009D7F90936F00F4CF90
:10083000909170009D7F9093700091E09093B00034
:100840009091B100987F94609093B1001092B300A2
:10085000E3CFCF93DF9390E0FC01ED57FD4F249160
:1008600081599D4FFC0184918823D1F090E0880F3D
:10087000991FFC01E55AFD4FA591B491FC01EB597C
:10088000FD4FC591D49161110EC09FB7F8948C9122
:10089000E22FE0958E238C932881E223E8839FBF8B
:1008A000DF91CF9108958FB7F894EC91E22BEC9300
:1008B0008FBFF6CF8E3008F08E50806480937C001E
:1008C00080917A00806480937A0080917A0086FD1E
:1008D000FCCF809178009091790008953FB7F8940B
:1008E0008091110290911202A0911302B091140212
:1008F00026B5A89B05C02F3F19F00196A11DB11D7B
:100900003FBFBA2FA92F982F8827BC01CD01620FB6
:10091000711D811D911D42E0660F771F881F991F71
:100920004A95D1F708958F929F92AF92BF92CF923E
:10093000DF92EF92FF926B017C010E946E044B01EB
:100940005C01C114D104E104F104B9F00E946E0409
:10095000681979098A099B09683E734081059105E8
:1009600080F321E0C21AD108E108F10888EE880E70
:1009700083E0981EA11CB11CE4CFFF90EF90DF90A4
:10098000CF90BF90AF909F908F9008952091ED01F0
:10099000260F3327331F21323105ECF42091BB029F
:1009A000FC0190E080E0243069F082E00895A0919D
:1009B000ED012191AC0143535E4FA40FB52FB11D42
:1009C0002C930196861798F38091ED01680F609340
:1009D000ED0180E0089581E008951092BB0281E06E
:1009E00080939A021092950261E082E10E94CF0307
:1009F00061E083E10E94CF03E9EBF0E080818E7F2C
:100A0000808380818D7F808388E48093B80085E433
:100A10008093BC000895CF93DF9391E09093CC0135
:100A20008823B9F0C091B800D091BA008091BC0081
:100A30008A7B8093BC0060E082E10E94CF0360E08B
:100A400083E10E94CF030E94ED04D093BA00C093CB
:100A5000B800DF91CF910895CF92DF92EF92FF928D
:100A60000F931F93CF93DF93D82FC62F613208F0D7
:100A700098C00E946E046B017C018091BB028111C1
:100A80006BC081E08093BB0280939A029FEF9093AA
:100A90009902109298029C0F90939702809396026D
:100AA00080919602DD0FD82BD0939602809195020B
:100AB000813009F078C0109295020E946E046B019B
:100AC0007C01809196028093BB008091BD02909141
:100AD000BE02A091BF02B091C002892B8A2B8B2B42
:100AE000A1F00E946E040091BD021091BE022091FF
:100AF000BF023091C0026C197D098E099F0906174B
:100B000017072807390708F448C08091BC0083FD07
:100B1000D8CF85EC8093BC000E946E046B017C01F1
:100B20008091BB02813009F440C0809198028C17FB
:100B300010F4C0919802E5E7F2E0ABE9B2E080E0A2
:100B40008C1355C08C2FDF91CF911F910F91FF9087
:100B5000EF90DF90CF9008958091BD029091BE02FA
:100B6000A091BF02B091C002892B8A2B8B2B09F474
:100B700084CF0E946E040091BD021091BE022091AC
:100B8000BF023091C0026C197D098E099F090617BA
:100B900017072807390708F070CF8091BC020E9420
:100BA0000B05C0E0CFCF85EEB5CF8091BD0290910F
:100BB000BE02A091BF02B091C002892B8A2B8B2B61
:100BC00009F4AECF0E946E040091BD021091BE02E6
:100BD0002091BF023091C0026C197D098E099F09D6
:100BE000061717072807390708F09ACFD6CF919133
:100BF0009D938F5FA5CF0895E09155028091540297
:100C0000E81730F4F0E0E556FD4F808190E008955C
:100C10008FEF9FEF089590915502809154022FEF2E
:100C20003FEF981748F4E92FF0E0E556FD4F20819B
:100C300030E09F5F90935502C9010895CF92DF92F3
:100C4000EF92FF920F931F93CF93DF937C01CB0121
:100C50008A0120917402222389F0EB016B01C40EFA
:100C6000D51ECC15DD0569F06991D701ED91FC9198
:100C70000190F081E02DC7010995F3CF642F0E9408
:100C8000C604C801DF91CF911F910F91FF90EF90A3
:100C9000DF90CF900895CF93DF931F92CDB7DEB74B
:100CA0006983209174022223F9F02091710220328D
:100CB00058F021E030E0FC013383228390E080E0B3
:100CC0000F90DF91CF91089580917202E82FF0E0AC
:100CD000E455FE4F998190838F5F809372028093D9
:100CE000710281E090E0ECCF61E0CE0101960E94BC
:100CF000C604F7CFCF92DF92EF92FF920F931F932C
:100D0000CF93DF93D091710281E0D13208F09CC083
:100D1000C09173020E946E046B017C018091BB0242
:100D200081116CC082E08093BB0281E080939A02C3
:100D30008FEF8093990210929802D0939702ACEAB9
:100D4000B1E0E5E7F2E080E0D8138DC010929602A2
:100D500080919602CC0FC82BC09396028091950289
:100D6000813009F084C0109295020E946E046B01DC
:100D70007C01809196028093BB008091BD0290918E
:100D8000BE02A091BF02B091C002892B8A2B8B2B8F
:100D9000A1F00E946E040091BD021091BE0220914C
:100DA000BF023091C0026C197D098E099F09061798
:100DB00017072807390708F442C08091BC0083FD5B
:100DC000D8CF85EC8093BC000E946E046B017C013F
:100DD0008091BB02823009F44CC0809199028F3F10
:100DE00009F469C080919902803209F466C080914B
:100DF0009902803309F463C084E026C08091BD026B
:100E00009091BE02A091BF02B091C002892B8A2BA3
:100E10008B2B09F483CF0E946E040091BD021091C8
:100E2000BE022091BF023091C0026C197D098E096B
:100E30009F09061717072807390708F06FCF809119
:100E4000BC020E940B0585E01092720210927102A2
:100E500010927402DF91CF911F910F91FF90EF904C
:100E6000DF90CF9008959D9191938F5F6DCF85EE28
:100E7000A9CF8091BD029091BE02A091BF02B09116
:100E8000C002892B8A2B8B2B09F4A2CF0E946E04FF
:100E90000091BD021091BE022091BF023091C002AC
:100EA0006C197D098E099F0906171707280739074E
:100EB00008F08ECFC4CF80E0C7CF82E0C5CF83E0FB
:100EC000C3CF90E080E00895CF93C82F89E70E94B8
:100ED000E7016C2F8EE593E00E944B068EE593E0D0
:100EE0000E947A0691E0811190E0892FCF910895B8
:100EF0000F931F93CF93DF93EC01062F142F88815C
:100F00000E94E70189819A81DC01ED91FC910190B9
:100F1000F081E02D602F099589819A81DC01ED91A6
:100F2000FC910190F081E02D612F099589819A81D2
:100F3000DF91CF911F910F910C947A06DC01ED9116
:100F4000FC910190F081E02D0994FC0187E094E18F
:100F5000161634F484E098E0613011F484E090E1F6
:100F60009083062E000C770B77FF03C07195619577
:100F70007109969FA001979F500D1124840F952F02
:100F8000911D0895DC01ED91FC910190F081E02D1F
:100F90000994FF920F931F93CF93DF93182FF62E90
:100FA000072FCDE3D4E088810E94E70184E0189FF9
:100FB000B00111246A5F7F4F89819A810E94C20724
:100FC00070E060E089819A810E949E0770E060E095
:100FD00089819A810E949E076F2D702F89819A8145
:100FE0000E949E07602F70E089819A810E949E076F
:100FF00089819A81DF91CF911F910F91FF900C947D
:101000007A06CF93C0E060E070E18C2F0E94C907A0
:10101000CF5FC031C1F7CF9108959F92AF92BF9239
:10102000CF92DF92EF92FF920F931F93CF93DF93B4
:10103000EC0184E50E94E7016D2F70E08EE593E0FE
:101040000E94C207BE0177278EE593E00E94C20787
:101050008EE593E00E947A0661E084E50E942C050B
:1010600010925502809354028EE593E00E940B0685
:10107000C0905A04D0905B04F601808360916002B6
:1010800085E692E00E94A507EC01F12CE12C1C16EC
:101090001D064CF56C2FCF31D1050CF06EE184E5C7
:1010A0000E942C05982E10925502809354025E01E6
:1010B000FEE1AF1AB1088E0180915502981659F0E1
:1010C0008EE593E00E940B069FEFE91AF90AF601FC
:1010D000EE0DFF1D80830150110929F0E5010A156D
:1010E0001B0551F7D4CFDF91CF911F910F91FF9046
:1010F000EF90DF90CF90BF90AF909F9008958F9228
:101100009F92AF92BF92CF92DF92EF92FF921F9386
:10111000CF93DF93EC016A017B0120E030E040E8EF
:101120005FE3CB01B6010E94102687FD9CC020E042
:1011300030EC4AE555E4C701B6010E943D29181676
:101140003CF4C12C30ECD32E3AE5E32E35E4F32EFB
:101150006B817C818D819E810E9415264B015C01F3
:1011600020E030E040E855E4C701B6010E94762651
:101170009B01AC01C501B4010E94562820E030E07B
:1011800040E05FE30E94E52720E030E040E85FE3D5
:101190000E94E4276B017C0120E030E040E450E451
:1011A0000E94102687FD66C020E030E04FE753E440
:1011B000C701B6010E943D29181634F4C12CD12C68
:1011C0009FE7E92E93E4F92E88810E94E701898147
:1011D0009A81DC01ED91FC910190F081E02D60E0BD
:1011E000099589819A810E947A0661E088810E942E
:1011F0002C05109255028093540289819A81DC015A
:10120000ED91FC910284F385E02D0995182F482F6C
:101210004F76406160E0CE010E947807C701B601B9
:101220000E94CF28462F6EEFCE010E947807412FF3
:1012300060E0CE010E94780765E070E080E090E019
:101240000E949304412F406A60E0CE01DF91CF916C
:101250001F91FF90EF90DF90CF90BF90AF909F9045
:101260008F900C947807C12CD12C20E8E22E2FE32C
:10127000F22E6ECFC12CD12C80E4E82EFE2CA4CF10
:10128000FC0101900020E9F73197AF01481B590B91
:10129000BC0181EC92E00C943E0284E591E00C9458
:1012A0004009CF93DF930E946B03EC010E944D092C
:1012B0008C0F9D1FDF91CF910895CF93DF93682FFF
:1012C00081EC92E00E941E03EC010E944D098C0FFC
:1012D0009D1FDF91CF910895CF93DF93FC0144814F
:1012E00055816081718181EC92E00E943E02EC01A7
:1012F0000E944D098C0F9D1FDF91CF9108958F9211
:101300009F92AF92BF920F931F93CF93DF93CDB76E
:10131000DEB7A1970FB6F894DEBF0FBECDBF19A2FE
:10132000423008F44AE08E010F5D1F4F842E912C4D
:10133000B12CA12CA50194010E94B327E62FB9017D
:10134000CA01EA30F4F4E05DD801EE938D01232B5D
:10135000242B252B79F790E080E0109719F0CD0130
:101360000E944009A1960FB6F894DEBF0FBECDBF14
:10137000DF91CF911F910F91BF90AF909F908F9071
:101380000895E95CE1CFCF92DF92EF92FF92C12CFA
:10139000D12C76014AE0C701B6010E947F0969E0BD
:1013A00081EC92E00E941E038FEFC81AD80AE80A67
:1013B000F80A80E1C816D104E104F10459F7FF905E
:1013C000EF90DF90CF900C944D09FC012481358182
:1013D000232B39F421E0FB018081882349F020E0B0
:1013E00007C0808191810E94EE2B21E0892BB9F703
:1013F000822F0895CF93DF93EC0188819981009724
:1014000011F00E94F023198218821D821C821B8217
:101410001A82DF91CF910895FC018081918100971C
:1014200011F00C94F02308950F931F93CF93DF9343
:101430008C01EB01FC01808191810097E1F06881D2
:10144000798161157105A9F0428153812C813D811B
:101450004217530770F00E94F72B8C819D81F80191
:10146000958384831D821C82DF91CF911F910F9100
:1014700008950E94F02388819981F80191838083E7
:101480008A819B81938382838C819D8195838483D0
:10149000198218821B821A82E5CF0C9434276F922E
:1014A0007F928F929F92AF92BF92CF92DF92EF92F4
:1014B000FF920F931F93CF93DF936C01712CD0E0B9
:1014C000C0E083E191E00E944D0A082E000C990BC8
:1014D000781619060CF06DC04E018FEF881A980A25
:1014E000CE018A5E9E4F0E944D0A682EE82EF12C96
:1014F000C70101960E9454238C015C01C95EDE4F36
:10150000C81BD90B8A2D801B861548F4CE018A0D85
:101510009B1D0E944D0AF50181935F01F3CFE40109
:10152000CE0DDF1D5801AE0CBF1CF5011082B601B7
:10153000C8010E94EE2B892B09F501151105A9F5AB
:10154000CE01895E9E4F0E944D0A80936002682FF3
:1015500085E692E00E94A507CE018A5E9E4FDF914C
:10156000CF911F910F91FF90EF90DF90CF90BF90A0
:10157000AF909F908F907F906F900895F501319775
:1015800080818C3449F4A70141505109B601C8014A
:101590000E94FE2B892B89F20115110519F0C80153
:1015A0000E94F023249673948CCFC8010E94F023EC
:1015B000C7CF83E793E00E9451098FEF9FEFCFCF12
:1015C0001F93CF93DF93EC010E944D0A182FCE0199
:1015D00001960E944D0A90E0982F8827810F911D57
:1015E000DF91CF911F910895CF92DF92EF92FF92FA
:1015F0000F931F93CF936A017B01082F10E0C8015E
:10160000805B9F4F880F991F0E94E00ABC01990FD1
:10161000880B990B0E94172620E030E04AE754E43B
:101620000E945628A70196010E9476266B017C0134
:1016300082E191E00E944D0AC82FC8010E944D0A24
:10164000182F8AE0C89FB0011124072E000C880BC8
:10165000990B0E941726A70196010E94E5270E9478
:10166000CF28812FCF911F910F91FF90EF90DF90A6
:10167000CF900C94C90790E0C096880F991F860FF1
:10168000911D880F991F0C94E00A7F928F929F9270
:10169000AF92BF92CF92DF92EF92FF920F931F9380
:1016A000CF93DF93B82E6A01D62FC72F60E00E9438
:1016B0003B0BBC01990F880B990B0E9417267B01ED
:1016C0008C0161E08B2D0E943B0BBC01990F880BB4
:1016D000990B0E941726762E872E982EA92E9601FA
:1016E0004D2F5C2F0E94102687FF71C0772D682D2B
:1016F000992D8A2D272F362F492F582FB701C80132
:101700000E943D29181694F096014D2F5C2F672DED
:10171000782D892D9A2D0E94102676010D2F1C2FD1
:1017200087FF04C0E72CF82C092D1A2DCB2DD0E013
:101730006E0180E3C80ED11CCC0FDD1FCE5FDE4FE3
:10174000B701C8010E94C82879836883C601880F41
:10175000991F0E94E00AEC01C6010E944D0A682F01
:10176000880F770B880B990B0E9417269701A80109
:101770000E9476266B017C01BE01DD0F880B990B60
:101780000E9417269B01AC01C701B6010E94E52704
:101790000E94C828072E000C880B990B0E94172660
:1017A00020E030E0A9010E94E527AB01BC018B2DB0
:1017B000DF91CF911F910F91FF90EF90DF90CF902D
:1017C000BF90AF909F908F907F900C94F40A7C2DE7
:1017D0006D2DCE018FCF2F923F924F925F926F92DD
:1017E0007F928F929F92AF92BF92CF92DF92EF92B1
:1017F000FF920F931F93CF93DF93CDB7DEB72E9752
:101800000FB6F894DEBF0FBECDBF5C016A017B014D
:1018100020E030E0A901CB01B6010E94102695011D
:10182000205E3F4F3901811130C089013FE039838B
:10183000D8017E916E918D01072E000C880B990BBB
:101840000E941726AB01BC0189810E94450BB9811A
:10185000B150B983BF3F61F72E960FB6F894DEBF43
:101860000FBECDBFDF91CF911F910F91FF90EF90F1
:10187000DF90CF90BF90AF909F908F907F906F90B0
:101880005F904F903F902F90089580E290E00E94EB
:1018900054238C0182E0882E81E0982E9801F50176
:1018A00070E060E0D4018D919D914D014191519185
:1018B000841B950BD9018D939D939D0197FF03C0C8
:1018C000919581959109681779070CF4BC01E6158B
:1018D000F70541F7072E000C880B990B0E9417267D
:1018E000A70196010E9456286B017C0120E030E0A0
:1018F000A9010E943D2920E030E040E05FE387FD40
:1019000091C0C701B6010E94E5270E94C8287E87C2
:101910006D87D12CC12C8D859E85092E000CAA0BBC
:10192000BB0B89879A87AB87BC87AD85BE85AC1515
:10193000BD050CF47CC048011501F12CC6010D2C2D
:10194000000CAA0BBB0B8D839E83AF83B887D1019C
:101950006D917D911D01072E000C880B990B0E9443
:1019600017262B013C01ED85FE8520E030E0A90122
:10197000EF2B09F443C06D817E818F8198850E9491
:1019800017262BED3FE049E450E40E947626698358
:101990007A838B839C8369857A858B859C850E945D
:1019A00017269B01AC0169817A818B819C810E9401
:1019B00056280E94512820E030E040E85FE30E9472
:1019C000E52720E030E040E05FE30E94762669836F
:1019D0007A838B839C83D4016D917C91072E000CBC
:1019E000880B990B0E9417269B01AC0169817A81B3
:1019F0008B819C810E9476269B01AC01C301B201C0
:101A00000E94E527AB01BC018F2D0E94450BF3948A
:101A1000B2E08B0E911CE0E1FE1299CFFFEFCF1ADE
:101A2000DF0A83CFC701B6010E94E4276ECF0115FC
:101A3000110509F411CFC8012E960FB6F894DEBF38
:101A40000FBECDBFDF91CF911F910F91FF90EF900F
:101A5000DF90CF90BF90AF909F908F907F906F90CE
:101A60005F904F903F902F900C94F0232F923F92D5
:101A70004F925F926F927F928F929F92AF92BF929E
:101A8000CF92DF92EF92FF920F931F93CF93DF934A
:101A9000CDB7DEB72F970FB6F894DEBF0FBECDBF20
:101AA0004C016D8369017A01202F30E03A8329834C
:101AB00020E030E0A901C701B6010E941026811183
:101AC0001DC01FE0812F012E000C990BA981BA8146
:101AD0008A179B070CF419C1880D991DFC016081C0
:101AE000062E000C770B880B990B0E941726AB0172
:101AF000BC01812F0E94450B1150E4CF80E190E0A2
:101B000029813A81821B930B811530E4930770F58C
:101B1000880F991F0E9454235C01E981FA81EE0F1E
:101B2000FF1FCF018E5F9E4F3C012501D401402F46
:101B300070E060E04031E8F4F301819191913F0160
:101B40002D915D81250390011124821B930BF201DD
:101B5000819391932F0197FF03C0919581959109EE
:101B6000681779070CF4BC014F5FE4CF8FEF9FEF4C
:101B7000D1CF072E000C880B990B0E941726A701C6
:101B800096010E9456286B017C0120E030E0A901FB
:101B90000E943D2920E030E040E05FE387FD8BC0FC
:101BA000C701B6010E94E5270E94C8281B011F86B5
:101BB0001E86CB01770FAA0BBB0B8A879B87AC874E
:101BC000BD87AE85BF852A163B060CF480C0BA825D
:101BD000A9829C828B82102FCD01092E000CAA0BAA
:101BE000BB0B8E839F83A887B987103108F068C02C
:101BF000AB81BC816D91BC83AB832D816203B0014D
:101C00001124072E000C880B990B0E9417266B01DC
:101C10007C0120E030E0A90121143104E1F16E8162
:101C20007F81888599850E9417262BED3FE049E446
:101C300050E40E9476262B013C016A857B858C85C9
:101C40009D850E9417269B01AC01C301B2010E9431
:101C500056280E94512820E030E040E85FE30E94CF
:101C6000E52720E030E040E05FE30E9476262B018C
:101C70003C01A981BA816D917C91072E000C880BE3
:101C8000990B0E9417269B01AC01C301B2010E946F
:101C900076269B01AC01C701B6010E94E527AB0186
:101CA000BC01812F0E94450B1F5FE981FA813296AA
:101CB000FA83E9839ACFC701B6010E94E42774CF63
:101CC0002E853F852F5F3F4F3F872E877ACFA11408
:101CD000B104D9F0C5012F960FB6F894DEBF0FBE40
:101CE000CDBFDF91CF911F910F91FF90EF90DF90CB
:101CF000CF90BF90AF909F908F907F906F905F90AC
:101D00004F903F902F900C94F0232F960FB6F8949D
:101D1000DEBF0FBECDBFDF91CF911F910F91FF901E
:101D2000EF90DF90CF90BF90AF909F908F907F907B
:101D30006F905F904F903F902F9008950F93CF93A7
:101D4000DF93E0915A04F0915B046081CCE5D2E02E
:101D50006C8385E692E00E94A5070E94F101109233
:101D60005702109256022D813E814F8158850A8973
:101D70006E858B899C890E94360DDF91CF910F91E2
:101D80000895FF920F931F93CF93DF938C01FC0173
:101D900001900020E9F7329780818C3409F4CEC09D
:101DA000823509F0CDC087EE80935F02C8010E94A2
:101DB0004F0AEC01CF3FDC0709F40CC1CE010E94B1
:101DC0004D0AF82ECE0102960E94E00AEC0189E449
:101DD000F812B8C0CE010E940D080E94F10167E51B
:101DE00071E0C8010E94EE2B892B09F4C5C08091D7
:101DF0006002813009F0C0C00E94212524E630E055
:101E000040E050E00E944A270E94172620E030E080
:101E100040E251E40E94562820E030E040EA50E4DD
:101E20000E94E42760935002709351028093520203
:101E3000909353028091600282300CF4A6C080918E
:101E40005F0287FFB1C08091660290916702919511
:101E500081959109909367028093660290E080E0FB
:101E600040916002242F042E000C330B37FF03C077
:101E7000319521953109821793070CF095C04230B6
:101E80001CF540916502489F9001499F300D112437
:101E9000E0916F02F0917002E20FF31F2081219513
:101EA000208320916502289FF001299FF00D1124C5
:101EB0009F012E5F3F4FE0916F02F0917002E20FA1
:101EC000F31F2081219520832091600260E0223061
:101ED0000CF462E0E62FF0E02091600222300CF476
:101EE0007FC024E030E040916F0250917002E21711
:101EF000F3070CF078C09F01220F331F7091650229
:101F0000789FF001799FF00D1124E20FF31FE40F89
:101F1000F51F40815181508350916502589FD00137
:101F2000599FB00D1124E0916F02F0917002E20F01
:101F3000F31FEA0FFB1F41836F5FCCCF89E134CFE2
:101F400080E032CF6091600285E692E00E94A507B2
:101F500020915A0430915B04D901C21BD30BFE01BE
:101F6000EA0FFB1FAD01421B530B481759070CF03A
:101F700034CFE491ED93F3CF1092500210925102BE
:101F8000109252021092530255CF0E94212524E64E
:101F900030E040E050E00E944A2760FF05C0809199
:101FA0004F02833609F04FCF10925702109256021B
:101FB000209161023091620240916302509164026B
:101FC00000916E0260916A0280916F02909170029E
:101FD0000E94360DDF91CF911F910F91FF900895D0
:101FE00028E030E080CF01963BCF0F931F93CF9333
:101FF000DF93EC018B010E943427081721F0602F3A
:10200000CE010E943C272196CE010E94342718174A
:1020100021F0612FCE010E943C2765E070E080E056
:1020200090E0DF91CF911F910F910C9493040F9347
:102030001F93CF93DF93EC0188819981009759F02A
:102040002A813B812617370730F081E0DF91CF915D
:102050001F910F9108958B016F5F7F4F0E94202B7E
:10206000009759F0998388831B830A832C813D81D3
:10207000232B59F7FC011082E8CF80E0E7CFEF92E5
:10208000FF920F931F93CF93DF936115710541F476
:1020900080E0DF91CF911F910F91FF90EF90089515
:1020A00041155105B1F07B01EC010C811D81040F3C
:1020B000151FB8010E941710882351F32881398118
:1020C0008C819D81B701820F931F0E94F72B1D8386
:1020D0000C8381E0DECFEF92FF920F931F93CF939B
:1020E000DF93EC017B018A01BA010E941710811174
:1020F0000BC0CE010E94FA09CE01DF91CF911F9152
:102100000F91FF90EF9008951D830C83B701888194
:1021100099810E94F72BF0CFFB01DC0111961C92F4
:102120001E9213961C921E92129715961C921E9246
:1021300014978617970759F06081718161157105B1
:1021400021F0448155810C946B100C94FA09089588
:10215000FB0101900020E9F73197AF01461B570BB7
:102160000C946B100F931F93CF93DF93CDB7DEB713
:1021700062970FB6F894DEBF0FBECDBF8C01CB01C6
:10218000F8011182108213821282158214824AE0B1
:10219000BE016F5F7F4F0E94D325BE016F5F7F4FEF
:1021A000C8010E94A81062960FB6F894DEBF0FBE59
:1021B000CDBFDF91CF911F910F910895FC01118246
:1021C00010821382128215821482FB01019000207A
:1021D000E9F73197AF01461B570B0C946B10EF9248
:1021E000FF920F931F93CF93DF9300D0CDB7DEB74D
:1021F0008C01E62E60E971E00E94DE100E948E02E2
:102200000E2C000CFF0897FD10C08E159F0569F07D
:1022100089831A8241E050E0BE016F5F7F4FC801A1
:102220000E943F100E948E02EECFC8010F900F90C7
:10223000DF91CF911F910F91FF90EF900895EF9252
:10224000FF920F931F93CF93DF93EC018B011982C1
:1022500018821B821A821D821C82CB010E949E253D
:102260007C01BC01CE010E941710811109C0CE0172
:10227000DF91CF911F910F91FF90EF900C94FA098D
:10228000FD82EC82B80188819981DF91CF911F9105
:102290000F91FF90EF900C94972585ED8093BC00F3
:1022A0008091BD029091BE02A091BF02B091C00288
:1022B0000796A11DB11D23E0B695A7959795879523
:1022C0002A95D1F72091BC0024FD03C01092BB02D7
:1022D00008954091BD025091BE026091BF0270917D
:1022E000C002452B462B472B69F30097A105B1058A
:1022F00041F025E32A95F1F700000197A109B10902
:10230000E1CF8091BC020C940B052F923F924F922B
:102310005F926F927F928F929F92AF92BF92CF9275
:10232000DF92EF92FF920F931F93CF93DF93CDB77E
:10233000DEB766970FB6F894DEBF0FBECDBF6987D4
:102340007A878B879C872D873E874F87588BC8015C
:10235000EE8A10E088248A94982C540168E4462E72
:1023600068EE562E66246394712C05E074E7272EE0
:1023700072E0372E9C01990F440B550B298B3A8B39
:102380004B8B5C8B6D857E858F8598890E94CF28CD
:102390006D837E838F83988720E030E0A901698573
:1023A0007A858B859C850E941026882309F499C123
:1023B00029853A854B855C8563E67CE987E89FE360
:1023C0000E94422920E030ED42E854E40E94762643
:1023D0000E94CF286B0180910001853009F06AC00E
:1023E000E7E9F2E0F491FD8BF7FDD9C161E085E00A
:1023F0000E942904FD89FF2321F02D89223009F054
:1024000024C1F12CE12C60E072E18AE790E0A701A1
:1024100096010E944A2729833A834B835C83DA0121
:10242000C9010197A109B1098F3F9105A105B10526
:1024300009F00CF4F0C060E472E48FE090E0A701D2
:1024400096010E944A2721503109410951098D897D
:10245000823009F0A2C082E02F3F310541055105CD
:1024600009F00CF48CC160E970ED83E090E0A70105
:1024700096010E944A27215031094109510983E000
:102480002F3F31054105510509F00CF478C1C30116
:10249000B201A70196010E944A2721503109410942
:1024A00051092F3F31054105510511F00CF092C043
:1024B00084E065C18F3F09F072C100930001E7E934
:1024C000F2E0F491FD8BFF3F09F469C1F13029F18D
:1024D00058F0F23009F43FC03D8937FD60C161E03A
:1024E00085E00E94290489CF14BC15BC84B58260A4
:1024F00084BD85B5816085BDF1018491E82FF0E050
:10250000EE0FFF1FEB59FD4F85919491E8E8F2E043
:1025100084918093A3011D8A69CF1092800010924C
:10252000810080918100886080938100809181008A
:10253000816080938100F1018491E82FF0E0EE0F3B
:10254000FF1FEB59FD4F85919491E8E8F2E08491EB
:102550008093A2014BCF1092B0001092B1008091F5
:10256000B00082608093B0008091B1008160809360
:10257000B100F1018491E82FF0E0EE0FFF1FEB595D
:10258000FD4F859194919093160280931502E8E88F
:10259000F2E084918093170229CF2F3F3105410546
:1025A000510509F00CF44FC0C301B201A701960117
:1025B0000E944A2721503109410951099D899923D7
:1025C00009F4AFC02F3F31054105510511F00CF062
:1025D000B0C06ECF64E274EF80E090E0A701960196
:1025E0000E944A27215031094109510985E02F3FB6
:1025F00031054105510509F008F4C1C062E17AE7EF
:1026000080E090E0A70196010E944A2721503109FD
:10261000410951099DC09C0181E0FD89F111AFC0C4
:1026200095B5987F892B85BD27BD8092A801909292
:10263000A901A092AA01B092AB0180916E008260C4
:1026400080936E00ACC082E0E8CFF12CE12C60E01A
:1026500072E18AE790E0A70196010E944A27215083
:1026600031094109510991E02115310581E04807FF
:1026700051055CF0C301B201A70196010E944A27EF
:10268000215031094109510993E0ED89E13009F008
:102690007CC080918100887F892B8093810030935A
:1026A0008900209388008092A4019092A501A092B5
:1026B000A601B092A70180916F00826080936F00A5
:1026C0006EC02093B3008092180290921902A092DB
:1026D0001A02B0921B028091700082608093700099
:1026E0005EC06D817E818F8198850E94930457C062
:1026F00084E02F3F31054105510509F008F490CFE2
:1027000029813A814B815C818AE0559547953795BF
:1027100027958A95D1F7215031094109510985E062
:102720007FCF83E02F3F31054105510509F00CF4BF
:1027300077CF62E17AE780E090E0A70196010E94FE
:102740004A272150310941095109ED89EE2381F2CF
:1027500086E02F3F31054105510589F080F0298140
:102760003A814B815C819AE055954795379527953D
:102770009A95D1F7215031094109510987E090918B
:10278000B100987F892B8093B100FD89F13009F465
:1027900086CFF23009F495CFFF2309F445CF6D8140
:1027A0007E818F8198850E94930485E00E94FD03BD
:1027B00069897A898B899C890E9493041F5F2E897D
:1027C0002113E0CD66960FB6F894DEBF0FBECDBFE5
:1027D000DF91CF911F910F91FF90EF90DF90CF90FD
:1027E000BF90AF909F908F907F906F905F904F9031
:1027F0003F902F9008954F925F926F927F928F92A9
:102800009F92AF92BF92CF92DF92EF920F931F935E
:10281000CF93DF93D82E192F0E944D0A8695CD2D88
:10282000D12FB12CA12CC82ED12C88EE882E83E07C
:10283000982E2197AC14BD044CF5CE018C199D093E
:102840000E944D0A782ECE010E944D0A182F672D46
:1028500070E0C4010E94E32A072E000C880B990B3C
:102860000E9417262B013C01612F70E090E080E070
:102870000E941526EE24E39410E000E0A3019201EB
:102880000E9485118FEFA81AB80AD3CFDF91CF919C
:102890001F910F91EF90DF90CF90BF90AF909F90DE
:1028A0008F907F906F905F904F9008951F920F923E
:1028B0000FB60F9211242F933F934F935F936F9313
:1028C0007F938F939F93AF93BF93EF93FF938091E9
:1028D000180290911902A0911A02B0911B02892B43
:1028E0008A2B8B2BD1F190911702E0911502F09178
:1028F00016028081892780838091180290911902A5
:10290000A0911A02B0911B02181619061A061B068E
:102910009CF48091180290911902A0911A02B09132
:102920001B020197A109B109809318029093190223
:10293000A0931A02B0931B02FF91EF91BF91AF9148
:102940009F918F917F916F915F914F913F912F91C7
:102950000F900FBE0F901F901895809100010E945C
:10296000FD03EACF1F920F920FB60F9211242F93FF
:102970003F934F935F936F937F938F939F93AF9307
:10298000BF93EF93FF9381EC92E00E94FC02FF91D2
:10299000EF91BF91AF919F918F917F916F915F91D7
:1029A0004F913F912F910F900FBE0F901F90189550
:1029B0001F920F920FB60F9211242F938F939F9314
:1029C000EF93FF93E091D102F091D2028081E091E8
:1029D000D702F091D80282FD1BC090818091DA026B
:1029E0008F5F8F732091DB02821741F0E091DA0252
:1029F000F0E0EF53FD4F958F8093DA02FF91EF9156
:102A00009F918F912F910F900FBE0F901F9018954F
:102A10008081F4CF1F920F920FB60F9211242F9343
:102A20003F938F939F93AF93BF9380915802909160
:102A30005902A0915A02B0915B023091100223E03A
:102A4000230F2D3758F50196A11DB11D20931002BB
:102A50008093580290935902A0935A02B0935B025C
:102A60008091110290911202A0911302B091140270
:102A70000196A11DB11D8093110290931202A093A3
:102A80001302B0931402BF91AF919F918F913F9128
:102A90002F910F900FBE0F901F90189526E8230FCF
:102AA0000296A11DB11DD2CF1F920F920FB60F92A9
:102AB00011242F933F934F935F936F937F938F9343
:102AC0009F93AF93BF93EF93FF938091B900887F5B
:102AD000803609F44AC0F0F5883209F4A7C018F529
:102AE000803109F49BC0B8F4882309F4F9C0883018
:102AF00009F494C0FF91EF91BF91AF919F918F9195
:102B00007F916F915F914F913F912F910F900FBEE9
:102B10000F901F901895883109F488C0803251F7C2
:102B20008093990214C0803409F49DC040F480332E
:102B3000B9F38833F9F68093990285ECB0C08035FB
:102B400009F485C0883509F496C0883499F60E9446
:102B50004D11D0CF883909F48CC038F5883729F069
:102B600050F4883611F0803729F683E08093BB0259
:102B700010920F0257C0883809F47BC0803919F0D1
:102B8000803809F0B7CF80910F02803208F071C011
:102B9000E0910F0281E08E0F80930F028091BB00C5
:102BA000F0E0E151FE4F80833DC0803B39F0E0F41E
:102BB000803A09F479C0883A09F09CCF84E0809388
:102BC000BB021092EE011092ED01E0911E02F09115
:102BD0001F0209958091ED0181110FC081E0809362
:102BE000ED011092CD0109C0803C09F4A6CF883CCC
:102BF00009F4A3CF883B09F07DCFE091EE0181E09D
:102C00008E0F8093EE01F0E0E353FE4F80818093BE
:102C1000BB009091EE018091ED0129C08091960258
:102C20008093BB0085EC8093BC0064CF90919802A8
:102C300080919702981758F5E091980281E08E0FE5
:102C400080939802F0E0EB58FD4F8081E9CFE0914E
:102C5000980281E08E0F809398028091BB00F0E093
:102C6000EB58FD4F808390919802809197029817BE
:102C7000C8F285E8D8CFE091980281E08E0F80936A
:102C800098028091BB00F0E0EB58FD4F808380916B
:102C90009A0281115CCF81E08093950284EA80934F
:102CA000BC001092BB0226CF85EC8093BC00109232
:102CB000BB0280910F02803230F4E0910F02F0E00D
:102CC000E151FE4F108260910F0270E0E0911C0212
:102CD000F0911D028FEE91E0099510920F020ACF3C
:102CE0001092990234CF1F920F920FB60F921124B7
:102CF0002F933F934F935F936F937F938F939F9304
:102D0000AF93BF93CF93DF93EF93FF9320916B0328
:102D100030E0F901E154FD4F8491F901ED57FD4F89
:102D2000D491F901E159FD4FC491CC2379F081117F
:102D30000E94A603EC2FF0E0EE0FFF1FEF5AFD4FAD
:102D4000A591B491EC91ED2381E009F480E020910C
:102D50007003309171032F5F3F4F309371032093C5
:102D6000700320916E0330916F032536310518F002
:102D700094E090936A0390916A03911130C081119D
:102D800069C020917003309171032436310528F415
:102D900010927103109270035DC010923C04109267
:102DA0006F0310926E0320916E0330916F03A9019F
:102DB0004F5F5F4F50936F0340936E0340917003DA
:102DC00050917103220F331FF901EE58FC4F5183CC
:102DD0004083109271031092700391E021C0909192
:102DE0006A03913001F58130A9F520916E0330918D
:102DF0006F03A9014F5F5F4F50936F0340936E03C2
:102E00004091700350917103220F331FF901EE5866
:102E1000FC4F51834083109271031092700392E033
:102E200090936A0317C090916A03923061F48823EB
:102E300009F4B9CF20917003309171032536310523
:102E400048F093E0EDCF90916A03933099F4882392
:102E500009F49ECF90916D039923A9F0811126C0AA
:102E600080916C03882371F080916C0361E00E9473
:102E7000CF0309C090916A03943061F791E0909379
:102E80003C04DFCF2D9AFF91EF91DF91CF91BF915D
:102E9000AF919F918F917F916F915F914F913F91F2
:102EA0002F910F900FBE0F901F90189580916C037B
:102EB000882321F080916C0360E0D9CF2D98E3CF77
:102EC000CF93DF93E1ECF2E01382128288EE93E07D
:102ED000A0E0B0E084839583A683B78324E331E048
:102EE0003183208325EC30E03587248724EC30E0E3
:102EF0003787268720EC30E0318B208B21EC30E0C7
:102F0000338B228B22EC30E0358B248B26EC30E0A7
:102F1000378B268B118E128E138E148ECEE5D3E056
:102F20001B821A828C839D83AE83BF8386E491E0EB
:102F3000998388838AE090E00E94542390935F04F1
:102F400080935E0482E090E00E94542390935D049D
:102F500080935C0482EC91E00E94542390935B0484
:102F600080935A04EAE6F3E084E0818313826DE5FE
:102F700071E084E594E00E94DE10E3E4F4E081E196
:102F8000DF011D928A95E9F7EDE3F4E080E48083A8
:102F9000D283C183DF91CF910895CF93DF93CDB7D3
:102FA000DEB7E8970FB6F894DEBF0FBECDBF7894BA
:102FB00084B5826084BD84B5816084BD85B582603E
:102FC00085BD85B5816085BD80916E0081608093EF
:102FD0006E00109281008091810082608093810058
:102FE0008091810081608093810080918000816068
:102FF000809380008091B10084608093B1008091C3
:10300000B00081608093B00080917A0084608093EA
:103010007A0080917A00826080937A0080917A00B1
:10302000816080937A0080917A00806880937A0032
:103030001092C100E091D102F091D20212E010830F
:10304000E091CD02F091CE021082E091CF02F0919A
:10305000D00280E180831092D902E091D502F091F4
:10306000D60286E08083E091D302F091D402808181
:1030700080618083E091D302F091D40280818860E6
:103080008083E091D302F091D402808180688083B4
:10309000E091D302F091D40280818F7D808385E01E
:1030A00090E0A0E0B0E08093C5029093C602A093A8
:1030B000C702B093C8028DEB92E00E9451091092B2
:1030C00055021092540210927202109271020E94E4
:1030D000ED048BE392E090931F0280931E028CE339
:1030E00092E090931D0280931C0288E18093B800C7
:1030F000F8941092800089E08093810080E293E050
:10310000909389008093880010928500109284002B
:1031100010936F00789410926A0310926F031092CC
:103120006E0380916B0360E00E94290464E070E00C
:1031300084E594E00E94171061E08AE00E9429046F
:1031400080E691E00E9440090E944D09BBE3EB2E0E
:10315000B2E0FB2E00E110E0C8010E944D0AD70149
:103160008D937D010F5F1F4F00321105A9F710925B
:1031700055021092540210927202109271020E9433
:10318000ED048BE392E090931F0280931E028CE388
:1031900092E090931D0280931C0240E860E08DE372
:1031A00094E00E9478076AE070E080E090E00E947E
:1031B000930440E050E06AE774E48DE394E00E94F9
:1031C0007F08A0E4CA2EA8E7DA2EADE7EA2EFF2496
:1031D000F394C0924004D0924104E0924204F092F1
:1031E000430440E050E060EA73E48DE394E00E9421
:1031F0007F08C0924604D0924704E0924804F092BF
:103200004904C0924004D0924104E0924204F092FA
:1032100043040E94010880E00E945A04BC01990FF7
:10322000880B990B611571058105910511F00E94BC
:10323000702588E992E00E94510990E080E08C01BD
:103240000F5F1F4F8A5E9E4F0E944D0A080F111D8F
:10325000C8018A5E9E4F0E944D0A8E3419F0C80143
:103260000496EDCF68E071E0C801885E9E4F0E9431
:10327000F50F8CE691E00E9440090E944D0985E01F
:103280000E9464076CE271E080E090E00E94930489
:1032900089E70E94E70162E070E08EE593E00E941A
:1032A000C20770E060E08EE593E00E94C2078EE501
:1032B00093E00E947A06882309F4C3C06AE070E0B4
:1032C00080E090E00E9493040FE113E0C12CD12C28
:1032D0007601F8016591749180915A0490915B0494
:1032E0000E94972567E771E080915A0490915B04F2
:1032F0000E94A7255C0189E70E94E70164E070E075
:103300008EE593E00E94C2076C2D8EE593E00E944B
:103310004B06F50101900020E9F73197AF014A19FA
:103320005B09B5018EE593E00E941E068EE593E0F1
:103330000E947A06882309F489C06AE070E080E080
:1033400090E00E9493044AE0C701B6010E947F0901
:103350000E944D090E5F1F4FBFEFCB1ADB0AEB0A2D
:10336000FB0AEEE0CE16D104E104F10409F0B1CF7E
:1033700086E00E9464076CE271E080E090E00E94C9
:1033800093048FEF93E00E94FB1360ED77E080E001
:1033900090E00E94930482EB92E00E9451098BEA34
:1033A00092E00E94510984EA92E00E94510985E16D
:1033B0000E945A047C018A3892400CF0A5C080918A
:1033C000200290912102E816F90609F09DC083EDD4
:1033D00092E00E946B03C70163E670E00E94E32A5B
:1033E0004B01072E000CAA08BB0877FF34C06DE222
:1033F00081EC92E00E941E0366277727CB016819B3
:1034000079098A099B094AE00E947F0986E50E94A2
:103410005D0981ED93E00E94FB13CC24C394DD246D
:10342000D3940FEF10E00D19110961E08AE00E94BA
:1034300029040115110599F460E08AE00E94CF0388
:1034400031C06CE271E080E090E03CCF6CE271E072
:1034500080E090E076CF4AE0C501B401D5CFE9EC39
:10346000F2E084918330B1F148F48130B9F08230D8
:1034700061F10038110504F361E0DFCF8730A1F17D
:103480008830D1F18430A9F78091800080628093E8
:10349000800010938B0000938A0004C084B580687C
:1034A00084BD07BDFFEFDF1202C0CC24CA9465E0E3
:1034B00070E080E090E00E949304DC0C09F0B1CF52
:1034C000F0922102E092200272CF84B5806284BD26
:1034D00008BDE8CF809180008068809380001093C1
:1034E000890000938800DECF8091B00080688093CF
:1034F000B0000093B300D6CF8091B000806280937B
:10350000B0000093B400CECFF0922102E0922002EE
:1035100082E793E09093300280932F0280916E03B4
:1035200090916F03909332028093310280913C041A
:1035300090E0909334028093330280916A03833049
:1035400009F093C080917403909175038758910995
:103550008E35910508F083C080916E0390916F03C2
:10356000049709F04BC08091760390917703809780
:10357000479708F043C080917803909179030997A9
:103580000997E0F510922E0210922D028FEF9FEF17
:10359000DC018093270290932802A0932902B09324
:1035A0002A0283E090E0909324028093230280918A
:1035B000270290912802A0912902B0912A02892F16
:1035C0009A2FAB2FBB27823609F43AC208F00EC2FD
:1035D000803309F444C208F0F3C1803109F448C2D1
:1035E00008F09CC16FE073E0823009F49FC160E98C
:1035F00071E0CE0181960E94DE109CC180916E0325
:1036000090916F038434910550F1809176039091ED
:103610007703815491098F9710F590E080E040E0A6
:1036200050E0BA01FC01E858FC4F2081318129505B
:1036300031092930310598F4FC01E658FC4F20810E
:103640003181275131092231310508F449C12081E6
:103650003181265031092730310508F45AC11092C2
:103660006A0310926F0310926E0381EC92E00E9445
:10367000DC02181619068CF582E080934E0281EC6C
:1036800092E00E947A02182F80934F0261E070E06E
:1036900080E090E00E9493041B3409F082C2E09025
:1036A0005A04F0905B0410E000E081EC92E00E948C
:1036B000DC02892B51F081EC92E00E947A02F70142
:1036C000E00FF11F80830F5F1F4FF8013197EE0D60
:1036D000FF1D80818E3749F710822FB7F8948091B3
:1036E000580290915902A0915A02B0915B022FBFEB
:1036F0004091350250913602609137027091380244
:10370000841B950BA60BB70B893C9105A105B10550
:1037100008F45BC080E00E946407882379F061E0D0
:1037200089E70E942C051092550280935402882349
:1037300029F08EE593E00E940B068DA7BDA5BF3F43
:1037400009F443C080E0EDA5E8137FC2F0E0EE0F7E
:10375000FF1FE15EFC4F6591749180915A04909136
:103760005B040E94972567E771E080915A0490916D
:103770005B040E94A72567E771E090E080E00E946B
:10378000A725DC018D91BD0180934F028B3609F096
:1037900057C280915E0490915F040E94F72B86E0EF
:1037A00080934E022FB7F89480915802909159025D
:1037B000A0915A02B0915B022FBF80933502909383
:1037C0003602A0933702B093380260914E0266230E
:1037D00009F4A8C2F0904F02653010F5B2E6FB166E
:1037E000F9F0ECE4FE16E1F0F9E4FF16C9F08CE81C
:1037F0008F0D8230A8F070E06B5F7F4F660F771FF0
:10380000072E000C880B990B0E941726EE24E394D8
:1038100010E000E020E030E048E452E40E9485112E
:1038200080914D028356823030F483E6F81619F009
:1038300087E40E945D0980914F02803751F08091AA
:103840004C02811106C081E080934C0280E70E9407
:103850005D09F0904F02EEEBEF0DE93308F006C280
:103860000E2E000CFF0BE95CF34E0C94F72A93210B
:10387000361E361E361E361E361E361E4621361E95
:10388000DF2186214621361E361E361E361E361E86
:10389000361ECF21361E361E361E361E361E361EEC
:1038A000361E361E361E361E361E361E9B1FB11F96
:1038B000B11F6122361E361E361E361EB11F071F6F
:1038C0004B22361EB11F361E3D1FF41E361E361EFD
:1038D000421FB11FB11F361E361E361E361E2A1E4F
:1038E000440F551F661F771F41600496803891056D
:1038F00009F098CE80E290E090932E0280932D0202
:1039000040932702509328026093290270932A0261
:1039100048CE440F551F661F771FE7CF883109F443
:10392000A1C067E173E0823209F061CECE018196D9
:103930000E941F1169E771E0CE0181960E94E5099E
:10394000882309F4A1C06BE771E084E594E00E944C
:10395000A81064E574E0CE0187960E948C10CE0119
:1039600081960E940C0A60E971E0CE0187960E9460
:10397000E50981111AC000915E0410915F046FA1E6
:1039800078A5C8010E94F72BD8010D900020E9F717
:10399000CD0102978017910709F001C1F8018081DC
:1039A00080934F0281E080934E0210926A0310923E
:1039B0006F0310926E03CE0187960E940C0A55CEBB
:1039C0008A3409F45BC048F4883309F454C066EEC5
:1039D00072E0823409F4AACF0ACE823509F451C0CC
:1039E00069EE72E08A3509F4A1CF01CE823A29F15D
:1039F00088F48A37D1F130F464E073E0883609F452
:103A000095CFF5CD803941F161E073E0883909F453
:103A10008DCFEDCD823CB9F040F4883AD1F06EEF15
:103A200072E0803B09F482CFE2CD803E79F069E11B
:103A300073E0823E09F47ACFDACD6DE173E076CFA0
:103A40006BE173E073CF6DE073E070CF6BE073E018
:103A50006DCF69E073E06ACF67E073E067CF6BEF2B
:103A600072E064CF67EF72E061CF63EF72E05ECF28
:103A700060EF72E05BCF6DEE72E058CF63EE72E004
:103A800055CF6EED72E052CF6EE771E0CE018196B8
:103A90000E94E509811110C060E871E0CE018196B5
:103AA0000E94E509811108C062E871E0CE018196AB
:103AB0000E94E5098823D1F18DA19EA1892B21F0D7
:103AC000E9A1FAA1309721F410922202E2E2F2E099
:103AD000108110930101163431F46DE571E084E535
:103AE00094E00E94A81064E574E0CE0101960E9463
:103AF0008C101FA318A641E050E0BE01695D7F4F06
:103B0000CE0101960E943F10811104C0CE010196A2
:103B10000E94FA09BE016F5F7F4FCE0187960E9417
:103B20008C10CE0101960E940C0A19CF64E871E056
:103B3000CE0181960E94E50981111EC067E871E0FF
:103B4000CE0181960E94E509811116C06DE571E0F4
:103B5000CE0181960E94E50981110EC018A61FA210
:103B60001AA619A61CA61BA6BE016F5D7F4FCE012B
:103B700087960E94140AF3CE69A17AA16115710596
:103B800049F04DA15EA184E594E00E946B10109174
:103B90000101A9CF84E594E00E94FA09F8CF8BE6F1
:103BA000FFCE81EC92E00E94DC02181619060CF0A0
:103BB00094CD60E971E0CE0181960E94DE10193447
:103BC00039F084EB810F823018F06AE0123409F486
:103BD0006EE7CE0101960E94EF10BE016F5F7F4F2E
:103BE000CE0181960E94140ACE0101960E940C0A11
:103BF0002DA13EA130933A02209339021B3631F0B9
:103C000080915A0490915B04143721F480915E04F2
:103C100090915F0449A15AA1DC01FA01BF01641B24
:103C2000750B621773071CF461916D93F7CF820FC8
:103C3000931FDC011C92CE0181960E940C0A4DCD8F
:103C400080915A0490915B04A8CD8F5F8E3009F06B
:103C50007ACDA5CD80914B0291E0892780934B02CC
:103C6000882311F03AE5F32EF0924F0280914F0233
:103C70008B3621F4909160021916E4F40E945D09DC
:103C800010914F02812F012E000C990B0E94DD2B09
:103C9000873631F0863721F0823611F01A3621F45A
:103CA00080914D028B3619F01B7F103719F48BE68B
:103CB00080934F0200915E0410915F0466E971E009
:103CC000C8010E94EE2BF0904F02892B09F1E9E424
:103CD000FE16F1F085EB8F0D8330D0F080915C04FF
:103CE00090915D04009711F00E94F02381E090E034
:103CF0000E945423F80101900020E9F7E01BDC0149
:103D0000EC9390935D0480935C04B8010E94F72BC0
:103D100010924E02F0924D028F2D877F833611F064
:103D200010924F0280914F028B3609F064C4D090FC
:103D30006002D7FED8C3D0906D02DA9410E082E31F
:103D4000C82E212F30E080916002082E000C990BC4
:103D500097FF03C0919581959109281739070CF0B9
:103D60004AC4E0906F02F090700280916502189F43
:103D7000E00CF11C1124F7016089062E000C770B72
:103D8000880B990B0E94172620E030E040E85EE3A4
:103D90000E9476269B01AC0100E060916A02C70197
:103DA0000E94360D80916502E0916F02F0917002E1
:103DB000189FE00DF11D11242189022E000C330BF8
:103DC000AC2D0C2C000CBB0B0E94FD2A0E9493040E
:103DD00080916C02181306C01D1424F410916B021C
:103DE0001150DA941F5FADCF80914C0291E08111A8
:103DF00090E090934C02882311F020E5F22EF0928F
:103E00004F02882309F432CF0E9401082FCF0E946D
:103E1000C30960E971E0CE0181960E94DE1002E0E4
:103E200011E092E2E92E91E0F92ED8016D917D9199
:103E30008D01CE0101960E94B2104D815E81698193
:103E40007A81CE0181960E943F10CE0101960E9498
:103E50000C0A42E050E06EE871E0CE0181960E94CB
:103E60003F10E016F10609F7CE0181960E946C0919
:103E7000CE0181960E940C0AF9CE86EC93E00E9456
:103E8000FB13F4CE8DE693E00E9451090BE3802EE4
:103E900002E0902E80E4E82EF12C00E110E0F40125
:103EA000D1904F01C8010E943427D81621F06D2D02
:103EB000C8010E943C27C7010E94E00A6C01C801AA
:103EC00080960E944D0AB82EF40131976081062E2B
:103ED000000C770B880B990B0E9417262B013C01D5
:103EE0006B2DBB0C770B880B990B0E9417269B013F
:103EF000AC01C301B2010E9476262B013C01B60140
:103F0000DD0C880B990B0E9417269B01AC01C301A5
:103F1000B2010E94E5270E94C828C70180960E942E
:103F2000F50F0F5F1F4FF2E0EF0EF11C003211058D
:103F300009F0B5CF9BCE85E693E00E9451091BE3C3
:103F4000E12E12E0F12E00E110E0C8010E944D0ABE
:103F5000D7018D937D010F5F1F4F00321105A9F727
:103F600085CEE2E0F1E0DE0111961D018191919193
:103F70008D939D9381E0E232F807C1F794E7F9123F
:103F8000D7C080915E0490915F046AE871E00E945E
:103F9000A7253C016114710409F4CFC0C3010E943C
:103FA00079258C016DE871E090E080E00E94A72502
:103FB0003C01D12CC12CBB24B394009761F00E942A
:103FC00079256C016DE871E090E080E00E94A72502
:103FD0003C01B2E0BB2EF801EE0FFF1FE20DF31D16
:103FE000D182C08280914F02833609F0ACC010921A
:103FF0004B0280914D02833661F0E0905E04F090B8
:104000005F0467E571E0C7010E94F72BC7010E94BA
:10401000C10ED801A55CBD4F7D01B2E0BB1202C04C
:10402000F701C082C8018096880F991F0E94E00A9C
:104030006C01C8019927C0960E944D0A182FD7011C
:104040006C91062E000C770B880B990B0E9417269B
:104050004B015C01612F110F770B880B990B0E94AC
:1040600017269B01AC01C501B4010E9476264B01C5
:104070005C01B601DD0C880B990B0E9417269B0191
:10408000AC01C501B4010E94E5270E94C828072E93
:10409000000C880B990B0E941726AB01BC01802FE6
:1040A0000E94F40A0E94C30960E971E0CE0187967C
:1040B0000E94DE100BE312E0F80161918F01062EE1
:1040C000000C770BCE0181960E94B2104DA15EA12B
:1040D00069A17AA1CE0187960E943F10CE018196F8
:1040E0000E940C0A42E050E06EE871E0CE01879633
:1040F0000E943F108BE492E080179107E9F6CE0111
:1041000087960E946C09CE0187960E940C0A611462
:10411000710409F03FCF80914F02893609F0A6CD96
:1041200040E050E060E070E4C1010E94EB0B9ECDE6
:1041300080915A0490915B0428CFD12CC12C10E0BF
:1041400000E0B12C48CF8D3641F440E050E060E013
:1041500070E4C1010E94EB0BDACF8437C1F28537DE
:1041600009F07AC00E94C5246AE070E00E94E32A48
:1041700084528FA70E94C5246AE070E00E94E32A5F
:104180008E528EA70E94C5248C010E94C52462E035
:1041900070E00E94E32A8F5F88ABC80164E070E0A2
:1041A0000E94E32A0296282F220F220F280F30E0C8
:1041B000A8EEB3E00E94D52769AB7AAB8BAB9CAB82
:1041C000B12C9EA5492E512CA8A9BA1608F09FCF54
:1041D000AEA4912C812CBFA5AB1608F03BC06201A8
:1041E000C80CD91C8601000F111F000F111F0550AC
:1041F0001109CC0CDD1CC601B0E0A0E08DAB9EAB7C
:10420000AFABB8AFC12CD12C760189A99AA9ABA9C3
:10421000BCA9C816D906EA06FB06BCF461E085E035
:104220000E94CF03C8010197F1F760E085E00E948A
:10423000CF03C8010197F1F78DA99EA9AFA9B8AD29
:10424000C80ED91EEA1EFB1EE0CFA3949FEF891A69
:10425000990AC1CFB394B8CF823609F058CFB601CE
:10426000DD0C880B990B0E9417264B015C01B801ED
:10427000110F880B990B0E941726EE24E39402E39A
:1042800010E0A50194010E94851141CFE2E0F1E028
:10429000DE01119682E291E07D01219131912D9311
:1042A0003D938E179F07C9F710E000E020914F0261
:1042B0008091390290913A0208171907F4F4A091FD
:1042C0005A04B0915B04A00FB11FEC91EE0FFF0BED
:1042D000EE0DFF1D11968C91082E000C990B918309
:1042E00080832D3439F440E050E060E070E4C70191
:1042F0000E94EB0B0E5F1F4FD9CF293409F0B6CCCB
:1043000040E050E060E070E4C7010FCF00E020E043
:1043100030E040E050E461E080915A0490915B0409
:104320000E94360DA3CCF12C2F2D30E08091390264
:1043300090913A0297FD0196959587952817390730
:104340000CF0ABC100915A0410915B04220F331F93
:10435000020F131FD80111966C91062E000C770BDB
:1043600088EE93E00E94E32A072E000C880B990B3D
:104370000E9417264B015C01F8016081062E000C9B
:10438000770B880B990B0E941726EE24E39410E01C
:1043900000E0A50194010E948511F394C5CF84E14A
:1043A00091E00E94E00A0E940D080E949E0E8091FA
:1043B0004F020E945D098BE680934F0257CCA0907C
:1043C0005A04B0905B0484E191E00E94E00A8C0101
:1043D000D5016C916093600285E692E00E94A5078A
:1043E00001967C01D12CC12C1E141F0474F584E5A8
:1043F0000E94E701612F70E08EE593E00E94C20702
:10440000B80177278EE593E00E94C20745018C0C26
:104410009D1C3801B0E16B0E711C0115E0E21E0716
:10442000B9F40E944D098BE393E00E94510992E098
:10443000E92E02E310E020E030E048EC52E460E0D6
:1044400070E080E291E40E9485110E949E0EB3CF3D
:10445000FFEFCF1ADF0AD4016D914D018EE593E095
:104460000E944B060F5F1F4FB1E0EB1AF10841F0BD
:10447000C8018F719927892B19F06016710669F6AA
:104480008EE593E00E947A0666E070E080E090E0BE
:104490000E949304A9CF00915E0410915F04B801BB
:1044A00080915C0490915D040E94EE2B892B29F48D
:1044B0008091600282300CF0EEC0C8010E94C10EF3
:1044C000D5CB00915E0410915F0461E971E0C801F1
:1044D0000E94F72BC8010E94C10E0E94010887E6C6
:1044E0000E945D09C3CB80915C02803108F4AFC0AB
:1044F000209156023091570210925C0280914C023A
:10450000820F932F911D2D2D0D2C000C330B821734
:1045100093070CF098C090935702809356028091B5
:104520005C02843019F488E080935C02C0905C02E5
:1045300020916E02E0905602F09057020C2D10E090
:10454000C21608F08DC0F1E0FD150CF089C0812C79
:10455000912C5401CF1659F060915F02062E000C89
:10456000770B880B990B0E9417264B015C010E5F9D
:104570001F4F0E9DB0010F9D700D1E9D700D1124DB
:10458000072E000C880B990B0E9417262BED3FE09D
:1045900049E450E40E9476262B013C016D2DDD0C90
:1045A000770B880B990B0E9417269B01AC01C30166
:1045B000B2010E9456280E94922920E030E040E299
:1045C00051E40E947626A50194010E94E5272091DE
:1045D00050023091510240915202509153020E9478
:1045E000E527AB01BC018C2D0E94450B80915C023C
:1045F0008F5F80935C028091600287FF14C00091FE
:104600005E0410915F0469E971E0C8010E94F72B14
:10461000F8018081882319F0C8010E94C10E8091A1
:104620004F020E945D0980E090E0892B11F40C9408
:10463000D7190E94E802882311F40C94D7190E941C
:1046400000000C94D71910925702109256028091D4
:104650005C02823009F063CF88E080935C025FCF18
:10466000309165023E9DC0013F9D900D1124080FC1
:10467000191F021B110980916F0290917002080F9F
:10468000191FD8016C91062E000C770B880B990B23
:104690000E9417269CCF8F2DEDCA80914F02EECA43
:1046A00084E594E00C940C0A0F931F93CF93DF934F
:1046B0008230910510F482E090E0E0916404F09182
:1046C000650430E020E0B0E0A0E0309799F42115D7
:1046D000310509F44AC0281B390B24303105D8F5BF
:1046E0008A819B816115710589F1FB019383828326
:1046F000FE0111C040815181028113814817590781
:10470000E0F04817590799F4109761F012960C934E
:10471000129713961C933296CF01DF91CF911F9180
:104720000F9108950093640410936504F4CF21154C
:10473000310551F04217530738F0A901DB019A0106
:10474000BD01DF01F801C1CFEF01F9CF90936504FE
:1047500080936404CDCFFE01E20FF31F8193919308
:104760002250310939832883D7CF209162043091B8
:104770006304232B41F420912401309125013093CF
:1047800063042093620420912201309123012115BA
:10479000310541F42DB73EB74091260150912701D4
:1047A000241B350BE0916204F0916304E217F307D8
:1047B000A0F42E1B3F0B2817390778F0AC014E5F91
:1047C0005F4F2417350748F04E0F5F1F5093630467
:1047D00040936204819391939FCFF0E0E0E09CCFFF
:1047E000CF93DF930097E9F0FC0132971382128296
:1047F000A0916404B0916504ED0130E020E01097D1
:10480000A1F420813181820F931F209162043091A5
:1048100063042817390709F061C0F0936304E0933B
:104820006204DF91CF910895EA01CE17DF07E8F522
:104830004A815B819E0141155105B1F7E901FB8376
:10484000EA8349915991C40FD51FEC17FD0761F414
:10485000808191810296840F951FE9019983888355
:10486000828193819B838A83F0E0E0E012968D91B0
:104870009C9113970097B9F52D913C911197CD011B
:104880000296820F931F20916204309163042817CF
:10489000390739F6309751F5109265041092640487
:1048A000B0936304A0936204BCCFD383C2834081DE
:1048B0005181840F951FC817D90761F44E5F5F4F70
:1048C00088819981480F591F518340838A819B8138
:1048D000938382832115310509F0B0CFF0936504ED
:1048E000E09364049ECFFD01DC01C0CF13821282ED
:1048F000D7CF8F929F92AF92BF92CF92DF92EF92DB
:10490000FF92CF93DF93EC01688179818A819B814B
:10491000611571058105910521F464E279ED8BE55E
:1049200097E02DE133EF41E050E00E944A27490132
:104930005A019B01AC01A7EAB1E40E9469276B010F
:104940007C01ACEEB4EFA50194010E947727DC0155
:10495000CB018C0D9D1DAE1DBF1DB7FF03C0019780
:10496000A109B04888839983AA83BB839F77DF918D
:10497000CF91FF90EF90DF90CF90BF90AF909F903E
:104980008F9008950E947924089588E291E00E9412
:1049900079240895B0E0A0E0809328019093290144
:1049A000A0932A01B0932B0108958F929F92AF920A
:1049B000BF92CF92DF92EF92FF92CF93DF93EC0101
:1049C000688179818A819B816115710581059105D5
:1049D00021F464E279ED8BE597E02DE133EF41E0DE
:1049E00050E00E944A2749015A019B01AC01A7EA05
:1049F000B1E40E9469276B017C01ACEEB4EFA50124
:104A000094010E947727C60ED71EE81EF91EF7FEF6
:104A100006C081E0C81AD108E10880E8F80AC88217
:104A2000D982EA82FB82C701B6019F77DF91CF91DD
:104A3000FF90EF90DF90CF90BF90AF909F908F90BE
:104A400008958F929F92AF92BF92CF92DF92EF9292
:104A5000FF9260912C0170912D0180912E01909117
:104A60002F01611571058105910521F464E279ED4D
:104A70008BE597E02DE133EF41E050E00E944A27BB
:104A800049015A019B01AC01A7EAB1E40E946927E0
:104A90006B017C01ACEEB4EFA50194010E94772775
:104AA000C60ED71EE81EF91EF7FE06C081E0C81A22
:104AB000D108E10880E8F80AC0922C01D0922D01BB
:104AC000E0922E01F0922F01C701B6019F77FF906F
:104AD000EF90DF90CF90BF90AF909F908F90089510
:104AE00060932C0170932D0180932E0190932F01E0
:104AF0000895FC0188279927E89421912032E9F351
:104B0000293010F02E30C8F32B3241F02D3239F419
:104B1000689404C00E94DE25820F911D21912053CC
:104B20002A30C0F31EF4909581959F4F0895FB01A4
:104B3000DC0105900D920020E1F70895FC0105903D
:104B40000020E9F7809590958E0F9F1F089540E60D
:104B500054E00E94AC250895FA01A191B08100971C
:104B600019F41097E1F0CD01DC01CD010D9000208A
:104B700011F4C00113C0FB012191222319F020156B
:104B8000D9F7F3CFFB012191201519F41E9211964C
:104B900006C02223C1F70D900020A1F7D001FA0131
:104BA000A193B0830895BB274A3031F4992322F4AE
:104BB000BDE2909581959F4F0C94E7257AE0979FF1
:104BC000902D879F802D910D11240895BB27FB0107
:104BD0005527AA27880F991FAA1FA41710F0A41BF6
:104BE00083955051B9F7A05DAA3308F0A95DA19350
:104BF000009779F7B111B1931192CB010C94002673
:104C0000DC01FC01672F71917723E1F7329704C033
:104C10007C916D9370836291AE17BF07C8F30895BE
:104C20000E94522608F481E00895E89409C097FB99
:104C30003EF490958095709561957F4F8F4F9F4F73
:104C40009923A9F0F92F96E9BB279395F6958795B7
:104C500077956795B795F111F8CFFAF4BB0F11F47A
:104C600060FF1BC06F5F7F4F8F4F9F4F16C0882321
:104C700011F096E911C0772321F09EE8872F762F57
:104C800005C0662371F096E8862F70E060E02AF098
:104C90009A95660F771F881FDAF7880F9695879584
:104CA00097F90895990F0008550FAA0BE0E8FEEF59
:104CB00016161706E807F907C0F012161306E407E0
:104CC000F50798F0621B730B840B950B39F40A26D9
:104CD00061F0232B242B252B21F408950A2609F4B7
:104CE000A140A6958FEF811D811D08950E94892600
:104CF0000C94FA260E94EC2638F00E94F32620F04D
:104D0000952311F00C94E3260C94E92611240C94BD
:104D10002E270E940B2770F3959FC1F3950F50E04B
:104D2000551F629FF001729FBB27F00DB11D639F5D
:104D3000AA27F00DB11DAA1F649F6627B00DA11D03
:104D4000661F829F2227B00DA11D621F739FB00DA9
:104D5000A11D621F839FA00D611D221F749F332719
:104D6000A00D611D231F849F600D211D822F762FB2
:104D70006A2F11249F5750409AF0F1F088234AF08F
:104D8000EE0FFF1FBB1F661F771F881F91505040FB
:104D9000A9F79E3F510580F00C94E3260C942E2732
:104DA0005F3FE4F3983ED4F3869577956795B79582
:104DB000F795E7959F5FC1F7FE2B880F911D96959C
:104DC000879597F9089597F99F6780E870E060E00C
:104DD00008959FEF80EC089500240A941616170694
:104DE00018060906089500240A94121613061406DC
:104DF00005060895092E0394000C11F4882352F03F
:104E0000BB0F40F4BF2B11F460FF04C06F5F7F4FF6
:104E10008F4F9F4F089557FD9058440F551F59F0DD
:104E20005F3F71F04795880F97FB991F61F09F3F97
:104E300079F087950895121613061406551FF2CFC0
:104E40004695F1DF08C0161617061806991FF1CF10
:104E500086957105610508940895E894BB27662737
:104E60007727CB0197F90895F999FECF92BD81BDBF
:104E7000F89A992780B50895262FF999FECF1FBA81
:104E800092BD81BD20BD0FB6F894FA9AF99A0FBE73
:104E900001960895052E97FB1EF400940E94612749
:104EA00057FD07D00E94B32707FC03D04EF40C94A3
:104EB000612750954095309521953F4F4F4F5F4F5B
:104EC000089590958095709561957F4F8F4F9F4F76
:104ED00008950E94D527A59F900DB49F900DA49F83
:104EE000800D911D11240895B7FF0C9469270E942D
:104EF0006927821B930B08952F923F924F925F92E6
:104F00006F927F928F929F92AF92BF92CF92DF92D9
:104F1000EF92FF920F931F93CF93DF93CDB7DEB73E
:104F2000CA1BDB0B0FB6F894DEBF0FBECDBF0994D2
:104F30002A88398848885F846E847D848C849B8429
:104F4000AA84B984C884DF80EE80FD800C811B8137
:104F5000AA81B981CE0FD11D0FB6F894DEBF0FBE66
:104F6000CDBFED010895A1E21A2EAA1BBB1BFD01C6
:104F70000DC0AA1FBB1FEE1FFF1FA217B307E40738
:104F8000F50720F0A21BB30BE40BF50B661F771F90
:104F9000881F991F1A9469F7609570958095909570
:104FA0009B01AC01BD01CF010895A29FB001B39F49
:104FB000C001A39F700D811D1124911DB29F700D22
:104FC000811D1124911D08955058BB27AA270E94C6
:104FD000FC270C94FA260E94EC2638F00E94F32657
:104FE00020F039F49F3F19F426F40C94E9260EF4CE
:104FF000E095E7FB0C94E326E92F0E940B2758F37A
:10500000BA17620773078407950720F079F4A6F5AD
:105010000C942D270EF4E0950B2EBA2FA02D0B012A
:10502000B90190010C01CA01A0011124FF27591BED
:1050300099F0593F50F4503E68F11A16F040A22FF3
:10504000232F342F4427585FF3CF46953795279564
:10505000A795F0405395C9F77EF41F16BA0B620B63
:10506000730B840BBAF09150A1F0FF0FBB1F661FAA
:10507000771F881FC2F70EC0BA0F621F731F841FED
:1050800048F4879577956795B795F7959E3F08F013
:10509000B0CF9395880F08F09927EE0F97958795D5
:1050A00008950E940029E3950C9429290E946A28FA
:1050B0000C94FA260E94F32658F00E94EC2640F049
:1050C00029F45F3F29F00C94E32651110C942E270C
:1050D0000C94E9260E940B2768F39923B1F355231A
:1050E00091F3951B550BBB27AA27621773078407FB
:1050F00038F09F5F5F4F220F331F441FAA1FA9F391
:1051000035D00E2E3AF0E0E832D091505040E6957E
:10511000001CCAF72BD0FE2F29D0660F771F881FDF
:10512000BB1F261737074807AB07B0E809F0BB0BD2
:10513000802DBF01FF2793585F4F3AF09E3F5105E6
:1051400078F00C94E3260C942E275F3FE4F3983E0E
:10515000D4F3869577956795B795F7959F5FC9F7CF
:10516000880F911D9695879597F90895E1E0660F50
:10517000771F881FBB1F621773078407BA0720F0C9
:10518000621B730B840BBA0BEE1F88F7E095089532
:105190000E94CF286894B1110C942E2708950E9484
:1051A000132788F09F5798F0B92F9927B751B0F07F
:1051B000E1F0660F771F881F991F1AF0BA95C9F79B
:1051C00014C0B13091F00E942D27B1E008950C94E5
:1051D0002D27672F782F8827B85F39F0B93FCCF398
:1051E000869577956795B395D9F73EF49095809518
:1051F000709561957F4F8F4F9F4F08950C94E926CE
:105200000E941327D8F3E894E0E0BB279F57F0F003
:105210002AED3FE049EC06C0EE0FBB0F661F771F7B
:10522000881F28F0B23A62077307840728F0B25A41
:10523000620B730B840BE3959A9572F7803830F408
:105240009A95BB0F661F771F881FD2F790480C9462
:10525000D629EF93E0FF07C0A2EA2AED3FE049EC30
:105260005FEB0E94FC270E94FA260F90039401FC3A
:105270009058E8E6F0E00C94092A0E94522608F4BF
:105280008FEF0895FA01EE0FFF1F309621053105CB
:10529000A1F16115710561F48038BFE39B0749F105
:1052A00068949038810561F08038BFEF9B0741F02A
:1052B00099234AF5FF3FE1053105210519F1E894ED
:1052C0000894E795D901AA2329F4AB2FBE2FF85FE4
:1052D000D0F310C0FF5F70F4A695E0F7F73950F0F7
:1052E00019F0FF3A38F49F779F930DD00F9007FC89
:1052F0009058089546F00C94E92660E070E080E84C
:105300009FE308954FE79F775F934F933F932F93CA
:105310000E94672A2F913F914F915F910E947626BC
:105320000C94A2299F930E9400290F9007FCEE5F26
:105330000C94292929F416F00C94E3260C942D27BB
:105340000C94E9260E941327A8F39638A0F707F8D3
:105350000F92E8942BE33AEA48EB5FE70E948C2631
:105360000F920F920F924DB75EB70F920E94AF2A25
:10537000E6E8F0E00E94E2294F915F91EF91FF9102
:10538000E595EE1FFF1F49F0FE57E0684427EE0F3A
:10539000441FFA95E1F74195550B0E94292A0F9079
:1053A00007FE0C941D2A08959F3F31F0915020F480
:1053B000879577956795B795880F911D96958795F1
:1053C00097F90895DF93CF931F930F93FF92EF9276
:1053D000DF927B018C01689406C0DA2EEF010E94F7
:1053E0008926FE01E894A591259135914591559125
:1053F000A6F3EF010E94FC27FE019701A801DA94B1
:1054000069F7DF90EF90FF900F911F91CF91DF919F
:1054100008959F938F937F936F93FF93EF939B01D7
:10542000AC010E947626EF91FF910E94E2292F9114
:105430003F914F915F910C9476269B01AC0160E007
:1054400070E080E89FE30C9456280C94E3260C94BB
:10545000D4290E941327D8F39923C9F3940F511D1F
:10546000A3F39150504094F059F0882332F0660F26
:10547000771F881F91505040C1F79E3F51052CF770
:10548000880F911D9695879597F908955F3FACF029
:10549000983E9CF0BB27869577956795B79508F45D
:1054A000B1609395C1F7BB0F58F711F460FFE8CFD7
:1054B0006F5F7F4F8F4F9F4FE3CF0C942E2716F0D7
:1054C0000C94D4290C94E92668940C94E3260E9449
:1054D0001327A8F39923C1F3AEF3DF93CF931F9360
:1054E0000F93FF92C92FDD2788232AF02197660F9B
:1054F000771F881FDAF720E030E040E85FEB9FE39A
:10550000883920F0803E38F021968F770E94E52779
:10551000EEEAF0E004C00E94E527EBEDF0E00E9427
:10552000E2298B01BE01EC01FB2E6F5771097595C5
:10553000771F880B990B0E94172628E132E741E379
:105540005FE30E948926AF2D9801AE01FF900F9175
:105550001F91CF91DF910E94FC270C94FA26FA014B
:10556000DC01AA0FBB1F9B01AC01BF5728F4222707
:1055700033274427507820C0B75190F4AB2F002434
:10558000469537952795011CA395D2F3002071F01D
:10559000220F331F441FB395DAF30ED00C94E42787
:1055A00061307105A0E88A07B94630F49B01AC016F
:1055B0006627772788279078309621F020833183DB
:1055C00042835383089597FB072E16F4009407D067
:1055D00077FD09D00E940C2B07FC05D03EF4909576
:1055E00081959F4F0895709561957F4F0895EE0FB7
:1055F000FF1F0590F491E02D09940E94D5273323D5
:1056000012F48A1B9B0B0C94072B0E94D527B7FF23
:105610000895821B930B0895AA1BBB1B51E107C081
:10562000AA1FBB1FA617B70710F0A61BB70B881F32
:10563000991F5A95A9F780959095BC01CD010895C1
:10564000B0E0A0E0E6E2FBE20C947E278C0100973C
:1056500051F4CB010E9454238C01C801CDB7DEB7B1
:10566000E0E10C949A27FC01E60FF71F9C01225001
:105670003109E217F30708F49DC0D901CD91DC91FF
:105680001197C617D70798F0C530D10530F3CE0172
:1056900004978617970708F3C61BD70B2297C19369
:1056A000D1936D937C93CF010E94F023D6CF5B0101
:1056B000AC1ABD0A4C018C0E9D1EA0916404B091E1
:1056C0006504512C412CF12CE12C109731F580917F
:1056D0006204909163048815990509F05CC0461630
:1056E000570608F058C0809122019091230100973D
:1056F00041F48DB79EB74091260150912701841B3C
:10570000950BE817F90708F055C0F0936304E09390
:105710006204F90171836083A0CF8D919C911197F0
:1057200012966C90129713967C901397A815B90552
:1057300059F56C0142E0C40ED11CCA14DB0420F1FF
:10574000AC014A195B09DA011296159780F0628262
:10575000738251834083D9016D937C93E114F104EA
:1057600071F0D7011396FC93EE93129776CF2296A1
:105770008C0F9D1FF90191838083F301EFCFF0938C
:105780006504E093640469CF4816590608F42C01B7
:105790007D01D3019ACFCB010E9454237C01009755
:1057A00049F0AE01B8010E94E52BC8010E94F02328
:1057B000870153CF10E000E050CF9111089581543C
:1057C0008A5108F4805E855A0895FB01DC0102C00D
:1057D00001900D9241505040D8F70895FB01DC0133
:1057E0008D91019080190110D9F3990B0895FB0157
:1057F000DC0101900D920020E1F70895FB01DC012E
:105800004150504030F08D910190801919F40020E2
:10581000B9F7881B990B089511E0CCEBD1E004C0D7
:10582000FE010E94F72A2196CD3BD107C9F7F894D3
:02583000FFCFA8
:10583200FF46E2FFB0FFD3FF0000000000000000BF
:1058420000004B004B004B004B00C9FFC9FFC9FFD2
:10585200C9FF000066048000010000000100000092
:10586200000000001E033E026B028603DC027A0285
:10587200CE02000000004B061E066107FB05340243
:105882000B06FC050D0A0063616C6962007472000C
:10589200496E697420736572766F7300496E69741C
:1058A20020766F696365003A004200626B00460031
:1058B2004C005200637200776B00202C00202C09F0
:1058C20000726573740072630062616C616E63657D
:0258D2000000D4
:00000001FF
