:100000000C9434070C945C070C945C070C945C070C
:100010000C945C070C945C070C945C070C94621FB6
:100020000C945C070C945C070C945C070C947F2187
:100030000C945C070C945C070C945C070C945C07B4
:100040000C9416200C945C070C94E41F0C94BE1FB7
:100050000C945C070C945C070C945C070C945C0794
:100060000C9460200C945C07084AD73B3BCE016E91
:1000700084BCBFFDC12F3D6C74319ABD56833DDAFF
:100080003D00C77F11BED9E4BB4C3E916BAAAABE0E
:10009000000000803F05A84CCDB2D44EB93836A937
:1000A000020C50B9918688083CA6AAAA2ABE000074
:1000B00000803F07634236B79BD8A71A39685618A5
:1000C000AEBAAB558C1D3CB7CC5763BD6DEDFD751D
:1000D0003EF6177231BF000000803F08000000BEEE
:1000E000922449123EABAAAA2ABECDCCCC4C3E00EB
:1000F000000080BEABAAAAAA3E00000000BF00001C
:1001000000803F0000000000084178D3BB4387D146
:10011000133D190E3CC3BD4282AD2B3E68EC827686
:10012000BED98FE1A93E4C80EFFFBE01C4FF7F3FE7
:1001300000000000000001000001000000000000BD
:10014000000000000000000000000000000023008C
:100150002600290000000000240027002A000000DB
:100160000000250028002B000404040404040404F7
:100170000202020202020303030303030102040852
:100180001020408001020408102001020408102001
:100190000200F8F62A3F68F57A0006FFFE00030029
:1001A0000000650054FFEF0000FA80000B1282008F
:1001B00001030C30C30A74562D0D62DBC716F4BA66
:1001C000023883F8833000F883258EF8833000F8F6
:1001D00083FFFFFFFF0CBDD811240004001A8279B1
:1001E000A10036003C000000000010000038836FC2
:1001F000A2003E03304000000002CAE3093E800036
:10020000002000000000000000400000006000002E
:10021000001FA4E8E4FFF5DCB9005B79CF1F3F784D
:100220007600867C5A00862347FAB98631007487A7
:100230008A0000000000004305FFFFE9A80000213C
:1002400082FAB84D46FFFADF3DFFFFB2B30000006F
:10025000003FFFBA98005DAC08000A6378000146D1
:1002600021FFFF0000000042B500060064006400AA
:10027000061406029F0F479132D90E9FC91DCF4C1D
:10028000343BB67AE80064000600C800000000FFB6
:10029000FE10000000000000000000000000000050
:1002A0000000070000FFF10000FA460000A2B800BD
:1002B000001000000004D6000004CC000004CC00B4
:1002C000000000000000000000000000000000002E
:1002D00000000600020005000700000000006400A6
:1002E00000000000000000000C0005006400200079
:1002F00000000000000000000000004000000003BB
:100300000000000032F8980000FF650000830F0035
:100310000000060000FFF10000FA460000A2B8004D
:1003200000000000000000000000000000000000CD
:10033000000000003200000000000000000000107B
:1003400000000000010000000D0000B26A00020081
:10035000000001FB83007C0000FB15FC001FB4FFC4
:10036000830000000100650007006403E8006400EA
:10037000280000FFFD0000000016A00000000000A3
:100380000000001000002F0000000001F400001029
:100390000000280000FFFF4581FFFFFA7200000007
:1003A0000000000000004400010005BAC6004778C4
:1003B000A200000000000000000000060000000095
:1003C00014000023BB002EA25B00000568000BCFC9
:1003D000490004FFFD0002000000000002000000D0
:1003E00000001B00000000000000000000000000F2
:1003F0000000640007000800060006FFFE00000081
:1004000000000000000000000000000000000000EC
:1004100000000000000000000000000000000000DC
:1004200000000000000000000000000000000000CC
:1004300000002EA25B00000568000BCF4900000001
:100440000000F8F62A3F68F57A0004FFFD0002007C
:1004500000001B00000000000000000000000E0073
:100460000EFFFFFFCF0004000000000032FFFFFF7F
:100470009C00004305000000000000000100000097
:1004800064FFE50000000000000000000000000024
:10049000000000000100000000000100000000005A
:1004A000000001800000018000000180000024267F
:1004B000D3000100010000000000060010009600BB
:1004C0003C0000000000000000000000001F9E65CE
:1004D0005D0C0A4E68CDCF770950166759C619CE04
:1004E00082000000000000000000000000004771D2
:1004F0001C000000000000000017D784000300006B
:10050000000011DC4703000000C7938F9D1E1B1CD9
:1005100019FFFFFFFF000000000EDFA4381F9E65DB
:100520005D000000000047711C02031885000040B8
:1005300000000000000000000300000000000000B8
:10054000003FFFFFFDFFFFF4C9FFFFBCF000010CFF
:100550000F0000000000000000000000000000008C
:10056000000000000000000000000000000000008B
:1005700000F5B7BAB3677DDF7E72902E554CF6E674
:1005800088000000000000000000000000000000E3
:1005900000D8DCB4B8B0D8B9ABF3F8FAB3B7BB8EB7
:1005A0009EAEF132F51BF1B4B8B08097F1A9DFDF50
:1005B000DFAADFDFDFF2AA4CCD6CA90CC92C97F1C2
:1005C000A989264666B28999A92D557DB0B08AA819
:1005D00096365676F1BAA3B4B280C0B8A89711B2D5
:1005E0008398BAA3F0240844106418B2B9B498836D
:1005F000F1A329557DBAB5B1A38393F0002850F536
:10060000B2B6AA839328547CF1B9A3829361BAA2AB
:10061000DADEDFDB819AB9AEF5606870F1DABAA292
:10062000DFD9BAA2FAB9A38292DB31BAA2D9BAA2AF
:10063000F8DF85A4D0C1BBAD83C2C5C7B8A2DFDFD8
:10064000DFBAA0DFDFDFD8D8F1B8AAB38DB4980D38
:10065000355DB2B6BAAF8C96198F9FA70E161EB431
:100660009AB8AA872C547CBAA4B08AB6913256762E
:10067000B28494A4C808CDD8B8B4B0F19982A82D9A
:10068000557D98A80E161EA22C547C92A4F02C50D6
:1006900078F184A898C4CDFCD80DDBA8FC2DF3D943
:1006A000BAA6F8DABAA6DED8BAB2B68696A6D0F35B
:1006B000C841DAA6C8F8D8B0B4B882A892F52C54CC
:1006C0008898F135D9F418D8F1A2D0F8F9A884D9CE
:1006D000C7DFF8F883C5DADF69DF83C1D8F4011416
:1006E000F1A8824EA884F311D182F5D99228978877
:1006F000F109F41C1CD884A8F3C0F9D1D99782F170
:1007000029F40DD8F3F9F9D1D982F4C203D8DEDF88
:100710001AD8F1A2FAF9A88498D9C7DFF8F8F883B3
:10072000C7DADF69DFF883C3D8F40114F198A8822F
:100730002EA884F311D182F5D992509788F109F44B
:100740001CD884A8F3C0F8F9D1D99782F149F40DE7
:10075000D8F3F9F9D1D982F4C403D8DEDFD8F1ADEA
:100760008898CCA809F9D98292A8F57CF1883ACF6B
:10077000944A6E98DB6931DAADF2DEF9D88795A834
:10078000F221D1DAA5F9F417D9F1AE8ED0C0C3AEFB
:1007900082C684C3A88595C8A588F2C0F1F4010E6D
:1007A000F18E9EA8C63E56F554F18872F40115F1FB
:1007B0009845856EF58E9E0488F142985A8E9E0665
:1007C0008869F4011CF1981E1108D0F504F11E97F8
:1007D0000202983625DBF9D985A5F3C1DA85A5F3A0
:1007E000DFD88595A8F309DAA5FAD88292A8F5781A
:1007F000F1881A849F26889821DAF41DF3D8879F00
:1008000039D1AFD9DFDFFBF9F40CF3D8FAD0F8DA3D
:10081000F9F9D0DFD9F9D8F40BD8F3879F39D1AFE4
:10082000D9DFDFF41DF3D8FAFCA869F9F9AFD0DA03
:10083000DEFAD9F88F9FA8F1CCF398DB45D9AFDF6A
:10084000D0F8D8F18F9FA8CAF38809DAAF8FCBF818
:10085000D8F2AD978D0CD9A5DFF9BAA6F3FAF41248
:10086000F2D8950DD1D9BAA6F3FADAA5F2C1BAA693
:10087000F3DFD8F1BAB2B68696A6D0CAF349DAA6A3
:10088000CBF8D8B0B4B8D8AD84F2C0DFF18FCBC309
:10089000A8B2B68696C8C1CBC3F3B0B48898A821D5
:1008A000DB718D9D71859521D9ADF2FAD88597A818
:1008B00028D9F408D8F28D29DAF405D9F285A4C232
:1008C000F2D8A88D9401D1D9F411F2D88721D8F4A7
:1008D0000AD8F28498A8C801D1D9F411D8F3A4C8D1
:1008E000BBAFD0F2DEF8F8F8F8F8F8F8F8D8F1B8BD
:1008F000F6B5B9B08A95A3DE3CA3D9F8D85CA3D9E4
:10090000F8D87CA3D9F8D8F8F9D1A5D9DFDAFAD884
:10091000B18530F7D9DED8F830ADDADED8F2B48C54
:1009200099A32D557DA083DFDFDFB591A0F629D9EE
:10093000FBD8A0FC29D9FAD8A0D051D9F8D8FC51BD
:10094000D9F9D879D9FBD8A0D0FC79D9FAD8A1F9AE
:10095000F9F9F9F9A0DADFDFDFD8A1F8F8F8F8F84B
:10096000ACDEF8ADDE8393AC2C547CF1A8DFDFDF86
:10097000F69D2CDAA0DFD9FADB2DF8D8A850DAA042
:10098000D0DED9D0F8F8F8DB55F8D8A878DAA0D0BE
:10099000DFD9D0FAF8F8F8F8DB7DF8D89CA88CF508
:1009A00030DB38D9D0DEDFA0D0DEDFD8A848DB5876
:1009B000D9DFD0DEA0DFD0DED8A868DB70D9DFDFDA
:1009C000A0DFDFD8F1A888902C547C98A8D05C38A0
:1009D000D1DAF2AE8CDFF9D8B087A8C1C1B188A84E
:1009E000C6F9F9DA36D8A8F9DA36D8A8F9DA36D855
:1009F000A8F9DA36D8A8F9DA36D8F78D9DADF81807
:100A0000DAF2AEDFD8F7ADFA30D9A4DEF9D8F2AE1B
:100A1000DEFAF983A7D9C3C5C7F1889BA77AADF7DA
:100A2000DEDFA4F8849408A797F300AEF29819A427
:100A300088C6A39488F632DFF28393DB09D9F2AA41
:100A4000DFD8D8AEF8F9D1DAF3A4DEA7F1889B7A23
:100A5000D8F38494AE19F9DAAAF1DFD8A881C0C31B
:100A6000C5C7A39283F628ADDED9F8D8A350ADD977
:100A7000F8D8A378ADD9F8D8F8F9D1A1DADEC3C592
:100A8000C7D8A18194F818F2B089ACC3C5C7F1D812
:100A9000B8B4B09786A8319B069907AB9728889B76
:100AA000F00C201440B0B4B8F0A88A9A285078B757
:100AB0009BA8295179247059446938644831F1BBA5
:100AC000AB88002C547CF0B38BB8A804285078F184
:100AD000B088B49726A85998BBABB38B022646665C
:100AE000B0B8F08A9CA82951798B2951798A247051
:100AF000598B2058718A4469388B3940688A644818
:100B0000318B30496088F1AC002C547CF08CA80407
:100B1000285078F1889726A85998AC8C022646660A
:100B2000F0899CA829517924705944693864483166
:100B3000A98809205970AB11384069A8193148605B
:100B40008CA83C415C207C00F187981986A86E76C1
:100B50007EA999882D557DD8B1B5B9A3DFDFDFAE69
:100B6000D0DFAAD0DEF2ABF8F9D9B087C4AAF1DFA2
:100B7000DFBBAFDFDFB9D8B1F1A3978E60DFB08400
:100B8000F2C8F8F9D9DED89385F14AB183A308B544
:100B9000839A0810B79F10D8F1B0BAAEB08AC2B22B
:100BA000B68E9EF1FBD9F41DD8F9D90CF1D8F8F81E
:100BB000AD61D9AEFBD8F40CF1D8F8F8AD19D9AEC7
:100BC000FBDFD8F416F1D8F8AD8D61D9F4F4ACF5AB
:100BD0009C9C8DDF2BBAB6AEFAF8F40BD8F1AED0F0
:100BE000F8AD51DAAEFAF8F1D8B9B1B6A3839C08E2
:100BF000B9B1839AB5AAC0FD3083B79F10B58B9366
:100C0000F20202D1ABDADED8F1B080BAABC0C3B227
:100C100084C1C3D8B1B9F38BA391B609B4D9ABDE03
:100C2000B0879CB9A3DDF1B38B8B8B8B8BB0872006
:100C3000283038B28BB69BF2A3C0C8C2C4CCC6A3BE
:100C4000A3A3F1B087B59AD8F39BA3A3DCBAACDF1A
:100C5000B9A3FEF2ABC4AAF1DFDFBBAFDFDFA3A312
:100C6000A3D8D8D8BBB3B7F1AAF9DAFFD9809AAA2A
:100C700028B48098A720B79787A86688F07951F1A3
:100C8000902C870CA781976293F071716085940115
:100C900029517990A5F1284C6C870C95188578A37B
:100CA0008390284C6C886CD8F3A28200F210A89232
:100CB0001980A2F2D926D8F188A84DD948D896A88B
:100CC0003980D93CD89580A839A68698D92CDA875E
:100CD000A72CD8A8899519A980D938D8A88939A965
:100CE00080DA3CD8A82EA83990D90CD8A89531988C
:100CF000D90CD8A809D9FFD801DAFFD89539A9DAD3
:100D000026FFD890A80D8999A810809821DA2ED8AE
:100D10008999A83180DA2ED8A886963180DA2ED823
:100D2000A8873180DA2ED8A88292F34180F1D92E9B
:100D3000D8A882F31980F1D92ED882ACF3C0A28052
:100D400022F1A62EA72EA92298A829DAACDEFFD878
:100D5000A2F22AF1A92E8292A8F23180A696F1D9A8
:100D600000AC8C9C0C30ACDED0DEFFD88C9CACD0C0
:100D700010ACDE8092A2F24C82A8F1CAF235F19654
:100D800088A6D900D8F1FF444D50206661696C6592
:100D9000642028636F64652000496E697420494DA2
:100DA00055004C6F616420736B696C6C7300526505
:100DB0006164792100426974746C65000A2A2053C9
:100DC00074617274202A003E0000000008000201D5
:100DD000000003040700000000000000004C6F77D3
:100DE00020706F7765723A007A65726F006A7900D9
:100DF000636B0070656500707500686900737472DC
:100E00000073697400747200776B0063720076740B
:100E100000630042007000520062616C616E6365A5
:100E2000004C0067004600640049324320454550AD
:100E3000524F4D206F766572666C6F772120446546
:100E40006C65746520736F6D6520736B696C6C7372
:100E5000210A0061626F7274656400736176656473
:100E6000003F00006C22EB3111241FBECFEFD8E011
:100E7000DEBFCDBF11E0A0E0B1E0E2E1F7E702C0E4
:100E800005900D92A23AB107D9F725E0A2EAB1E0A8
:100E900001C01D92A034B207E1F717E0C3E3D7E029
:100EA00004C02197FE010E945A3AC233D107C9F704
:100EB0000E9400230C947C3B0C94000091E09093E2
:100EC0006B0380936A03109269031092680308957C
:100ED00080E090E0A0E0B0E480930C0390930D03D9
:100EE000A0930E03B0930F03E0913405F091350504
:100EF0008181082E000C990B9093120380931103AB
:100F0000109206038281082E000C990B9093140313
:100F100080931303109205038381809315039091AE
:100F20000B0397FF0FC08481809316038581809304
:100F3000170386818093180387E040E050E060E06B
:100F40007FE307C084E040E050E060E87FE3913059
:100F5000A1F7409300035093010360930203709341
:100F60000303923054F098E090931903E80FF11DB9
:100F7000F0931B03E0931A03089590E0F5CF80915E
:100F8000FC029091FD02891B990B08950895089524
:100F90000895AF92BF92CF92DF92EF92FF920F939C
:100FA0001F93CF93DF936C017B018B01040F151FFF
:100FB000EB015E01AE18BF08C017D10759F0699167
:100FC000D601ED91FC910190F081E02DC6010995CB
:100FD000892B79F7C501DF91CF911F910F91FF9078
:100FE000EF90DF90CF90BF90AF900895FC01538DAC
:100FF000448D252F30E0842F90E0821B930B5417F3
:1010000010F0CF96089501970895FC01918D828D7F
:10101000981761F0A28DAE0FBF2FB11D5D968C9118
:10102000928D9F5F9F73928F90E008958FEF9FEF57
:101030000895FC01918D828D981731F0828DE80F13
:10104000F11D858D90E008958FEF9FEF0895FC01CD
:10105000918D228D892F90E0805C9F4F821B91099A
:101060008F73992708958CE693E00E94270821E06A
:10107000892B09F420E0822F089580E090E0892BED
:1010800029F00E94330881110C9400000895FC019E
:10109000A48DA80FB92FB11DA35ABF4F2C91848DD9
:1010A00090E001968F739927848FA689B7892C9336
:1010B000A089B1898C91837080648C93938D848D89
:1010C000981306C00288F389E02D80818F7D80838C
:1010D0000895EF92FF920F931F93CF93DF93EC014C
:1010E00081E0888F9B8D8C8D98131AC0E889F989CF
:1010F000808185FF15C09FB7F894EE89FF896083D2
:10110000E889F98980818370806480839FBF81E052
:1011100090E0DF91CF911F910F91FF90EF90089594
:10112000F62E0B8D10E00F5F1F4F0F731127E02E6F
:101130008C8D8E110CC00FB607FCFACFE889F989A7
:10114000808185FFF5CFCE010E944708F1CFEB8D5E
:10115000EC0FFD2FF11DE35AFF4FF0829FB7F8947B
:101160000B8FEA89FB8980818062CFCF682F8CE664
:1011700093E00C9469080F931F93CF93DF938C0136
:10118000D0E0C0E0F801EC0FFD1F6491662341F050
:101190008CE693E00E946908892B11F02196F2CF2A
:1011A000CE01DF91CF911F910F910895CF93DF93DF
:1011B000EC01888D8823B9F0AA89BB89E889F9896F
:1011C0008C9185FD03C0808186FD0DC00FB607FCA4
:1011D000F7CF8C9185FFF2CF808185FFEDCFCE01D7
:1011E0000E944708E9CFDF91CF910895833081F0C5
:1011F00028F4813099F08230A9F008958730A9F061
:101200008830C9F08430B1F4809180008F7D03C0B4
:10121000809180008F7780938000089584B58F77C8
:1012200084BD089584B58F7DFBCF8091B0008F770A
:101230008093B00008958091B0008F7DF9CF1F9307
:10124000CF93DF93282F30E0F901E753F24F8491D9
:10125000F901E458FE4FD491F901E859FE4FC491C9
:10126000CC23A9F0162F81110E94F608EC2FF0E094
:10127000EE0FFF1FE25AFE4FA591B4918FB7F8947D
:10128000EC91111108C0D095DE23DC938FBFDF9164
:10129000CF911F910895DE2BF8CF90910001891313
:1012A0000BC0E0E9F1E0E4919FEF90930001E130A1
:1012B00049F028F0E23061F060E00C941F091092D0
:1012C0006E00FACF90916F009D7F90936F00F4CFE6
:1012D000909170009D7F9093700091E09093B0008A
:1012E0009091B100987F94609093B1001092B300F8
:1012F000E3CFCF93DF9390E0FC01E458FE4F2491BD
:1013000088599E4FFC0184918823D1F090E0880F8A
:10131000991FFC01EC5AFE4FA591B491FC01E25AD1
:10132000FE4FC591D49161110EC09FB7F8948C9176
:10133000E22FE0958E238C932881E223E8839FBFE0
:10134000DF91CF9108958FB7F894EC91E22BEC9355
:101350008FBFF6CF8E3008F08E50806480937C0073
:1013600080917A00806480937A0080917A0086FD73
:10137000FCCF809178009091790008953FB7F89460
:101380008091550290915602A0915702B091580257
:1013900026B5A89B05C02F3F19F00196A11DB11DD0
:1013A0003FBFBA2FA92F982F8827BC01CD01620F0C
:1013B000711D811D911D42E0660F771F881F991FC7
:1013C0004A95D1F708958F929F92AF92BF92CF9294
:1013D000DF92EF92FF926B017C010E94BE094B01EC
:1013E0005C01C114D104E104F104B9F00E94BE090A
:1013F000681979098A099B09683E7340810591053E
:1014000080F321E0C21AD108E108F10888EE880EC5
:1014100083E0981EA11CB11CE4CFFF90EF90DF90F9
:10142000CF90BF90AF909F908F9008952FB7F89472
:101430006091510270915202809153029091540236
:101440002FBF08950F931F930E94160A6093740391
:101450007093750380937603909377038CE693E003
:101460000E94050897FF1DC00E94160A0091740390
:10147000109175032091760330917703601B710BF7
:10148000820B930B009170031091710320917203F2
:10149000309173036017710782079307F8F28FEF9B
:1014A0009FEF1F910F91089520912D02260F332752
:1014B000331F21323105ECF420916203FC0190E0EE
:1014C00080E0243069F082E00895A0912D022191FE
:1014D000AC01435F5D4FA40FB52FB11D2C93019656
:1014E000861798F380912D02680F60932D0280E09B
:1014F000089581E008951092620381E08093410392
:1015000010923C0361E082E10E941F0961E083E1E7
:101510000E941F09E9EBF0E080818E7F808380814B
:101520008D7F808388E48093B80085E48093BC003D
:101530000895CF93DF9391E090930C028823B9F044
:10154000C091B800D091BA008091BC008A7B809392
:10155000BC0060E082E10E941F0960E083E10E941C
:101560001F090E947B0AD093BA00C093B800DF9194
:10157000CF910895CF92DF92EF92FF920F931F9336
:10158000CF93DF93D82FC62F613208F098C00E9406
:10159000BE096B017C018091620381116BC081E007
:1015A00080936203809341039FEF909340031092D6
:1015B0003F039C0F90933E0380933D0380913D0336
:1015C000DD0FD82BD0933D0380913C03813009F08F
:1015D00078C010923C030E94BE096B017C0180918F
:1015E0003D038093BB008091640390916503A091BB
:1015F0006603B0916703892B8A2B8B2BA1F00E9485
:10160000BE09009164031091650320916603309137
:1016100067036C197D098E099F09061717072807AC
:10162000390708F448C08091BC0083FDD8CF85EC11
:101630008093BC000E94BE096B017C018091620313
:10164000813009F440C080913F038C1710F4C091A1
:101650003F03ECE1F3E0A2E4B3E080E08C1355C07B
:101660008C2FDF91CF911F910F91FF90EF90DF9022
:10167000CF9008958091640390916503A0916603D3
:10168000B0916703892B8A2B8B2B09F484CF0E949E
:10169000BE090091640310916503209166033091A7
:1016A00067036C197D098E099F090617170728071C
:1016B000390708F070CF809163030E94990AC0E057
:1016C000CFCF85EEB5CF8091640390916503A09153
:1016D0006603B0916703892B8A2B8B2B09F4AECF5D
:1016E0000E94BE0900916403109165032091660376
:1016F000309167036C197D098E099F09061717073A
:101700002807390708F09ACFD6CF91919D938F5F24
:10171000A5CF0895E091FD028091FC02E81730F416
:10172000F0E0EE5BFC4F808190E008958FEF9FEF3B
:1017300008959091FD028091FC022FEF3FEF9817E2
:1017400048F4E92FF0E0EE5BFC4F208130E09F5F32
:101750009093FD02C9010895CF92DF92EF92FF921C
:101760000F931F93CF93DF937C01CB018A012091CC
:101770006B03222389F0EB016B01C40ED51ECC153F
:10178000DD0569F06991D701ED91FC910190F0813F
:10179000E02DC7010995F3CF642F0E94540AC801B8
:1017A000DF91CF911F910F91FF90EF90DF90CF903D
:1017B0000895CF93DF931F92CDB7DEB76983209151
:1017C0006B032223F9F020916803203258F021E0C6
:1017D00030E0FC013383228390E080E00F90DF91C2
:1017E000CF91089580916903E82FF0E0E451FE4F16
:1017F000998190838F5F809369038093680381E070
:1018000090E0ECCF61E0CE0101960E94540AF7CF40
:10181000CF92DF92EF92FF920F931F93CF93DF93BC
:10182000D091680381E0D13208F09CC0C0916A0376
:101830000E94BE096B017C018091620381116CC022
:1018400082E08093620381E0809341038FEF809375
:10185000400310923F03D0933E03ACEEB1E0ECE1C5
:10186000F3E080E0D8138DC010923D0380913D03DA
:10187000CC0FC82BC0933D0380913C03813009F00D
:1018800084C010923C030E94BE096B017C018091D0
:101890003D038093BB008091640390916503A09108
:1018A0006603B0916703892B8A2B8B2BA1F00E94D2
:1018B000BE09009164031091650320916603309185
:1018C00067036C197D098E099F09061717072807FA
:1018D000390708F442C08091BC0083FDD8CF85EC65
:1018E0008093BC000E94BE096B017C018091620361
:1018F000823009F44CC0809140038F3F09F469C0E5
:1019000080914003803209F466C0809140038033A7
:1019100009F463C084E026C080916403909165035C
:10192000A0916603B0916703892B8A2B8B2B09F456
:1019300083CF0E94BE09009164031091650320913A
:101940006603309167036C197D098E099F0906179C
:1019500017072807390708F06FCF809163030E94AB
:10196000990A85E0109269031092680310926B0344
:10197000DF91CF911F910F91FF90EF90DF90CF906B
:1019800008959D9191938F5F6DCF85EEA9CF809142
:10199000640390916503A0916603B0916703892B5E
:1019A0008A2B8B2B09F4A2CF0E94BE0900916403FD
:1019B0001091650320916603309167036C197D09CE
:1019C0008E099F09061717072807390708F08ECFD9
:1019D000C4CF80E0C7CF82E0C5CF83E0C3CF1F93E1
:1019E000CF93DF93162FEA010E945E07612F89E0F3
:1019F00094E00E94D90B698189E094E00E94D90BA0
:101A0000688189E094E00E94D90B89E094E00E940B
:101A1000080C91E0811190E0892FDF91CF911F9107
:101A2000089590E080E00895FF920F931F93CF9365
:101A3000DF93C62F042FF22E132F0E945E076C2F08
:101A400089E094E00E94D90BCF2DD12F0C0F1D2FD0
:101A5000111DC017D10731F0699189E094E00E940F
:101A6000D90BF7CF89E094E00E94080C91E0811136
:101A700090E0892FDF91CF911F910F91FF900895F2
:101A8000CF93DF9300D0CDB7DEB75A834983AE0141
:101A90004F5F5F4F0E94EF0C0F900F90DF91CF913F
:101AA0000895CF93DF931F92CDB7DEB749839E0190
:101AB0002F5F3F4F41E00E94140D0F90DF91CF91B7
:101AC00008950F931F93CF93DF93EC01062F142FEC
:101AD00088810E945E0789819A81DC01ED91FC91E9
:101AE0000190F081E02D602F099589819A81DC01B8
:101AF000ED91FC910190F081E02D612F0995898194
:101B00009A81DF91CF911F910F910C94080CDC0109
:101B1000ED91FC910190F081E02D0994FC0187E0AA
:101B200094E1161634F484E098E0613011F484E016
:101B300090E19083062E000C770B77FF03C0719520
:101B400061957109969FA001979F500D1124840FF4
:101B5000952F911D08954F925F926F927F928F9271
:101B60009F92AF92BF92CF92DF92EF92FF920F932C
:101B70001F93CF93DF93EC019B01A8EEB3E00E948B
:101B800070362B013C018E01000F111F000F111F39
:101B9000055011094E01880C991CB12CA12CC12CA7
:101BA000D12C7601C414D504E604F704CCF461E02A
:101BB00085E00E941F09C230D10518F0C8010197C5
:101BC000F1F760E085E00E941F09C230D10518F0EE
:101BD000C8010197F1F7C80CD91CEA1CFB1CE2CF25
:101BE000DF91CF911F910F91FF90EF90DF90CF90F9
:101BF000BF90AF909F908F907F906F905F904F902D
:101C00000895DC01ED91FC910190F081E02D0994A3
:101C1000FF920F931F93CF93DF93182FF62E072F6A
:101C2000C8EED4E088810E945E0784E0189FB0016E
:101C300011246A5F7F4F89819A810E94010E70E0B2
:101C400060E089819A810E94870D70E060E089815F
:101C50009A810E94870D6F2D702F89819A810E9431
:101C6000870D602F70E089819A810E94870D89819C
:101C70009A81DF91CF911F910F91FF900C94080CE6
:101C8000CF93C0E060E070E18C2F0E94080ECF5F20
:101C9000C031C1F7CF9108959F92AF92BF92CF927A
:101CA000DF92EF92FF920F931F93CF93DF93EC019C
:101CB00084E50E945E076D2F70E089E094E00E9449
:101CC000010EBE01772789E094E00E94010E89E0B1
:101CD00094E00E94080C61E084E50E94BA0A109228
:101CE000FD028093FC0289E094E00E94990BC09071
:101CF0003405D0903505F601808360910B0380E1B7
:101D000093E00E948E0DEC01F12CE12C1C161D06B7
:101D10004CF56C2FCF31D1050CF06EE184E50E94BB
:101D2000BA0A982E1092FD028093FC025E01FEE139
:101D3000AF1AB1088E018091FD02981659F089E022
:101D400094E00E94990B9FEFE91AF90AF601EE0D53
:101D5000FF1D80830150110929F0E5010A151B05BB
:101D600051F7D4CFDF91CF911F910F91FF90EF905A
:101D7000DF90CF90BF90AF909F9008952F923F92A9
:101D80004F925F926F927F928F929F92AF92BF928B
:101D9000CF92DF92EF92FF920F931F93CF93DF9337
:101DA00000D000D0CDB7DEB7782E662E4C833A83B4
:101DB00029830E94160A6B017C01512C1B822C8105
:101DC000222E312C4801B12CA12C8C81581608F000
:101DD00049C0872D0E945E07662D89E094E00E942D
:101DE000D90B89E094E00E94080C872D0E945E07C1
:101DF000B101651971096132710514F060E270E09A
:101E0000613208F060E2872D0E94BA0A482E1092D3
:101E1000FD028093FC028091FD024816E9F0011555
:101E2000110579F489E094E00E94990BE981FA8127
:101E30009B81E90FF11D97FDFA9580839F5F9B833E
:101E4000EACF0E94160A6C197D098E099F09681550
:101E500079058A059B0530F38C81813208F080E298
:101E6000580EB3CF01151105C1F00E94160A6C1966
:101E70007D098E099F0930E020E060177107820715
:101E8000930758F02B81822F220F990B2C81281752
:101E9000190619F014F08FEF8B838B810F900F9040
:101EA0000F900F90DF91CF911F910F91FF90EF90C6
:101EB000DF90CF90BF90AF909F908F907F906F906A
:101EC0005F904F903F902F9008950F931F93CF9363
:101ED000DF93CBE1D5E008EE13E02CE135E042E002
:101EE00062E788810E94BE0E89819A81982789279E
:101EF0009827DF91CF911F910F910895CF92DF9294
:101F0000EF92FF920F931F93CF93DF931F92CDB762
:101F1000DEB7F82EE62EC42ED22E08EE13E09E0178
:101F20002F5F3F4F41E00E94BE0E81E090E001C074
:101F3000880FCA94EAF74981DD2081F0482B498354
:101F40006E2D8F2D0E94510D0F90DF91CF911F911B
:101F50000F91FF90EF90DF90CF90089580954823E8
:101F6000EECF0F931F93CF93DF931F92CDB7DEB7C2
:101F700008EE13E09E012F5F3F4F41E065E780913F
:101F80001B050E94BE0E882339F089818E7790E070
:101F90009595879580931C0580911C050F90DF9186
:101FA000CF911F910F910895BF92CF92DF92EF9240
:101FB000FF920F931F93CF93DF931F92CDB7DEB79E
:101FC000F82EE62EC42EB22ED02E08EE13E09E017F
:101FD0002F5F3F4F41E00E94BE0E882371F18C2D90
:101FE0008B19990BAC014F5F5F4F81E090E002C00D
:101FF000880F991FBA94E2F70197042E01C0880F49
:102000000A94EAF70D2D01C0000F4A95EAF7482F10
:102010004095998149238023482B49836E2D8F2D2C
:102020000E94510D0F90DF91CF911F910F91FF9062
:10203000EF90DF90CF90BF90089580E0F3CF8F9224
:102040009F92AF92BF92CF92DF92EF92FF921F9337
:10205000CF93DF93EC016A017B0120E030E040E8A0
:102060005FE3CB01B6010E94AB3487FD9CC020E04A
:1020700030EC4AE555E4C701B6010E9471381816E4
:102080003CF4C12C30ECD32E3AE5E32E35E4F32EAC
:102090006B817C818D819E810E94B0344B015C01FB
:1020A00020E030E040E855E4C701B6010E94113558
:1020B0009B01AC01C501B4010E94633720E030E010
:1020C00040E05FE30E94803620E030E040E85FE3DC
:1020D0000E947F366B017C0120E030E040E450E458
:1020E0000E94AB3487FD66C020E030E04FE753E448
:1020F000C701B6010E947138181634F4C12CD12CD6
:102100009FE7E92E93E4F92E88810E945E0789817A
:102110009A81DC01ED91FC910190F081E02D60E06D
:10212000099589819A810E94080C61E088810E944A
:10213000BA0A1092FD028093FC0289819A81DC0127
:10214000ED91FC910284F385E02D0995182F482F1D
:102150004F76406160E0CE010E94610DC701B6017B
:102160000E94DC37462F6EEFCE010E94610D412F99
:1021700060E0CE010E94610D65E070E080E090E0DB
:102180000E94E309412F406A60E0CE01DF91CF91C8
:102190001F91FF90EF90DF90CF90BF90AF909F90F6
:1021A0008F900C94610DC12CD12C20E8E22E2FE3EE
:1021B000F22E6ECFC12CD12C80E4E82EFE2CA4CFC1
:1021C000FC0101900020E9F73197AF01481B590B42
:1021D000BC018CE693E00C94C90785E591E00C9472
:1021E000E010CF93DF930E94BB08EC010E94ED103A
:1021F0008C0F9D1FDF91CF910895CF93DF930E94A5
:10220000B608EC010E94ED108C0F9D1FDF91CF915D
:102210000895CF93DF93FC014481558160817181E2
:102220008CE693E00E94C907EC010E94ED108C0F30
:102230009D1FDF91CF9108958F929F92AF92BF9291
:102240000F931F93CF93DF93CDB7DEB7A1970FB650
:10225000F894DEBF0FBECDBF19A2423008F44AE0A9
:102260008E010F5D1F4F842E912CB12CA12CA50146
:1022700094010E944E36E62FB901CA01EA30F4F407
:10228000E05DD801EE938D01232B242B252B79F7CC
:1022900090E080E0109719F0CD010E94E010A19627
:1022A0000FB6F894DEBF0FBECDBFDF91CF911F9167
:1022B0000F91BF90AF909F908F900895E95CE1CF10
:1022C000CF92DF92EF92FF92C12CD12C76014AE09F
:1022D000C701B6010E941C1189E00E94B6088FEF69
:1022E000C81AD80AE80AF80A80E1C816D104E1043D
:1022F000F10469F7FF90EF90DF90CF900C94ED1010
:102300004F925F926F927F928F929F92AF92BF9205
:10231000CF92DF92EF92FF920F931F93CF936B01B7
:102320007C01742EAC019B010E942039882399F016
:1023300088E591E0CF911F910F91FF90EF90DF9092
:10234000CF90BF90AF909F908F907F906F905F9055
:102350004F900C94E01046015701E894B7F82FEF26
:102360003FEF4FE75FE7C501B4010E9420398111BB
:102370000DC02FEF3FEF4FE75FE7C501B4010E94AB
:10238000AB3418161CF48CE591E0D4CF2FEF3FEF5F
:102390004FE75FE4C701B6010E94713818161CF4BC
:1023A00080E691E0C7CF2FEF3FEF4FE75FECC7012B
:1023B000B6010E94AB3487FDF3CF20E030E0A901E5
:1023C000C701B6010E94AB3410E000E087FF08C0EF
:1023D0008DE20E94B6088C01F7FAF094F7F8F094B9
:1023E000C0E060E070E080E09FE37C1641F020E018
:1023F00030E040E251E40E946337CF5FF6CFA7019F
:1024000096010E9480362B013C010E94DC374B0173
:102410005C014AE00E941C117C01E00EF11ECC23FD
:10242000B1F1C501B4010E94B0349B01AC01C301FC
:10243000B2010E947F364B015C018EE20E94B60819
:10244000E80EF91EC15018F120E030E040E251E4FE
:10245000C501B4010E9411352B013C010E94DC37FB
:102460004B01B12CA12C4AE0C501B4010E941C1102
:10247000E80EF91EC501B4010E94B0349B01AC0105
:10248000C301B2010E947F364B015C01DBCFC70163
:10249000CF911F910F91FF90EF90DF90CF90BF9061
:1024A000AF909F908F907F906F905F904F90089526
:1024B000FC0124813581232B39F421E0FB0180814B
:1024C000882349F020E007C0808191810E945E3B13
:1024D00021E0892BB9F7822F0895CF93DF93EC0188
:1024E00088819981009711F00E948B32198218829D
:1024F0001D821C821B821A82DF91CF910895FC01FC
:1025000080819181009711F00C948B3208950F9384
:102510001F93CF93DF938C01EB01FC0180819181AC
:102520000097E1F06881798161157105A9F0428118
:1025300053812C813D814217530770F00E94673B05
:102540008C819D81F801958384831D821C82DF919B
:10255000CF911F910F9108950E948B3288819981AC
:10256000F801918380838A819B81938382838C810C
:102570009D8195838483198218821B821A82E5CFFC
:102580000C94CF356F927F928F929F92AF92BF92B1
:10259000CF92DF92EF92FF920F931F93CF93DF932F
:1025A0006C01712CD0E0C0E083E191E00E94C01288
:1025B000082E000C990B781619060CF06DC04E0110
:1025C0008FEF881A980ACE018A5E9E4F0E94C01231
:1025D000682EE82EF12CC70101960E94EF318C0184
:1025E0005C01C95EDE4FC81BD90B8A2D801B861586
:1025F00048F4CE018A0D9B1D0E94C012F501819303
:102600005F01F3CFE401CE0DDF1D5801AE0CBF1CFE
:10261000F5011082B601C8010E945E3B892B09F5C5
:1026200001151105A9F5CE01895E9E4F0E94C012C9
:1026300080930B03682F80E193E00E948E0DCE0102
:102640008A5E9E4FDF91CF911F910F91FF90EF9087
:10265000DF90CF90BF90AF909F908F907F906F90C2
:102660000895F501319780818C3449F4A7014150D8
:102670005109B601C8010E946E3B892B89F20115F0
:10268000110519F0C8010E948B32249673948CCFE7
:10269000C8010E948B32C7CF81E69EE00E94F110F4
:1026A0008FEF9FEFCFCF1F93CF93DF93EC010E946B
:1026B000C012182FCE0101960E94C01290E0982FF0
:1026C0008827810F911DDF91CF911F910895CF929F
:1026D000DF92EF92FF920F931F93CF936A017B01DA
:1026E000082F10E0C801805B9F4F880F991F0E9440
:1026F0005313BC01990F880B990B0E94B23420E050
:1027000030E04AE754E40E946337A70196010E9433
:1027100011356B017C0182E191E00E94C012C82F4B
:10272000C8010E94C012182F8AE0C89FB00111246E
:10273000072E000C880B990B0E94B234A70196015A
:102740000E9480360E94DC37812FCF911F910F911C
:10275000FF90EF90DF90CF900C94080E90E0C09621
:10276000880F991F860F911D880F991F0C94531382
:102770007F928F929F92AF92BF92CF92DF92EF9211
:10278000FF920F931F93CF93DF93B82E6A01D62F3A
:10279000C72F60E00E94AE13BC01990F880B990B04
:1027A0000E94B2347B018C0161E08B2D0E94AE133C
:1027B000BC01990F880B990B0E94B234762E872E9C
:1027C000982EA92E96014D2F5C2F0E94AB3487FFC7
:1027D00071C0772D682D992D8A2D272F362F492FDF
:1027E000582FB701C8010E947138181694F096014D
:1027F0004D2F5C2F672D782D892D9A2D0E94AB349B
:1028000076010D2F1C2F87FF04C0E72CF82C092D13
:102810001A2DCB2DD0E06E0180E3C80ED11CCC0F59
:10282000DD1FCD5FDE4FB701C8010E94D537798328
:102830006883C601880F991F0E945313EC01C601DB
:102840000E94C012682F880F770B880B990B0E948B
:10285000B2349701A8010E9411356B017C01BE01C1
:10286000DD0F880B990B0E94B2349B01AC01C701AC
:10287000B6010E9480360E94D537072E000C880BC7
:10288000990B0E94B23420E030E0A9010E9480360A
:10289000AB01BC018B2DDF91CF911F910F91FF9068
:1028A000EF90DF90CF90BF90AF909F908F907F90F0
:1028B0000C9467137C2D6D2DCE018FCF2F923F92FC
:1028C0004F925F926F927F928F929F92AF92BF9240
:1028D000CF92DF92EF92FF920F931F93CF93DF93EC
:1028E000CDB7DEB72E970FB6F894DEBF0FBECDBFC3
:1028F0005C016A017B0120E030E0A901CB01B60157
:102900000E94AB349501205E3F4F3901811130C0E8
:1029100089013FE03983D8017E916E918D01072EA8
:10292000000C880B990B0E94B234AB01BC01898169
:102930000E94B813B981B150B983BF3F61F72E9699
:102940000FB6F894DEBF0FBECDBFDF91CF911F91C0
:102950000F91FF90EF90DF90CF90BF90AF909F903E
:102960008F907F906F905F904F903F902F90089541
:1029700080E290E00E94EF318C0183E0882E81E0BC
:10298000982E9801F50170E060E0D4018D919D9141
:102990004D0141915191841B950BD9018D939D93CC
:1029A0009D0197FF03C0919581959109681779075B
:1029B0000CF4BC01E615F70541F7072E000C880B57
:1029C000990B0E94B234A70196010E9463376B01F4
:1029D0007C0120E030E0A9010E94713820E030E065
:1029E00040E05FE387FD91C0C701B6010E948036D9
:1029F0000E94D5377E876D87D12CC12C8D859E8511
:102A0000092E000CAA0BBB0B89879A87AB87BC8762
:102A1000AD85BE85AC15BD050CF47CC04801150123
:102A2000F12CC6010D2C000CAA0BBB0B8D839E83D1
:102A3000AF83B887D1016D917D911D01072E000CE8
:102A4000880B990B0E94B2342B013C01ED85FE8569
:102A500020E030E0A901EF2B09F443C06D817E81B5
:102A60008F8198850E94B2342BED3FE049E450E419
:102A70000E94113569837A838B839C8369857A856B
:102A80008B859C850E94B2349B01AC0169817A815F
:102A90008B819C810E9463370E945E3720E030E08A
:102AA00040E85FE30E94803620E030E040E05FE3F2
:102AB0000E94113569837A838B839C83D4016D9145
:102AC0007C91072E000C880B990B0E94B2349B015D
:102AD000AC0169817A818B819C810E9411359B01B7
:102AE000AC01C301B2010E948036AB01BC018F2D45
:102AF0000E94B813F394B2E08B0E911CE0E1FE1239
:102B000099CFFFEFCF1ADF0A83CFC701B6010E942A
:102B10007F366ECF0115110509F411CFC8012E962D
:102B20000FB6F894DEBF0FBECDBFDF91CF911F91DE
:102B30000F91FF90EF90DF90CF90BF90AF909F905C
:102B40008F907F906F905F904F903F902F900C945C
:102B50008B322F923F924F925F926F927F928F9221
:102B60009F92AF92BF92CF92DF92EF92FF920F931C
:102B70001F93CF93DF93CDB7DEB72F970FB6F8949F
:102B8000DEBF0FBECDBF4C016D8369017A01202FDE
:102B900030E03A83298320E030E0A901C701B60183
:102BA0000E94AB3481111DC01FE0812F012E000C4B
:102BB000990BA981BA818A179B070CF419C1880D5A
:102BC000991DFC016081062E000C770B880B990B78
:102BD0000E94B234AB01BC01812F0E94B813115086
:102BE000E4CF80E190E029813A81821B930B81152B
:102BF00030E4930770F5880F991F0E94EF315C0154
:102C0000E981FA81EE0FFF1FCF018D5F9E4F3C01DE
:102C10002501D401402F70E060E04031E8F4F30179
:102C2000819191913F012D915D81250390011124A6
:102C3000821B930BF201819391932F0197FF03C0A5
:102C4000919581959109681779070CF4BC014F5F44
:102C5000E4CF8FEF9FEFD1CF072E000C880B990B9D
:102C60000E94B234A70196010E9463376B017C0178
:102C700020E030E0A9010E94713820E030E040E01F
:102C80005FE387FD8BC0C701B6010E9480360E94BA
:102C9000D5371B011F861E86CB01770FAA0BBB0BF6
:102CA0008A879B87AC87BD87AE85BF852A163B0682
:102CB0000CF480C0BA82A9829C828B82102FCD0135
:102CC000092E000CAA0BBB0B8E839F83A887B987A4
:102CD000103108F068C0AB81BC816D91BC83AB83BF
:102CE0002D816203B0011124072E000C880B990B73
:102CF0000E94B2346B017C0120E030E0A901211474
:102D00003104E1F16E817F81888599850E94B2341A
:102D10002BED3FE049E450E40E9411352B013C01CA
:102D20006A857B858C859D850E94B2349B01AC01B0
:102D3000C301B2010E9463370E945E3720E030E099
:102D400040E85FE30E94803620E030E040E05FE34F
:102D50000E9411352B013C01A981BA816D917C91B2
:102D6000072E000C880B990B0E94B2349B01AC011A
:102D7000C301B2010E9411359B01AC01C701B6012C
:102D80000E948036AB01BC01812F0E94B8131F5FE7
:102D9000E981FA813296FA83E9839ACFC701B601B5
:102DA0000E947F3674CF2E853F852F5F3F4F3F8730
:102DB0002E877ACFA114B104D9F0C5012F960FB692
:102DC000F894DEBF0FBECDBFDF91CF911F910F9161
:102DD000FF90EF90DF90CF90BF90AF909F908F903B
:102DE0007F906F905F904F903F902F900C948B321C
:102DF0002F960FB6F894DEBF0FBECDBFDF91CF91F7
:102E00001F910F91FF90EF90DF90CF90BF90AF9008
:102E10009F908F907F906F905F904F903F902F90FA
:102E200008950F93CF93DF93E0913405F09135052A
:102E30006081C7E0D3E06C8380E193E00E948E0D57
:102E40000E9468071092FF021092FE022D813E81BF
:102E50004F8158850A896E858B899C890E94A915A6
:102E6000DF91CF910F910895FF920F931F93CF930E
:102E7000DF938C01FC0101900020E9F732978081FB
:102E80008C3409F4CEC0823509F0CDC087EE809332
:102E90000A03C8010E94C212EC01CF3FDC0709F40B
:102EA0000CC1CE010E94C012F82ECE0102960E94E3
:102EB0005313EC0189E4F812B8C0CE010E944C0E05
:102EC0000E94680764E671E0C8010E945E3B892B9E
:102ED00009F4C5C080910B03813009F0C0C00E9485
:102EE000BC3324E630E040E050E00E94E5350E942B
:102EF000B23420E030E040E251E40E94633720E049
:102F000030E040EA50E40E947F366093F80270930C
:102F1000F9028093FA029093FB0280910B038230B6
:102F20000CF4A6C080910A0387FFB1C08091110301
:102F3000909112039195819591099093120380933A
:102F4000110390E080E040910B03242F042E000C2D
:102F5000330B37FF03C03195219531098217930751
:102F60000CF095C042301CF540911003489F900131
:102F7000499F300D1124E0911A03F0911B03E20FD9
:102F8000F31F20812195208320911003289FF001B9
:102F9000299FF00D11249F012E5F3F4FE0911A03EE
:102FA000F0911B03E20FF31F2081219520832091D4
:102FB0000B0360E022300CF462E0E62FF0E0209199
:102FC0000B0322300CF47FC024E030E040911A0360
:102FD00050911B03E217F3070CF078C09F01220FFA
:102FE000331F70911003789FF001799FF00D112429
:102FF000E20FF31FE40FF51F408151815083509180
:103000001003589FD001599FB00D1124E0911A036D
:10301000F0911B03E20FF31FEA0FFB1F41836F5F69
:10302000CCCF89E134CF80E032CF60910B0380E1D7
:1030300093E00E948E0D2091340530913505D90121
:10304000C21BD30BFE01EA0FFB1FAD01421B530B4A
:10305000481759070CF034CFE491ED93F3CF109259
:10306000F8021092F9021092FA021092FB0255CF68
:103070000E94BC3324E630E040E050E00E94E53599
:1030800060FF05C08091F702833609F04FCF1092A0
:10309000FF021092FE0220910C0330910D0340912B
:1030A0000E0350910F030091190360911503809155
:1030B0001A0390911B030E94A915DF91CF911F91D4
:1030C0000F91FF90089528E030E080CF01963BCF2C
:1030D0000F931F93CF93DF93EC018B010E94CF35A9
:1030E000081721F0602FCE010E94D7352196CE011E
:1030F0000E94CF35181721F0612FCE010E94D735DD
:1031000065E070E080E090E0DF91CF911F910F913A
:103110000C94E3090F931F93CF93DF93EC01888105
:103120009981009759F02A813B812617370730F0A3
:1031300081E0DF91CF911F910F9108958B016F5F17
:103140007F4F0E94833A009759F0998388831B83AD
:103150000A832C813D81232B59F7FC011082E8CF93
:1031600080E0E7CFEF92FF920F931F93CF93DF930F
:103170006115710541F480E0DF91CF911F910F91AE
:10318000FF90EF90089541155105B1F07B01EC01DE
:103190000C811D81040F151FB8010E948A18882315
:1031A00051F3288139818C819D81B701820F931F52
:1031B0000E94673B1D830C8381E0DECFEF92FF927C
:1031C0000F931F93CF93DF93EC017B018A01BA0128
:1031D0000E948A1881110BC0CE010E946D12CE018F
:1031E000DF91CF911F910F91FF90EF9008951D8374
:1031F0000C83B701888199810E94673BF0CFFB0166
:10320000DC0111961C921E9213961C921E9212972C
:1032100015961C921E9214978617970759F0608195
:1032200071816115710521F0448155810C94DE187E
:103230000C946D120895FB0101900020E9F731977D
:10324000AF01461B570B0C94DE180F931F93CF93BF
:10325000DF93CDB7DEB762970FB6F894DEBF0FBE2F
:10326000CDBF8C01CB01F801118210821382128232
:10327000158214824AE0BE016F5F7F4F0E946E3458
:10328000BE016F5F7F4FC8010E941B1962960FB687
:10329000F894DEBF0FBECDBFDF91CF911F910F918C
:1032A0000895FC0111821082138212821582148209
:1032B000FB0101900020E9F73197AF01461B570B46
:1032C0000C94DE18EF92FF920F931F93CF93DF932E
:1032D00000D0CDB7DEB78C01E62E63E971E00E9425
:1032E00051190E94220A0E2C000CFF0897FD10C0F5
:1032F0008E159F0569F089831A8241E050E0BE0176
:103300006F5F7F4FC8010E94B2180E94220AEECF61
:10331000C8010F900F90DF91CF911F910F91FF90F7
:10332000EF900895EF92FF920F931F93CF93DF9347
:10333000EC018B01198218821B821A821D821C8269
:10334000CB010E9439347C01BC01CE010E948A1855
:10335000811109C0CE01DF91CF911F910F91FF9094
:10336000EF900C946D12FD82EC82B80188819981F6
:10337000DF91CF911F910F91FF90EF900C94323419
:1033800085ED8093BC008091640390916503A091CA
:103390006603B09167030796A11DB11D23E0B695A2
:1033A000A795979587952A95D1F72091BC0024FD84
:1033B00003C0109262030895409164035091650325
:1033C0006091660370916703452B462B472B69F389
:1033D0000097A105B10541F025E32A95F1F700001A
:1033E0000197A109B109E1CF809163030C94990A77
:1033F0004F925F926F927F928F929F92AF92BF9205
:10340000CF92DF92EF92FF920F931F93CF93DF93B0
:10341000CDB7DEB7E8970FB6F894DEBF0FBECDBFCD
:1034200080902C0590902D050E94BE092B013C0137
:103430005401BB240E94650F6C01A816B9060CF05C
:1034400057C0893C910584F121E042E06AE6809111
:103450001B050E947E0F0E94650F6C01892B09F0ED
:103460004BC00E94BE096419750986099709693F16
:103470007A428105910578F380E0E8960FB6F894DA
:10348000DEBF0FBECDBFDF91CF911F910F91FF9097
:10349000EF90DF90CF90BF90AF909F908F907F90F4
:1034A0006F905F904F9008950E94650F6C01A81671
:1034B000B906F4F47C01EA18FB08670181E2E8161A
:1034C000F1041CF080E2C82ED12CCC2079F008EE5B
:1034D00013E09E012F5F3F4F4C2D64E780911B0549
:1034E0000E94BE0EEC18FD0841F7DECF1982FACF1C
:1034F000C114D10409F4C0CF0E94BE096419750932
:1035000086099709693F7A428105910508F0B4CF91
:10351000AC14BD0409F08ECF882009F4FAC108EE7E
:1035200013E02CEA31E0482D64E780911B050E94EE
:10353000BE0E6090B0017090B101762467247624AD
:103540008090B4019090B501982489249824A0908B
:10355000B801B090B901BA24AB24BA246091AC018F
:103560007091AD01762767277627072E000C880B10
:10357000990B0E94B23420E030E040E858E30E940A
:1035800011356B017C01C0920B05D0920C05E092C5
:103590000D05F0920E05B301770C880B990B0E9474
:1035A000B23420E030E040E858E30E9411352B01AE
:1035B0003C0140920F0550921005609211057092E7
:1035C0001205B401990C880B990B0E94B23420E0CB
:1035D00030E040E858E30E94113569A37AA38BA339
:1035E0009CA3609313057093140580931505909325
:1035F0001605B501BB0C880B990B0E94B23420E074
:1036000030E040E858E30E9411356DA37EA38FA3FC
:1036100098A76093170570931805809319059093E8
:103620001A059B01AC01C301B2010E9411354B0187
:103630005C0129A13AA14BA15CA1C701B6010E947E
:1036400011359B01AC01C501B4010E947F369B017D
:10365000AC010E9480366DA77EA78FA798AB6093C0
:10366000FF04709300058093010590930205A30168
:103670009201C701B6010E9411354B015C012DA1D9
:103680003EA14FA158A569A17AA18BA19CA10E943E
:1036900011359B01AC01C501B4010E9480369B012C
:1036A000AC010E94803669A77AA78BA79CA760937C
:1036B0000305709304058093050590930605A70103
:1036C0009601C701B6010E9411354B015C01A301AF
:1036D0009201C301B2010E9411359B01AC01C501E9
:1036E000B4010E947F364B015C0129A13AA14BA194
:1036F0005CA1CA01B9010E9411359B01AC01C50151
:10370000B4010E947F364B015C012DA13EA14FA167
:1037100058A5CA01B9010E9411359B01AC01C50130
:10372000B4010E9480364B015C01809207059092A3
:103730000805A0920905B0920A05A7019601C701E4
:10374000B6010E94803669AB7AAB8BAB9CABA30110
:103750009201C301B2010E9480366DAB7EAB8FAB8C
:1037600098AFA701960169A97AA98BA99CA90E9483
:1037700011356B017C01A30192016DA97EA98FA96E
:1037800098AD0E9411359B01AC01C701B6010E94A2
:10379000803620E030E040E85FE30E947F366B0136
:1037A0007C0129A13AA14BA15CA16DA97EA98FA999
:1037B00098AD0E9411352B013C012DA13EA14FA1D6
:1037C00058A569A97AA98BA99CA90E9411359B01CA
:1037D000AC01C301B2010E947F36A70196010E948D
:1037E000FF366093940270939502809396029093B3
:1037F000970229A53AA54BA55CA5CA01B9010E946B
:1038000011356B017C01A5019401C501B4010E9431
:1038100011359B01AC01C701B6010E9480360E94A0
:10382000DC389B01AC016DA57EA58FA598A90E94EF
:10383000FF366B017C01C0929802D0929902E0920F
:103840009A02F0929B02A501940169A57AA58BA525
:103850009CA50E94FF3660939C0270939D0280930A
:103860009E0290939F0220E030E0A901C501B401BF
:103870000E94AB3487FF1AC020E030E0A901C701E5
:10388000B6010E947138A701960118160CF044C0C9
:103890006BED7FE089E490E40E947F3660939802AC
:1038A0007093990280939A0290939B0204E912E02C
:1038B000F80161917191819191918F017F01F4E003
:1038C000EF1AF10820EE3EE245E652E40E9411357F
:1038D000D7016D937D938D939C931397B2E0003A3B
:1038E0001B0731F760919C0270919D0280919E02AE
:1038F00090919F029F7711E020E030E044EB52E48A
:103900000E94713818160CF010E01093F60281E056
:10391000B4CD1092AC010DCE6BED7FE089E490EC5C
:10392000BBCF2F923F924F925F926F927F928F9276
:103930009F92AF92BF92CF92DF92EF92FF920F933E
:103940001F93CF93DF93CDB7DEB766970FB6F8948A
:10395000DEBF0FBECDBF69877A878B879C872D8797
:103960003E874F87588BC801EE8A10E088248A94DE
:10397000982C540168E4462E68EE562E6624639413
:10398000712C05E07DE6272E71E0372E9C01990F02
:10399000440B550B298B3A8B4B8B5C8B6D857E854D
:1039A0008F8598890E94DC376D837E838F8398870B
:1039B00020E030E0A90169857A858B859C850E948D
:1039C000AB34882309F499C129853A854B855C85F8
:1039D00063E67CE987E89FE30E947E3820E030EDD3
:1039E00042E854E40E9411350E94DC376B0180915B
:1039F0000001853009F06AC0E0E9F1E0F491FD8B47
:103A0000F7FDD9C161E085E00E947909FD89FF23B6
:103A100021F02D89223009F024C1F12CE12C60E045
:103A200072E18AE790E0A70196010E94E5352983BB
:103A30003A834B835C83DA01C9010197A109B1097B
:103A40008F3F9105A105B10509F00CF4F0C060E4C9
:103A500072E48FE090E0A70196010E94E5352150C5
:103A60003109410951098D89823009F0A2C082E0F3
:103A70002F3F31054105510509F00CF48CC160E977
:103A800070ED83E090E0A70196010E94E53521509A
:103A900031094109510983E02F3F310541055105A5
:103AA00009F00CF478C1C301B201A70196010E948C
:103AB000E53521503109410951092F3F31054105B3
:103AC000510511F00CF092C084E065C18F3F09F000
:103AD00072C100930001E0E9F1E0F491FD8BFF3F3A
:103AE00009F469C1F13029F158F0F23009F43FC00E
:103AF0003D8937FD60C161E085E00E94790989CF89
:103B000014BC15BC84B5826084BD85B5816085BD5B
:103B1000F1018491E82FF0E0EE0FFF1FE25AFE4F13
:103B200085919491E1E8F1E084918093A3011D8A4D
:103B300069CF10928000109281008091810088608E
:103B40008093810080918100816080938100F101E8
:103B50008491E82FF0E0EE0FFF1FE25AFE4F8591AF
:103B60009491E1E8F1E084918093A2014BCF10920F
:103B7000B0001092B1008091B00082608093B000DC
:103B80008091B10081608093B100F1018491E82FB0
:103B9000F0E0EE0FFF1FE25AFE4F85919491909353
:103BA0005A0280935902E1E8F1E0849180935B022C
:103BB00029CF2F3F31054105510509F00CF44FC0C5
:103BC000C301B201A70196010E94E53521503109D8
:103BD000410951099D89992309F4AFC02F3F31054F
:103BE0004105510511F00CF0B0C06ECF64E274EFE6
:103BF00080E090E0A70196010E94E535215031094F
:103C00004109510985E02F3F31054105510509F072
:103C100008F4C1C062E17AE780E090E0A701960174
:103C20000E94E53521503109410951099DC09C018F
:103C300081E0FD89F111AFC095B5987F892B85BDD5
:103C400027BD8092A8019092A901A092AA01B092EA
:103C5000AB0180916E00826080936E00ACC082E008
:103C6000E8CFF12CE12C60E072E18AE790E0A70157
:103C700096010E94E535215031094109510991E031
:103C80002115310581E0480751055CF0C301B201FF
:103C9000A70196010E94E5352150310941095109DA
:103CA00093E0ED89E13009F07CC080918100887F4C
:103CB000892B809381003093890020938800809223
:103CC000A4019092A501A092A601B092A7018091B3
:103CD0006F00826080936F006EC02093B30080926B
:103CE0005C0290925D02A0925E02B0925F028091AF
:103CF00070008260809370005EC06D817E818F81D4
:103D000098850E94E30957C084E02F3F31054105A3
:103D1000510509F008F490CF29813A814B815C81EB
:103D20008AE055954795379527958A95D1F7215083
:103D300031094109510985E07FCF83E02F3F3105EB
:103D40004105510509F00CF477CF62E17AE780E094
:103D500090E0A70196010E94E53521503109410903
:103D60005109ED89EE2381F286E02F3F31054105AF
:103D7000510589F080F029813A814B815C819AE07C
:103D800055954795379527959A95D1F72150310943
:103D90004109510987E09091B100987F892B809368
:103DA000B100FD89F13009F486CFF23009F495CFE6
:103DB000FF2309F445CF6D817E818F8198850E9414
:103DC000E30985E00E944D0969897A898B899C897C
:103DD0000E94E3091F5F2E892113E0CD66960FB67E
:103DE000F894DEBF0FBECDBFDF91CF911F910F9131
:103DF000FF90EF90DF90CF90BF90AF909F908F900B
:103E00007F906F905F904F903F902F9008954F92CA
:103E10005F926F927F928F929F92AF92BF92CF925A
:103E2000DF92EF920F931F93CF93DF93D82E192F2A
:103E30000E94C0128695CD2DD12FB12CA12CC82E59
:103E4000D12C88EE882E83E0982E2197AC14BD04E7
:103E50004CF5CE018C199D090E94C012782ECE011E
:103E60000E94C012182F672D70E0C4010E94463ACC
:103E7000072E000C880B990B0E94B2342B013C01D9
:103E8000612F70E090E080E00E94B034EE24E39473
:103E900010E000E0A30192010E94911C8FEFA81A8C
:103EA000B80AD3CFDF91CF911F910F91EF90DF90A0
:103EB000CF90BF90AF909F908F907F906F905F90CA
:103EC0004F9008951F920F920FB60F9211242F93C7
:103ED0003F934F935F936F937F938F939F93AF9392
:103EE000BF93EF93FF9380915C0290915D02A0914C
:103EF0005E02B0915F02892B8A2B8B2BD1F19091BE
:103F00005B02E0915902F0915A02808189278083F7
:103F100080915C0290915D02A0915E02B0915F027F
:103F2000181619061A061B069CF480915C029091E3
:103F30005D02A0915E02B0915F020197A109B109F3
:103F400080935C0290935D02A0935E02B0935F0247
:103F5000FF91EF91BF91AF919F918F917F916F9161
:103F60005F914F913F912F910F900FBE0F901F9037
:103F70001895809100010E944D09EACF1F920F927F
:103F80000FB60F9211242F933F934F935F936F932C
:103F90007F938F939F93AF93BF93EF93FF938CE6A1
:103FA00093E00E944708FF91EF91BF91AF919F91DD
:103FB0008F917F916F915F914F913F912F910F90D2
:103FC0000FBE0F901F9018951F920F920FB60F9271
:103FD00011242F938F939F93EF93FF93E0917C0392
:103FE000F0917D038081E0918203F091830382FD53
:103FF0001BC09081809185038F5F8F732091860312
:10400000821741F0E0918503F0E0E459FC4F958F71
:1040100080938503FF91EF919F918F912F910F9046
:104020000FBE0F901F9018958081F4CF1F920F92B2
:104030000FB60F9211242F933F938F939F93AF93BB
:10404000BF938091510290915202A0915302B0917E
:1040500054023091500223E0230F2D3758F501967A
:10406000A11DB11D209350028093510290935202E2
:10407000A0935302B093540280915502909156023E
:10408000A0915702B09158020196A11DB11D8093D5
:10409000550290935602A0935702B0935802BF91D5
:1040A000AF919F918F913F912F910F900FBE0F90E5
:1040B0001F90189526E8230F0296A11DB11DD2CF9F
:1040C0001F920F920FB60F9211242F933F934F938D
:1040D0005F936F937F938F939F93AF93BF93EF9370
:1040E000FF938091B900887F803609F44AC0F0F5CB
:1040F000883209F4A7C018F5803109F49BC0B8F4E0
:10410000882309F4F9C0883009F494C0FF91EF9135
:10411000BF91AF919F918F917F916F915F914F91DF
:104120003F912F910F900FBE0F901F9018958831DF
:1041300009F488C0803251F78093400314C0803462
:1041400009F49DC040F48033B9F38833F9F68093C5
:10415000400385ECB0C0803509F485C0883509F48A
:1041600096C0883499F60E94C019D0CF883909F4D6
:104170008CC038F5883729F050F4883611F0803734
:1041800029F683E08093620310924F0257C088386B
:1041900009F47BC0803919F0803809F0B7CF8091DD
:1041A0004F02803208F071C0E0914F0281E08E0F23
:1041B00080934F028091BB00F0E0E15DFD4F808372
:1041C0003DC0803B39F0E0F4803A09F479C0883A88
:1041D00009F09CCF84E08093620310922E0210922B
:1041E0002D02E0917502F0917602099580912D02E1
:1041F00081110FC081E080932D0210920D0209C041
:10420000803C09F4A6CF883C09F4A3CF883B09F091
:104210007DCFE0912E0281E08E0F80932E02F0E0A0
:10422000E35FFD4F80818093BB0090912E028091CF
:104230002D0229C080913D038093BB0085EC8093C3
:10424000BC0064CF90913F0380913E03981758F5CE
:10425000E0913F0381E08E0F80933F03F0E0E45E46
:10426000FC4F8081E9CFE0913F0381E08E0F809386
:104270003F038091BB00F0E0E45EFC4F80839091AF
:104280003F0380913E039817C8F285E8D8CFE091AC
:104290003F0381E08E0F80933F038091BB00F0E0ED
:1042A000E45EFC4F80838091410381115CCF81E00B
:1042B00080933C0384EA8093BC001092620326CF73
:1042C00085EC8093BC001092620380914F02803293
:1042D00030F4E0914F02F0E0E15DFD4F108260911B
:1042E0004F0270E0E0917302F09174028FE292E06D
:1042F000099510924F020ACF1092400334CF1F92BB
:104300000F920FB60F9211242F933F934F935F9309
:104310006F937F938F939F93AF93BF93CF93DF93CD
:10432000EF93FF932091160430E0F901E753F24F29
:104330008491F901E458FE4FD491F901E859FE4FF8
:10434000C491CC2379F081110E94F608EC2FF0E0A3
:10435000EE0FFF1FE65BFE4FA591B491EC91ED23AC
:1043600081E009F480E020911B0430911C042F5F50
:104370003F4F30931C0420931B042091190430916B
:104380001A042536310518F094E0909315049091A5
:104390001504911130C0811169C020911B04309126
:1043A0001C042436310528F410921C0410921B04BE
:1043B0005DC01092E70410921A0410921904209123
:1043C000190430911A04A9014F5F5F4F50931A04EA
:1043D0004093190440911B0450911C04220F331F79
:1043E000F901E35EFB4F5183408310921C0410924D
:1043F0001B0491E021C090911504913001F58130AA
:10440000A9F52091190430911A04A9014F5F5F4F5B
:1044100050931A044093190440911B0450911C04BA
:10442000220F331FF901E35EFB4F5183408310924B
:104430001C0410921B0492E09093150417C09091F5
:104440001504923061F4882309F4B9CF20911B043C
:1044500030911C042536310548F093E0EDCF909162
:104460001504933099F4882309F49ECF9091180491
:104470009923A9F0811126C080911704882371F037
:104480008091170461E00E941F0909C090911504F2
:10449000943061F791E09093E704DFCF2D9AFF917C
:1044A000EF91DF91CF91BF91AF919F918F917F91CC
:1044B0006F915F914F913F912F910F900FBE0F9091
:1044C0001F90189580911704882321F0809117047C
:1044D00060E0D9CF2D98E3CFCF93DF93ECE6F3E004
:1044E0001382128288EE93E0A0E0B0E0848395838B
:1044F000A683B78325E331E03183208325EC30E0C8
:104500003587248724EC30E03787268720EC30E09D
:10451000318B208B21EC30E0338B228B22EC30E08E
:10452000358B248B26EC30E0378B268B118E128E48
:10453000138E148EC9E0D4E01B821A828C839D8373
:10454000AE83BF8387E491E0998388838AE090E01B
:104550000E94EF31909339058093380582E090E016
:104560000E94EF31909337058093360582EC91E0FD
:104570000E94EF319093350580933405E5E1F4E036
:1045800084E0818313826AE671E08EE295E00E9406
:10459000511988E680931B05EBE0F5E080E090E0A0
:1045A000A0E8BFE380839183A283B3831482158242
:1045B0001682178210861186128613861486158637
:1045C00016861786EFEFF4E01082118212821382B2
:1045D000148215821682178210861186128613861F
:1045E000EEEEF4E081E1DF011D928A95E9F7E8EE55
:1045F000F4E080E48083D283C183DF91CF9108957A
:10460000CF93DF93CDB7DEB7EB970FB6F894DEBF4D
:104610000FBECDBF789484B5826084BD84B58160BF
:1046200084BD85B5826085BD85B5816085BD80917D
:104630006E00816080936E001092810080918100F5
:1046400082608093810080918100816080938100ED
:10465000809180008160809380008091B1008460AF
:104660008093B1008091B00081608093B000809110
:104670007A00846080937A0080917A0082608093CF
:104680007A0080917A00816080937A0080917A002C
:10469000806880937A001092C100E0917C03F091D1
:1046A0007D0382E08083E0917803F09179031082AA
:1046B000E0917A03F0917B0380E180831092840380
:1046C000E0918003F091810386E08083E0917E0396
:1046D000F0917F03808180618083E0917E03F0917F
:1046E0007F03808188608083E0917E03F0917F0367
:1046F000808180688083E0917E03F0917F038081D8
:104700008F7D808385E090E0A0E0B0E0809370032F
:1047100090937103A0937203B093730387EC9DE0B1
:104720000E94F1101092FD021092FC021092690397
:10473000109268030E947B0A86EC97E090937602C1
:104740008093750287EC97E09093740280937302D4
:1047500088E18093B80064E670E080E090E00E9419
:10476000E30989E99DE00E94F11001E023E042E0C5
:104770006BE680911B050E94D40F00E022E044E02C
:104780006BE180911B050E94D40F22E044E06CE1B4
:1047900080911B050E94D40F20E046E06BE68091DB
:1047A0001B050E947E0F0E94B10F843311F08C30E4
:1047B00091F611E019A321E047E06BE680911B051B
:1047C0000E947E0F64E670E080E090E00E94E309C2
:1047D00087E089A307E023E042E06AE680911B05B9
:1047E0000E94D40F64E670E080E090E00E94E3094C
:1047F00019A39E012F5D3F4F41E06BE680911B05A1
:104800000E94140D19A29E012F5D3F4F41E068E305
:1048100080911B050E94140D19A29E012F5D3F4F30
:1048200041E063E280911B050E94140D19A29E01D4
:104830002F5D3F4F41E06CE180911B050E94140DFC
:1048400080E889A39E012F5D3F4F41E067E380919F
:104850001B050E94140D19A39E012F5D3F4F41E0DF
:104860006BE680911B050E94140D84E089A39E01D4
:104870002F5D3F4F41E069E180911B050E94140DBF
:1048800019A39E012F5D3F4F41E06AE180911B0516
:104890000E94140D40E06DE680911B050E94510DB1
:1048A00040E06EE680911B050E94510D80E190E092
:1048B0000E94EF315C0180E190E00E94EF312C0119
:1048C000312CE12CD12CC12C26EF222E612C772407
:1048D0007394C6014096F22CFC18873F9B4010F45D
:1048E00090E1F92EC3018E199109F816190619F0F5
:1048F00014F0FE2CF194D20190E080E096012F5646
:104900003E4F8F1538F4F901E80FF91FE491ED934C
:104910000196F7CF92014F2D6FE680911B050E9403
:10492000140D8F2C912CA114B10409F447C1432D0F
:104930004F716DE680911B050E94510D4E2D6EE664
:1049400080911B050E94510D08EE13E095014F2D3B
:104950006FE680911B050E94BE0EA401B501C20145
:104960000E94483B892B09F429C1C5010E948B3262
:10497000C2010E948B32FF24F394F092720280E60F
:10498000C82E82E0D82E00E011E0C8010E94531327
:10499000D6018D939D936D010E5F1F4F0C30B1E0DA
:1049A0001B0799F700916002109161020E94B10FFC
:1049B00066E0883308F067E7A80180911B050E9434
:1049C000400D00916202109163020E94B10F68E0F5
:1049D000883308F06AE7A80180911B050E94400D0A
:1049E00000916402109165020E94B10F6AE0883361
:1049F00008F06DE7A80180911B050E94400D4091D1
:104A000066025091670263E180911B050E94400D90
:104A1000409168025091690265E180911B050E94F6
:104A2000400D40916A0250916B0267E180911B0535
:104A30000E94400DF110DCC021E047E06AE6809161
:104A40001B050E947E0FF8941092800089E08093ED
:104A5000810080E293E09093890080938800109217
:104A600085001092840082E080936F007894109209
:104A7000150410921A04109219048091160460E033
:104A80000E94790964E070E08EE295E00E948A1845
:104A900061E08AE00E9479098DE691E00E94E010D1
:104AA0000E94ED1002EEE02E02E0F02E00E110E098
:104AB000C8010E94C012F70181937F010F5F1F4F51
:104AC00000321105A9F71092FD021092FC0210921B
:104AD0006903109268030E947B0A86EC97E090932A
:104AE00076028093750287EC97E09093740280932E
:104AF000730240E860E088EE94E00E94610D6AE095
:104B000070E080E090E00E94E30940E050E06AE756
:104B100074E488EE94E00E941F1010E4C12E18E7A0
:104B2000D12E1DE7E12EFF24F394C092EB04D09226
:104B3000EC04E092ED04F092EE0440E050E060EA14
:104B400073E488EE94E00E941F10C092F104D092AA
:104B5000F204E092F304F092F404C092EB04D092D9
:104B6000EC04E092ED04F092EE040E94400E80E02E
:104B70000E94AA09BC01990F880B990B6115710558
:104B80008105910511F00E940B3482EA9DE00E949C
:104B9000F11090E080E08C010F5F1F4F8A5E9E4F06
:104BA0000E94C012080F111DC8018A5E9E4F0E940C
:104BB000C0128E3461F1C8010496EDCFC80CD91C27
:104BC00046EFC4164BE0D40610F00C949831EF0C6D
:104BD00009F43394432D4F716DE680911B050E94BB
:104BE000510D4E2D6EE680911B050E94510D71CE28
:104BF00087E89DE00E94BB084AE061E070E080E049
:104C000090E00E941C1189E20E94FD101CCF66E317
:104C100071E0C801885E9E4F0E9468188FEF93E094
:104C20000E94071F60ED77E080E090E00E94E309BA
:104C30000E94F819609198027091990280919A02ED
:104C400090919B029F7720E030E040EF51E40E947A
:104C50007138181694F060919C0270919D028091B9
:104C60009E0290919F029F7720E030E040EF51E458
:104C70000E94713818160CF05BC083E68093F7022F
:104C800082E08093F5028CEB9DE00E94F11085EBB1
:104C90009DE00E94F1108EEA9DE00E94F11085E1F6
:104CA0000E94AA098C018A3892400CF09DC0809124
:104CB0007702909178020817190709F095C08DEDD9
:104CC0009DE00E94BB08C80163E670E00E94463A7E
:104CD0006B01072E000CEE08FF0877FF2BC08DE25A
:104CE0000E94B60866277727CB016C197D098E09CB
:104CF0009F094AE00E941C1186E50E94FD1081ED8B
:104D000093E00E94071FCC24C394DD24D394EE24A7
:104D1000EA94F12CED18F10861E08AE00E9479092B
:104D2000E114F10459F460E08AE00E941F092AC0EE
:104D300084E6A4CF4AE0C701B601DCCFE3EDFDE095
:104D400084918330B9F150F48130C1F0823069F13F
:104D5000F0E8EF16F1043CF361E0E6CF8730A1F113
:104D60008830D1F18430A1F78091800080628093F7
:104D70008000F0928B00E0928A0004C084B58068C5
:104D800084BDE7BC2FEFD21202C0CC24CA9465E0E8
:104D900070E080E090E00E94E309DC0C09F0B7CFFE
:104DA00010937802009377027ACF84B5806284BD35
:104DB000E8BCE8CF80918000806880938000F0920A
:104DC0008900E0928800DECF8091B00080688093F7
:104DD000B000E092B300D6CF8091B00080628093A3
:104DE000B000E092B400CECF109378020093770227
:104DF00080910201882329F08091FE0280FF0E94A9
:104E0000F8198091F7028336D1F18091F602882358
:104E1000B1F10E9460336AE070E00E94463AACED66
:104E2000DA2ED80E0E9460336AE070E00E94463AA3
:104E30008E52082F10E07801ED1448F46AE070E01B
:104E4000C7010E94AB0D4FEFE41AF40AF5CF0D1520
:104E500040F46AE070E0C8010E94AB0D0F5F1F4F85
:104E6000F6CF8BE68093F70269E771E08091380511
:104E7000909139050E94673B8FEF8093F5028DE199
:104E800094E0909387028093860280911904909118
:104E90001A0490938902809388028091E70490E03D
:104EA00090938B0280938A0280911504833009F0DD
:104EB00093C080911F0490912004875891098E35EA
:104EC000910508F083C08091190490911A04049709
:104ED00009F04BC08091210490912204809747975C
:104EE00008F043C080912304909124040997099706
:104EF000E0F510928502109284026FEF7FEFCB01F4
:104F000060937E0270937F0280938002909381026F
:104F100083E090E090937B0280937A0280917E02FE
:104F200090917F02A0918002B0918102892F9A2FE7
:104F3000AB2FBB27823609F4C5C108F099C1803375
:104F400009F4CFC108F07EC1803109F4D3C108F063
:104F500027C169E17EE0823009F42AC163E971E08A
:104F6000CE0181960E94511927C180911904909118
:104F70001A048434910550F1809121049091220407
:104F8000815491098F9710F590E080E040E050E067
:104F9000BA01FC01ED5DFB4F2081318129503109BF
:104FA0002930310598F4FC01EB5DFB4F2081318104
:104FB000275131092231310508F4D4C020813181D3
:104FC000265031092730310508F4E5C01092150448
:104FD00010921A04109219048CE693E00E9427089C
:104FE000181619068CF582E08093F5028CE693E0A2
:104FF0000E940508182F8093F70261E070E080E0BE
:1050000090E00E94E3091B3409F00DC2E0903405E2
:10501000F090350510E000E08CE693E00E94270850
:10502000892B51F08CE693E00E940508F701E00F10
:10503000F11F80830F5F1F4FF8013197EE0DFF1DA9
:1050400080818E3749F710826091F502662309F45A
:10505000A2C2F090F702653010F5B2E6FB16F9F047
:10506000ECE4FE16E1F0F9E4FF16C9F08CE88F0DD0
:105070008230A8F070E06B5F7F4F660F771F072EBE
:10508000000C880B990B0E94B234EE24E39410E0DC
:1050900000E020E030E048E452E40E94911C80915E
:1050A000F4028356823048F423E6F21631F081E0B0
:1050B0008093020187E40E94FD108091F7028037FF
:1050C00051F08091F302811106C081E08093F302D8
:1050D00080E70E94FD101091F702EEEBE10FE9333B
:1050E00008F0FDC10E2E000CFF0BE758F74D0C9495
:1050F0005A3A092E6F2A6F2A6F2A6F2A6F2A6F2A4F
:10510000BC2D6F2A542EFC2DBC2D6F2A6F2A6F2ABE
:105110006F2A6F2A6F2A442E6F2A6F2A6F2A6F2AEE
:105120006F2A6F2A6F2A6F2A6F2A6F2A6F2A6F2AB7
:105130004A2C612C612CD62E6F2A6F2A622A6F2A84
:10514000612CB92BC02E6F2A612C6F2AEC2BA82B57
:105150006F2A6F2AF12B612C612C6F2A6F2A6F2A1C
:105160006F2A622A440F551F661F771F41600496FD
:105170008038910509F00DCF80E290E09093850290
:105180008093840240937E0250937F02609380025A
:1051900070938102BDCE440F551F661F771FE7CF66
:1051A000883109F4A1C061E27EE0823209F0D6CEF6
:1051B000CE0181960E9492196CE771E0CE01819632
:1051C0000E945812882309F4A1C06EE771E08EE2B4
:1051D00095E00E941B196EE275E0CE0187960E9451
:1051E000FF18CE0181960E947F1263E971E0CE0123
:1051F00087960E94581281111AC0009138051091AB
:1052000039056FA178A5C8010E94673BD8010D90B0
:105210000020E9F7CD0102978017910709F001C13D
:10522000F80180818093F70281E08093F50210926B
:10523000150410921A0410921904CE0187960E9448
:105240007F12CACE8A3409F45BC048F4883309F46B
:1052500054C060EF7DE0823409F4AACF7FCE82355E
:1052600009F451C063EF7DE08A3509F4A1CF76CE11
:10527000823A29F188F48A37D1F130F46EE07EE089
:10528000883609F495CF6ACE803941F16BE07EE033
:10529000883909F48DCF62CE823CB9F040F4883A67
:1052A000D1F068E07EE0803B09F482CF57CE803EAB
:1052B00079F063E27EE0823E09F47ACF4FCE67E276
:1052C0007EE076CF65E27EE073CF67E17EE070CF6F
:1052D00065E17EE06DCF63E17EE06ACF61E17EE073
:1052E00067CF65E07EE064CF61E07EE061CF6DEF87
:1052F0007DE05ECF6AEF7DE05BCF67EF7DE058CF6A
:105300006DEE7DE055CF68EE7DE052CF61E871E053
:10531000CE0181960E945812811110C063E871E09D
:10532000CE0181960E945812811108C065E871E093
:10533000CE0181960E9458128823D1F18DA19EA1A1
:10534000892B21F0E9A1FAA1309721F4109279027A
:10535000E9E7F2E0108110930101163431F46AE6B6
:1053600071E08EE295E00E941B196EE275E0CE01BD
:1053700001960E94FF181FA318A641E050E0BE014D
:10538000695D7F4FCE0101960E94B218811104C061
:10539000CE0101960E946D12BE016F5F7F4FCE015C
:1053A00087960E94FF18CE0101960E947F1219CFA6
:1053B00067E871E0CE0181960E94581281111EC0EB
:1053C0006AE871E0CE0181960E945812811116C0E0
:1053D0006AE671E0CE0181960E94581281110EC0DA
:1053E00018A61FA21AA619A61CA61BA6BE016F5DB1
:1053F0007F4FCE0187960E948712F3CE69A17AA1D2
:105400006115710549F04DA15EA18EE295E00E9403
:10541000DE1810910101A9CF8EE295E00E946D1275
:10542000F8CF8BE6FFCE8CE693E00E942708181693
:1054300019060CF0C7C763E971E0CE0181960E949E
:105440005119193439F084EB810F823018F06AE079
:10545000123409F46EE7CE0101960E946219BE0172
:105460006F5F7F4FCE0181960E948712CE01019619
:105470000E947F122DA13EA13093E1022093E00211
:105480001B3631F08091340590913505143721F4A5
:10549000809138059091390549A15AA1DC01FA01A2
:1054A000BF01641B750B621773071CF461916D9348
:1054B000F7CF820F931FDC011C92CE0181960E94D0
:1054C0007F12C2CD173609F035C18091020191E0FB
:1054D000892780930201811117E41093F7028091CC
:1054E000F7028B3621F490910B031916E4F40E9415
:1054F000FD101091F702812F012E000C990B0E94D4
:10550000403B873631F0863721F0823611F01A366B
:1055100021F48091F4028B3619F01B7F103719F4B7
:105520008BE68093F702009138051091390569E701
:1055300071E0C8010E945E3BF090F702892B09F1EF
:10554000E9E4FE16F1F085EB8F0D8330D0F0809109
:10555000360590913705009711F00E948B3281E05B
:1055600090E00E94EF31F80101900020E9F7E01B84
:10557000DC01EC939093370580933605B8010E94C7
:10558000673B1092F502F092F4028F2D877F8336ED
:1055900011F01092F7028091F7028B3609F026C6BF
:1055A00030900B0337FE29C4309018033A9410E072
:1055B000212F30E080910B03082E000C990B97FFF0
:1055C00003C0919581959109281739070CF00EC6F3
:1055D000E0901A03F0901B0380911003189FE00CD9
:1055E000F11C1124F7016089062E000C770B880B43
:1055F000990B0E94B23420E030E040E85EE30E9464
:1056000011359B01AC0100E060911503C7010E94B8
:10561000A915A0911A03B0911B0380911003189F44
:10562000A00DB11D112452962C915297222309F4FA
:10563000D6C3E22F022E000CFF0BF7FF03C0F1953B
:10564000E195F109EE0FFF1FEE0FFF1FEC56FD4F26
:105650000081218042814DA753815EA75396AC9172
:10566000F9ABE8AB622F022E000C770B880B990B7D
:105670006CAB7DAB8EAB9FAB022E000C330B0A2EB6
:10568000000CBB0B0E94603A68AF79AF8AAF9BAF4A
:105690000E94F819A8A9B9A94D905D906D907C90D1
:1056A000A30192015F7760E070E084E393E40E94DD
:1056B0007F3620E030E040E050E40E947138181658
:1056C0000CF088C36CA97DA98EA99FA90E94B23451
:1056D0004B015C0168AD79AD8AAD9BAD0E94B234DF
:1056E0006B017C01A5019401C301B2010E94113537
:1056F000A70196010E94AB3487FF6CC3202F322D87
:105700004DA55EA5C501B4010E9411359B01AC01F8
:10571000C701B6010E94AB3487FF5CC380911703B9
:10572000181306C0131424F41091160311503A9460
:105730001F5F3ECF1A3709F0D2CE8091F20291E07E
:1057400089278093F202882309F4C7CE1AE5C5CED3
:105750008091F30291E0811190E09093F302811126
:1057600010E51093F702882309F4B9CE0E94400E89
:10577000B6CE0E94601163E971E0CE0181960E946D
:10578000511903E011E0D8016D917D918D01CE0199
:1057900001960E9425194D815E8169817A81CE0131
:1057A00081960E94B218CE0101960E947F1242E0BB
:1057B00050E061E971E0CE0181960E94B218B1E03B
:1057C00003321B0701F7CE0181960E940911CE0119
:1057D00081960E947F1283CE86EC93E00E94071F81
:1057E0007ECE8BE59EE00E94F11032EE832E32E0F9
:1057F000932E40E4E42EF12C00E110E0F401D1906E
:105800004F01C8010E94CF35D81621F06D2DC80177
:105810000E94D735C7010E9453136C01C8018096BE
:105820000E94C012B82EF40131976081062E000C40
:10583000770B880B990B0E94B2342B013C016B2D26
:10584000BB0C770B880B990B0E94B2349B01AC0107
:10585000C301B2010E9411352B013C01B601DD0CE0
:10586000880B990B0E94B2349B01AC01C301B201B9
:105870000E9480360E94D537C70180960E94681822
:105880000F5F1F4FF2E0EF0EF11C0032110509F01F
:10589000B5CF25CE83E59EE00E94F11002EE12E026
:1058A00020E1E22EF12CC7010E94C012D8018D9395
:1058B0008D01BFEFEB1AFB0AE0E2EE16F10499F757
:1058C0000ECEE3E0F1E0DE01119683E291E05D01AE
:1058D000219131912D933D938E179F07C9F78091A8
:1058E000380590913905143721F080913405909155
:1058F00035056DE871E00E9442346C0192EF692E2B
:1059000092E0792EC114D10409F4CAC0C6010E94E4
:1059100014348C0160E971E090E080E00E94423430
:105920006C01F12CE12C55245394009761F00E94F6
:1059300014347C0160E971E090E080E00E94423420
:105940006C0182E0582EF801EE0FFF1FEA0DFB1DDF
:10595000F182E0828091F702833609F0A7C01092AD
:1059600002011092F2028091F402833661F080907D
:1059700038059090390564E671E0C4010E94673BE8
:10598000C4010E943417A8014E515D4F4A0152E0F4
:10599000551202C0D401EC92C8018096880F991F5D
:1059A0000E9453137C01C8019927C0960E94C0121F
:1059B000182FF4016081062E000C770B880B990BD1
:1059C0000E94B2341B012C01612F110F770B880B41
:1059D000990B0E94B2349B01AC01C201B1010E943B
:1059E00011351B012C01B701FF0C880B990B0E948C
:1059F000B2349B01AC01C201B1010E9480360E9409
:105A0000D537072E000C880B990B0E94B234AB01DE
:105A1000BC01802F0E9467130E94601163E971E04E
:105A2000CE0187960E94511902EE12E0D8016D91C5
:105A30008D01062E000C770BCE0181960E94251950
:105A40004DA15EA169A17AA1CE0187960E94B218EC
:105A5000CE0181960E947F1242E050E061E971E040
:105A6000CE0187960E94B21860167106F9F6CE0133
:105A700087960E940911CE0187960E947F12C11459
:105A8000D10409F03FCF8091F702893609F027CD84
:105A900040E050E060E070E4C5010E945E141FCD5C
:105AA000F12CE12C10E000E0512C4DCF8D3641F46B
:105AB00040E050E060E070E4C5010E945E14DFCF7A
:105AC000843729F4F801EC5FFC4FE082D8CF8537AA
:105AD000C9F50E9460336AE070E00E94463AECED3E
