:100000000C9412110C943A110C943A110C943A116C
:100010000C943A110C943A110C943A110C94761FEA
:100020000C943A110C943A110C943A110C949321BB
:100030000C943A110C943A110C943A110C943A1114
:100040000C942A200C943A110C94F81F0C94D21F93
:100050000C943A110C943A110C943A110C943A11F4
:100060000C9474200C943A1107634236B79BD8A7BE
:100070001A39685618AEBAAB558C1D3CB7CC5763CD
:10008000BD6DEDFD753EF6177231BF000000803F7B
:1000900008000000BE922449123EABAAAA2ABECD97
:1000A000CCCC4C3E00000080BEABAAAAAA3E000009
:1000B0000000BF000000803F000000000008417801
:1000C000D3BB4387D1133D190E3CC3BD4282AD2B38
:1000D0003E68EC8276BED98FE1A93E4C80EFFFBE30
:1000E00001C4FF7F3F0000000000EA0000010000A3
:1000F00000000000000000000019281E2828141E1F
:100100001408000000000000000000000019232374
:10011000FB2819195A080000000000000000000028
:10012000002D1923FBBA23195A0800000000000013
:100130000000000000BA1923FB2D23195A08000003
:10014000000000000000000000CE191E1E46231E05
:100150001E080000000000000000000000CE2D1965
:100160001E4600231E0800000000000000000000E2
:1001700000D83C141946B5322308000000000000E6
:100180000000000000D3C4232332233223080000E0
:10019000000000000000000000D3D82323324132C9
:1001A00023080000000000000000000000282832A2
:1001B000323C3C5A5A0800000000000000000000D9
:1001C000002832410F3C1E284B08000000000000B0
:1001D0000000000000283C500A3C143C5A08000073
:1001E000000000000000000000003C500F3C1E41D9
:1001F00050080000000000000000000000F13C502A
:1002000023324641370800000000000000000000D3
:100210000000377D281E37413C0800000000000028
:100220000000000000003773281E37AB3C080000B8
:1002300000000000000000000005373C282337C400
:100240003C08000000000000000000000005463CE3
:100250002323E2EC4B080000000000000000000037
:100260000005F13C232323EC4B08000000000000B4
:10027000000000000041F6505A231EC45A08000036
:1002800000000000000000000041F6467D2D1ED356
:100290005A08000000000000000000000041F6467F
:1002A0003C2D1ED3D308000000FA00000100050316
:1002B000E2B0D3001EE20AE22614E22B190A411131
:1002C00001000000E2B0D300E21EE20A14262BE295
:1002D0000A19114101000000E2B0D3001EE2E21E43
:1002E0001E28281E1E0A0A1E01000000E2B0D300CC
:1002F000000000002D2D2D2D1E1E1E1E01000000D1
:10030000E2B0D300E21E1EE2281E1E280A1E1E0AAC
:1003100001000000E2B0D300000000000F0F0F0F3B
:100320001E1E1E1E01000000FD0000020000000055
:1003300000000000000000A8D543642ADD2A2A0F2F
:100340000000000000000000000000ADA8643C2A8E
:100350002A2A320F000000F8ECF500FFFF0000121F
:10036000121212F2F2F2F20A000000F800F1010695
:10037000070300000000000000001E1E1E1E1E1EBF
:100380001E1E050000000F000000000000001E23DC
:10039000281D320F0F0F050000001E000000000096
:1003A00000001B23283C320F142D050000000F0015
:1003B0000000000000002D23283C1914143C050007
:1003C0000000000000000000000032234B3C141E1F
:1003D000143C06000000F1000000000000003C3C5E
:1003E00046460F0F3C3C06000000000000000000E5
:1003F00000001E1E5F5F3C3C3C3C060100001E00EE
:100400000000000000004B465050CECE3C3C08009F
:100410000000FC000A010203031E1400000FF63C5A
:10042000F628285A2D0A3C462D060000002D1400FF
:10043000000FF63CF63C35733CE2283215020A0008
:10044000001E1400000FF63CF628285A2D0A3246EA
:100450002D100000001E1400000FF63CF62828673F
:100460002D0A32502D10000000F900000104050291
:100470000000D300FBFB14142D2D69692D2DD3D35F
:100480000800000000000000FBFB14141EB0690F00
:100490002D50D350080000002D0000000000000087
:1004A0001E1E1E19C41E1E2D080000002D00000077
:1004B000000000002DB55A19C400C42D0814000016
:1004C0002D000000000000002DB55A19C400C42DF5
:1004D0001E0000002D000000000000002DB55A197C
:1004E000C400C41E1E0000002D000000000000001B
:1004F0002DB55A19C400C42D10140000FD00E201EE
:1005000001020200ECC400000000001E1E6E7D3CD3
:100510003CD8CE040100002800DD00000000001ED1
:10052000C46E7D3CF6E2D31000000041FBC4000025
:100530000000001E0A6E7D3CC4E2D810000000FDE1
:1005400000E20101020300ECC40000000000231ED1
:1005500078694B3CD8E20402000023FBC400000091
:100560000000B51E7D5F284BD3E20A000000280082
:10057000DD0000000000C41E7D5F3C4BD3E20A009A
:100580000000FD000001000000E2B0D300FDFD030B
:100590000346464646C9C9C9C905000000E2B0D3B2
:1005A00000A6A603033C3CB0B0BFBF464605000012
:1005B0000000000000A6A6A6A63C3CC1C1BCBC1E13
:1005C0001E040A0000EB0000010000000000000013
:1005D000000000001E1E1E1E1E1E1E1E0C0200001D
:1005E0000000D300FBFB14142D2D69692D2DD3D3EE
:1005F0000C0400000000D300FBFB1414A614694B8C
:100600002D5AD3E20C0100000000D300FBFB1414B0
:100610009C14694B1E5AD3E20C0100000000D30069
:10062000FBFB14148014694B1E5AD3E20C02000029
:100630000000D300FBFB14148014694B555AD3E21D
:100640000C0200000000D300FBFB1414809C694BDB
:10065000555AD3E20C0100000000D300FBFB141438
:10066000809C694B552DD3E20C0100000000D300A3
:10067000FBFB14148080464B5555ECEC0C0200003B
:100680000000D300FBFB1414B0B07F7F0A0AB0B0A7
:100690000C0100000000D300FBFB1414B0B0F1F11A
:1006A0000A0A46460C0300000000D300FBFB1414AA
:1006B000BABA1E1EF6F646460C0100000000D30032
:1006C000FBFB141432327F7FCECE5A5A0C0200004C
:1006D0000000D300FBFB141432327FECCECE5A5A0A
:1006E0000C0200000000D300FBFB141432327FEC3C
:1006F000CECE5A280C0200000000D300FBFB1414DD
:1007000032327FECCECE5A5A0C0200000000D300E9
:10071000FBFB141432327FECCECE005A0C020000E8
:100720000000D300FBFB14143232ECECCECE005AA6
:100730000C0200000000D300FBFB14143232ECEC7E
:10074000CECE5A5A0C02000000000000000000004B
:100750001E1E1E1E1E1E1E1E0C040000B0140000D5
:10076000000000001E1E1E1E1E1E1E1E0C04000089
:10077000FE0005010001022D000000000000002D18
:10078000232632E2F600EC06010000D30000000050
:10079000000000232D3226F6E2EC0006010000F8EE
:1007A00000000105080100000000000000004B4BA4
:1007B0004B4BC9C9D8D80A00000000000000000057
:1007C00000001E1EECECC9C93C3C00040000000007
:1007D0000000000000001E1E05053C3C2828000209
:1007E0000000000000000000000019192D2D3C3C05
:1007F00023230001000000000000000000003C3C3A
:100800002D2D3C3C1E1E000001F6000000000000E3
:1008100000003C3C6E6EC9C964640003007F0000A8
:10082000000000000000ECEC6464B5B5C4C4000333
:10083000000000000000000000002D2D7F7F000060
:10084000BABA00030000010000010000000000002F
:100850000000000000000000000001001401001E64
:100860000000FBFB0000B5B51E1E3C3C0000010073
:10087000E2010000D300FBFB14142D2D69692D2D1E
:10088000D3D301000001E2B0D300FDFD03034B4BC5
:100890004B4BC9C9C9C901004B0100EC0000000065
:1008A00000003C3C4B4B2D2D4B4B0100B501001E75
:1008B0000000FBFB0F0FB5B52D2D3C3CE2E2010023
:1008C0000001000000000000000000000000000027
:1008D000000001000F0114280000050503035A5A07
:1008E0002D2DC4C40505010000010000000000001A
:1008F00000001E1E1E1E1E1E1E1E28000001223489
:10090000392E0D18FA0D22352F2F0D1BF90D233618
:10091000232F0D1DFC0E23361B300D20030E243615
:1009200017310D24060E253612310C270D0F2636F1
:100930000E310C2C160F273C0A320C211E0F2840BA
:100940000E330C1A1A10294412330C1117102945B2
:1009500015340C0B15112A4418340C0114112A3EBD
:100960001A350CFC13112B361D360CF712132C2CD8
:1009700020370DF811102D2023390DFC100C2D19E6
:1009800025380D01100C2E1327390D0510092F0ED7
:1009900029380D0D10082F0A2B350E1411073008B9
:1009A0002E330E1C0F06310A30300E1B1005310D90
:1009B000312D0F1912053110332A0F161307321477
:1009C00034290F141409321636271213160B321A53
:1009D00036251211180C341C37240E101C0E351F2E
:1009E00037240C101E0E362238260A0F210C35240F
:1009F0003827090E250C34273728070E290C3129F2
:100A00003629060E2E0C2F2A3B290510290C2C2CDA
:100A1000422A05111D0C282D462A0512150C272FD8
:100A2000482B06130D0C2531492C0814090D2432CE
:100A3000452D0915000D2233402D0D17FA0D3600F6
:100A400000010931352D1814FE0F0832292E1C150E
:100A5000FF0F0A331A2F1A1606100C341730181805
:100A600009110E341431161A0C1210351133151BDE
:100A7000111212350E34141D161315360B36121EB4
:100A80001B1316360B3612201D1419360D37102283
:100A90001B151A361038102518171C3612380F2758
:100AA00017181E3414390E2D161A203616390E2C2E
:100AB000151C213A18390F24141E223D1A390F1F14
:100AC000132024401C390E18122326421D390E14FF
:100AD000122627431F390E101128294020380E05F1
:100AE000112B2A3723390EFF102C2C2C253E0FFDFD
:100AF0000E232D1E27420F010E1D2E1528440F0513
:100B00000E172F132A4610090E1330102B46110C06
:100B10000F11310C2C4312110F0531092E3B141803
:100B20000FFE32082F2F151C10FE330A3022161A22
:100B30001001340C311818181106340E32151A161B
:100B4000120A351033131B15130C3512340F1D14F4
:100B500014133615360C1E1213183616370C2012C5
:100B6000141B3619370B2210161D361A380E251095
:100B7000181A361C3811270F1918341E39122D0E69
:100B80001B17362039152C0E1D153A213917240F45
:100B90001F143D2239181F0F21144024391A180E32
:100BA00024134226391C140E27124327381E100E18
:100BB0002A1140293820050E2D11372A3B21FF0E1E
:100BC00029112C2C4023FD0F21101E2D4326010F2F
:100BD0001B0E152E4427050F160E132F462909103C
:100BE000120E1030452A0C110B0E0C313F2C111235
:100BF000010F15000001392B3C2FEE07EF07322BB8
:100C0000352FFB07FB072B2B2F2F070707072B2B56
:100C10002F2F070707072B2B2F2F070707072B2F30
:100C20002F32070007002B362F3A07F307F32B3C30
:100C30002F4107E707E72B422F4707DD07DD2B3F53
:100C40002F4307E207E32B392F3C07EE07EF2B3248
:100C50002F3507FB07FB2B2B2F2F070707072B2B06
:100C60002F2F070707072B2B2F2F070707072B2BE4
:100C70002F2F070707072F2B322F00070007362BD0
:100C80003A2FF307F3073C2B412FE707E707422BE7
:100C9000472FDD07DD073F2B432FE207E307120055
:100CA00000012C38363A03FB07052F283A3603FC9F
:100CB0000B0231163D3203041001330D3E30030B9D
:100CC000170234083F2F0516200335103E30071059
:100CD000270436194332050A1E043620463403071A
:100CE000170434284536020508052F2F3D37010526
:100CF000FD062A342F390107FB072539203A020A5D
:100D0000FF08233C1A3C050E0609233D1A3C051733
:100D10000A0D2541223D0412070B2844293E030AEF
:100D2000050A2A432F3D030405082C3A353A03FCF3
:100D30000705150000013138383F06FC08FE372E44
:100D40003B3608FB0CFB3B233E2C0CFD12FB3E19F3
:100D50003F2311021AFD3F153E1F190525013F13C0
:100D60003D1D1E0A2B044311421A170F220A461971
:100D70004522110A1C07462047290C07160543285F
:100D8000462F020509053D2F4235FD050107343484
:100D90003A3AFB07FC0A2939323DFC0AFB0F1C3C9E
:100DA000263E000EFD16173F213F0314FE1F143D83
:100DB0001D3C081F022C11401A3E0E1C0829144429
:100DC0001E430D14081F1C4525450910061B24450C
:100DD0002C470607050F2C40324405000605240069
:100DE0000A012A33454C09F907FF2B2E474B09FA14
:100DF00009FE2C29484A09FA0CFD2D23484A09FC12
:100E000011FC2E1E484909FE15FB2F1A49480901FD
:100E100019FA3013484609051FFB310D46440A0DE7
:100E200026FB310844410A182FFE330940400A18B6
:100E30003A00350D494207142BFF34125043051177
:100E400020FF34165344040F1500331A5444040D84
:100E50000E01321E5544040B090130225545040A87
:100E60000303302553460309FF032E295246030985
:100E7000FA052D2C50480309F6052B2F4E4803097F
:100E8000F4052A314A48030AF20629344749030B7C
:100E9000F00828364349030DEE0926383E49040F71
:100EA000ED0A243A3A490511EE0C223B3349071466
:100EB000F30D203C2E4A0A18FB0E203E2F4A0A163C
:100EC000FC0F2244334C0A0AFC0C2345364D0A031E
:100ED000FD092444394D0901FE0725413C4D09FE19
:100EE000FF06263E3F4D09FCFF05273B414C09FA12
:100EF00001022938434C09FA03012933454C09F909
:100F000006FF23000A012D36455109F907F8303351
:100F1000474F09F909F5332E484D0AFA0CF13529E6
:100F200048480CFA11F0372348450EFC15EE391EDF
:100F3000494010FE19EE3A18483B13031FEE3B13CD
:100F40004634160926F33C0D442E1A132FFB3C0F92
:100F5000402F1E133AFC4313493313112BFC471740
:100F60005136090E1CFD461B5339060C15FE441F55
:100F7000543C010B0EFF4323553FFF0A09FF402657
:100F80005541FD0903013C295343FB09FF03392D5A
:100F90005245FA09FA06342F5047F909F60830325B
:100FA0004E48F90AF30C2B344A48FA0BF110263755
:100FB0004648FB0DEF1422394349FD0FEE181C3A49
:100FC0003E48FF12ED1E153B37470515F0250F3C37
:100FD00030440F18F62D0C3C2C41171DFE371141E3
:100FE00031471216FC30154634500F0CFD201947BE
:100FF00037530D06FD171D453A540B03FE112143CF
:101000003E550A00FE0A2440405509FD0004283DD3
:10101000425309FB02002B39445209FA05FB1D001B
:10102000FD0137393334F1EDF9F638323733F1ED6C
:10103000FAF639293B31F1EFFAF63A213E30F1F375
:10104000FCF63C18412DF2F7FEF63D11442CF1FC64
:1010500001F73D0E462AF20005F83F0E472AF2013D
:1010600009FA3F144B2BF2FD04FA3F1A4E2CF0FA0A
:10107000FDFA3E204C2DF0F7FAFA3D25492FF0F508
:10108000F5F93B2B4430F0F3F2F93A313F31EFF20E
:10109000F0F939373933F0F1F0F9373C3133F0F208
:1010A000F0F934402B34F0F3F2F933432335F0F404
:1010B000F4F931471A37F0F6F8FA2F4A1438F1F9F3
:1010C000FCFA2D4C0F39F2FD02FA2D4E0C3AF202C9
:1010D00009FA2E4F123BF20006F83051183BF2FC91
:1010E00002F7314F1D3BF2F8FEF6324C233AF2F490
:1010F000FCF634482838F1F0FBF635422D36F1EE97
:10110000FAF6363A3235F1EDF9F62400FD013739B9
:101110003338F1EDF9F03B333631F1EDF9F03E2D96
:10112000392CF2EEFAF141263C26F3F1FBF3441F91
:101130003F1FF5F4FCF647184119F6F7FEF949137D
:101140004414F8FB00FC4B104510FBFE03024D0E4F
:10115000470DFE0106084E0F470E02010A084F1404
:101160004B1300FD040550194D18FDFBFF02511EE5
:101170004D1CFBF8FBFF4E224B20F6F6F8FD4C27EA
:101180004824F3F4F5FC482B4429F0F3F2FA4330F9
:10119000402DEEF2F1FA3D343B31EDF1F0F9383902
:1011A0003634EDF1F0F9323D3038EDF1F0FA2A4005
:1011B0002B3BEFF3F2FA2343243EF1F4F4FC1D46FB
:1011C0001E40F4F5F7FD16481843F8F7FAFF114AE8
:1011D0001344FCFAFD01104C0F46FEFD02050E4DB6
:1011E0000C4701000908104E0F490002070815506E
:1011F000144CFDFE03011A51194EFAFC01FD1F4F5C
:101200001D4CF7F8FEFA234D2249F5F4FDF6284A65
:101210002646F4F1FBF42C452A43F3EFFAF1314072
:101220002E3DF2EEFAF0353A3239F1EDF9F01A00CE
:101230000001333A3335F9E8FBF333412F37F9E94D
:10124000FBF331462B39F9EAFBF3304A273AF9EB45
:10125000FCF32F4D233CF9F0FDF32D4C1F3CFAF627
:10126000FFF52C451A3AFA0202FA2A42163AFA0215
:1012700002FA2C401C39F700F8FA2F3E2238F3FE10
:10128000F0FA303B2937F3FCECFA32382F35F3FC17
:10129000EAF933353534F3FBE9F935323A33F3FB08
:1012A000E8F9372E4132F3FBE9F9392A4631F3FCEC
:1012B000EAF93A264A30F3FDEBF93C224D2EF3FED3
:1012C000F0FA3C1E4C2DF5FFF6FA3A19452CFA02BD
:1012D00002FA3A17422AFAFF02F8391D402DFAF6AF
:1012E00000F538253E30FAEDFEF3372A3B30FAEBB5
:1012F000FCF335303832F9EAFCF334363534F9E9A9
:10130000FBF3230000012E362E36FBE9FBE92B3AD6
:101310002B3AFBE8FBE8283F283FFCE8FCE82543A4
:101320002543FDE9FDE922472247FEEAFEEA1F4A7E
:101330001F4AFFEBFFEB1C4B1C4B01F001F0184860
:10134000184803F703F71543154305FF05FF12403F
:10135000124007000700133F133F01FE01FE173D37
:10136000173DF9FDF9FD1D3A1D3AF2FCF2FC223859
:101370002238EEFCEEFC26362636EDFBEDFB2B3458
:101380002B34EBFBEBFB30313031EAFBEAFB352E43
:10139000352EE9FBE9FB392B392BE8FBE8FB3E282E
:1013A0003E28E8FCE8FC42254225E9FDE9FD46220D
:1013B0004622EAFEEAFE481F481FEAFFEAFF4A1CEF
:1013C0004A1CEE01EE014A184A18F403F4034515CD
:1013D0004515FC05FC0541124112000700073F13AB
:1013E0003F13FF01FF013D173D17FDF9FDF93B1DBF
:1013F0003B1DFCF2FCF239223922FCEEFCEE3726D2
:101400003726FBEDFBED342B342BFBEBFBEB3230C3
:101410003230FBEAFBEA2F352F35FBE9FBE90F0001
:10142000000138384848EBEBDDDD2E2E3434070759
:1014300009092E2E3434070709092E2E34340707E4
:1014400009092E2E3434070709092E2E34340707D4
:1014500009092E2E34340505090932323838FCFCCE
:10146000FFFF35353C3CF4F4F7F737374040EDEDFE
:10147000EFEF3A3A4343E6E6E7E73C3C4646DFDF38
:10148000E0E03D3D4848DDDDDDDD3D3D4848DDDD5A
:10149000DDDD3D3D4848DDDDDDDD000000002400F0
:1014A00027002A0000000000230026002900000079
:1014B0000000250028002B00040404040404040494
:1014C00002020202020203030303030301020408EF
:1014D000102040800102040810200102040810209E
:1014E00000000008000201000003040700000000E3
:1014F00000000000025265736574206A6F696E74A3
:10150000206F6666736574733F28592F6E290049F2
:10151000324320454550524F4D206F766572666CC0
:101520006F77212044656C65746520736F6D65204D
:10153000736B696C6C73210A00206F6E2049324313
:1015400020454550524F4D0A00496E7374696E63D1
:101550007473207573656420005361766520736B26
:10156000696C6C73000A436F6E66696775726520FB
:10157000454550524F4D000A2A204368616E676509
:10158000206D6F64656C20616E6420626F617264AF
:1015900020646566696E6974696F6E7320696E2078
:1015A0004F70656E4361742E696E6F210000F8F60E
:1015B0002A3F68F57A0006FFFE0003000000650080
:1015C00054FFEF0000FA80000B12820001030C3080
:1015D000C30A74562D0D62DBC716F4BA023883F8BD
:1015E000833000F883258EF8833000F883FFFFFFF7
:1015F000FF0CBDD811240004001A8279A100360026
:101600003C000000000010000038836FA2003E0381
:10161000304000000002CAE3093E800000200000C4
:10162000000000000040000000600000001FA4E86F
:10163000E4FFF5DCB9005B79CF1F3F787600867C4C
:101640005A00862347FAB986310074878A00000061
:101650000000004305FFFFE9A800002182FAB84D11
:1016600046FFFADF3DFFFFB2B3000000003FFFBAC4
:1016700098005DAC08000A637800014621FFFF0076
:1016800000000042B5000600640064000614060273
:101690009F0F479132D90E9FC91DCF4C343BB67A6C
:1016A000E80064000600C800000000FFFE10000013
:1016B0000000000000000000000000000000070023
:1016C00000FFF10000FA460000A2B8000010000080
:1016D0000004D6000004CC000004CC000000000090
:1016E00000000000000000000000000000000600F4
:1016F0000200050007000000000064000000000078
:10170000000000000C000500640020000000000044
:101710000000000000000040000000030000000086
:1017200032F8980000FF650000830F0000000600FB
:1017300000FFF10000FA460000A2B800000000001F
:101740000000000000000000000000000000000099
:101750003200000000000000000000100000000047
:10176000010000000D0000B26A000200000001FB51
:1017700083007C0000FB15FC001FB4FF8300000009
:101780000100650007006403E8006400280000FF12
:10179000FD0000000016A000000000000000001086
:1017A00000002F0000000001F400001000002800DD
:1017B00000FFFF4581FFFFFA7200000000000000FB
:1017C00000004400010005BAC6004778A2000000EE
:1017D00000000000000000060000000014000023CC
:1017E000BB002EA25B00000568000BCF490004FF80
:1017F000FD000200000000000200000000001B00CD
:101800000000000000000000000000000000640074
:1018100007000800060006FFFE00000000000000B0
:1018200000000000000000000000000000000000B8
:1018300000000000000000000000000000000000A8
:1018400000000000000000000000000000002EA2C8
:101850005B00000568000BCF490000000000F8F6AF
:101860002A3F68F57A0004FFFD00020000001B001B
:10187000000000000000000000000E000EFFFFFF4F
:10188000CF0004000000000032FFFFFF9C00004377
:1018900005000000000000000100000064FFE500FA
:1018A0000000000000000000000000000000000038
:1018B00001000000000001000000000000000180A5
:1018C000000001800000018000002426D3000100F8
:1018D0000100000000000600100096003C0000001F
:1018E0000000000000000000001F9E655D0C0A4E15
:1018F00068CDCF770950166759C619CE820000000F
:101900000000000000000000000047711C00000003
:10191000000000000017D78400030000000011DC65
:101920004703000000C7938F9D1E1B1C19FFFFFF7C
:10193000FF000000000EDFA4381F9E655D00000060
:10194000000047711C0203188500004000000000E1
:10195000000000000300000000000000003FFFFF47
:10196000FDFFFFF4C9FFFFBCF000010C0F000000F9
:101970000000000000000000000000000000000067
:1019800000000000000000000000000000F5B7BAF1
:10199000B3677DDF7E72902E554CF6E6880000001E
:1019A00000000000000000000000000000D8DCB4CF
:1019B000B8B0D8B9ABF3F8FAB3B7BB8E9EAEF1327C
:1019C000F51BF1B4B8B08097F1A9DFDFDFAADFDF44
:1019D000DFF2AA4CCD6CA90CC92C97F1A989264637
:1019E00066B28999A92D557DB0B08AA896365676EB
:1019F000F1BAA3B4B280C0B8A89711B28398BAA3C1
:101A0000F0240844106418B2B9B49883F1A329559E
:101A10007DBAB5B1A38393F0002850F5B2B6AA837E
:101A20009328547CF1B9A3829361BAA2DADEDFDB9A
:101A3000819AB9AEF5606870F1DABAA2DFD9BAA2BC
:101A4000FAB9A38292DB31BAA2D9BAA2F8DF85A48F
:101A5000D0C1BBAD83C2C5C7B8A2DFDFDFBAA0DF8C
:101A6000DFDFD8D8F1B8AAB38DB4980D355DB2B622
:101A7000BAAF8C96198F9FA70E161EB49AB8AA8774
:101A80002C547CBAA4B08AB691325676B28494A40F
:101A9000C808CDD8B8B4B0F19982A82D557D98A8C2
:101AA0000E161EA22C547C92A4F02C5078F184A81F
:101AB00098C4CDFCD80DDBA8FC2DF3D9BAA6F8DA72
:101AC000BAA6DED8BAB2B68696A6D0F3C841DAA6D0
:101AD000C8F8D8B0B4B882A892F52C548898F135DB
:101AE000D9F418D8F1A2D0F8F9A884D9C7DFF8F84A
:101AF00083C5DADF69DF83C1D8F40114F1A8824E0F
:101B0000A884F311D182F5D992289788F109F41CA1
:101B10001CD884A8F3C0F9D1D99782F129F40DD843
:101B2000F3F9F9D1D982F4C203D8DEDF1AD8F1A2D1
:101B3000FAF9A88498D9C7DFF8F8F883C7DADF691B
:101B4000DFF883C3D8F40114F198A8822EA884F397
:101B500011D182F5D992509788F109F41CD884A844
:101B6000F3C0F8F9D1D99782F149F40DD8F3F9F916
:101B7000D1D982F4C403D8DEDFD8F1AD8898CCA8DF
:101B800009F9D98292A8F57CF1883ACF944A6E98E7
:101B9000DB6931DAADF2DEF9D88795A8F221D1DA26
:101BA000A5F9F417D9F1AE8ED0C0C3AE82C684C3F6
:101BB000A88595C8A588F2C0F1F4010EF18E9EA803
:101BC000C63E56F554F18872F40115F19845856EBC
:101BD000F58E9E0488F142985A8E9E068869F4011B
:101BE0001CF1981E1108D0F504F11E9702029836D8
:101BF00025DBF9D985A5F3C1DA85A5F3DFD885956D
:101C0000A8F309DAA5FAD88292A8F578F1881A849F
:101C10009F26889821DAF41DF3D8879F39D1AFD950
:101C2000DFDFFBF9F40CF3D8FAD0F8DAF9F9D0DFFA
:101C3000D9F9D8F40BD8F3879F39D1AFD9DFDFF4C6
:101C40001DF3D8FAFCA869F9F9AFD0DADEFAD9F8B1
:101C50008F9FA8F1CCF398DB45D9AFDFD0F8D8F14E
:101C60008F9FA8CAF38809DAAF8FCBF8D8F2AD9767
:101C70008D0CD9A5DFF9BAA6F3FAF412F2D8950DB6
:101C8000D1D9BAA6F3FADAA5F2C1BAA6F3DFD8F130
:101C9000BAB2B68696A6D0CAF349DAA6CBF8D8B0BF
:101CA000B4B8D8AD84F2C0DFF18FCBC3A8B2B6868A
:101CB00096C8C1CBC3F3B0B48898A821DB718D9DC1
:101CC00071859521D9ADF2FAD88597A828D9F4085D
:101CD000D8F28D29DAF405D9F285A4C2F2D8A88DFC
:101CE0009401D1D9F411F2D88721D8F40AD8F2841A
:101CF00098A8C801D1D9F411D8F3A4C8BBAFD0F2C9
:101D0000DEF8F8F8F8F8F8F8F8D8F1B8F6B5B9B0A0
:101D10008A95A3DE3CA3D9F8D85CA3D9F8D87CA3D4
:101D2000D9F8D8F8F9D1A5D9DFDAFAD8B18530F7E2
:101D3000D9DED8F830ADDADED8F2B48C99A32D55BF
:101D40007DA083DFDFDFB591A0F629D9FBD8A0FC09
:101D500029D9FAD8A0D051D9F8D8FC51D9F9D879D5
:101D6000D9FBD8A0D0FC79D9FAD8A1F9F9F9F9F9B9
:101D7000A0DADFDFDFD8A1F8F8F8F8F8ACDEF8ADCC
:101D8000DE8393AC2C547CF1A8DFDFDFF69D2CDAE8
:101D9000A0DFD9FADB2DF8D8A850DAA0D0DED9D050
:101DA000F8F8F8DB55F8D8A878DAA0D0DFD9D0FA5F
:101DB000F8F8F8F8DB7DF8D89CA88CF530DB38D93A
:101DC000D0DEDFA0D0DEDFD8A848DB58D9DFD0DEF8
:101DD000A0DFD0DED8A868DB70D9DFDFA0DFDFD8D6
:101DE000F1A888902C547C98A8D05C38D1DAF2AE57
:101DF0008CDFF9D8B087A8C1C1B188A8C6F9F9DAD3
:101E000036D8A8F9DA36D8A8F9DA36D8A8F9DA3601
:101E1000D8A8F9DA36D8F78D9DADF818DAF2AEDF2A
:101E2000D8F7ADFA30D9A4DEF9D8F2AEDEFAF983EC
:101E3000A7D9C3C5C7F1889BA77AADF7DEDFA4F8A1
:101E4000849408A797F300AEF29819A488C6A394C7
:101E500088F632DFF28393DB09D9F2AADFD8D8AE55
:101E6000F8F9D1DAF3A4DEA7F1889B7AD8F3849449
:101E7000AE19F9DAAAF1DFD8A881C0C3C5C7A39209
:101E800083F628ADDED9F8D8A350ADD9F8D8A37819
:101E9000ADD9F8D8F8F9D1A1DADEC3C5C7D8A18188
:101EA00094F818F2B089ACC3C5C7F1D8B8B4B097EC
:101EB00086A8319B069907AB9728889BF00C2014C5
:101EC00040B0B4B8F0A88A9A285078B79BA8295196
:101ED00079247059446938644831F1BBAB88002CCF
:101EE000547CF0B38BB8A804285078F1B088B4972C
:101EF00026A85998BBABB38B02264666B0B8F08AC9
:101F00009CA82951798B2951798A2470598B2058A2
:101F1000718A4469388B3940688A6448318B30490A
:101F20006088F1AC002C547CF08CA804285078F127
:101F3000889726A85998AC8C02264666F0899CA8FA
:101F4000295179247059446938644831A988092095
:101F50005970AB11384069A8193148608CA83C41D0
:101F60005C207C00F187981986A86E767EA99988F6
:101F70002D557DD8B1B5B9A3DFDFDFAED0DFAAD054
:101F8000DEF2ABF8F9D9B087C4AAF1DFDFBBAFDF6F
:101F9000DFB9D8B1F1A3978E60DFB084F2C8F8F949
:101FA000D9DED89385F14AB183A308B5839A081086
:101FB000B79F10D8F1B0BAAEB08AC2B2B68E9EF159
:101FC000FBD9F41DD8F9D90CF1D8F8F8AD61D9AE28
:101FD000FBD8F40CF1D8F8F8AD19D9AEFBDFD8F482
:101FE00016F1D8F8AD8D61D9F4F4ACF59C9C8DDF79
:101FF0002BBAB6AEFAF8F40BD8F1AED0F8AD51DA90
:10200000AEFAF8F1D8B9B1B6A3839C08B9B1839AF6
:10201000B5AAC0FD3083B79F10B58B93F20202D1F1
:10202000ABDADED8F1B080BAABC0C3B284C1C3D8DA
:10203000B1B9F38BA391B609B4D9ABDEB0879CB923
:10204000A3DDF1B38B8B8B8B8BB08720283038B21C
:102050008BB69BF2A3C0C8C2C4CCC6A3A3A3F1B0E5
:1020600087B59AD8F39BA3A3DCBAACDFB9A3FEF281
:10207000ABC4AAF1DFDFBBAFDFDFA3A3A3D8D8D8FF
:10208000BBB3B7F1AAF9DAFFD9809AAA28B480982D
:10209000A720B79787A86688F07951F1902C870C14
:1020A000A781976293F071716085940129517990AD
:1020B000A5F1284C6C870C95188578A38390284C43
:1020C0006C886CD8F3A28200F210A8921980A2F258
:1020D000D926D8F188A84DD948D896A83980D93CB6
:1020E000D89580A839A68698D92CDA87A72CD8A8A5
:1020F000899519A980D938D8A88939A980DA3CD816
:10210000A82EA83990D90CD8A8953198D90CD8A860
:1021100009D9FFD801DAFFD89539A9DA26FFD89076
:10212000A80D8999A810809821DA2ED88999A8310C
:1021300080DA2ED8A886963180DA2ED8A88731800A
:10214000DA2ED8A88292F34180F1D92ED8A882F352
:102150001980F1D92ED882ACF3C0A28022F1A62E2C
:10216000A72EA92298A829DAACDEFFD8A2F22AF17C
:10217000A92E8292A8F23180A696F1D900AC8C9C4F
:102180000C30ACDED0DEFFD88C9CACD010ACDE8046
:1021900092A2F24C82A8F1CAF235F19688A6D90033
:1021A000D8F1FF444D50206661696C656420286356
:1021B0006F646520000A454550524F4D20636F6E95
:1021C00074656E74733A0043616C69627261746520
:1021D0002074686520494D5520000A4C61792074AF
:1021E000686520726F626F7420464C4154206F6E98
:1021F0002061207461626C650043616C6962726188
:10220000746520494D553F28592F6E293A00496E73
:10221000697420494D5500526561647921003E0082
:102220008022772B11241FBECFEFD8E0DEBFCDBFB9
:1022300013E0A0E0B1E0E6E1F4E602C005900D9203
:10224000AA3EB107D9F727E0AAEEB3E001C01D927C
:10225000A330B207E1F711E1C1E1D1E104C0219758
:10226000FE010E941E31C031D107C9F70E947223BE
:102270000C94FE310C94000091E09093360580930D
:102280003505109234051092330508958091E504C8
:102290009091E604891B990B089508950895AF92D3
:1022A000BF92CF92DF92EF92FF920F931F93CF9343
:1022B000DF936C017B018B01040F151FEB015E01A5
:1022C000AE18BF08C017D10759F06991D601ED913A
:1022D000FC910190F081E02DC6010995892B79F7D9
:1022E000C501DF91CF911F910F91FF90EF90DF908B
:1022F000CF90BF90AF900895FC01538D448D252F52
:1023000030E0842F90E0821B930B541710F0CF968F
:10231000089501970895FC01918D828D981761F0C1
:10232000A28DAE0FBF2FB11D5D968C91928D9F5FD8
:102330009F73928F90E008958FEF9FEF0895FC01B7
:10234000918D828D981731F0828DE80FF11D858D6A
:1023500090E008958FEF9FEF0895FC01918D228DFD
:10236000892F90E0805C9F4F821B91098F73992782
:10237000089587E395E00E94AD1121E0892B09F4CF
:1023800020E0822F089580E090E0892B29F00E94C0
:10239000B91181110C9400000895FC01A48DA80FBF
:1023A000B92FB11DA35ABF4F2C91848D90E0019697
:1023B0008F739927848FA689B7892C93A089B189B7
:1023C0008C91837080648C93938D848D981306C058
:1023D0000288F389E02D80818F7D80830895EF92BC
:1023E000FF920F931F93CF93DF93EC0181E0888FCF
:1023F0009B8D8C8D98131AC0E889F989808185FF9F
:1024000015C09FB7F894EE89FF896083E889F98940
:1024100080818370806480839FBF81E090E0DF9142
:10242000CF911F910F91FF90EF900895F62E0B8D95
:1024300010E00F5F1F4F0F731127E02E8C8D8E1150
:102440000CC00FB607FCFACFE889F989808185FFB7
:10245000F5CFCE010E94CD11F1CFEB8DEC0FFD2F0A
:10246000F11DE35AFF4FF0829FB7F8940B8FEA8972
:10247000FB8980818062CFCF682F87E395E00C9441
:10248000EF110F931F93CF93DF938C01D0E0C0E047
:10249000F801EC0FFD1F6491662341F087E395E09E
:1024A0000E94EF11892B11F02196F2CFCE01DF911E
:1024B000CF911F910F910895CF93DF93EC01888DF9
:1024C0008823B9F0AA89BB89E889F9898C9185FDAF
:1024D00003C0808186FD0DC00FB607FCF7CF8C913D
:1024E00085FFF2CF808185FFEDCFCE010E94CD1117
:1024F000E9CFDF91CF910895833081F028F48130C6
:1025000099F08230A9F008958730A9F08830C9F099
:102510008430B1F4809180008F7D03C08091800071
:102520008F7780938000089584B58F7784BD089558
:1025300084B58F7DFBCF8091B0008F778093B00002
:1025400008958091B0008F7DF9CF1F93CF93DF93D3
:10255000282F30E0F901E052FB4E8491F901E45359
:10256000FB4ED491F901E854FB4EC491CC23A9F061
:10257000162F81110E947C12EC2FF0E0EE0FFF1F4E
:10258000E255FB4EA591B4918FB7F894EC911111DF
:1025900008C0D095DE23DC938FBFDF91CF911F91D0
:1025A0000895DE2BF8CF9091000189130BC0E4EF62
:1025B000F4E1E4919FEF90930001E13049F028F0BD
:1025C000E23061F060E00C94A51210926E00FACF38
:1025D00090916F009D7F90936F00F4CF9091700069
:1025E0009D7F9093700091E09093B0009091B10026
:1025F000987F94609093B1001092B300E3CF3FB7FF
:10260000F89480915D0490915E04A0915F04B09174
:10261000600426B5A89B05C02F3F19F00196A11DA7
:10262000B11D3FBFBA2FA92F982F8827BC01CD011C
:10263000620F711D811D911D42E0660F771F881F7B
:10264000991F4A95D1F708958F929F92AF92BF92AA
:10265000CF92DF92EF92FF926B017C010E94FF12FA
:102660004B015C01C114D104E104F104B9F00E94F2
:10267000FF12681979098A099B09683E7340810530
:10268000910580F321E0C21AD108E108F10888EE33
:10269000880E83E0981EA11CB11CE4CFFF90EF9040
:1026A000DF90CF90BF90AF909F908F9008952FB7FD
:1026B000F8946091590470915A0480915B04909150
:1026C0005C042FBF089520913504260F3327331F54
:1026D00021323105ECF420912D05FC0190E080E0E1
:1026E000243069F082E00895A09135042191AC0175
:1026F0004B5E5B4FA40FB52FB11D2C93019686172F
:1027000098F380913504680F6093350480E0089554
:1027100081E0089510922D0581E080930C051092C0
:10272000070561E082E10E94A51261E083E10E9459
:10273000A512E9EBF0E080818E7F808380818D7F20
:10274000808388E48093B80085E48093BC0008957A
:10275000CF93DF9391E0909314048823B9F0C09154
:10276000B800D091BA008091BC008A7B8093BC00F5
:1027700060E082E10E94A51260E083E10E94A51260
:102780000E948A13D093BA00C093B800DF91CF9112
:102790000895CF92DF92EF92FF920F931F93CF9302
:1027A000DF93D82FC62F613208F098C00E94FF1225
:1027B0006B017C0180912D0581116BC081E08093BC
:1027C0002D0580930C059FEF90930B0510920A0541
:1027D0009C0F909309058093080580910805DD0FF3
:1027E000D82BD093080580910705813009F078C077
:1027F000109207050E94FF126B017C018091080571
:102800008093BB0080912F0590913005A0913105F8
:10281000B0913205892B8A2B8B2BA1F00E94FF12DD
:1028200000912F051091300520913105309132052E
:102830006C197D098E099F090617170728073907A4
:1028400008F448C08091BC0083FDD8CF85EC80930C
:10285000BC000E94FF126B017C0180912D0581302C
:1028600009F440C080910A058C1710F4C0910A0544
:10287000E7EEF4E0ADE0B5E080E08C1355C08C2FBE
:10288000DF91CF911F910F91FF90EF90DF90CF904C
:10289000089580912F0590913005A0913105B09158
:1028A0003205892B8A2B8B2B09F484CF0E94FF12CF
:1028B00000912F051091300520913105309132059E
:1028C0006C197D098E099F09061717072807390714
:1028D00008F070CF80912E050E94A813C0E0CFCFE2
:1028E00085EEB5CF80912F0590913005A0913105EF
:1028F000B0913205892B8A2B8B2B09F4AECF0E9425
:10290000FF1200912F051091300520913105309173
:1029100032056C197D098E099F09061717072807CC
:10292000390708F09ACFD6CF91919D938F5FA5CFAD
:102930000895E091E6048091E504E81730F4F0E0B2
:10294000E35FFA4F808190E008958FEF9FEF089545
:102950009091E6048091E5042FEF3FEF981748F43B
:10296000E92FF0E0E35FFA4F208130E09F5F909322
:10297000E604C9010895CF92DF92EF92FF920F9380
:102980001F93CF93DF937C01CB018A012091360501
:10299000222389F0EB016B01C40ED51ECC15DD0599
:1029A00069F06991D701ED91FC910190F081E02DE2
:1029B000C7010995F3CF642F0E946313C801DF910B
:1029C000CF911F910F91FF90EF90DF90CF900895DE
:1029D000CF93DF931F92CDB7DEB769832091360581
:1029E0002223F9F020913305203258F021E030E025
:1029F000FC013383228390E080E00F90DF91CF9140
:102A0000089580913405E82FF0E0EC50FC4F998157
:102A100090838F5F809334058093330581E090E04D
:102A2000ECCF61E0CE0101960E946313F7CFCF9205
:102A3000DF92EF92FF920F931F93CF93DF93D0918A
:102A4000330581E0D13208F09CC0C09135050E9469
:102A5000FF126B017C0180912D0581116CC082E019
:102A600080932D0581E080930C058FEF80930B05FB
:102A700010920A05D0930905A4EFB3E0E7EEF4E065
:102A800080E0D8138DC01092080580910805CC0F06
:102A9000C82BC093080580910705813009F084C0D8
:102AA000109207050E94FF126B017C0180910805BE
:102AB0008093BB0080912F0590913005A091310546
:102AC000B0913205892B8A2B8B2BA1F00E94FF122B
:102AD00000912F051091300520913105309132057C
:102AE0006C197D098E099F090617170728073907F2
:102AF00008F442C08091BC0083FDD8CF85EC809360
:102B0000BC000E94FF126B017C0180912D05823078
:102B100009F44CC080910B058F3F09F469C0809186
:102B20000B05803209F466C080910B05803309F4EF
:102B300063C084E026C080912F0590913005A0915C
:102B40003105B0913205892B8A2B8B2B09F483CF69
:102B50000E94FF1200912F05109130052091310540
:102B6000309132056C197D098E099F0906171707E8
:102B70002807390708F06FCF80912E050E94A8130F
:102B800085E0109234051092330510923605DF91DE
:102B9000CF911F910F91FF90EF90DF90CF9008950C
:102BA0009D9191938F5F6DCF85EEA9CF80912F0579
:102BB00090913005A0913105B0913205892B8A2B77
:102BC0008B2B09F4A2CF0E94FF1200912F051091C8
:102BD000300520913105309132056C197D098E093F
:102BE0009F09061717072807390708F08ECFC4CFAB
:102BF00080E0C7CF82E0C5CF83E0C3CF1F93CF93E0
:102C0000DF93162FEA010E943C11612F84ED95E0BD
:102C10000E94E814698184ED95E00E94E8146881BF
:102C200084ED95E00E94E81484ED95E00E9417156C
:102C300091E0811190E0892FDF91CF911F9108954C
:102C400090E080E00895FF920F931F93CF93DF935E
:102C5000C62F042FF22E132F0E943C116C2F84EDEF
:102C600095E00E94E814CF2DD12F0C0F1D2F111DC0
:102C7000C017D10731F0699184ED95E00E94E81406
:102C8000F7CF84ED95E00E94171591E0811190E057
:102C9000892FDF91CF911F910F91FF900895CF93CE
:102CA000DF9300D0CDB7DEB75A834983AE014F5FC3
:102CB0005F4F0E94FE150F900F90DF91CF91089506
:102CC000CF93DF931F92CDB7DEB749839E012F5F6D
:102CD0003F4F41E00E9423160F90DF91CF9108955E
:102CE0000F931F93CF93DF93EC01062F142F88814E
:102CF0000E943C1189819A81DC01ED91FC91019047
:102D0000F081E02D602F099589819A81DC01ED9198
:102D1000FC910190F081E02D612F099589819A81C4
:102D2000DF91CF911F910F910C941715DC01ED915C
:102D3000FC910190F081E02D0994CF9387E395E019
:102D40000E94AD11892BD1F387E395E00E948B118E
:102D5000C82F61E070E080E090E00E94241387E3D8
:102D600095E00E94AD11892B29F087E395E00E9440
:102D70008B11F5CF8C2FCF9108951F93CF93DF93B5
:102D8000EC01162F88810E943C1189819A81DC0117
:102D9000ED91FC910190F081E02D612F09958981E1
:102DA0009A810E94171561E088810E94C9131092D0
:102DB000E6048093E50489819A81DC01ED91FC9120
:102DC0000284F385E02D0995DF91CF911F9108953D
:102DD0008F929F92AF92BF92CF92DF92EF92FF922B
:102DE0001F93CF93DF93EC016A017B0120E030E079
:102DF00040E85FE3CB01B6010E94A52C87FD7EC0B1
:102E000020E030EC4AE555E4C701B6010E946C2F82
:102E100018163CF4C12C30ECD32E3AE5E32E35E401
:102E2000F32E6B817C818D819E810E94AA2C4B01A7
:102E30005C0120E030E040E855E4C701B6010E94A3
:102E40000B2D9B01AC01C501B4010E94C42E20E0F2
:102E500030E040E05FE30E94582E20E030E040E8A0
:102E60005FE30E94572E6B017C0120E030E040E4DC
:102E700050E40E94A52C87FD48C020E030E04FE7D9
:102E800053E4C701B6010E946C2F181634F4C12C0C
:102E9000D12C9FE7E92E93E4F92E60E0CE010E9449
:102EA000BD16182F482F4F76406160E0CE010E947A
:102EB0007016C701B6010E943D2F462F6EEFCE015E
:102EC0000E947016412F60E0CE010E94701665E0EE
:102ED00070E080E090E00E942413412F406A60E09F
:102EE000CE01DF91CF911F91FF90EF90DF90CF90B7
:102EF000BF90AF909F908F900C947016C12CD12CE6
:102F000020E8E22E2FE3F22E8CCFC12CD12C80E4CE
:102F1000E82EFE2CC2CF4F925F926F927F928F92DB
:102F20009F92AF92BF92DF92EF92FF920F931F9307
:102F3000CF93DF93182F062F7A01E9010E945713D0
:102F40004B015C01812F0E943C11602F84ED95E0C4
:102F50000E94E81484ED95E00E941715812F0E94CD
:102F60003C1162E0812F0E94C9131092E604809305
:102F7000E50401E010E02E01712C612CDD24D394D6
:102F80009091E5048091E604981739F1111125C05C
:102F90002097C1F401110EC084ED95E00E94A814A1
:102FA000F70120813181822B932B9183808311E063
:102FB0000D25E6CF84ED95E00E94A814F70110825C
:102FC0008183F6CF0E945713681979098A099B09F2
:102FD0006415750586059705E8F284ED95E00E9475
:102FE0001715209799F00E945713AB01BC0148199F
:102FF00059096A097B09CE01B0E0A0E048175907DA
:103000006A077B0718F0111101C01FEF812FDF91B4
:10301000CF911F910F91FF90EF90DF90BF90AF90F5
:103020009F908F907F906F905F904F9008952F9218
:103030003F924F925F926F927F928F929F92AF9248
:10304000BF92CF92DF92EF92FF920F931F93CF9395
:10305000DF9300D000D0CDB7DEB7782E662E4C833C
:103060003A8329830E9457136B017C01512C1B82E8
:103070002C81222E312C4801B12CA12C8C81581688
:1030800008F049C0872D0E943C11662D84ED95E023
:103090000E94E81484ED95E00E941715872D0E9488
:1030A0003C11B101651971096132710514F060E2DA
:1030B00070E0613208F060E2872D0E94C913482E4B
:1030C0001092E6048093E5048091E6044816E9F046
:1030D0000115110579F484ED95E00E94A814E981A9
:1030E000FA819B81E90FF11D97FDFA9580839F5F1F
:1030F0009B83EACF0E9457136C197D098E099F09A3
:10310000681579058A059B0530F38C81813208F0BA
:1031100080E2580EB3CF01151105C1F00E9457137C
:103120006C197D098E099F0930E020E06017710756
:103130008207930758F02B81822F220F990B2C8145
:103140002817190619F014F08FEF8B838B810F90DD
:103150000F900F900F90DF91CF911F910F91FF90E3
:10316000EF90DF90CF90BF90AF909F908F907F9027
:103170006F905F904F903F902F900895CF92DF9285
:10318000EF92FF920F931F93CF93DF931F92CDB7D0
:10319000DEB7F82EE62EC42ED22E08EE13E09E01E6
:1031A0002F5F3F4F41E00E94171881E090E001C07F
:1031B000880FCA94EAF74981DD2081F0482B4983C2
:1031C0006E2D8F2D0E9460160F90DF91CF911F9171
:1031D0000F91FF90EF90DF90CF9008958095482356
:1031E000EECF0F931F93CF93DF931F92CDB7DEB730
:1031F00008EE13E09E012F5F3F4F41E065E78091AD
:10320000E6060E941718882339F089818E7790E0AE
:10321000959587958093E7068091E7060F90DF915B
:10322000CF911F910F9108952F923F924F925F92ED
:103230006F927F928F929F92AF92BF92CF92DF92C6
:10324000EF92FF920F931F93CF93DF93CDB7DEB72B
:10325000E1970FB6F894DEBF0FBECDBF8D8F4EA3A2
:103260005FA368A779A70AA71BA72CA73DA713E10F
:103270008B3339F40E94F11817E703E0883310F418
:1032800016E002E06EE387E395E00E94EF119E01F5
:10329000235F3F4F3E8B2D8BCE010196988F8F8BF6
:1032A0006901B12E28EE33E0AE014D5E5F4F6B2D0C
:1032B0008091E6060E948B17EB88FC88B7010F2CE3
:1032C000000C880B990B0E94AC2C133109F4CEC171
:1032D000B1E0EB22FF24F601F182E08220E030E051
:1032E00040E051E40E940B2DAF89B88D6D937D9322
:1032F0008D939C931397B00EF2E0CF0ED11C2F89C3
:10330000388D2C5F3F4F388F2F8B8D899E892817E2
:10331000390741F69D8D9B3309F0B5C18DEC9CECCE
:10332000ACE4BDE38EA79FA7A8ABB9ABAAE0B0E021
:10333000BDA3ACA31AA219A2312C212CFE013196F7
:10334000FA8FE98F9E01235F3F4F3F8F2E8F18A387
:103350003D8D3BA3812C912C54011C8E1B8E28EE9D
:1033600033E0AE014D5E5F4F6BA18091E6060E9497
:103370008B176B897C89072E000C880B990B0E9498
:10338000AC2C6B017C018D8D8B3371F4AB8DBC8DBE
:10339000129751F420E030E040E856E4C701B6014E
:1033A0000E94572E6B017C012601370177FA709439
:1033B00077F87094C501B4010E94AA2C4B015C01FE
:1033C00020E030E0A901C701B6010E946C2F181659
:1033D00014F073016201A7019601C501B4010E94B6
:1033E000582E0E943D2F4B015C012FE632E143E84D
:1033F0005AE3C301B2010E940B2D2AA53BA54CA59F
:103400005DA50E940B2DE98DFA8D208131814281CD
:1034100053810E94582E6B017C01A98DBA8DCD92EB
:10342000DD92ED92FC9213972EA13FA148A559A5DC
:10343000C301B2010E940B2DA70196010E94582ED4
:10344000133109F42AC120E030E040E05EE30E943D
:103450000B2D6B017C0120E030E0A9010E946C2F54
:1034600020E030E040E05FE387FD12C1C701B60114
:103470000E94582E0E94362F6E7FEE8DFF8D808128
:103480009181682B792B7C8B6B8BAE014D5E5F4FEE
:1034900068A18091E6060E94FE152B8D3C8D2F5F62
:1034A0003F4F3C8F2B8F3BA13E5F3BA388A1800FFA
:1034B00088A3AE8DBF8D1296BF8FAE8FE98DFA8D2A
:1034C0003496FA8FE98F2B8D3C8D2330310509F02E
:1034D00046CF33E62316310471F489EE881683E073
:1034E0009806A104B10438F06AE287E395E00E94EF
:1034F000EF11312C212CC501B4010E94AA2C2EA55C
:103500003FA548A959A90E940B2D20E030E040EAD0
:1035100050E40E94A52C87FF05C0A9A1BAA111966D
:10352000BAA3A9A3B4E68B169104A104B10408F0D0
:10353000D3C0EBE02E1631040CF4CEC029A13AA181
:103540002A3031050CF4C8C06EE287E395E00E9492
:10355000EF1120E030E040E45FE36EA17FA188A599
:1035600099A50E940B2D6EA37FA388A799A720E0A1
:1035700030E040E45FE36AA57BA58CA59DA50E9491
:103580000B2D6AA77BA78CA79DA7CE010D967C016A
:10359000D12EDE0111963D01D3016D917D918D916A
:1035A0009D913D01133109F4ABC020E030E040E0D3
:1035B0005EE30E940B2D4B015C0120E030E0A9018D
:1035C0000E946C2F20E030E040E05FE387FD93C075
:1035D000C501B4010E94582E0E94362F6E7FF7015C
:1035E00080819181682B792B7C8B6B8BAE014D5E3A
:1035F0005F4F6D2D8091E6060E94FE15D00EF2E021
:10360000EF0EF11C2F89388D2615370529F68CA170
:103610009DA101979DA38CA3892B09F08BCE21E05E
:1036200042E06AE68091E6060E94BE1821E043E08F
:103630006AE68091E6060E94BE18E1960FB6F894FD
:10364000DEBF0FBECDBFDF91CF911F910F91FF90D5
:10365000EF90DF90CF90BF90AF909F908F907F9032
:103660006F905F904F903F902F90089520E030E052
:1036700040E850E40E940B2DEF89F88D6083718340
:103680008283938338CE80E090E0A0E8BFE34ACE07
:10369000C701B6010E94572EEDCE20E030E040E891
:1036A0005EE30E940B2D6B017C0120E030E0A9015C
:1036B0000E946C2F20E030E040E05FE387FD07C010
:1036C000C701B6010E94582E0E94362FDCCEC701DA
:1036D000B6010E94572EF8CF61E070E080E090E0E4
:1036E0000E942413BFEF2B1A3B0AE4E62E16310486
:1036F00009F024CE29CFC501B4010E94572E6CCF0A
:1037000020E030E040E85EE30E940B2D4B015C01BD
:1037100020E030E0A9010E946C2F20E030E040E082
:103720005FE387FD07C0C501B4010E94582E0E94C7
:10373000362F5ACFC501B4010E94572EF8CFBF9241
:10374000CF92DF92EF92FF920F931F93CF93DF936D
:103750001F92CDB7DEB7F82EE62EC42EB22ED02E95
:1037600008EE13E09E012F5F3F4F41E00E941718C3
:10377000882371F18C2D8B19990BAC014F5F5F4F32
:1037800081E090E002C0880F991FBA94E2F7019798
:10379000042E01C0880F0A94EAF70D2D01C0000F16
:1037A0004A95EAF7482F4095998149238023482B71
:1037B00049836E2D8F2D0E9460160F90DF91CF915F
:1037C0001F910F91FF90EF90DF90CF90BF900895E1
:1037D00080E0F3CFFC0101900020E9F73197AF01C1
:1037E000481B590BBC0187E395E00C944F1185E110
:1037F00093E00C94EA1BCF93DF930E943C12EC0100
:103800000E94F71B8C0F9D1FDF91CF910895CF93DE
:10381000DF930E944112EC010E94F71B8C0F9D1F49
:10382000DF91CF9108958F929F92AF92BF920F93A5
:103830001F93CF93DF93CDB7DEB7A1970FB6F89460
:10384000DEBF0FBECDBF19A2423008F44AE08E01A0
:103850000F5D1F4F842E912CB12CA12CA50194013A
:103860000E94352EE62FB901CA01EA30F4F4E05D7A
:10387000D801EE938D01232B242B252B79F790E093
:1038800080E0109719F0CD010E94EA1BA1960FB6B7
:10389000F894DEBF0FBECDBFDF91CF911F910F9186
:1038A000BF90AF909F908F900895E95CE1CF85ED38
:1038B0008093BC0080912F0590913005A091310537
:1038C000B09132050796A11DB11D23E0B695A795CD
:1038D000979587952A95D1F72091BC0024FD03C0C8
:1038E00010922D05089540912F055091300560915B
:1038F000310570913205452B462B472B69F3009714
:10390000A105B10541F025E32A95F1F700000197E3
:10391000A109B109E1CF80912E050C94A8131F9342
:10392000CF93DF93EC01162F0E94C92D181739F0A1
:10393000612FCE01DF91CF911F910C94D12DDF919A
:10394000CF911F910895CF92DF92EF92FF921F9334
:10395000CF93DF93EC016B017A01888199819C01FF
:103960002150310939832883642F0E948F1C10E075
:1039700088819981212F30E02E153F056CF42C0DA4
:103980003D1DF90160819C01215031093983288353
:103990000E948F1C1F5FECCF6C01990FEE08FF088F
:1039A0004AE0C701B601F7FE0BC08DE20E943C124F
:1039B00066277727CB016C197D098E099F094AE09C
:1039C0000E94131CDF91CF911F91FF90EF90DF9029
:1039D000CF900C94F71B1F93CF93DF93EC01172F1D
:1039E0000E948F1C612FCE0101960E948F1C65E002
:1039F00070E080E090E0DF91CF911F910C94241350
:103A00000C94C92D2F923F924F925F926F927F92AA
:103A10008F929F92AF92BF92CF92DF92EF92FF92DE
:103A20000F931F93CF93DF93CDB7DEB767970FB692
:103A3000F894DEBF0FBECDBF6A877B878C879D87DA
:103A40002E873F87488B598BC801EF8A198261ED19
:103A5000262E64E1362E0DEB14E188248A94982CEE
:103A60005401E8E44E2EE8EE5E2E66246394712C39
:103A70009C01990F440B550B2A8B3B8B4C8B5D8B18
:103A80006E857F85888999890E943D2F6E837F830B
:103A90008887998720E030E0A9016A857B858C853D
:103AA0009D850E94A52C882309F419C22A853B858F
:103AB0004C855D8563E67CE987E89FE30E94712F72
:103AC0006B017C01809100018530A9F5E4EFF4E100
:103AD000F491FE8BFE89F7FF78C06E817F81888527
:103AE00099850E94241385E00E94D3126A897B89FC
:103AF0008C899D890E94241329812F5F29833F8906
:103B00003213BECF67960FB6F894DEBF0FBECDBF9F
:103B1000DF91CF911F910F91FF90EF90DF90CF90A9
:103B2000BF90AF909F908F907F906F905F904F90DD
:103B30003F902F9008958F3F81F625E0209300015C
:103B4000E4EFF4E1F491FE8BFF3F39F2F13009F438
:103B50000CC120F1F23009F0BDCF1092B0001092EC
:103B6000B1008091B00082608093B0008091B1007C
:103B700081608093B100F8018491E82FF0E0EE0FAE
:103B8000FF1FE255FB4E85919491909362048093C0
:103B90006104F10184918093630417C014BC15BCC7
:103BA00084B5826084BD85B5816085BDF80184914E
:103BB000E82FF0E0EE0FFF1FE255FB4E8591949148
:103BC000F10184918093EB031E8AF1014491F80185
:103BD0008491882399F090E0880F991FFC01E656A4
:103BE000FB4EA591B491FC01E255FB4E2591349119
:103BF0008FB7F8949C91492B4C938FBF20E030ED08
:103C000042E854E4C701B6010E940B2D0E943D2FEB
:103C10006B01F12CE12C60E072E18AE790E0A701F2
:103C200096010E94DF2D2A833B834C835D83BA017A
:103C3000A90141505109610971098E898D7F09F0EF
:103C40000EC14F3F51056105710509F00CF4EEC03E
:103C500060E472E48FE090E0A70196010E94DF2DFE
:103C6000BA01A9014150510961097109FE89F23077
:103C700009F098C082E04F3F51056105710509F0D8
:103C80000CF463C060E970ED83E090E0A701960159
:103C90000E94DF2DBA01A901415051096109710942
:103CA00083E04F3F51056105710509F00CF44DC0EB
:103CB000C301B201A70196010E94DF2DBA01A9013B
:103CC000415051096109710984E04F3F5105610577
:103CD0007105D9F1D4F164E274EF80E090E0A701BE
:103CE00096010E94DF2DBA01A901415051096109D5
:103CF000710985E04F3F51056105710531F128F1EA
:103D000062E17AE780E090E0A70196010E94DF2D52
:103D1000BA01A901415051096109710986E04F3F7B
:103D200051056105710589F080F04A815B816C81E4
:103D30007D819AE075956795579547959A95D1F746
:103D4000415051096109710987E09091B100987F54
:103D5000892B8093B100FE89F13009F49EC0F230C6
:103D600009F4ADC0F111B9CE69C010928000109273
:103D70008100809181008860809381008091810022
:103D8000816080938100F8018491E82FF0E0EE0FCC
:103D9000FF1FE255FB4E85919491F1018491809330
:103DA000EA0313CF4F3F51056105710509F00CF48B
:103DB00054C0C301B201A70196010E94DF2DBA01D0
:103DC000A90141505109610971092E8984E021112D
:103DD00091CF83E04F3F51056105710559F154F1D1
:103DE00062E17AE780E090E0A70196010E94DF2D72
:103DF000BA01A901415051096109710984E04F3F9D
:103E0000510561057105B1F0A8F04A815B816C81B3
:103E10007D818AE075956795579547958A95D1F785
:103E2000415051096109710985E004C081E03E8972
:103E300031118BCF95B5987F892B85BD47BD809279
:103E4000F0039092F103A092F203B092F3038091F9
:103E50006E00826080936E0040CE82E0E8CF91E0F9
:103E60004115510581E0680771056CF0C301B2018D
:103E7000A70196010E94DF2DBA01A9014150510905
:103E80006109710993E0EE89E13009F064CF809116
:103E90008100887F892B8093810050938900409313
:103EA00088008092EC039092ED03A092EE03B09212
:103EB000EF0380916F00826080936F000ECE40937D
:103EC000B3008092640490926504A0926604B0925C
:103ED000670480917000826080937000FECD6E81D7
:103EE0007F81888599850E942413F7CD1F920F92B8
:103EF0000FB60F9211242F933F934F935F936F93BD
:103F00007F938F939F93AF93BF93EF93FF93809192
:103F1000640490916504A0916604B0916704892BB4
:103F20008A2B8B2BD1F190916304E0916104F09185
:103F30006204808189278083809164049091650464
:103F4000A0916604B0916704181619061A061B069C
:103F50009CF48091640490916504A0916604B091F2
:103F600067040197A109B1098093640490936504E3
:103F7000A0936604B0936704FF91EF91BF91AF9156
:103F80009F918F917F916F915F914F913F912F9171
:103F90000F900FBE0F901F901895809100010E9406
:103FA000D312EACF1F920F920FB60F9211242F93C4
:103FB0003F934F935F936F937F938F939F93AF93B1
:103FC000BF93EF93FF9387E395E00E94CD11FF919C
:103FD000EF91BF91AF919F918F917F916F915F9181
:103FE0004F913F912F910F900FBE0F901F901895FA
:103FF0001F920F920FB60F9211242F938F939F93BE
:10400000EF93FF93E0914705F09148058081E0919F
:104010004D05F0914E0582FD1BC0908180915005A9
:104020008F5F8F7320915105821741F0E091500509
:10403000F0E0E95CFA4F958F80935005FF91EF9186
:104040009F918F912F910F900FBE0F901F901895F9
:104050008081F4CF1F920F920FB60F9211242F93ED
:104060003F938F939F93AF93BF9380915904909107
:104070005A04A0915B04B0915C043091580423E091
:10408000230F2D3758F50196A11DB11D209358041B
:104090008093590490935A04A0935B04B0935C04FA
:1040A00080915D0490915E04A0915F04B0916004E2
:1040B0000196A11DB11D80935D0490935E04A093B1
:1040C0005F04B0936004BF91AF919F918F913F9136
:1040D0002F910F900FBE0F901F90189526E8230F79
:1040E0000296A11DB11DD2CF1F920F920FB60F9253
:1040F00011242F933F934F935F936F937F938F93ED
:104100009F93AF93BF93EF93FF938091B900887F04
:10411000803609F44AC0F0F5883209F4A7C018F5D2
:10412000803109F49BC0B8F4882309F4F9C08830C1
:1041300009F494C0FF91EF91BF91AF919F918F913E
:104140007F916F915F914F913F912F910F900FBE93
:104150000F901F901895883109F488C0803251F76C
:1041600080930B0514C0803409F49DC040F4803363
:10417000B9F38833F9F680930B0585ECB0C0803530
:1041800009F485C0883509F496C0883499F60E94F0
:10419000571CD0CF883909F48CC038F5883729F0FE
:1041A00050F4883611F0803729F683E080932D058E
:1041B0001092570457C0883809F47BC0803919F031
:1041C000803809F0B7CF80915704803208F071C071
:1041D000E091570481E08E0F809357048091BB00DB
:1041E000F0E0E95CFB4F80833DC0803B39F0E0F4B8
:1041F000803A09F479C0883A09F09CCF84E0809332
:104200002D051092360410923504E0918004F0914F
:10421000810409958091350481110FC081E080935C
:1042200035041092150409C0803C09F4A6CF883CDF
:1042300009F4A3CF883B09F07DCFE091360481E0FB
:104240008E0F80933604F0E0EB5EFB4F808180930D
:10425000BB00909136048091350429C080910805F7
:104260008093BB0085EC8093BC0064CF90910A05DD
:1042700080910905981758F5E0910A0581E08E0FA5
:1042800080930A05F0E0E951FB4F8081E9CFE0918E
:104290000A0581E08E0F80930A058091BB00F0E053
:1042A000E951FB4F808390910A0580910905981789
:1042B000C8F285E8D8CFE0910A0581E08E0F80939F
:1042C0000A058091BB00F0E0E951FB4F80838091AB
:1042D0000C0581115CCF81E08093070584EA80930F
:1042E000BC0010922D0526CF85EC8093BC00109267
:1042F0002D0580915704803230F4E0915704F0E0AE
:10430000E95CFB4F10826091570470E0E0917E04FD
:10431000F0917F0487E394E00995109257040ACF47
:1043200010920B0534CF1F920F920FB60F921124EB
:104330002F933F934F935F936F937F938F939F93AD
:10434000AF93BF93CF93DF93EF93FF932091E1055A
:1043500030E0F901E052FB4E8491F901E453FB4E49
:10436000D491F901E854FB4EC491CC2379F081112A
:104370000E947C12EC2FF0E0EE0FFF1FEC55FB4E7D
:10438000A591B491EC91ED2381E009F480E02091B6
:10439000E6053091E7052F5F3F4F3093E705209307
:1043A000E6052091E4053091E5052536310518F044
:1043B00094E09093E0059091E005911130C0811157
:1043C00069C02091E6053091E7052436310528F4CF
:1043D0001092E7051092E6055DC01092B2061092A9
:1043E000E5051092E4052091E4053091E505A90169
:1043F0004F5F5F4F5093E5054093E4054091E6051C
:104400005091E705220F331FF901E851FA4F51830C
:1044100040831092E7051092E60591E021C090914B
:10442000E005913001F58130A9F52091E405309146
:10443000E505A9014F5F5F4F5093E5054093E40503
:104440004091E6055091E705220F331FF901E8512D
:10445000FA4F518340831092E7051092E60592E0EF
:104460009093E00517C09091E005923061F48823A5
:1044700009F4B9CF2091E6053091E70525363105DD
:1044800048F093E0EDCF9091E005933099F48823C4
:1044900009F49ECF9091E3059923A9F0811126C0DC
:1044A0008091E205882371F08091E20561E00E942D
:1044B000A51209C09091E005943061F791E09093C6
:1044C000B206DFCF2D9AFF91EF91DF91CF91BF918F
:1044D000AF919F918F917F916F915F914F913F919C
:1044E0002F910F900FBE0F901F9018958091E205AD
:1044F000882321F08091E20560E0D9CF2D98E3CFA9
:1045000010923A051092390588EE93E0A0E0B0E0F1
:1045100080933B0590933C05A0933D05B0933E05E9
:1045200025EF32E0309338052093370525EC30E055
:10453000309344052093430524EC30E03093460546
:104540002093450520EC30E0309348052093470543
:1045500021EC30E030934A052093490522EC30E00D
:1045600030934C0520934B0526EC30E030934E05FC
:1045700020934D051092500510925105109252054E
:10458000109253051092D7051092D6058093D80546
:104590009093D905A093DA05B093DB0587E093E00B
:1045A0009093D5058093D40584E08093E105109223
:1045B000E3051092FA061092F9061092FC0610928A
:1045C000FB061092FE061092FD0663E070E090E09C
:1045D00080E00E942431009709F19093FA068093BD
:1045E000F90622E030E03093FC062093FB06209190
:1045F000FD063091FE06232B11F4DC011C9282E0B3
:1046000090E09093FE068093FD0668E173E0809150
:10461000F9069091FA060E94F73114C08091F906CC
:104620009091FA06009711F00E941C2C1092FA0645
:104630001092F9061092FE061092FD061092FC06EA
:104640001092FB0688E68093E60680E090E0A0E802
:10465000BFE38093D6069093D706A093D806B09375
:10466000D9061092DA061092DB061092DC06109240
:10467000DD061092DE061092DF061092E006109220
:10468000E1061092E2061092E3061092E406109200
:10469000E5061092CA061092CB061092CC06109234
:1046A000CD061092CE061092CF061092D006109230
:1046B000D1061092D2061092D3061092D406109210
:1046C000D506E9EBF6E081E1DF011D928A95E9F775
:1046D00080E48093B30684ED95E09093B5068093D3
:1046E000B4060895CF93DF93CDB7DEB76D970FB6BD
:1046F000F894DEBF0FBECDBF789484B5826084BDD0
:1047000084B5816084BD85B5826085BD85B58160D5
:1047100085BD80916E00816080936E001092810053
:10472000809181008260809381008091810081600E
:1047300080938100809180008160809380008091CF
:10474000B10084608093B1008091B000816080935B
:10475000B00080917A00846080937A0080917A0022
:10476000826080937A0080917A00816080937A00E1
:1047700080917A00806880937A001092C100E09165
:104780004705F091480582E08083E0914305F09170
:1047900044051082E0914505F091460580E1808353
:1047A00010924F05E0914B05F0914C0586E0808317
:1047B000E0914905F0914A05808180618083E09114
:1047C0004905F0914A05808188608083E091490520
:1047D000F0914A05808180688083E0914905F091DD
:1047E0004A0580818F7D808385E090E0A0E0B0E085
:1047F00080933B0590933C05A0933D05B0933E0507
:104800008EE192E20E94071C1092E6041092E504E9
:1048100010923405109233050E948A138DE491E1C1
:1048200090938104809380048EE491E190937F04BF
:1048300080937E0488E18093B80087E795E10E9429
:10484000071C85E695E10E94071C8FEF93E09A8391
:10485000898344E150E063E471E0CE0101960E9457
:10486000A31C48E150E06BE271E0CE0101960E948A
:10487000A31C4AE050E061E271E0CE0101960E9483
:10488000A31C40E250E061E071E0CE0101960E947D
:10489000A31C8AEE93E00E94001D869559EEC52E5A
:1048A00053E0D52EA82EB12C69EE662E63E0762E4D
:1048B00078EE872E73E0972EC3018C199D098A1517
:1048C0009B054CF5C6018A199B090E94001D082F03
:1048D000C6010E94001D182F602F70E0C4010E94C5
:1048E000F630072E000C880B990B0E94AC2C1B0194
:1048F0002C01612F70E090E080E00E94AA2CEE2451
:10490000E39410E000E0A20191010E94021D21E069
:10491000C21AD108D1CF85EF94E10E94071C0E94F2
:104920009D16382E0E94FB1B3DE9832E31E0932E0D
:104930008DE292E09A8F898FADE1B2E0B88FAF8BB4
:10494000EDE3F2E0FA8BE98B00E210E080EC90E01E
:104950009C8B8B8B40E8E42EF12CE89435F83D8E4F
:10496000A989BA89AD53B2406D01BD8DB93571F4D5
:10497000F801EE55FB4F6081C80140970E948F1CE3
:1049800065E070E080E090E00E942413E989FA89F4
:104990006191FA8BE98BC6010E948F1CA98DBA8D9B
:1049A0006D91BA8FA98FC8010E948F1CEF89F88D75
:1049B0006191F88FEF8BC80140960E948F1C8B8904
:1049C0009C8983569F4F9E8B8D8BAB88BC8814012E
:1049D000D12CC12CD1014D905D906D907D901D0129
:1049E00020E030E0A901C301B2010E946C2F20E059
:1049F00030E040E05FE387FD98C0C301B2010E9450
:104A0000582E0E94362FC6018E0D9F1D0E948F1CAE
:104A1000ED89FE8961917191FE8BED8BC5010E943C
:104A2000EB1CF2E0AF0EB11CCA94CD2809F079C09E
:104A300082E0E80EF11C98E0890E911CAB89BC89DC
:104A40001496BC8BAB8B0F5F1F4FA115B14009F0C3
:104A500087CF89E595E10E94071C61E283E191E03F
:104A60000E948F1C90E2C92ED12C198A512C412C06
:104A7000F9896F2E712C83E191E00E94001D082EB0
:104A8000000C990B681679060CF0FDC0660C771CBB
:104A9000F301E157FD4FA080B180D5010D900020BA
:104AA000E9F78D01015011090A191B090D8BF2015B
:104AB0003196F88FEF8B6FEF600FC2018A5E9E4FC9
:104AC0000E948F1C11271801F1E02F1A31082A0CBF
:104AD0003B1CD1018C91893409F4BDC58BE193E075
:104AE0000E94EA1B450199EE491A9EEF590AD2012C
:104AF000AA19BB09BA8FA98FE98CFA8CE80CF91CAA
:104B0000882D8A19BD898B17A8F4F40181914F0172
:104B10000E943C12F40131976081C7010E948F1CF2
:104B2000EBCFCC24C394D12C55CFC301B2010E944A
:104B3000572E67CFAF88B88CA00EB11E040D151D7F
:104B40000E94F71BF301E35BFD4F80809180F4012D
:104B50006491C8010E948F1C80916804811160C01B
:104B6000D1018C91893409F05BC0B601C501895E21
:104B70009E4F0E94EB1CF401849180936D0407E02A
:104B800024E1181634F404E028E0813011F404E044
:104B900020E120937204082E000C990B97FF03C0AC
:104BA000919581959109289FA001299F500D11246D
:104BB000040F152F111D0F5F1F4F612C712C84E501
:104BC0000E943C116D2D84ED95E00E94E8146C2D3F
:104BD00084ED95E00E94E8142601F0E14F0E511C8F
:104BE00073016C187D08680C791CC11420E2D20690
:104BF000F9F40E94F71B8FE095E10E94071C81E009
:104C00008093680402E0E02E02E310E020E030E050
:104C100048EC52E460E070E080E291E40E94021D02
:104C20002501B3E04B0E511CE989EF5FE98B20CFE2
:104C30009FEFE91AF90AF301EC0DFD1D649184ED73
:104C400095E00E94E814AFEFCA1ADA0A0150110980
:104C5000101611064CF4C6018F719927892B21F08B
:104C6000C414D50409F0C1CF84ED95E00E94171556
:104C700066E070E080E090E00E94241310161106B8
:104C80007CF637019CCFB60184E191E00E94EB1CD9
:104C90000E94F71B89E495E10E9441124AE060E21C
:104CA00070E080E090E00E94131C8EE70E943C12AE
:104CB000B60190E080E04AE00E94131C8FE20E945F
:104CC0003C124AE060E070E280E090E00E94131C39
:104CD00089E395E10E94071C82E393E00E94EA1BAE
:104CE0000E94F71B12ECE12E14E0F12E00E110E01F
:104CF000C8010E94001DD7018D937D010F5F1F4FDA
:104D000000321105A9F71092E6041092E504109202
:104D10003405109233050E948A138DE491E190933B
:104D20008104809380048EE491E190937F048093CA
:104D30007E0440E860E083EB96E00E9470166AE033
:104D400070E080E090E00E94241340E050E06AE7C9
:104D500074E483EB96E00E94E816A0E4CA2EA8E76C
:104D6000DA2EADE7EA2EFF24F394C092B606D09275
:104D7000B706E092B806F092B90640E050E060EA6B
:104D800073E483EB96E00E94E816C092BC06D092D2
:104D9000BD06E092BE06F092BF06C092B606D09263
:104DA000B706E092B806F092B90680E491E09093DD
:104DB000BB068093BA0680E090E0A1E6B4E480935D
:104DC000C4069093C506A093C606B093C7066AE5CD
:104DD00082E191E00E948F1C65E070E080E090E04D
:104DE0000E9424136EEF83EB96E00E94BD16682F9D
:104DF00070E06F5F7F4F90E080E00E94AA2C20E07F
:104E000034E244E759E40E940B2D6B017C01609170
:104E1000BC067091BD068091BE069091BF060E94AF
:104E2000AC2C9B01AC01C701B6010E94C42E9B01B2
:104E3000AC0160E070E080E89FE30E94C42E6093C4
:104E4000C0067093C1068093C2069093C30680E4A7
:104E500090E00E94802B9093C9068093C80684EB53
:104E600090E09A87898724EF31E03E872D8784EC94
:104E700099E0988B8F8748E151E05A8349833E83BC
:104E80002D8398878F83E1EDF2E0F88FEF8B82EA34
:104E900094E09E8B8D8BA2E8B4E0BA8BA98B312C69
:104EA000212CB0E4EB2EF12C00E310E0EF89F88D1B
:104EB00081919191F88FEF8B009709F4E2C10197EE
:104EC00021F4CE0101969C8F8B8FEB8DFC8DC080E1
:104ED000D180C80140970E94001DA82EC8010E94E1
:104EE000001DB82E6A2DAA0C770B880B990B0E9417
:104EF000AC2C2B013C016B2DBB0C770B880B990B59
:104F00000E94AC2C9B01AC01C301B2010E940B2D8D
:104F10004B015C01B601D7FE02C06F5F7F4F7595F4
:104F20006795072E000C880B990B0E94AC2C9B01F7
:104F3000AC01C501B4010E94582E0E94362F4B01CE
:104F4000AD89BE896D937D93BE8BAD8BC801809773
:104F50000E94001D782EC8010E94001D898F672DB8
:104F6000770C770B880B990B0E94AC2C2B013C0122
:104F7000B98D6B2FBB0F770B880B990B0E94AC2C54
:104F80009B01AC01C301B2010E940B2D2B013C011E
:104F9000B401092C000C880B990B0E94AC2C9B01CE
:104FA000AC01C301B2010E94582E0E94362FE9893C
:104FB000FA8971836083B401C7010E94EB1CA9893F
:104FC000BA896D917D91BA8BA98BC801880F991F01
:104FD0000E94EB1CEB8DFC8D8681978124813581AD
:104FE000821B930BB6010E94F630072E000C880B33
:104FF000990B0E94AC2C2091C0063091C1064091C3
:10500000C2065091C3060E940B2DE091C806F09194
:10501000C906E20DF31D608371838283938320E0D0
:1050200030E04AE754E40E940B2D0E94362FC7015E
:10503000805A9F4F0E94EB1C0F5F1F4FF2E0EF0E54
:10504000F11C24E0220E311C0034110509F02ECF92
:1050500016E08091B3060E943C118091B4069091B5
:10506000B506DC01ED91FC910190F081E02D612FFE
:10507000099570E060E08091B4069091B5060E94B9
:10508000961670E060E08091B4069091B5060E949B
:10509000961660E070E18091B4069091B5060E948A
:1050A000961660E170E08091B4069091B5060E947A
:1050B00096168091B4069091B5060E9417151C5F54
:1050C000163439F664E670E080E090E00E94241324
:1050D0008EE092E20E94071C01E023E042E06BE6D2
:1050E0008091E6060E949F1B00E022E044E06BE115
:1050F0008091E6060E949F1B22E044E06CE18091D3
:10510000E6060E949F1B20E046E06BE68091E606E3
:105110000E94BE180E94F118843311F08C3091F671
:1051200011E0198721E047E06BE68091E6060E94D6
:10513000BE1864E670E080E090E00E94241387E0EF
:10514000898707E023E042E06AE68091E6060E9454
:105150009F1B64E670E080E090E00E9424131987B2
:105160009E01275F3F4F41E06BE68091E6060E947B
:10517000231619869E01275F3F4F41E068E3809127
:10518000E6060E94231619869E01275F3F4F41E0E5
:1051900063E28091E6060E94231619869E01275F2E
:1051A0003F4F41E06CE18091E6060E94231680E8C3
:1051B00089879E01275F3F4F41E067E38091E606C4
:1051C0000E94231619879E01275F3F4F41E06BE63F
:1051D0008091E6060E94231684E089879E01275F5E
:1051E0003F4F41E069E18091E6060E94231619874E
:1051F0009E01275F3F4F41E06AE18091E6060E94F1
:10520000231640E06DE68091E6060E94601640E0BD
:105210006EE68091E6060E94601680E190E00E94B2
:10522000802B5C0180E190E00E94802B2C01312CCE
:10523000E12CD12CC12C56EF252E612C77247394B0
:10524000C6014096F22CFC18873F9B4010F440E1C9
:10525000F42EC3018E199109F816190619F014F0ED
:10526000FE2CF194D20190E080E0960123553A4E55
:105270008F1560F4F901E80FF91FE491ED930196A1
:10528000F7CFDE011996BC8FAB8F1FCE92014F2D49
:105290006FE68091E6060E9423168F2C912CA114B4
:1052A000B10409F4B1C1432D4F716DE68091E6065A
:1052B0000E9460164E2D6EE68091E6060E946016F2
:1052C00008EE13E095014F2D6FE68091E6060E94EF
:1052D0001718A401B501C2010E94E131892B09F41C
:1052E00093C1C5010E941C2CC2010E941C2C11E01C
:1052F0001093E40432EDE32E34E0F32E8B899C8985
:105300000E94001D082F8B899C8901960E94001D18
:1053100090E0982F8827800F911DD7018D939D9342
:105320007D01EB89FC893296FC8BEB8BEC30F140F4
:1053300029F7E090D204F090D3040E94F11866E0BF
:10534000883308F067E7A7018091E6060E944F16B0
:10535000E090D404F090D5040E94F11868E08833FE
:1053600008F06AE7A7018091E6060E944F16E090D8
:10537000D604F090D7040E94F1186AE0883308F050
:105380006DE7A7018091E6060E944F164091D80470
:105390005091D90463E18091E6060E944F16409136
:1053A000DA045091DB0465E18091E6060E944F1615
:1053B0004091DC045091DD0467E18091E6060E9493
:1053C0004F16111139C189EF91E20E94071C0E940A
:1053D0009D16182F0E94FB1B1F7D193509F0BFC0B9
:1053E0008AED91E20E94071C95E0E92E08E512E0A3
:1053F00020E030E048EC53E460E070E080E091E4CD
:105400000E94021DEE24E39420E030E048EC53E4D7
:1054100060E070E080E791E40E94021D87EC91E279
:105420000E94071C00E010E028EC31E440E050E06E
:1054300060EC7EE38BE30E94141900E010E021EEA3
:1054400032E440E050E060EC7EE383E40E94141913
:105450000E94F11866E0883308F067E708EE13E071
:1054600027EE36E042E08091E6060E941718609130
:10547000E7067091E80676276727762780E091E0B7
:105480000E94EB1C0E94F11868E0883308F06AE77C
:1054900008EE13E027EE36E042E08091E6060E9437
:1054A00017186091E7067091E80676276727762738
:1054B00082E091E00E94EB1C0E94F1186AE08833C0
:1054C00008F06DE708EE13E027EE36E042E0809149
:1054D000E6060E9417186091E7067091E8067627A5
:1054E0006727762784E091E00E94EB1C27EE36E0E8
:1054F00042E063E18091E6060E9417186091E7069A
:105500007091E80676276727762786E091E00E946B
:10551000EB1C27EE36E042E065E18091E6060E9452
:1055200017186091E7067091E806762767277627B7
:1055300088E091E00E94EB1C27EE36E042E067E154
:105540008091E6060E9417186091E7067091E806C0
:105550007627672776278AE091E00E94EB1C85EB8F
:1055600091E20E94071C10E000E0C8010E94001DAB
:10557000C82E880FDD08EE08FF084AE0C701B60113
:10558000F7FE0BC08DE20E943C1266277727CB0105
:105590006C197D098E099F094AE00E94131C89E05D
:1055A0000E943C12C8018F7099270F9711F40E9436
:1055B000F71B0F5F1F4F011584E01807B1F686E057
:1055C000E82E06E410E020E030E048E452E460E039
:1055D00070E080E991E40E94021D21E047E06AE664
:1055E0008091E6060E94BE1887E192E20E94071CA5
:1055F00000E010E001151105E9F30E94B9118823BC
:10560000C9F30E940000F6CFC80CD91CE6EFCE16F5
:10561000EBE0DE0618F5EF0C09F43394432D4F71DF
:105620006DE68091E6060E9460164E2D6EE6809132
:10563000E6060E94601604CE83EA91E20E944112BF
:105640004AE061E070E080E090E00E94131C89E293
:105650000E94FB1BC9CF87E293E042CAC5010E94AA
:105660001C2CC2010E941C2C80E094E09A83898348
:10567000AE014F5F5F4F60E78091E6060E94FE1526
:1056800088E189879E01275F3F4F41E06BE1809170
:10569000E6060E94231680EC89879E01275F3F4F14
:1056A00041E06AE68091E6060E94231682E089873F
:1056B0009E01275F3F4F41E068E38091E6060E942C
:1056C000231621E042E06AE68091E6060E94BE18B9
:1056D00020E047E06AE68091E6060E94BE188CE171
:1056E00090E09093F8068093F70610E001CE809149
:1056F000F9069091FA06009711F00C941C2C08956D
:105700000F931F93CF93DF938230910510F482E0C3
:1057100090E0E0910107F091020730E020E0B0E076
:10572000A0E0309799F42115310509F44AC0281BEF
:10573000390B24303105D8F58A819B8161157105BB
:1057400089F1FB0193838283FE0111C04081518165
:105750000281138148175907E0F04817590799F457
:10576000109761F012960C93129713961C93329631
:10577000CF01DF91CF911F910F9108950093010701
:1057800010930207F4CF2115310551F0421753074A
:1057900038F0A901DB019A01BD01DF01F801C1CF99
:1057A000EF01F9CF9093020780930107CDCFFE015F
:1057B000E20FF31F8193919322503109398328839B
:1057C000D7CF2091FF0630910007232B41F4209181
:1057D000590130915A01309300072093FF06209120
:1057E0005701309158012115310541F42DB73EB7CD
:1057F00040915B0150915C01241B350BE091FF0649
:10580000F0910007E217F307A0F42E1B3F0B2817B7
:10581000390778F0AC014E5F5F4F2417350748F029
:105820004E0F5F1F509300074093FF0681939193A3
:105830009FCFF0E0E0E09CCFCF93DF930097E9F0BB
:10584000FC01329713821282A0910107B0910207E6
:10585000ED0130E020E01097A1F420813181820F2A
:10586000931F2091FF06309100072817390709F090
:1058700061C0F0930007E093FF06DF91CF91089598
:10588000EA01CE17DF07E8F54A815B819E014115E9
:105890005105B1F7E901FB83EA8349915991C40F9E
:1058A000D51FEC17FD0761F4808191810296840F6A
:1058B000951FE90199838883828193819B838A83E1
:1058C000F0E0E0E012968D919C9113970097B9F566
:1058D0002D913C911197CD010296820F931F20913B
:1058E000FF06309100072817390739F6309751F530
:1058F0001092020710920107B0930007A093FF06D1
:10590000BCCFD383C28340815181840F951FC817B8
:10591000D90761F44E5F5F4F88819981480F591F05
:10592000518340838A819B81938382832115310532
:1059300009F0B0CFF0930207E09301079ECFFD017D
:10594000DC01C0CF13821282D7CF0E94E72C08F46B
:1059500081E00895E89409C097FB3EF49095809506
:10596000709561957F4F8F4F9F4F9923A9F0F92F25
:1059700096E9BB279395F695879577956795B795A3
:10598000F111F8CFFAF4BB0F11F460FF1BC06F5F89
:105990007F4F8F4F9F4F16C0882311F096E911C09B
:1059A000772321F09EE8872F762F05C0662371F0BC
:1059B00096E8862F70E060E02AF09A95660F771FD0
:1059C000881FDAF7880F9695879597F90895990FAC
:1059D0000008550FAA0BE0E8FEEF16161706E807B9
:1059E000F907C0F012161306E407F50798F0621BDA
:1059F000730B840B950B39F40A2661F0232B242BAF
:105A0000252B21F408950A2609F4A140A6958FEFCD
:105A1000811D811D08950E941E2D0C948F2D0E94C2
:105A2000812D38F00E94882D20F0952311F00C94E0
:105A3000782D0C947E2D11240C94C32D0E94A02D42
:105A400070F3959FC1F3950F50E0551F629FF001D1
:105A5000729FBB27F00DB11D639FAA27F00DB11DEA
:105A6000AA1F649F6627B00DA11D661F829F222773
:105A7000B00DA11D621F739FB00DA11D621F839FFA
:105A8000A00D611D221F749F3327A00D611D231FD0
:105A9000849F600D211D822F762F6A2F11249F571E
:105AA00050409AF0F1F088234AF0EE0FFF1FBB1F21
:105AB000661F771F881F91505040A9F79E3F5105E0
:105AC00080F00C94782D0C94C32D5F3FE4F3983E46
:105AD000D4F3869577956795B795F795E7959F5F8A
