:100000000C9422010C944A010C944A010C944A016C
:100010000C944A010C944A010C944A010C94B113BB
:100020000C944A010C944A010C944A010C94CE158C
:100030000C944A010C944A010C944A010C944A0114
:100040000C9465140C944A010C9433140C940D1404
:100050000C944A010C944A010C944A010C944A01F4
:100060000C94AF140C944A0105A84CCDB2D44EB9EF
:100070003836A9020C50B9918688083CA6AAAA2A4B
:10008000BE000000803F07634236B79BD8A71A39ED
:10009000685618AEBAAB558C1D3CB7CC5763BD6DD6
:1000A000EDFD753EF6177231BF000000803F08007D
:1000B0000000BE922449123EABAAAA2ABECDCCCCE7
:1000C0004C3E00000080BEABAAAAAA3E0000000081
:1000D000BF000000803F0000000000084178D3BB53
:1000E0004387D1133D190E3CC3BD4282AD2B3E6800
:1000F000EC8276BED98FE1A93E4C80EFFFBE01C4F1
:10010000FF7F3F0000000000010000010000000030
:100110000000000000000000000000007520006BDF
:10012000736974006952616E64000000000023006E
:100130002600290000000000240027002A000000FB
:100140000000250028002B00040404040404040417
:100150000202020202020303030303030102040872
:100160001020408001020408102001020408102021
:10017000024C6F616420736B696C6C730052656133
:10018000647921004E7962626C65000A2A205374FA
:10019000617274202A003E00000000080002010085
:1001A0000003040700000000000000004C6F7720EF
:1001B000706F7765723A002401240124011F011C2D
:1001C000017A00627574745570007374616E640016
:1001D00070656500707500686900737472007369FA
:1001E0007400747200776B006372007674006300B1
:1001F00042007000520062616C616E6365004C00E9
:1002000067004600640049324320454550524F4D37
:10021000206F766572666C6F77212044656C65741B
:100220006520736F6D6520736B696C6C73210A00B8
:1002300061626F72746564007361766564003F008B
:10024000BB16D32211241FBECFEFD8E0DEBFCDBF37
:1002500011E0A0E0B1E0E8E3F7E502C005900D92FF
:10026000A63AB107D9F724E0A6EAB1E001C01D9291
:10027000AA36B207E1F711E0C1E2D1E004C021974C
:10028000FE010E948E2AC032D107C9F70E942817AA
:100290000C948F2B0C94000080E090E0A0E0B0E480
:1002A0008093650290936602A0936702B093680200
:1002B000E0915E04F0915F048181082E000C990B9F
:1002C00090936B0280936A028281082E000C990B36
:1002D00090936D0280936C02838180936E02809173
:1002E000640287FF0CC0848180936F0285818093B4
:1002F000700286818093710287E090E005C08130B2
:1003000061F05CF084E098E090937202E80FF11DD8
:10031000F0937402E0937302089584E0EECF80912D
:10032000580290915902891B990B089508950895D8
:100330000895AF92BF92CF92DF92EF92FF920F9308
:100340001F93CF93DF936C017B018B01040F151F6B
:10035000EB015E01AE18BF08C017D10759F06991D3
:10036000D601ED91FC910190F081E02DC601099537
:10037000892B79F7C501DF91CF911F910F91FF90E4
:10038000EF90DF90CF90BF90AF900895FC01538D18
:10039000448D252F30E0842F90E0821B930B54175F
:1003A00010F0CF96089501970895FC01918D828DEC
:1003B000981761F0A28DAE0FBF2FB11D5D968C9185
:1003C000928D9F5F9F73928F90E008958FEF9FEFC4
:1003D00008952FB7F89480915C0290915D02A091EE
:1003E0005E02B0915F022FBF8093CD029093CE0248
:1003F000A093CF02B093D00285EC92E00E94D50189
:1004000097FF26C02FB7F89480915C0290915D020F
:10041000A0915E02B0915F022FBF4091CD0250913A
:10042000CE026091CF027091D002841B950BA60B77
:10043000B70B4091C9025091CA026091CB027091F2
:10044000CC0284179507A607B707B0F28FEF9FEF8E
:100450000895FC01918D828D981731F0828DE80FFF
:10046000F11D858D90E008958FEF9FEF0895FC01B9
:10047000918D228D892F90E0805C9F4F821B910986
:100480008F739927089585EC92E00E94370221E04E
:10049000892B09F420E0822F089580E090E0892BD9
:1004A00029F00E94430281110C9400000895FC0180
:1004B000A48DA80FB92FB11DA35ABF4F2C91848DC5
:1004C00090E001968F739927848FA689B7892C9322
:1004D000A089B1898C91837080648C93938D848D75
:1004E000981306C00288F389E02D80818F7D808378
:1004F0000895EF92FF920F931F93CF93DF93EC0138
:1005000081E0888F9B8D8C8D98131AC0E889F989BA
:10051000808185FF15C09FB7F894EE89FF896083BD
:10052000E889F98980818370806480839FBF81E03E
:1005300090E0DF91CF911F910F91FF90EF90089580
:10054000F62E0B8D10E00F5F1F4F0F731127E02E5B
:100550008C8D8E110CC00FB607FCFACFE889F98993
:10056000808185FFF5CFCE010E945702F1CFEB8D40
:10057000EC0FFD2FF11DE35AFF4FF0829FB7F89467
:100580000B8FEA89FB8980818062CFCF0F931F9305
:10059000CF93DF938C01D0E0C0E0F801EC0FFD1F9A
:1005A0006491662341F085EC92E00E947902892BE8
:1005B00011F02196F2CFCE01DF91CF911F910F91D3
:1005C0000895CF93DF93EC01888D8823B9F0AA8931
:1005D000BB89E889F9898C9185FD03C0808186FDFE
:1005E0000DC00FB607FCF7CF8C9185FFF2CF80814D
:1005F00085FFEDCFCE010E945702E9CFDF91CF9169
:100600000895833081F028F4813099F08230A9F088
:1006100008958730A9F08830C9F08430B1F4809112
:1006200080008F7D03C0809180008F778093800051
:10063000089584B58F7784BD089584B58F7DFBCFF1
:100640008091B0008F778093B00008958091B000C2
:100650008F7DF9CF1F93CF93DF93282F30E0F901DF
:10066000E856FE4F8491F901E45AFE4FD491F90106
:10067000E85BFE4FC491CC23A9F0162F81110E9494
:100680000103EC2FF0E0EE0FFF1FE25CFE4FA5919F
:10069000B4918FB7F894EC91111108C0D095DE2376
:1006A000DC938FBFDF91CF911F910895DE2BF8CFA0
:1006B0009091000189130BC0E0E7F1E0E4919FEF16
:1006C00090930001E13049F028F0E23061F060E001
:1006D0000C942A0310926E00FACF90916F009D7FC8
:1006E00090936F00F4CF909170009D7F9093700075
:1006F00091E09093B0009091B100987F94609093B6
:10070000B1001092B300E3CFCF93DF9390E0FC01F0
:10071000E45AFE4F2491885B9E4FFC01849188230C
:10072000D1F090E0880F991FFC01EC5CFE4FA59181
:10073000B491FC01E25CFE4FC591D49161110EC0F1
:100740009FB7F8948C91E22FE0958E238C932881AB
:10075000E223E8839FBFDF91CF9108958FB7F8948C
:10076000EC91E22BEC938FBFF6CF8E3008F08E50D9
:10077000806480937C0080917A00806480937A000A
:1007800080917A0086FDFCCF80917800909179006D
:1007900008953FB7F8948091150290911602A091A8
:1007A0001702B091180226B5A89B05C02F3F19F07B
:1007B0000196A11DB11D3FBFBA2FA92F982F8827E1
:1007C000BC01CD01620F711D811D911D42E0660FBC
:1007D000771F881F991F4A95D1F708958F929F928E
:1007E000AF92BF92CF92DF92EF92FF926B017C01AA
:1007F0000E94C9034B015C01C114D104E104F1045E
:10080000B9F00E94C903681979098A099B09683EF1
:1008100073408105910580F321E0C21AD108E108F7
:10082000F10888EE880E83E0981EA11CB11CE4CF6D
:10083000FF90EF90DF90CF90BF90AF909F908F9000
:1008400008952091F101260F3327331F21323105FE
:10085000ECF42091BF02FC0190E080E0243069F0CC
:1008600082E00895A091F1012191AC014F525E4FB9
:10087000A40FB52FB11D2C930196861798F3809184
:10088000F101680F6093F10180E0089581E008951F
:100890001092BF0281E080939E021092990261E063
:1008A00082E10E942A0361E083E10E942A03E9EBCE
:1008B000F0E080818E7F808380818D7F808388E4DB
:1008C0008093B80085E48093BC000895CF93DF93B4
:1008D00091E09093D0018823B9F0C091B800D091F5
:1008E000BA008091BC008A7B8093BC0060E082E10A
:1008F0000E942A0360E083E10E942A030E944804C8
:10090000D093BA00C093B800DF91CF910895CF92F1
:10091000DF92EF92FF920F931F93CF93DF93D82F25
:10092000C62F613208F098C00E94C9036B017C0198
:100930008091BF0281116BC081E08093BF028093E0
:100940009E029FEF90939D0210929C029C0F9093A9
:100950009B0280939A0280919A02DD0FD82BD0934C
:100960009A0280919902813009F078C01092990220
:100970000E94C9036B017C0180919A028093BB00A5
:100980008091C1029091C202A091C302B091C402B1
:10099000892B8A2B8B2BA1F00E94C9030091C102E5
:1009A0001091C2022091C3023091C4026C197D09DA
:1009B0008E099F09061717072807390708F448C04A
:1009C0008091BC0083FDD8CF85EC8093BC000E9451
:1009D000C9036B017C018091BF02813009F440C0E2
:1009E00080919C028C1710F4C0919C02E9E7F2E020
:1009F000AFE9B2E080E08C1355C08C2FDF91CF912E
:100A00001F910F91FF90EF90DF90CF90089580910C
:100A1000C1029091C202A091C302B091C402892B7D
:100A20008A2B8B2B09F484CF0E94C9030091C10249
:100A30001091C2022091C3023091C4026C197D0949
:100A40008E099F09061717072807390708F070CF86
:100A50008091C0020E946604C0E0CFCF85EEB5CF82
:100A60008091C1029091C202A091C302B091C402D0
:100A7000892B8A2B8B2B09F4AECF0E94C9030091DE
:100A8000C1021091C2022091C3023091C4026C19BC
:100A90007D098E099F09061717072807390708F0EF
:100AA0009ACFD6CF91919D938F5FA5CF0895E09176
:100AB000590280915802E81730F4F0E0E156FD4FFA
:100AC000808190E008958FEF9FEF089590915902F3
:100AD000809158022FEF3FEF981748F4E92FF0E08C
:100AE000E156FD4F208130E09F5F90935902C9018C
:100AF0000895CF92DF92EF92FF920F931F93CF93BF
:100B0000DF937C01CB018A0120917802222389F0B6
:100B1000EB016B01C40ED51ECC15DD0569F06991A2
:100B2000D701ED91FC910190F081E02DC70109956D
:100B3000F3CF642F0E942104C801DF91CF911F9150
:100B40000F91FF90EF90DF90CF900895CF93DF93B8
:100B50001F92CDB7DEB76983209178022223F9F086
:100B600020917502203258F021E030E0FC013383FF
:100B7000228390E080E00F90DF91CF9108958091E3
:100B80007602E82FF0E0E055FE4F998190838F5F69
:100B9000809376028093750281E090E0ECCF61E073
:100BA000CE0101960E942104F7CFCF92DF92EF92FF
:100BB000FF920F931F93CF93DF93D091750281E043
:100BC000D13208F09CC0C09177020E94C9036B012A
:100BD0007C018091BF0281116CC082E08093BF02D2
:100BE00081E080939E028FEF80939D0210929C0281
:100BF000D0939B02A0EBB1E0E9E7F2E080E0D813EC
:100C00008DC010929A0280919A02CC0FC82BC0938B
:100C10009A0280919902813009F084C01092990261
:100C20000E94C9036B017C0180919A028093BB00F2
:100C30008091C1029091C202A091C302B091C402FE
:100C4000892B8A2B8B2BA1F00E94C9030091C10232
:100C50001091C2022091C3023091C4026C197D0927
:100C60008E099F09061717072807390708F442C09D
:100C70008091BC0083FDD8CF85EC8093BC000E949E
:100C8000C9036B017C018091BF02823009F44CC022
:100C900080919D028F3F09F469C080919D0280324E
:100CA00009F466C080919D02803309F463C084E03A
:100CB00026C08091C1029091C202A091C302B0915E
:100CC000C402892B8A2B8B2B09F483CF0E94C90382
:100CD0000091C1021091C2022091C3023091C4025E
:100CE0006C197D098E099F09061717072807390710
:100CF00008F06FCF8091C0020E94660485E01092D8
:100D000076021092750210927802DF91CF911F91B6
:100D10000F91FF90EF90DF90CF9008959D91919368
:100D20008F5F6DCF85EEA9CF8091C1029091C202F5
:100D3000A091C302B091C402892B8A2B8B2B09F49A
:100D4000A2CF0E94C9030091C1021091C20220915A
:100D5000C3023091C4026C197D098E099F090617E0
:100D600017072807390708F08ECFC4CF80E0C7CF18
:100D700082E0C5CF83E0C3CF90E080E008951F9369
:100D8000CF93DF93EC01142F89819A81288131E080
:100D900030937802209377021092760210927502B7
:100DA000DC01ED91FC910190F081E02D09958981A4
:100DB0009A81DC01ED91FC910190F081E02D612F91
:100DC000099589819A81DF91CF911F910C94D50566
:100DD000DC01ED91FC910190F081E02D0994FC0182
:100DE00087E094E1161634F484E098E0613011F461
:100DF00084E090E19083062E000C770B77FF03C010
:100E0000719561957109969FA001979F500D1124CE
:100E1000840F952F911D0895DC01ED91FC910190B7
:100E2000F081E02D09940F931F93CF93DF938B01F3
:100E3000C1E4D4E029813A81988141E0409378026D
:100E400090937702109276021092750294E0899F37
:100E5000B00111246A5F7F4FC9010E940C0770E046
:100E600060E089819A810E94E80670E060E08981F3
:100E70009A810E94E806B80189819A810E94E80659
:100E8000612F70E089819A810E94E80689819A81A8
:100E9000DF91CF911F910F910C94D505CF93C0E0B6
:100EA00060E070E18C2F0E941307CF5FC031C1F763
:100EB000CF9108959F92AF92BF92CF92DF92EF921F
:100EC000FF920F931F93CF93DF93EC0181E0809308
:100ED000780284E580937702109276021092750270
:100EE0006D2F70E082E693E00E940C07BE01772729
:100EF00082E693E00E940C0782E693E00E94D5050B
:100F000061E084E50E9487041092590280935802A0
:100F100082E693E00E946605C0905E04D0905F0474
:100F2000F60180836091640289E692E00E94EF06F8
:100F3000EC01F12CE12C1C161D064CF56C2FCF3169
:100F4000D1050CF06EE184E50E948704982E109282
:100F50005902809358025E01FEE1AF1AB1088E017A
:100F600080915902981659F082E693E00E94660536
:100F70009FEFE91AF90AF601EE0DFF1D808301507B
:100F8000110929F0E5010A151B0551F7D4CFDF91AE
:100F9000CF911F910F91FF90EF90DF90CF90BF9076
:100FA000AF909F9008958F929F92AF92BF92CF92F1
:100FB000DF92EF92FF921F93CF93DF93EC016A01D0
:100FC0007B0120E030E040E85FE3CB01B6010E9406
:100FD000932587FDA3C020E030EC4AE555E4C70126
:100FE000B6010E94C02818163CF4C12C30ECD32E58
:100FF0003AE5E32E35E4F32E6B817C818D819E8171
:101000000E9498254B015C0120E030E040E855E467
:10101000C701B6010E94F9259B01AC01C501B401CD
:101020000E94D92720E030E040E05FE30E9468277B
:1010300020E030E040E85FE30E9467276B017C011D
:1010400020E030E040E450E40E94932587FD6DC02D
:1010500020E030E04FE753E4C701B6010E94C0280A
:10106000181634F4C12CD12C9FE7E92E93E4F92E05
:1010700089819A81288131E0309378022093770228
:101080001092760210927502DC01ED91FC910190B4
:10109000F081E02D60E0099589819A810E94D50553
:1010A00061E088810E94870410925902809358025F
:1010B00089819A81DC01ED91FC910284F385E02D18
:1010C0000995182F482F4F76406160E0CE010E94AD
:1010D000BF06C701B6010E945228462F6EEFCE010F
:1010E0000E94BF06412F60E0CE010E94BF0665E06E
:1010F00070E080E090E00E94EE03412F406A60E0E3
:10110000CE01DF91CF911F91FF90EF90DF90CF90B4
:10111000BF90AF909F908F900C94BF06C12CD12CA4
:1011200020E8E22E2FE3F22E67CFC12CD12C80E4F1
:10113000E82EFE2C9DCFFC0101900020E9F73197AD
:10114000AF01481B590BBC0185EC92E00C9499014E
:1011500086E691E00C949B08CF93DF930E94C60231
:10116000EC010E94A8088C0F9D1FDF91CF9108957C
:10117000CF93DF93682F85EC92E00E947902EC0117
:101180000E94A8088C0F9D1FDF91CF910895CF93E7
:10119000DF93FC01448155816081718185EC92E08F
:1011A0000E949901EC010E94A8088C0F9D1FDF91FD
:1011B000CF9108958F929F92AF92BF920F931F93FA
:1011C000CF93DF93CDB7DEB7A1970FB6F894DEBF0C
:1011D0000FBECDBF19A2423008F44AE08E010F5D68
:1011E0001F4F842E912CB12CA12CA50194010E949B
:1011F0003627E62FB901CA01EA30F4F4E05DD801E0
:10120000EE938D01232B242B252B79F790E080E0A2
:10121000109719F0CD010E949B08A1960FB6F89483
:10122000DEBF0FBECDBFDF91CF911F910F91BF9059
:10123000AF909F908F900895E95CE1CFCF92DF92BD
:10124000EF92FF92C12CD12C76014AE0C701B60182
:101250000E94DA0869E085EC92E00E9479028FEF43
:10126000C81AD80AE80AF80A80E1C816D104E104CD
:10127000F10459F7FF90EF90DF90CF900C94A808FD
:10128000FC0124813581232B39F421E0FB0180818D
:10129000882349F020E007C0808191810E94712B52
:1012A00021E0892BB9F7822F0895CF93DF93EC01CA
:1012B00088819981009711F00E9473231982188206
:1012C0001D821C821B821A82DF91CF910895FC013E
:1012D00080819181009711F00C94732308950F93EE
:1012E0001F93CF93DF938C01EB01FC0180819181EF
:1012F0000097E1F06881798161157105A9F042815B
:1013000053812C813D814217530770F00E947A2B44
:101310008C819D81F801958384831D821C82DF91DD
:10132000CF911F910F9108950E9473238881998115
:10133000F801918380838A819B81938382838C814E
:101340009D8195838483198218821B821A82E5CF3E
:101350000C94B7266F927F928F929F92AF92BF921A
:10136000CF92DF92EF92FF920F931F93CF93DF9371
:101370006C01712CD0E0C0E083E191E00E94A809EB
:10138000082E000C990B781619060CF06DC04E0152
:101390008FEF881A980ACE018A5E9E4F0E94A80994
:1013A000682EE82EF12CC70101960E94D7228C01ED
:1013B0005C01C95EDE4FC81BD90B8A2D801B8615C8
:1013C00048F4CE018A0D9B1D0E94A809F501819366
:1013D0005F01F3CFE401CE0DDF1D5801AE0CBF1C41
:1013E000F5011082B601C8010E94712B892B09F505
:1013F00001151105A9F5CE01895E9E4F0E94A8092D
:1014000080936402682F89E692E00E94EF06CE0185
:101410008A5E9E4FDF91CF911F910F91FF90EF90C9
:10142000DF90CF90BF90AF909F908F907F906F9004
:101430000895F501319780818C3449F4A70141501A
:101440005109B601C8010E94812B892B89F201152F
:10145000110519F0C8010E947323249673948CCF50
:10146000C8010E947323C7CF8EE392E00E94AC08AC
:101470008FEF9FEFCFCF1F93CF93DF93EC010E94AD
:10148000A809182FCE0101960E94A80990E0982F74
:101490008827810F911DDF91CF911F910895CF92E1
:1014A000DF92EF92FF920F931F93CF936A017B011C
:1014B000082F10E0C801805B9F4F880F991F0E9482
:1014C0003B0ABC01990F880B990B0E949A2520E0DA
:1014D00030E04AE754E40E94D927A70196010E9410
:1014E000F9256B017C0182E191E00E94A809C82FD7
:1014F000C8010E94A809182F8AE0C89FB0011124D2
:10150000072E000C880B990B0E949A25A7019601C3
:101510000E9468270E945228812FCF911F910F911E
:10152000FF90EF90DF90CF900C94130790E0C0965F
:10153000880F991F860F911D880F991F0C943B0AE5
:101540007F928F929F92AF92BF92CF92DF92EF9253
:10155000FF920F931F93CF93DF93B82E6A01D62F7C
:10156000C72F60E00E94960ABC01990F880B990B67
:101570000E949A257B018C0161E08B2D0E94960AC6
:10158000BC01990F880B990B0E949A25762E872E05
:10159000982EA92E96014D2F5C2F0E94932587FF30
:1015A00071C0772D682D992D8A2D272F362F492F21
:1015B000582FB701C8010E94C028181694F0960150
:1015C0004D2F5C2F672D782D892D9A2D0E94932504
:1015D00076010D2F1C2F87FF04C0E72CF82C092D56
:1015E0001A2DCB2DD0E06E0180E3C80ED11CCC0F9C
:1015F000DD1FCE5FDE4FB701C8010E944B28798303
:101600006883C601880F991F0E943B0AEC01C6013E
:101610000E94A809682F880F770B880B990B0E94EE
:101620009A259701A8010E94F9256B017C01BE0152
:10163000DD0F880B990B0E949A259B01AC01C70115
:10164000B6010E9468270E944B28072E000C880BC9
:10165000990B0E949A2520E030E0A9010E9468279A
:10166000AB01BC018B2DDF91CF911F910F91FF90AA
:10167000EF90DF90CF90BF90AF909F908F907F9032
:101680000C944F0A7C2D6D2DCE018FCF2F923F925F
:101690004F925F926F927F928F929F92AF92BF9282
:1016A000CF92DF92EF92FF920F931F93CF93DF932E
:1016B000CDB7DEB72E970FB6F894DEBF0FBECDBF05
:1016C0005C016A017B0120E030E0A901CB01B60199
:1016D0000E9493259501205E3F4F3901811130C052
:1016E00089013FE03983D8017E916E918D01072EEB
:1016F000000C880B990B0E949A25AB01BC018981D3
:101700000E94A00AB981B150B983BF3F61F72E96FC
:101710000FB6F894DEBF0FBECDBFDF91CF911F9102
:101720000F91FF90EF90DF90CF90BF90AF909F9080
:101730008F907F906F905F904F903F902F90089583
:1017400080E290E00E94D7228C0182E0882E81E026
:10175000982E9801F50170E060E0D4018D919D9183
:101760004D0141915191841B950BD9018D939D930E
:101770009D0197FF03C0919581959109681779079D
:101780000CF4BC01E615F70541F7072E000C880B99
:10179000990B0E949A25A70196010E94D9276B01F7
:1017A0007C0120E030E0A9010E94C02820E030E068
:1017B00040E05FE387FD91C0C701B6010E94682742
:1017C0000E944B287E876D87D12CC12C8D859E85EC
:1017D000092E000CAA0BBB0B89879A87AB87BC87A5
:1017E000AD85BE85AC15BD050CF47CC04801150166
:1017F000F12CC6010D2C000CAA0BBB0B8D839E8314
:10180000AF83B887D1016D917D911D01072E000C2A
:10181000880B990B0E949A252B013C01ED85FE85D2
:1018200020E030E0A901EF2B09F443C06D817E81F7
:101830008F8198850E949A252BED3FE049E450E482
:101840000E94F92569837A838B839C8369857A85D5
:101850008B859C850E949A259B01AC0169817A81C8
:101860008B819C810E94D9270E94D42720E030E000
:1018700040E85FE30E94682720E030E040E05FE35B
:101880000E94F92569837A838B839C83D4016D91AF
:101890007C91072E000C880B990B0E949A259B01C6
:1018A000AC0169817A818B819C810E94F9259B0121
:1018B000AC01C301B2010E946827AB01BC018F2DAE
:1018C0000E94A00AF394B2E08B0E911CE0E1FE129C
:1018D00099CFFFEFCF1ADF0A83CFC701B6010E946D
:1018E00067276ECF0115110509F411CFC8012E9697
:1018F0000FB6F894DEBF0FBECDBFDF91CF911F9121
:101900000F91FF90EF90DF90CF90BF90AF909F909E
:101910008F907F906F905F904F903F902F900C949E
:1019200073232F923F924F925F926F927F928F928A
:101930009F92AF92BF92CF92DF92EF92FF920F935E
:101940001F93CF93DF93CDB7DEB72F970FB6F894E1
:10195000DEBF0FBECDBF4C016D8369017A01202F20
:1019600030E03A83298320E030E0A901C701B601C5
:101970000E94932581111DC01FE0812F012E000CB4
:10198000990BA981BA818A179B070CF419C1880D9C
:10199000991DFC016081062E000C770B880B990BBA
:1019A0000E949A25AB01BC01812F0E94A00A115010
:1019B000E4CF80E190E029813A81821B930B81156D
:1019C00030E4930770F5880F991F0E94D7225C01BD
:1019D000E981FA81EE0FFF1FCF018E5F9E4F3C0120
:1019E0002501D401402F70E060E04031E8F4F301BC
:1019F000819191913F012D915D81250390011124E9
:101A0000821B930BF201819391932F0197FF03C0E7
:101A1000919581959109681779070CF4BC014F5F86
:101A2000E4CF8FEF9FEFD1CF072E000C880B990BDF
:101A30000E949A25A70196010E94D9276B017C017B
:101A400020E030E0A9010E94C02820E030E040E022
:101A50005FE387FD8BC0C701B6010E9468270E9423
:101A60004B281B011F861E86CB01770FAA0BBB0BD1
:101A70008A879B87AC87BD87AE85BF852A163B06C4
:101A80000CF480C0BA82A9829C828B82102FCD0177
:101A9000092E000CAA0BBB0B8E839F83A887B987E6
:101AA000103108F068C0AB81BC816D91BC83AB8301
:101AB0002D816203B0011124072E000C880B990BB5
:101AC0000E949A256B017C0120E030E0A9012114DD
:101AD0003104E1F16E817F81888599850E949A2584
:101AE0002BED3FE049E450E40E94F9252B013C0135
:101AF0006A857B858C859D850E949A259B01AC011A
:101B0000C301B2010E94D9270E94D42720E030E00F
:101B100040E85FE30E94682720E030E040E05FE3B8
:101B20000E94F9252B013C01A981BA816D917C911C
:101B3000072E000C880B990B0E949A259B01AC0183
:101B4000C301B2010E94F9259B01AC01C701B60196
:101B50000E946827AB01BC01812F0E94A00A1F5F71
:101B6000E981FA813296FA83E9839ACFC701B601F7
:101B70000E94672774CF2E853F852F5F3F4F3F8799
:101B80002E877ACFA114B104D9F0C5012F960FB6D4
:101B9000F894DEBF0FBECDBFDF91CF911F910F91A3
:101BA000FF90EF90DF90CF90BF90AF909F908F907D
:101BB0007F906F905F904F903F902F900C94732385
:101BC0002F960FB6F894DEBF0FBECDBFDF91CF9139
:101BD0001F910F91FF90EF90DF90CF90BF90AF904B
:101BE0009F908F907F906F905F904F903F902F903D
:101BF00008950F93CF93DF93E0915E04F0915F041B
:101C00006081C0E6D2E06C8389E692E00E94EF0634
:101C10000E944C0110925B0210925A022D813E816B
:101C20004F8158850A896E858B899C890E94910C09
:101C3000DF91CF910F910895FF920F931F93CF9350
:101C4000DF938C01FC0101900020E9F7329780813D
:101C50008C3409F4CEC0823509F0CDC087EE809374
:101C60006302C8010E94AA09EC01CF3FDC0709F416
:101C70000CC1CE010E94A809F82ECE0102960E9446
:101C80003B0AEC0189E4F812B8C0CE010E945A0761
:101C90000E944C0169E671E0C8010E94712B892BFA
:101CA00009F4C5C080916402813009F0C0C00E946F
:101CB000A42424E630E040E050E00E94CD260E94BB
:101CC0009A2520E030E040E251E40E94D92720E04C
:101CD00030E040EA50E40E9467276093540270931A
:101CE000550280935602909357028091640282308D
:101CF0000CF4A6C08091630287FFB1C080916A0294
:101D000090916B0291958195910990936B028093CC
:101D10006A0290E080E040916402242F042E000CBF
:101D2000330B37FF03C03195219531098217930793
:101D30000CF095C042301CF540916902489F90011B
:101D4000499F300D1124E0917302F0917402E20F6B
:101D5000F31F20812195208320916902289FF001A3
:101D6000299FF00D11249F012E5F3F4FE0917302D8
:101D7000F0917402E20FF31F2081219520832091BE
:101D8000640260E022300CF462E0E62FF0E0209183
:101D9000640222300CF47FC024E030E040917302F2
:101DA00050917402E217F3070CF078C09F01220FE4
:101DB000331F70916902789FF001799FF00D112413
:101DC000E20FF31FE40FF51F4081518150835091C2
:101DD0006902589FD001599FB00D1124E091730200
:101DE000F0917402E20FF31FEA0FFB1F41836F5F54
:101DF000CCCF89E134CF80E032CF6091640289E6B4
:101E000092E00E94EF0620915E0430915F04D901B8
:101E1000C21BD30BFE01EA0FFB1FAD01421B530B8C
:101E2000481759070CF034CFE491ED93F3CF10929B
:101E3000540210925502109256021092570255CF3A
:101E40000E94A42424E630E040E050E00E94CD2629
:101E500060FF05C080915302833609F04FCF109286
:101E60005B0210925A022091650230916602409105
:101E70006702509168020091720260916E02809137
:101E80007302909174020E94910CDF91CF911F9187
:101E90000F91FF90089528E030E080CF01963BCF6E
:101EA0000F931F93CF93DF93EC018B010E94B72612
:101EB000081721F0602FCE010E94BF262196CE0187
:101EC0000E94B726181721F0612FCE010E94BF266D
:101ED00065E070E080E090E0DF91CF911F910F917D
:101EE0000C94EE030F931F93CF93DF93EC01888143
:101EF0009981009759F02A813B812617370730F0E6
:101F000081E0DF91CF911F910F9108958B016F5F59
:101F10007F4F0E94A32A009759F0998388831B83DF
:101F20000A832C813D81232B59F7FC011082E8CFD5
:101F300080E0E7CFEF92FF920F931F93CF93DF9351
:101F40006115710541F480E0DF91CF911F910F91F0
:101F5000FF90EF90089541155105B1F07B01EC0120
:101F60000C811D81040F151FB8010E94720F882378
:101F700051F3288139818C819D81B701820F931F94
:101F80000E947A2B1D830C8381E0DECFEF92FF92BB
:101F90000F931F93CF93DF93EC017B018A01BA016A
:101FA0000E94720F81110BC0CE010E945509CE0113
:101FB000DF91CF911F910F91FF90EF9008951D83B6
:101FC0000C83B701888199810E947A2BF0CFFB01A5
:101FD000DC0111961C921E9213961C921E9212976F
:101FE00015961C921E9214978617970759F06081D8
:101FF00071816115710521F0448155810C94C60FE2
:102000000C9455090895FB0101900020E9F73197E0
:10201000AF01461B570B0C94C60F0F931F93CF9322
:10202000DF93CDB7DEB762970FB6F894DEBF0FBE71
:10203000CDBF8C01CB01F801118210821382128274
:10204000158214824AE0BE016F5F7F4F0E945625C1
:10205000BE016F5F7F4FC8010E94031062960FB6EA
:10206000F894DEBF0FBECDBFDF91CF911F910F91CE
:102070000895FC011182108213821282158214824B
:10208000FB0101900020E9F73197AF01461B570B88
:102090000C94C60FEF92FF920F931F93CF93DF9391
:1020A00000D0CDB7DEB78C01E62E65E971E00E9465
:1020B00039100E94E9010E2C000CFF0897FD10C09A
:1020C0008E159F0569F089831A8241E050E0BE01B8
:1020D0006F5F7F4FC8010E949A0F0E94E901EECF07
:1020E000C8010F900F90DF91CF911F910F91FF903A
:1020F000EF900895EF92FF920F931F93CF93DF938A
:10210000EC018B01198218821B821A821D821C82AB
:10211000CB010E9421257C01BC01CE010E94720FDF
:10212000811109C0CE01DF91CF911F910F91FF90D6
:10213000EF900C945509FD82EC82B8018881998159
:10214000DF91CF911F910F91FF90EF900C941A2582
:1021500085ED8093BC008091C1029091C202A09154
:10216000C302B091C4020796A11DB11D23E0B6952C
:10217000A795979587952A95D1F72091BC0024FDC6
:1021800003C01092BF0208954091C1025091C20253
:102190006091C3027091C402452B462B472B69F313
:1021A0000097A105B10541F025E32A95F1F700005C
:1021B0000197A109B109E1CF8091C0020C94660496
:1021C0002F923F924F925F926F927F928F929F9247
:1021D000AF92BF92CF92DF92EF92FF920F931F9335
:1021E000CF93DF93CDB7DEB766970FB6F894DEBF17
:1021F0000FBECDBF69877A878B879C872D873E87E7
:102200004F87588BC801EE8A10E088248A94982C56
:10221000540168E4462E68EE562E66246394712CB1
:1022200005E07DE4272E71E0372E9C01990F440BC9
:10223000550B298B3A8B4B8B5C8B6D857E858F85FF
:1022400098890E9452286D837E838F83988720E02F
:1022500030E0A90169857A858B859C850E9493254C
:10226000882309F499C129853A854B855C8563E605
:102270007CE987E89FE30E94C52820E030ED42E832
:1022800054E40E94F9250E9452286B0180910001BC
:10229000853009F06AC0E0E7F1E0F491FD8BF7FDCD
:1022A000D9C161E085E00E948403FD89FF2321F00C
:1022B0002D89223009F024C1F12CE12C60E072E17B
:1022C0008AE790E0A70196010E94CD2629833A83F0
:1022D0004B835C83DA01C9010197A109B1098F3FE2
:1022E0009105A105B10509F00CF4F0C060E472E4B9
:1022F0008FE090E0A70196010E94CD262150310980
:10230000410951098D89823009F0A2C082E02F3F36
:1023100031054105510509F00CF48CC160E970EDFF
:1023200083E090E0A70196010E94CD26215031095B
:102330004109510983E02F3F31054105510509F05D
:102340000CF478C1C301B201A70196010E94CD2609
:1023500021503109410951092F3F310541055105EE
:1023600011F00CF092C084E065C18F3F09F072C19A
:1023700000930001E0E7F1E0F491FD8BFF3F09F4E9
:1023800069C1F13029F158F0F23009F43FC03D89BC
:1023900037FD60C161E085E00E94840389CF14BCF1
:1023A00015BC84B5826084BD85B5816085BDF101B1
:1023B0008491E82FF0E0EE0FFF1FE25CFE4F859165
:1023C0009491E1E6F1E084918093A7011D8A69CFA1
:1023D000109280001092810080918100886080932B
:1023E000810080918100816080938100F10184915E
:1023F000E82FF0E0EE0FFF1FE25CFE4F8591949115
:10240000E1E6F1E084918093A6014BCF1092B000F9
:102410001092B1008091B00082608093B0008091F2
:10242000B10081608093B100F1018491E82FF0E068
:10243000EE0FFF1FE25CFE4F8591949190931A027C
:1024400080931902E1E6F1E0849180931B0229CF89
:102450002F3F31054105510509F00CF44FC0C30170
:10246000B201A70196010E94CD26215031094109F0
:1024700051099D89992309F4AFC02F3F31054105CA
:10248000510511F00CF0B0C06ECF64E274EF80E043
:1024900090E0A70196010E94CD2621503109410903
:1024A000510985E02F3F31054105510509F008F438
:1024B000C1C062E17AE780E090E0A70196010E9446
:1024C000CD2621503109410951099DC09C0181E06F
:1024D000FD89F111AFC095B5987F892B85BD27BDCA
:1024E0008092AC019092AD01A092AE01B092AF018A
:1024F00080916E00826080936E00ACC082E0E8CF75
:10250000F12CE12C60E072E18AE790E0A7019601EE
:102510000E94CD26215031094109510991E0211530
:10252000310581E0480751055CF0C301B201A70104
:1025300096010E94CD26215031094109510993E0AD
:10254000ED89E13009F07CC080918100887F892B82
:102550008093810030938900209388008092A801A5
:102560009092A901A092AA01B092AB0180916F0054
:10257000826080936F006EC02093B30080921C0233
:1025800090921D02A0921E02B0921F0280917000D4
:102590008260809370005EC06D817E818F8198859E
:1025A0000E94EE0357C084E02F3F310541055105DD
:1025B00009F008F490CF29813A814B815C818AE04F
:1025C00055954795379527958A95D1F7215031092B
:1025D0004109510985E07FCF83E02F3F3105410557
:1025E000510509F00CF477CF62E17AE780E090E0E2
:1025F000A70196010E94CD262150310941095109B8
:10260000ED89EE2381F286E02F3F3105410551052A
:1026100089F080F029813A814B815C819AE055955F
:102620004795379527959A95D1F72150310941095A
:10263000510987E09091B100987F892B8093B10078
:10264000FD89F13009F486CFF23009F495CFFF23EC
:1026500009F445CF6D817E818F8198850E94EE03BC
:1026600085E00E94580369897A898B899C890E9438
:10267000EE031F5F2E892113E0CD66960FB6F89406
:10268000DEBF0FBECDBFDF91CF911F910F91FF90A5
:10269000EF90DF90CF90BF90AF909F908F907F9002
:1026A0006F905F904F903F902F9008954F925F9260
:1026B0006F927F928F929F92AF92BF92CF92DF9252
:1026C000EF920F931F93CF93DF93D82E192F0E9471
:1026D000A8098695CD2DD12FB12CA12CC82ED12C97
:1026E00088EE882E83E0982E2197AC14BD044CF51B
:1026F000CE018C199D090E94A809782ECE010E9456
:10270000A809182F672D70E0C4010E947A2A072EAD
:10271000000C880B990B0E949A252B013C01612F1C
:1027200070E090E080E00E949825EE24E39410E0B1
:1027300000E0A30192010E94E0108FEFA81AB80AEE
:10274000D3CFDF91CF911F910F91EF90DF90CF907A
:10275000BF90AF909F908F907F906F905F904F90C1
:1027600008951F920F920FB60F9211242F933F934B
:102770004F935F936F937F938F939F93AF93BF9389
:10278000EF93FF9380911C0290911D02A0911E0275
:10279000B0911F02892B8A2B8B2BD1F190911B02B8
:1027A000E0911902F0911A0280818927808380913B
:1027B0001C0290911D02A0911E02B0911F021816DA
:1027C00019061A061B069CF480911C0290911D02AA
:1027D000A0911E02B0911F020197A109B109809337
:1027E0001C0290931D02A0931E02B0931F02FF9142
:1027F000EF91BF91AF919F918F917F916F915F9179
:102800004F913F912F910F900FBE0F901F901895F1
:10281000809100010E945803EACF1F920F920FB6D9
:102820000F9211242F933F934F935F936F937F9356
:102830008F939F93AF93BF93EF93FF9385EC92E0B9
:102840000E945702FF91EF91BF91AF919F918F919D
:102850007F916F915F914F913F912F910F900FBE9C
:102860000F901F9018951F920F920FB60F92112480
:102870002F938F939F93EF93FF93E091D502F09165
:10288000D6028081E091DB02F091DC0282FD1BC068
:1028900090818091DE028F5F8F732091DF0282171B
:1028A00041F0E091DE02F0E0EB53FD4F958F809315
:1028B000DE02FF91EF919F918F912F910F900FBEAC
:1028C0000F901F9018958081F4CF1F920F920FB632
:1028D0000F9211242F933F938F939F93AF93BF93A6
:1028E00080915C0290915D02A0915E02B0915F02C6
:1028F0003091140223E0230F2D3758F50196A11DC6
:10290000B11D2093140280935C0290935D02A0930A
:102910005E02B0935F028091150290911602A09121
:102920001702B09118020196A11DB11D80931502E6
:1029300090931602A0931702B0931802BF91AF9123
:102940009F918F913F912F910F900FBE0F901F90ED
:10295000189526E8230F0296A11DB11DD2CF1F9214
:102960000F920FB60F9211242F933F934F935F93C3
:102970006F937F938F939F93AF93BF93EF93FF9347
:102980008091B900887F803609F44AC0F0F588321A
:1029900009F4A7C018F5803109F49BC0B8F4882366
:1029A00009F4F9C0883009F494C0FF91EF91BF9108
:1029B000AF919F918F917F916F915F914F913F91D7
:1029C0002F910F900FBE0F901F901895883109F42A
:1029D00088C0803251F780939D0214C0803409F47E
:1029E0009DC040F48033B9F38833F9F680939D029B
:1029F00085ECB0C0803509F485C0883509F496C0EF
:102A0000883499F60E94A810D0CF883909F48CC078
:102A100038F5883729F050F4883611F0803729F6D8
:102A200083E08093BF021092130257C0883809F4E4
:102A30007BC0803919F0803809F0B7CF809113023C
:102A4000803208F071C0E091130281E08E0F809314
:102A500013028091BB00F0E0ED50FE4F80833DC03B
:102A6000803B39F0E0F4803A09F479C0883A09F003
:102A70009CCF84E08093BF021092F2011092F1018A
:102A8000E0912202F091230209958091F1018111D8
:102A90000FC081E08093F1011092D10109C0803C08
:102AA00009F4A6CF883C09F4A3CF883B09F07DCF79
:102AB000E091F20181E08E0F8093F201F0E0EF529D
:102AC000FE4F80818093BB009091F2018091F101D3
:102AD00029C080919A028093BB0085EC8093BC0052
:102AE00064CF90919C0280919B02981758F5E091D9
:102AF0009C0281E08E0F80939C02F0E0E758FD4F2E
:102B00008081E9CFE0919C0281E08E0F80939C024E
:102B10008091BB00F0E0E758FD4F808390919C02CC
:102B200080919B029817C8F285E8D8CFE0919C026B
:102B300081E08E0F80939C028091BB00F0E0E7580B
:102B4000FD4F808380919E0281115CCF81E0809354
:102B5000990284EA8093BC001092BF0226CF85ECD4
:102B60008093BC001092BF0280911302803230F437
:102B7000E0911302F0E0ED50FE4F108260911302DD
:102B800070E0E0912002F091210283EF91E009953D
:102B9000109213020ACF10929D0234CF1F920F920F
:102BA0000FB60F9211242F933F934F935F936F9320
:102BB0007F938F939F93AF93BF93CF93DF93EF93C5
:102BC000FF9320916F0330E0F901E856FE4F8491A6
:102BD000F901E45AFE4FD491F901E85BFE4FC4912C
:102BE000CC2379F081110E940103EC2FF0E0EE0F6D
:102BF000FF1FE65DFE4FA591B491EC91ED2381E0BE
:102C000009F480E020917403309175032F5F3F4FEA
:102C100030937503209374032091720330917303F2
:102C20002536310518F094E090936E0390916E0371
:102C3000911130C0811169C02091740330917503E6
:102C40002436310528F410927503109274035DC088
:102C50001092400410927303109272032091720339
:102C600030917303A9014F5F5F4F509373034093FB
:102C700072034091740350917503220F331FF901C1
:102C8000EA58FC4F518340831092750310927403ED
:102C900091E021C090916E03913001F58130A9F54A
:102CA0002091720330917303A9014F5F5F4F5093DE
:102CB0007303409372034091740350917503220F84
:102CC000331FF901EA58FC4F51834083109275037A
:102CD0001092740392E090936E0317C090916E036C
:102CE000923061F4882309F4B9CF209174033091B4
:102CF00075032536310548F093E0EDCF90916E03D2
:102D0000933099F4882309F49ECF9091710399230D
:102D1000A9F0811126C080917003882371F0809101
:102D2000700361E00E942A0309C090916E03943001
:102D300061F791E090934004DFCF2D9AFF91EF91DE
:102D4000DF91CF91BF91AF919F918F917F916F91C3
:102D50005F914F913F912F910F900FBE0F901F9059
:102D6000189580917003882321F08091700360E0B2
:102D7000D9CF2D98E3CFCF93DF93E5ECF2E0138228
:102D8000128288EE93E0A0E0B0E084839583A6836E
:102D9000B78326E431E03183208325EC30E03587AA
:102DA000248724EC30E03787268720EC30E0318B15
:102DB000208B21EC30E0338B228B22EC30E0358B02
:102DC000248B26EC30E0378B268B118E128E138EDF
:102DD000148EC2E6D3E01B821A828C839D83AE835D
:102DE000BF8388E591E0998388838AE090E00E9420
:102DF000D722909363048093620482E090E00E9463
:102E0000D722909361048093600482EC91E00E9449
:102E1000D72290935F0480935E04EEE6F3E084E0B3
:102E2000818313826FE671E088E594E00E94391097
:102E3000E7E4F4E081E1DF011D928A95E9F7E1E43E
:102E4000F4E080E48083D283C183DF91CF91089541
:102E5000CF93DF93CDB7DEB7EC970FB6F894DEBF14
:102E60000FBECDBF789484B5826084BD84B5816087
:102E700084BD85B5826085BD85B5816085BD809145
:102E80006E00816080936E001092810080918100BD
:102E900082608093810080918100816080938100B5
:102EA000809180008160809380008091B100846077
:102EB0008093B1008091B00081608093B0008091D8
:102EC0007A00846080937A0080917A008260809397
:102ED0007A0080917A00816080937A0080917A00F4
:102EE000806880937A001092C100E091D502F09141
:102EF000D60212E01083E091D102F091D20210824A
:102F0000E091D302F091D40280E180831092DD023F
:102F1000E091D902F091DA0286E08083E091D70255
:102F2000F091D802808180618083E091D702F09196
:102F3000D802808188608083E091D702F091D80226
:102F4000808180688083E091D702F091D8028081EF
:102F50008F7D808385E090E0A0E0B0E08093C9029F
:102F60009093CA02A093CB02B093CC0286E991E081
:102F70000E94AC08109259021092580210927602E8
:102F8000109275020E94480486E991E09093230212
:102F90008093220287E991E090932102809320029E
:102FA00088E18093B800F8941092800089E08093C3
:102FB000810080E293E090938900809388001092D2
:102FC00085001092840010936F00789410926E0325
:102FD000109273031092720380916F0360E00E945D
:102FE000840364E070E088E594E00E94720F61E081
:102FF0008AE00E94840382E791E00E949B080E947D
:10300000A8085FE3E52E52E0F52E00E110E0C801CC
:103010000E94A809D7018D937D010F5F1F4F0032D9
:103020001105A9F7109259021092580210927602D7
:10303000109275020E94480486E991E09093230261
:103040008093220287E991E09093210280932002ED
:1030500040E860E081E494E00E94BF066AE070E02E
:1030600080E090E00E94EE0340E050E06AE774E404
:1030700081E494E00E94D30740E4C42E48E7D42EB4
:103080004DE7E42EFF24F394C0924404D09245040B
:10309000E0924604F092470440E050E060EA73E4B6
:1030A00081E494E00E94D307C0924A04D0924B047A
:1030B000E0924C04F0924D04C0924404D092450436
:1030C000E0924604F09247040E944E0780E00E947E
:1030D000B503BC01990F880B990B6115710581052A
:1030E000910511F00E94F32481E791E00E94AC0861
:1030F00090E080E08C010F5F1F4F8A5E9E4F0E9420
:10310000A809080F111DC8018A5E9E4F0E94A809D8
:103110008E3419F0C8010496EDCF68E071E0C80163
:10312000885E9E4F0E94500F8FEF93E00E945613CF
:1031300060ED77E080E090E00E94EE038BE891E0A4
:103140000E94AC0884E891E00E94AC088DE791E011
:103150000E94AC0885E10E94B5037C018A38924048
:103160000CF09BC08091240290912502E816F9068C
:1031700009F093C08CEA91E00E94C602C70163E6A1
:1031800070E00E947A2A4B01072E000CAA08BB08A7
:1031900077FF2AC06DE285EC92E00E9479026627F3
:1031A0007727CB01681979098A099B094AE00E94AF
:1031B000DA0886E50E94B80881ED93E00E94561374
:1031C000CC24C394DD24D3940FEF10E00D19110922
:1031D00061E08AE00E9484030115110549F460E072
:1031E0008AE00E942A0327C04AE0C501B401DFCF6C
:1031F000E2EAF1E084918330B1F148F48130B9F032
:10320000823061F10038110554F361E0E9CF873075
:10321000A1F18830D1F18430A9F7809180008062DB
:103220008093800010938B0000938A0004C084B5C3
:10323000806884BD07BDFFEFDF1202C0CC24CA94B2
:1032400065E070E080E090E00E94EE03DC0C09F0A5
:10325000BBCFF0922502E09224027CCF84B580623D
:1032600084BD08BDE8CF8091800080688093800095
:103270001093890000938800DECF8091B0008068B1
:103280008093B0000093B300D6CF8091B0008062ED
:103290008093B0000093B400CECFF0922502E0926C
:1032A000240280914F02882309F40BC10E94A424B8
:1032B0002FB7F894C0905C02D0905D02E0905E025F
:1032C000F0905F022FBF00912602109127022091FB
:1032D00028023091290246015701801A910AA20A58
:1032E000B30A95018401093E13402105310508F414
:1032F000E8C02AE030E040E050E00E94CD264FB721
:10330000F894C0905C02D0905D02E0905E02F09074
:103310005F024FBFC0922602D0922702E09228029D
:10332000F0922902653071050CF0CBC06330710555
:103330000CF03FC189E48AA78DE48BA789E0E0E324
:10334000F1E0DE01919601900D928A95E1F74AE055
:1033500069E070E080E090E00E94DA080E94A8082E
:1033600089E0E9E3F1E0DE01119601900D928A9582
:10337000E1F70E94A42422E030E040E050E00E9407
:10338000CD266C0F7D1FDB019A968C9180935302A2
:103390000E94482464E070E00E947A2A0496909388
:1033A0003E0280933D02612C80913D0290913E024D
:1033B000462C512C481659060CF072C00E94482425
:1033C00069E070E00E94662A7C01440C551CE1E231
:1033D000F0E0EC0FFD1FE80FF91F0081E0915E04A3
:1033E000F0915F04E40DF51D0083000F110BF8014F
:1033F000EE5FFE4F5F01808091800E944824E1E0F3
:10340000F0E0EC0FFD1FEE0DFF1D7080E72CF12C9E
:103410007694C72CD12CB7010E947A2A880E991E67
:103420008C189D08F1E88F16FFEF9F06F4F40E5FED
:103430001E4FD801AD90BC900E944824B7010E9455
:103440007A2AA80EB91EAC18BD0880E8B1E8AB1600
:10345000BFEFBB06DCF0D8011C910E94482417196D
:10346000B7010E947A2A810F11C0F501A080B180B6
:103470000E944824B7010E947A2AA80EB91EAC18EF
:10348000BD088FE7FFE7AF16B1048CF220915E0410
:1034900030915F04420E531EF2018183639484CF06
:1034A000880F991F90933E0280933D0220915E0405
:1034B00030915F04820F931FDC011C9285E08093A2
:1034C000520286E793E0909338028093370280910E
:1034D00072039091730390933A0280933902809122
:1034E000400490E090933C0280933B0280916E03F5
:1034F000833009F0B5C080917803909179038758A3
:1035000091098E35910508F0A5C0809172039091C4
:103510007303049709F06DC080917A0390917B0347
:103520008097479708F065C080917C0390917D0358
:103530000997099708F05DC0109236021092350283
:1035400088248A94982C540180922F029092300201
:10355000A0923102B092320283E090E090932C026C
:1035600080932B0280912F0290913002A091310222
:10357000B0913202892F9A2FAB2FBB27823609F4E4
:10358000E3C108F0B7C1803309F4EDC108F09CC174
:10359000803109F4F1C108F045C166EF71E0823075
:1035A00009F448C165E971E0CE0181960E943910A5
:1035B00045C1FB01EE0FFF1FE954FE4F6591749169
:1035C00080915E0490915F040E941A2580915E04B0
:1035D00090915F04BC01FB012191BF012093530234
:1035E0002B3621F480916204909163040E947A2B1F
:1035F00065CF80917203909173038434910550F1EB
:1036000080917A0390917B03815491098F9710F5F3
:1036100090E080E040E050E0BA01FC01E458FC4F4B
:1036200020813181295031092930310598F4FC017C
:10363000E258FC4F20813181275131092231310577
:1036400008F4D2C02081318126503109273031055C
:1036500008F4E3C010926E03109273031092720389
:1036600085EC92E00E943702181619068CF582E06C
:103670008093520285EC92E00E94D501182F80932E
:10368000530261E070E080E090E00E94EE031B34A2
:1036900009F00BC2E0905E04F0905F0410E000E0DF
:1036A00085EC92E00E943702892B51F085EC92E084
:1036B0000E94D501F701E00FF11F80830F5F1F4FBC
:1036C000F8013197EE0DFF1D80818E3749F710828A
:1036D00060915202662309F49FC2F0905302653054
:1036E00010F5B2E6FB16F9F0ECE4FE16E1F0F9E4B1
:1036F000FF16C9F08CE88F0D8230A8F070E06B5F88
:103700007F4F660F771F072E000C880B990B0E94C6
:103710009A25EE24E39410E000E020E030E048E455
:1037200052E40E94E010809151028356823038F4B6
:1037300053E6852EF81419F087E40E94B8088091AA
:103740005302803751F080915002811106C081E010
:103750008093500280E70E94B808F0905302EEEB8D
:10376000EF0DE93308F0FCC10E2E000CFF0BE55401
:10377000F44E0C948E2A1121B01DB01DB01DB01D49
:10378000B01DB01DC420B01D5D210421C420B01D9A
:10379000B01DB01DB01DB01DB01D4D21B01DB01D20
:1037A000B01DB01DB01DB01DB01DB01DB01DB01DB1
:1037B000B01DB01D151F2B1F2B1FE821B01DB01D04
:1037C000B01DB01D2B1F811ED221B01D2B1FB01D9F
:1037D000B71E6E1EB01DB01DBC1E2B1F2B1FB01DB3
:1037E000B01DB01DB01DA41D440F551F661F771FCF
:1037F000416004968038910509F00FCF80E290E097
:10380000909336028093350240932F0250933002FA
:1038100060933102709332029FCE440F551F661F92
:10382000771FE7CF883109F4A1C06EEF71E08232D3
:1038300009F0B8CECE0181960E947A106EE771E051
:10384000CE0181960E944009882309F4A1C060E856
:1038500071E088E594E00E94031068E574E0CE0111
:103860008A960E94E70FCE0181960E94670965E95A
:1038700071E0CE018A960E94400981111AC0009120
:103880006204109163046AA57BA5C8010E947A2B8B
:10389000D8010D900020E9F7CD010297801791071C
:1038A00009F001C1F80180818093530281E0809387
:1038B000520210926E031092730310927203CE01A3
:1038C0008A960E946709CCCE8A3409F45BC048F41A
:1038D000883309F454C06AEC71E0823409F4AACF49
:1038E00061CE823509F451C060ED71E08A3509F48A
:1038F000A1CF58CE823A29F188F48A37D1F130F439
:103900006BEE71E0883609F495CF4CCE803941F1E9
:1039100068EE71E0883909F48DCF44CE823CB9F06D
:1039200040F4883AD1F065EE71E0803B09F482CF33
:1039300039CE803E79F060E072E0823E09F47ACFC1
:1039400031CE64E072E076CF62E072E073CF64EF74
:1039500071E070CF62EF71E06DCF60EF71E06ACF20
:103960006EEE71E067CF62EE71E064CF6EED71E0F4
:1039700061CF6AED71E05ECF67ED71E05BCF64ED22
:1039800071E058CF63EC71E055CF61EC71E052CF3C
:1039900063E871E0CE0181960E944009811110C058
:1039A00065E871E0CE0181960E944009811108C04E
:1039B00067E871E0CE0181960E9440098823D1F129
:1039C0008DA19EA1892B21F0E9A1FAA1309721F4C4
:1039D00010922A02EAE2F2E01081109301011634FB
:1039E00031F46FE671E088E594E00E94031068E529
:1039F00074E0CE0101960E94E70F1AA71BA641E0D2
:103A000050E0BE01665D7F4FCE0101960E949A0F85
:103A1000811104C0CE0101960E945509BE016F5F5D
:103A20007F4FCE018A960E94E70FCE0101960E9439
:103A3000670919CF69E871E0CE0181960E944009BB
:103A400081111EC06CE871E0CE0181960E94400990
:103A5000811116C06FE671E0CE0181960E94400987
:103A600081110EC01BA61AA61DA61CA61FA61EA667
:103A7000BE016F5D7F4FCE018A960E946F09F3CE23
:103A800069A17AA16115710549F04DA15EA188E592
:103A900094E00E94C60F10910101A9CF88E594E03F
:103AA0000E945509F8CF8BE6FFCE85EC92E00E948C
:103AB0003702181619060CF06EC565E971E0CE01E3
:103AC00081960E943910193439F084EB810F8230CD
:103AD00018F06AE0123409F46EE7CE0101960E94F4
:103AE0004A10BE016F5F7F4FCE0181960E946F0921
:103AF000CE0101960E9467092DA13EA130933E029E
:103B000020933D021B3631F080915E0490915F045A
:103B1000143721F4809162049091630449A15AA161
:103B2000DC01FA01BF01641B750B621773071CF4FB
:103B300061916D93F7CF820F931FDC011C92CE0130
:103B400081960E946709C4CD80914F0291E0892738
:103B500080934F02882311F04AE5F42EF09253022D
:103B6000809153028B3621F4909164021916E4F48B
:103B70000E94B80810915302812F012E000C990B5E
:103B80000E94602B873631F0863721F0823611F0A3
:103B90001A3621F4809151028B3619F01B7F1037B1
:103BA00019F48BE680935302009162041091630430
:103BB0006BE971E0C8010E94712BF0905302892BD0
:103BC00009F1E9E4FE16F1F085EB8F0D8330D0F0BA
:103BD0008091600490916104009711F00E9473231A
:103BE00081E090E00E94D722F80101900020E9F7DF
:103BF000E01BDC01EC939093610480936004B801B6
:103C00000E947A2B10925202F09251028F2D877FE0
:103C1000833611F010925302809153028B3609F0D3
:103C20006AC41091640217FFE5C3D0907102DA9460
:103C300010E082E3C82E212F30E080916402082E2C
:103C4000000C990B97FF03C0919581959109281756
:103C500039070CF050C4E0907302F0907402809128
:103C60006902189FE00CF11C1124F7016089062EEF
:103C7000000C770B880B990B0E949A2520E030E00E
:103C800040E85EE30E94F9259B01AC0100E06091F1
:103C90006E02C7010E94910C80916902E09173024B
:103CA000F0917402189FE00DF11D11242189022E5C
:103CB000000C330BAC2D0C2C000CBB0B0E94942A77
:103CC0000E94EE0380917002181306C01D1424F4A4
:103CD00010916F021150DA941F5FADCF80915002A6
:103CE00091E0811190E090935002882311F030E52B
:103CF000F32EF0925302882309F432CF0E944E072C
:103D00002FCF0E941E0965E971E0CE0181960E94C5
:103D1000391002E011E022E2E22E21E0F22ED80179
:103D20006D917D918D01CE0101960E940D104D8106
:103D30005E8169817A81CE0181960E949A0FCE01BF
:103D400001960E94670942E050E063E971E0CE010C
:103D500081960E949A0FE016F10609F7CE0181962E
:103D60000E94C708CE0181960E946709F9CE86ECB1
:103D700093E00E945613F4CE88E392E00E94AC08D0
:103D80008FE3882E82E0982E90E4E92EF12C00E15A
:103D900010E0F401D1904F01C8010E94B726D81657
:103DA00021F06D2DC8010E94BF26C7010E943B0A69
:103DB0006C01C80180960E94A809B82EF4013197C1
:103DC0006081062E000C770B880B990B0E949A25B8
:103DD0002B013C016B2DBB0C770B880B990B0E94C0
:103DE0009A259B01AC01C301B2010E94F9252B0168
:103DF0003C01B601DD0C880B990B0E949A259B01B2
:103E0000AC01C301B2010E9468270E944B28C70180
:103E100080960E94500F0F5F1F4FF2E0EF0EF11CD3
:103E20000032110509F0B5CF9BCE80E392E00E94ED
:103E3000AC080FE3E02E02E0F02E00E110E0C80134
:103E40000E94A809D7018D937D010F5F1F4F00329B
:103E50001105A9F785CEE2E0F1E0DE01119682E2DC
:103E600091E01D01219131912D933D938E179F0774
:103E7000C9F7B4E78091620490916304FB1621F0C6
:103E800080915E0490915F046FE871E00E942A25A2
:103E90003C011AE0412E512C6114710409F4CAC08E
:103EA000C3010E94FC248C0162E971E090E080E093
:103EB0000E942A253C01F12CE12CBB24B3940097ED
:103EC00061F00E94FC247C0162E971E090E080E0F6
:103ED0000E942A253C01B2E0BB2EF801EE0FFF1F25
:103EE000E20DF31DF182E08280915302833609F0E6
:103EF000A7C010924F0280915102833661F0C090AA
:103F00006204D090630469E671E0C6010E947A2BD6
:103F1000C6010E941C0EF801E15CFD4F6F01F2E04A
:103F2000BF1202C0D601EC92C8018096880F991F7B
:103F30000E943B0A7C01C8019927C0960E94A809EB
:103F4000182FF6016081062E000C770B880B990B59
:103F50000E949A254B015C01612F110F770B880B92
:103F6000990B0E949A259B01AC01C501B4010E94E6
:103F7000F9254B015C01B701FF0C880B990B0E94DE
:103F80009A259B01AC01C501B4010E9468270E94DB
:103F90004B28072E000C880B990B0E949A25AB0129
:103FA000BC01802F0E944F0A0E941E0965E971E042
:103FB000CE018A960E9439100FE312E0D8016D916C
:103FC0008D01062E000C770BCE0181960E940D10FC
:103FD0004DA15EA169A17AA1CE018A960E949A0F95
:103FE000CE0181960E94670942E050E063E971E0EA
:103FF000CE018A960E949A0FEFE4F2E0E017F107F3
:10400000E9F6CE018A960E94C708CE018A960E94E0
:1040100067096114710409F03FCF8091530289361A
:1040200009F09ECD40E050E060E070E4C1010E94E4
:10403000460B96CDF12CE12C10E000E0B12C4DCFD9
:104040008D3641F440E050E060E070E4C1010E9430
:10405000460BDFCF8437E9F2853709F07BC00E9439
:104060004824B2010E947A2A845289AB0E944824D3
:10407000B2010E947A2A8E5288AB0E9448248C0199
:104080000E94482462E070E00E947A2A8F5F8AAB27
:10409000C80164E070E00E947A2A0296282F220F5D
:1040A000220F280F30E0A8EEB3E00E9458276BAB38
:1040B0007CAB8DAB9EABB12C98A8892C912C9CAE7F
:1040C0008BAEAAA8BA1408F0A4CFA8A8912C812C72
:1040D00049A9A41608F03CC0CBACDCACC80CD91C78
:1040E0008601000F111F000F111F05501109CC0C84
:1040F000DD1CC601B0E0A0E08FAB98AFA9AFBAAFAE
:10410000C12CD12C76018BA99CA9ADA9BEA9C8163A
:10411000D906EA06FB06BCF461E085E00E942A03AA
:10412000C8010197F1F760E085E00E942A03C80109
:104130000197F1F78FA998ADA9ADBAADC80ED91EF8
:10414000EA1EFB1EE0CFA3949FEF891A990AC0CF05
:10415000B394B7CF823609F05CCFB701FF0C880B60
:10416000990B0E949A254B015C01B801110F880B35
:10417000990B0E949A25EE24E39402E310E0A50136
:1041800094010E94E01045CFE2E0F1E0DE011196DB
:1041900082E291E07D01219131912D933D938E1723
:1041A0009F07C9F710E000E02091530280913D0283
:1041B00090913E0208171907F4F4A0915E04B091A3
:1041C0005F04A00FB11FEC91EE0FFF0BEE0DFF1D72
:1041D00011968C91082E000C990B918380832D34BD
:1041E00039F440E050E060E070E4C7010E94460B03
:1041F0000E5F1F4FD9CF293409F0B2CC40E050E018
:1042000060E070E4C70113CF00E020E030E040E060
:1042100050E461E080915E0490915F040E94910CF3
:104220009FCCF12C2F2D30E080913D0290913E02E9
:1042300097FD019695958795281739070CF0B0C121
:1042400000915E0410915F04220F331F020F131FB1
:10425000D80111966C91062E000C770B88EE93E036
:104260000E947A2A072E000C880B990B0E949A252F
:104270004B015C01F8016081062E000C770B880B66
:10428000990B0E949A25EE24E39410E000E0A5012A
:1042900094010E94E010F394C5CF84E191E00E9464
:1042A0003B0A0E945A070E94F90D809153020E9416
:1042B000B8088BE68093530253CC60905E047090F4
:1042C0005F0484E191E00E943B0A8C01D3016C9170
:1042D0006093640289E692E00E94EF0601967C01F9
:1042E000D12CC12C5524539424E5422E1E141F04B6
:1042F0009CF55092780240927702109276021092CA
:104300007502612F70E082E693E00E940C07B8010D
:10431000772782E693E00E940C075301AC0CBD1C8A
:104320004801B0E18B0E911C0115E0E21E07B9F4C3
:104330000E94A80886E092E00E94AC0892E0E92E74
:1043400002E310E020E030E048EC52E460E070E08E
:1043500080E291E40E94E0100E94F90DAACFFFEFE5
:10436000CF1ADF0AD5016D915D0182E693E00E94CC
:10437000A6050F5F1F4FB1E0EB1AF10841F0C8012D
:104380008F719927892B19F08016910669F682E6BC
:1043900093E00E94D50566E070E080E090E00E9426
:1043A000EE03A4CF0091620410916304B8018091E0
:1043B0006004909161040E94712B892B29F48091F3
:1043C000640282300CF0EAC0C8010E941C0EC8CB07
:1043D000009162041091630466E971E0C8010E94D3
:1043E0007A2BC8010E941C0E0E944E0787E60E948D
:1043F000B808B6CB80916002803108F4A8C0209143
:104400005A0230915B021092600280915002820F3A
:10441000932F911D212F012E000C330B8217930730
:104420000CF091C090935B0280935A02009160025D
:1044300020917202C0905A02D0905B02E02EF12CC3
:10444000021708F08DC012300CF48AC0812C912C18
:104450005401013059F060916302062E000C770B75
:10446000880B990B0E949A254B015C01F2E0EF0E3C
:10447000F11CEC9CB001ED9C700DFC9C700D1124A6
:10448000072E000C880B990B0E949A252BED3FE01C
:1044900049E450E40E94F9256B017C01612F110F62
:1044A000770B880B990B0E949A259B01AC01C701E1
:1044B000B6010E94D9270E94152920E030E040E291
:1044C00051E40E94F925A50194010E9468272091DA
:1044D00054023091550240915602509157020E9469
:1044E0006827AB01BC01802F0E94A00A8091600266
:1044F0008F5F809360028091640287FF14C00091F7
:104500006204109163046EE971E0C8010E947A2B85
:10451000F8018081882319F0C8010E941C0E809147
:1045200053020E94B80880E090E0892B11F40C94AB
:10453000AA180E944302882311F40C94AA180E941E
:1045400000000C94AA1810925B0210925A028091FB
:104550006002843009F06ACF88E08093600266CF01
:10456000309169023C9DC0013D9D900D1124E80EE3
:10457000F91EE21AF1088091730290917402E80E1C
:10458000F91ED7016C91062E000C770B880B990B46
:104590000E949A259CCF609152029FC88F2DE4CA39
:1045A00080915302E5CA88E594E00C9467090F9363
:1045B0001F93CF93DF938230910510F482E090E057
:1045C000E0916804F091690430E020E0B0E0A0E000
:1045D000309799F42115310509F44AC0281B390B8D
:1045E00024303105D8F58A819B816115710589F1E7
:1045F000FB0193838283FE0111C0408151810281BE
:10460000138148175907E0F04817590799F4109794
:1046100061F012960C93129713961C933296CF0169
:10462000DF91CF911F910F9108950093680410932B
:104630006904F4CF2115310551F04217530738F0C2
:10464000A901DB019A01BD01DF01F801C1CFEF0132
:10465000F9CF9093690480936804CDCFFE01E20FF7
:10466000F31F819391932250310939832883D7CF47
:104670002091660430916704232B41F4209124019A
:104680003091250130936704209366042091220124
:10469000309123012115310541F42DB73EB74091EA
:1046A000260150912701241B350BE0916604F091FF
:1046B0006704E217F307A0F42E1B3F0B28173907F6
:1046C00078F0AC014E5F5F4F2417350748F04E0F6E
:1046D0005F1F5093670440936604819391939FCF2B
:1046E000F0E0E0E09CCFCF93DF930097E9F0FC018E
:1046F000329713821282A0916804B0916904ED018F
:1047000030E020E01097A1F420813181820F931FC7
:1047100020916604309167042817390709F061C0B9
:10472000F0936704E0936604DF91CF910895EA0166
:10473000CE17DF07E8F54A815B819E0141155105DF
:10474000B1F7E901FB83EA8349915991C40FD51F61
:10475000EC17FD0761F4808191810296840F951F0B
:10476000E90199838883828193819B838A83F0E026
:10477000E0E012968D919C9113970097B9F52D91D9
:104780003C911197CD010296820F931F20916604F0
:10479000309167042817390739F6309751F5109290
:1047A000690410926804B0936704A0936604BCCFB8
:1047B000D383C28340815181840F951FC817D907C5
:1047C00061F44E5F5F4F88819981480F591F518373
:1047D00040838A819B81938382832115310509F06F
:1047E000B0CFF0936904E09368049ECFFD01DC0133
:1047F000C0CF13821282D7CF8F929F92AF92BF9277
:10480000CF92DF92EF92FF92CF93DF93EC0168811A
:1048100079818A819B81611571058105910521F45A
:1048200064E279ED8BE597E02DE133EF41E050E074
:104830000E94CD2649015A019B01AC01A7EAB1E4CF
:104840000E94EC266B017C01ACEEB4EFA501940153
:104850000E94FA26DC01CB018C0D9D1DAE1DBF1DF3
:10486000B7FF03C00197A109B04888839983AA8341
:10487000BB839F77DF91CF91FF90EF90DF90CF9038
:10488000BF90AF909F908F9008950E94FC23089551
:1048900088E291E00E94FC230895B0E0A0E08093BC
:1048A000280190932901A0932A01B0932B01089528
:1048B0008F929F92AF92BF92CF92DF92EF92FF9230
:1048C000CF93DF93EC01688179818A819B816115A7
:1048D00071058105910521F464E279ED8BE597E09E
:1048E0002DE133EF41E050E00E94CD2649015A010D
:1048F0009B01AC01A7EAB1E40E94EC266B017C01AC
:10490000ACEEB4EFA50194010E94FA26C60ED71EA4
:10491000E81EF91EF7FE06C081E0C81AD108E108BA
:1049200080E8F80AC882D982EA82FB82C701B60110
:104930009F77DF91CF91FF90EF90DF90CF90BF9066
:10494000AF909F908F9008958F929F92AF92BF9259
:10495000CF92DF92EF92FF9260912C0170912D0126
:1049600080912E0190912F016115710581059105AE
:1049700021F464E279ED8BE597E02DE133EF41E03E
:1049800050E00E94CD2649015A019B01AC01A7EAE3
:10499000B1E40E94EC266B017C01ACEEB4EFA50102
:1049A00094010E94FA26C60ED71EE81EF91EF7FED5
:1049B00006C081E0C81AD108E10880E8F80AC09270
:1049C0002C01D0922D01E0922E01F0922F01C7010F
:1049D000B6019F77FF90EF90DF90CF90BF90AF90A0
:1049E0009F908F90089560932C0170932D01809378
:1049F0002E0190932F010895FC0188279927E894B0
:104A000021912032E9F3293010F02E30C8F32B32F7
:104A100041F02D3239F4689404C00E946125820F60
:104A2000911D219120532A30C0F31EF49095819559
:104A30009F4F0895FB01DC0105900D920020E1F7E6
:104A40000895FC0105900020E9F7809590958E0F60
:104A50009F1F089544E654E00E942F250895FA010F
:104A6000A191B081009719F41097E1F0CD01DC011C
:104A7000CD010D90002011F4C00113C0FB01219164
:104A8000222319F02015D9F7F3CFFB01219120152E
:104A900019F41E92119606C02223C1F70D90002032
:104AA000A1F7D001FA01A193B0830895BB274A3042
:104AB00031F4992322F4BDE2909581959F4F0C9497
:104AC0006A257AE0979F902D879F802D910D112464
:104AD0000895BB27FB015527AA27880F991FAA1FF6
:104AE000A41710F0A41B83955051B9F7A05DAA3309
:104AF00008F0A95DA193009779F7B111B1931192D4
:104B0000CB010C948325DC01FC01672F7191772385
:104B1000E1F7329704C07C916D9370836291AE1778
:104B2000BF07C8F308950E94D52508F481E00895D1
:104B3000E89409C097FB3EF4909580957095619537
:104B40007F4F8F4F9F4F9923A9F0F92F96E9BB27ED
:104B50009395F695879577956795B795F111F8CF69
:104B6000FAF4BB0F11F460FF1BC06F5F7F4F8F4FD4
:104B70009F4F16C0882311F096E911C0772321F0CA
:104B80009EE8872F762F05C0662371F096E8862F62
:104B900070E060E02AF09A95660F771F881FDAF7B9
:104BA000880F9695879597F90895990F0008550FE6
:104BB000AA0BE0E8FEEF16161706E807F907C0F0A3
:104BC00012161306E407F50798F0621B730B840BAB
:104BD000950B39F40A2661F0232B242B252B21F485
:104BE00008950A2609F4A140A6958FEF811D811D25
:104BF00008950E940C260C947D260E946F2638F0A2
:104C00000E94762620F0952311F00C9466260C94D1
:104C10006C2611240C94B1260E948E2670F3959F69
:104C2000C1F3950F50E0551F629FF001729FBB27A3
:104C3000F00DB11D639FAA27F00DB11DAA1F649F3F
:104C40006627B00DA11D661F829F2227B00DA11DF2
:104C5000621F739FB00DA11D621F839FA00D611D78
:104C6000221F749F3327A00D611D231F849F600D99
:104C7000211D822F762F6A2F11249F5750409AF0C2
:104C8000F1F088234AF0EE0FFF1FBB1F661F771F4E
:104C9000881F91505040A9F79E3F510580F00C9419
:104CA00066260C94B1265F3FE4F3983ED4F38695D4
:104CB00077956795B795F795E7959F5FC1F7FE2BB9
:104CC000880F911D9695879597F9089597F99F6795
:104CD00080E870E060E008959FEF80EC0895002484
:104CE0000A941616170618060906089500240A9451
:104CF00012161306140605060895092E0394000CD7
:104D000011F4882352F0BB0F40F4BF2B11F460FF65
:104D100004C06F5F7F4F8F4F9F4F089557FD90588E
:104D2000440F551F59F05F3F71F04795880F97FB6F
:104D3000991F61F09F3F79F0879508951216130629
:104D40001406551FF2CF4695F1DF08C01616170658
:104D50001806991FF1CF869571056105089408958D
:104D6000E894BB2766277727CB0197F90895F9992F
:104D7000FECF92BD81BDF89A992780B50895262F60
:104D8000F999FECF1FBA92BD81BD20BD0FB6F89430
:104D9000FA9AF99A0FBE01960895052E97FB1EF414
:104DA00000940E94E42657FD07D00E94362707FC96
:104DB00003D04EF40C94E4265095409530952195FF
:104DC0003F4F4F4F5F4F0895909580957095619537
:104DD0007F4F8F4F9F4F08950E945827A59F900D9A
:104DE000B49F900DA49F800D911D11240895B7FFCD
:104DF0000C94EC260E94EC26821B930B08952F92B4
:104E00003F924F925F926F927F928F929F92AF925A
:104E1000BF92CF92DF92EF92FF920F931F93CF93A7
:104E2000DF93CDB7DEB7CA1BDB0B0FB6F894DEBF3E
:104E30000FBECDBF09942A88398848885F846E8464
:104E40007D848C849B84AA84B984C884DF80EE80AE
:104E5000FD800C811B81AA81B981CE0FD11D0FB6B7
:104E6000F894DEBF0FBECDBFED010895A1E21A2E6A
:104E7000AA1BBB1BFD010DC0AA1FBB1FEE1FFF1FFE
:104E8000A217B307E407F50720F0A21BB30BE40B4E
:104E9000F50B661F771F881F991F1A9469F7609595
:104EA0007095809590959B01AC01BD01CF0108954F
:104EB000A29FB001B39FC001A39F700D811D11245B
:104EC000911DB29F700D811D1124911D08955058A0
:104ED000BB27AA270E947F270C947D260E946F265D
:104EE00038F00E94762620F039F49F3F19F426F41A
:104EF0000C946C260EF4E095E7FB0C946626E92FE3
:104F00000E948E2658F3BA17620773078407950725
:104F100020F079F4A6F50C94B0260EF4E0950B2E53
:104F2000BA2FA02D0B01B90190010C01CA01A001FB
:104F30001124FF27591B99F0593F50F4503E68F156
:104F40001A16F040A22F232F342F4427585FF3CF97
:104F5000469537952795A795F0405395C9F77EF468
:104F60001F16BA0B620B730B840BBAF09150A1F0B1
:104F7000FF0FBB1F661F771F881FC2F70EC0BA0F37
:104F8000621F731F841F48F4879577956795B795BF
:104F9000F7959E3F08F0B0CF9395880F08F09927BA
:104FA000EE0F9795879508950E948328E3950C94BA
:104FB000AC280E94ED270C947D260E94762658F09E
:104FC0000E946F2640F029F45F3F29F00C9466267A
:104FD00051110C94B1260C946C260E948E2668F315
:104FE0009923B1F3552391F3951B550BBB27AA27A2
:104FF00062177307840738F09F5F5F4F220F331FDC
:10500000441FAA1FA9F335D00E2E3AF0E0E832D0A3
:1050100091505040E695001CCAF72BD0FE2F29D0A6
:10502000660F771F881FBB1F261737074807AB0778
:10503000B0E809F0BB0B802DBF01FF2793585F4FED
:105040003AF09E3F510578F00C9466260C94B126F8
:105050005F3FE4F3983ED4F3869577956795B795CF
:10506000F7959F5FC9F7880F911D9695879597F9DA
:105070000895E1E0660F771F881FBB1F6217730753
:105080008407BA0720F0621B730B840BBA0BEE1F68
:1050900088F7E09508950E9452286894B1110C9405
:1050A000B12608950E94962688F09F5798F0B92F50
:1050B0009927B751B0F0E1F0660F771F881F991F4D
:1050C0001AF0BA95C9F714C0B13091F00E94B02619
:1050D000B1E008950C94B026672F782F8827B85F29
:1050E00039F0B93FCCF3869577956795B395D9F7A5
:1050F0003EF490958095709561957F4F8F4F9F4FAF
:1051000008950C946C260E949626D8F3E894E0E06B
:10511000BB279F57F0F02AED3FE049EC06C0EE0FA9
:10512000BB0F661F771F881F28F0B23A620773070C
:10513000840728F0B25A620B730B840BE3959A959F
:1051400072F7803830F49A95BB0F661F771F881F5F
:10515000D2F790480C945929EF93E0FF07C0A2EAD8
:105160002AED3FE049EC5FEB0E947F270E947D26FD
:105170000F90039401FC9058E8E6F0E00C948C2921
:105180000E94D52508F48FEF0895FA01EE0FFF1F56
:10519000309621053105A1F16115710561F4803862
:1051A000BFE39B0749F168949038810561F080382E
:1051B000BFEF9B0741F099234AF5FF3FE105310519
:1051C000210519F1E8940894E795D901AA2329F457
:1051D000AB2FBE2FF85FD0F310C0FF5F70F4A69521
:1051E000E0F7F73950F019F0FF3A38F49F779F93C2
:1051F0000DD00F9007FC9058089546F00C946C2643
:1052000060E070E080E89FE308954FE79F775F9349
:105210004F933F932F930E94EA292F913F914F91F3
:105220005F910E94F9250C9425299F930E94832861
:105230000F9007FCEE5F0C94AC2829F416F00C9448
:1052400066260C94B0260C946C260E949626A8F331
:105250009638A0F707F80F92E8942BE33AEA48EB68
:105260005FE70E940F260F920F920F924DB75EB725
:105270000F920E94322AE6E8F0E00E9465294F91E1
:105280005F91EF91FF91E595EE1FFF1F49F0FE57EB
:10529000E0684427EE0F441FFA95E1F74195550B5E
:1052A0000E94AC290F9007FE0C94A02908959F3FFF
:1052B00031F0915020F4879577956795B795880FD1
:1052C000911D9695879597F90895DF93CF931F9336
:1052D0000F93FF92EF92DF927B018C01689406C0DE
:1052E000DA2EEF010E940C26FE01E894A59125918B
:1052F000359145915591A6F3EF010E947F27FE015C
:105300009701A801DA9469F7DF90EF90FF900F9171
:105310001F91CF91DF9108959F938F937F936F9308
:10532000FF93EF939B01AC010E94F925EF91FF9150
:105330000E9465292F913F914F915F910C94F9251F
:105340009B01AC0160E070E080E89FE30C94D927FA
:105350000C9466260C9457290E949626D8F399231C
:10536000C9F3940F511DA3F39150504094F059F09C
:10537000882332F0660F771F881F91505040C1F785
:105380009E3F51052CF7880F911D9695879597F9AB
:1053900008955F3FACF0983E9CF0BB2786957795CB
:1053A0006795B79508F4B1609395C1F7BB0F58F7AF
:1053B00011F460FFE8CF6F5F7F4F8F4F9F4FE3CFB8
:1053C0000C94B12616F00C9457290C946C26689412
:1053D0000C9466260E949626A8F39923C1F3AEF397
:1053E000DF93CF931F930F93FF92C92FDD2788235D
:1053F0002AF02197660F771F881FDAF720E030E048
:1054000040E85FEB9FE3883920F0803E38F021963A
:105410008F770E946827EEEAF0E004C00E946827B8
:10542000EBEDF0E00E9465298B01BE01EC01FB2E43
:105430006F5771097595771F880B990B0E949A25F4
:1054400028E132E741E35FE30E940C26AF2D98018B
:10545000AE01FF900F911F91CF91DF910E947F27A6
:105460000C947D26FA01DC01AA0FBB1F9B01AC0145
:10547000BF5728F4222733274427507820C0B7513C
:1054800090F4AB2F0024469537952795011CA395E2
:10549000D2F3002071F0220F331F441FB395DAF3CB
:1054A0000ED00C94672761307105A0E88A07B946D1
:1054B00030F49B01AC0166277727882790783096D7
:1054C00021F020833183428353830895AA1BBB1BA1
:1054D00051E107C0AA1FBB1FA617B70710F0A61BF4
:1054E000B70B881F991F5A95A9F780959095BC0115
:1054F000CD01089597FB072E16F4009407D077FD91
:1055000009D00E94662A07FC05D03EF4909581954B
:105510009F4F0895709561957F4F0895EE0FFF1F7F
:105520000590F491E02D09940E945827332312F43A
:105530008A1B9B0B0C949E2A0E945827B7FF089544
:10554000821B930B0895B0E0A0E0E9EAFAE20C9424
:1055500001278C01009751F4CB010E94D7228C01C6
:10556000C801CDB7DEB7E0E10C941D27FC01E60FC2
:10557000F71F9C0122503109E217F30708F49DC080
:10558000D901CD91DC911197C617D70798F0C53096
:10559000D10530F3CE0104978617970708F3C61B91
:1055A000D70B2297C193D1936D937C93CF010E9427
:1055B0007323D6CF5B01AC1ABD0A4C018C0E9D1E25
:1055C000A0916804B0916904512C412CF12CE12C7C
:1055D000109731F5809166049091670488159905BC
:1055E00009F05CC04616570608F058C080912201A9
:1055F00090912301009741F48DB79EB74091260109
:1056000050912701841B950BE817F90708F055C046
:10561000F0936704E0936604F90171836083A0CF7F
:105620008D919C91119712966C90129713967C9085
:105630001397A815B90559F56C0142E0C40ED11CA9
:10564000CA14DB0420F1AC014A195B09DA01129695
:10565000159780F06282738251834083D9016D93E4
:105660007C93E114F10471F0D7011396FC93EE934F
:10567000129776CF22968C0F9D1FF901918380831C
:10568000F301EFCFF0936904E093680469CF481603
:10569000590608F42C017D01D3019ACFCB010E9459
:1056A000D7227C01009749F0AE01B8010E94682B17
:1056B000C8010E947323870153CF10E000E050CF50
:1056C0009111089581548A5108F4805E855A089595
:1056D000FB01DC0102C001900D9241505040D8F70F
:1056E0000895FB01DC018D91019080190110D9F31F
:1056F000990B0895FB01DC0101900D920020E1F768
:105700000895FB01DC014150504030F08D91019033
:10571000801919F40020B9F7881B990B089511E03E
:10572000C1E2D1E004C0FE010E948E2A2196C2325D
:08573000D107C9F7F894FFCF7F
:10573800FF46E2FFB0FFD3FF0000000000000000BA
:1057480000004B004B00B5FFB5FFC9FFC9FF37008C
:10575800370000006A04800001000000010000001A
:1057680000010208090C0D0E0F5A5AB405050A0A61
:1057780005050000000079029901C601E10237021F
:10578800D501290200000000A6057905BC065605CA
:105798008F01660557050D0A0063616C6962007424
:1057A8007200496E697420736572766F73004200E7
:1057B800626B0046004C005200637200776B002059
:1057C8002C00202C090072657374007263006261FA
:0657D8006C616E636500C8
:00000001FF
