:100000000C9418010C9440010C9440010C94400194
:100010000C9440010C9440010C9440010C941D156B
:100020000C9440010C9440010C9440010C943A173C
:100030000C9440010C9440010C9440010C9440013C
:100040000C94D1150C9440010C949F150C947915C7
:100050000C9440010C9440010C9440010C9440011C
:100060000C941B160C94400105A84CCDB2D44EB98B
:100070003836A9020C50B9918688083CA6AAAA2A4B
:10008000BE000000803F07634236B79BD8A71A39ED
:10009000685618AEBAAB558C1D3CB7CC5763BD6DD6
:1000A000EDFD753EF6177231BF000000803F08007D
:1000B0000000BE922449123EABAAAA2ABECDCCCCE7
:1000C0004C3E00000080BEABAAAAAA3E0000000081
:1000D000BF000000803F0000000000084178D3BB53
:1000E0004387D1133D190E3CC3BD4282AD2B3E6800
:1000F000EC8276BED98FE1A93E4C80EFFFBE01C4F1
:10010000FF7F3F0000000000010000010000000030
:1001100000000000000000000000000000000000DF
:10012000240027002A00000000080002010000034C
:1001300004070000000000000000024C6F61642012
:10014000736B696C6C7300526561647921004E7940
:1001500062626C65000A2A205374617274202A005E
:100160003E004C6F7720706F7765723A0000000098
:10017000002300260029007A65726F00627574748E
:100180005570007374616E64007065650070750071
:100190006869007374720073697400747200776B1D
:1001A00000637200767400630042007000520062C7
:1001B000616C616E6365004C006700460064004935
:1001C000324320454550524F4D206F766572666C24
:1001D0006F77212044656C65746520736F6D6520B1
:1001E000736B696C6C73210A0061626F7274656471
:1001F000007361766564003F000000000025002860
:10020000002B000404040404040404020202020299
:1002100002030303030303010204081020408001CA
:100220000204081020010204081020006C18852622
:1002300011241FBECFEFD8E0DEBFCDBF11E0A0E09C
:10024000B1E0ECE0FFE502C005900D92A03EB107E1
:10025000D9F724E0A0EEB1E001C01D92A23BB207A5
:10026000E1F711E0C7E1D1E004C02197FE010E944F
:100270002C2EC631D107C9F70E945C190C94792F36
:100280000C94000080E090E0A0E0B0E48093A10234
:100290009093A202A093A302B093A402E091A004C1
:1002A000F091A1048181082E000C990B9093A70274
:1002B0008093A6028281082E000C990B9093A902CC
:1002C0008093A80283818093AA028091A00287FF75
:1002D0000CC084818093AB0285818093AC028681BF
:1002E0008093AD0287E090E005C0813061F05CF062
:1002F00084E098E09093AE02E80FF11DF093B00215
:10030000E093AF02089584E0EECF80919402909143
:100310009502891B990B0895089508950895AF9249
:10032000BF92CF92DF92EF92FF920F931F93CF93E2
:10033000DF936C017B018B01040F151FEB015E0144
:10034000AE18BF08C017D10759F06991D601ED91D9
:10035000FC910190F081E02DC6010995892B79F778
:10036000C501DF91CF911F910F91FF90EF90DF902A
:10037000CF90BF90AF900895FC01538D448D252FF1
:1003800030E0842F90E0821B930B541710F0CF962F
:10039000089501970895FC01918D828D981761F061
:1003A000A28DAE0FBF2FB11D5D968C91928D9F5F78
:1003B0009F73928F90E008958FEF9FEF08952FB76E
:1003C000F8948091980290919902A0919A02B0912C
:1003D0009B022FBF8093090390930A03A0930B0302
:1003E000B0930C0381E093E00E94CB0197FF26C0FD
:1003F0002FB7F8948091980290919902A0919A0257
:10040000B0919B022FBF4091090350910A03609164
:100410000B0370910C03841B950BA60BB70B40913B
:100420000503509106036091070370910803841738
:100430009507A607B707B0F28FEF9FEF0895FC016D
:10044000918D828D981731F0828DE80FF11D858D89
:1004500090E008958FEF9FEF0895FC01918D228D1C
:10046000892F90E0805C9F4F821B91098F739927A1
:10047000089581E093E00E942D0221E0892B09F488
:1004800020E0822F089580E090E0892B29F00E94DF
:10049000390281110C9400000895FC01A48DA80F6D
:1004A000B92FB11DA35ABF4F2C91848D90E00196B6
:1004B0008F739927848FA689B7892C93A089B189D6
:1004C0008C91837080648C93938D848D981306C077
:1004D0000288F389E02D80818F7D80830895EF92DB
:1004E000FF920F931F93CF93DF93EC0181E0888FEE
:1004F0009B8D8C8D98131AC0E889F989808185FFBE
:1005000015C09FB7F894EE89FF896083E889F9895F
:1005100080818370806480839FBF81E090E0DF9161
:10052000CF911F910F91FF90EF900895F62E0B8DB4
:1005300010E00F5F1F4F0F731127E02E8C8D8E116F
:100540000CC00FB607FCFACFE889F989808185FFD6
:10055000F5CFCE010E944D02F1CFEB8DEC0FFD2FB8
:10056000F11DE35AFF4FF0829FB7F8940B8FEA8991
:10057000FB8980818062CFCF0F931F93CF93DF934E
:100580008C01D0E0C0E0F801EC0FFD1F6491662300
:1005900041F081E093E00E946F02892B11F02196D7
:1005A000F2CFCE01DF91CF911F910F910895CF939C
:1005B000DF93EC01888D8823B9F0AA89BB89E8898B
:1005C000F9898C9185FD03C0808186FD0DC00FB631
:1005D00007FCF7CF8C9185FFF2CF808185FFEDCFAF
:1005E000CE010E944D02E9CFDF91CF910895833073
:1005F00081F028F4813099F08230A9F00895873095
:10060000A9F08830C9F08430B1F4809180008F7DEA
:1006100003C0809180008F7780938000089584B517
:100620008F7784BD089584B58F7DFBCF8091B00016
:100630008F778093B00008958091B0008F7DF9CFBF
:100640001F93CF93DF93282F30E0F901EA5DFE4F2F
:100650008491F901E95EFD4FD491F901ED5FFD4F01
:10066000C491CC23A9F0162F81110E94F702EC2F20
:10067000F0E0EE0FFF1FE750FE4FA591B4918FB74A
:10068000F894EC91111108C0D095DE23DC938FBF54
:10069000DF91CF911F910895DE2BF8CF909100014B
:1006A00089130BC0EAE3F1E0E4919FEF909300011E
:1006B000E13049F028F0E23061F060E00C94200372
:1006C00010926E00FACF90916F009D7F90936F0013
:1006D000F4CF909170009D7F9093700091E0909383
:1006E000B0009091B100987F94609093B100109207
:1006F000B300E3CFCF93DF9390E0FC01E95EFD4FC1
:1007000024918D5F9D4FFC0184918823D1F090E06E
:10071000880F991FFC01E45EFE4FA591B491FC0186
:10072000E750FE4FC591D49161110EC09FB7F89468
:100730008C91E22FE0958E238C932881E223E8832D
:100740009FBFDF91CF9108958FB7F894EC91E22B82
:10075000EC938FBFF6CF8E3008F08E50806480937C
:100760007C0080917A00806480937A0080917A0086
:1007700086FDFCCF809178009091790008953FB775
:10078000F89480914F0290915002A0915102B09143
:10079000520226B5A89B05C02F3F19F00196A11D56
:1007A000B11D3FBFBA2FA92F982F8827BC01CD01BB
:1007B000620F711D811D911D42E0660F771F881F1A
:1007C000991F4A95D1F708958F929F92AF92BF9249
:1007D000CF92DF92EF92FF926B017C010E94BF03E8
:1007E0004B015C01C114D104E104F104B9F00E9491
:1007F000BF03681979098A099B09683E734081051E
:10080000910580F321E0C21AD108E108F10888EED1
:10081000880E83E0981EA11CB11CE4CFFF90EF90DE
:10082000DF90CF90BF90AF909F908F9008952091D0
:100830002B02260F3327331F21323105ECF4209190
:10084000FB02FC0190E080E0243069F082E0089532
:10085000A0912B022191AC01455F5D4FA40FB52FF4
:10086000B11D2C930196861798F380912B02680F87
:1008700060932B0280E0089581E008951092FB02BE
:1008800081E08093DA021092D50261E082E10E9459
:10089000200361E083E10E942003E9EBF0E0808126
:1008A0008E7F808380818D7F808388E48093B800F1
:1008B00085E48093BC000895CF93DF9391E09093FB
:1008C0000A028823B9F0C091B800D091BA00809193
:1008D000BC008A7B8093BC0060E082E10E94200320
:1008E00060E083E10E9420030E943E04D093BA009E
:1008F000C093B800DF91CF910895CF92DF92EF922D
:10090000FF920F931F93CF93DF93D82FC62F61329F
:1009100008F098C00E94BF036B017C018091FB022C
:1009200081116BC081E08093FB028093DA029FEF1C
:100930009093D9021092D8029C0F9093D702809383
:10094000D6028091D602DD0FD82BD093D6028091AB
:10095000D502813009F078C01092D5020E94BF0301
:100960006B017C018091D6028093BB008091FD02D7
:100970009091FE02A091FF02B0910003892B8A2B77
:100980008B2BA1F00E94BF030091FD021091FE028B
:100990002091FF02309100036C197D098E099F0997
:1009A000061717072807390708F448C08091BC00CC
:1009B00083FDD8CF85EC8093BC000E94BF036B0100
:1009C0007C018091FB02813009F440C08091D80203
:1009D0008C1710F4C091D802E5EBF2E0ABEDB2E079
:1009E00080E08C1355C08C2FDF91CF911F910F9118
:1009F000FF90EF90DF90CF9008958091FD0290914D
:100A0000FE02A091FF02B0910003892B8A2B8B2B51
:100A100009F484CF0E94BF030091FD021091FE02F1
:100A20002091FF02309100036C197D098E099F0906
:100A3000061717072807390708F070CF8091FC02C6
:100A40000E945C04C0E0CFCF85EEB5CF8091FD025F
:100A50009091FE02A091FF02B0910003892B8A2B96
:100A60008B2B09F4AECF0E94BF030091FD021091C1
:100A7000FE022091FF02309100036C197D098E095E
:100A80009F09061717072807390708F09ACFD6CF0E
:100A900091919D938F5FA5CF0895E09195028091EC
:100AA0009402E81730F4F0E0E552FD4F808190E0C9
:100AB00008958FEF9FEF0895909195028091940291
:100AC0002FEF3FEF981748F4E92FF0E0E552FD4F84
:100AD000208130E09F5F90939502C9010895CF92E5
:100AE000DF92EF92FF920F931F93CF93DF937C01DE
:100AF000CB018A012091B402222389F0EB016B0122
:100B0000C40ED51ECC15DD0569F06991D701ED91B4
:100B1000FC910190F081E02DC7010995F3CF642F7E
:100B20000E941704C801DF91CF911F910F91FF9090
:100B3000EF90DF90CF900895CF93DF931F92CDB7C2
:100B4000DEB769832091B4022223F9F02091B1022B
:100B5000203258F021E030E0FC013383228390E022
:100B600080E00F90DF91CF9108958091B202E82F3D
:100B7000F0E0E651FE4F998190838F5F8093B2023F
:100B80008093B10281E090E0ECCF61E0CE0101966C
:100B90000E941704F7CFCF92DF92EF92FF920F934C
:100BA0001F93CF93DF93D091B10281E0D13208F04F
:100BB0009CC0C091B3020E94BF036B017C01809175
:100BC000FB0281116CC082E08093FB0281E0809384
:100BD000DA028FEF8093D9021092D802D093D70215
:100BE000AAEEB1E0E5EBF2E080E0D8138DC0109200
:100BF000D6028091D602CC0FC82BC093D60280912A
:100C0000D502813009F084C01092D5020E94BF0342
:100C10006B017C018091D6028093BB008091FD0224
:100C20009091FE02A091FF02B0910003892B8A2BC4
:100C30008B2BA1F00E94BF030091FD021091FE02D8
:100C40002091FF02309100036C197D098E099F09E4
:100C5000061717072807390708F442C08091BC001F
:100C600083FDD8CF85EC8093BC000E94BF036B014D
:100C70007C018091FB02823009F44CC08091D90242
:100C80008F3F09F469C08091D902803209F466C0AF
:100C90008091D902803309F463C084E026C080913A
:100CA000FD029091FE02A091FF02B0910003892BFA
:100CB0008A2B8B2B09F483CF0E94BF030091FD0286
:100CC0001091FE022091FF02309100036C197D0902
:100CD0008E099F09061717072807390708F06FCFF5
:100CE0008091FC020E945C0485E01092B202109296
:100CF000B1021092B402DF91CF911F910F91FF903A
:100D0000EF90DF90CF9008959D9191938F5F6DCF7D
:100D100085EEA9CF8091FD029091FE02A091FF0285
:100D2000B0910003892B8A2B8B2B09F4A2CF0E9450
:100D3000BF030091FD021091FE022091FF0230914D
:100D400000036C197D098E099F09061717072807EC
:100D5000390708F08ECFC4CF80E0C7CF82E0C5CF7F
:100D600083E0C3CF90E080E00895EF92FF920F936D
:100D70001F93CF93DF93EC0180E0B0E0A0E0E88127
:100D8000F981AE17BF07D8F4AE171F06A8F4E82FF5
:100D9000F0E00A811B817F010E0D1F1DF8014083C9
:100DA0000A811B810E0D1F1DF80161830A811B81C1
:100DB000F701E00FF11F228311968D5FE0CF81E0F4
:100DC000DF91CF911F910F91FF90EF9008958F9237
:100DD0009F92AF92BF92CF92DF92EF92FF92CF930A
:100DE000DF93E62F6A01FF24D7FCF094EF2C832ECB
:100DF000942EA52EBB24A7FCBA94E1110EC0482D59
:100E00006C2DDF91CF91FF90EF90DF90CF90BF904E
:100E1000AF909F908F900C94B506DC016D917C9102
:100E20001197E617170609F0D8F4E150E6171706F0
:100E3000B8F46E2F660FE60FF0E012960D90BC919D
:100E4000A02DAE0FBF1F8C92EC01AA81BB81AE0F0B
:100E5000BF1F1196CC926A817B81E60FF71F228318
:100E600080E0DF91CF91FF90EF90DF90CF90BF9027
:100E7000AF909F908F9008951F93CF93DF93EC01D5
:100E8000142F89819A81288131E03093B402209314
:100E9000B3021092B2021092B102DC01ED91FC910A
:100EA0000190F081E02D099589819A81DC01ED9115
:100EB000FC910190F081E02D612F099589819A8143
:100EC000DF91CF911F910C94CB05DC01ED91FC914A
:100ED0000190F081E02D0994FC0187E094E1161661
:100EE00034F484E098E0613011F484E090E1908380
:100EF000062E000C770B77FF03C071956195710981
:100F0000969FA001979F500D1124840F952F911D3E
:100F10000895DC01ED91FC910190F081E02D0994A0
:100F20000F931F93CF93DF938B01CDE7D4E02981FB
:100F30003A81988141E04093B4029093B3021092B9
:100F4000B2021092B10294E0899FB00111246A5F4D
:100F50007F4FC9010E94890770E060E089819A8112
:100F60000E94650770E060E089819A810E946507B0
:100F7000B80189819A810E946507612F70E089819B
:100F80009A810E94650789819A81DF91CF911F9193
:100F90000F910C94CB05CF93C0E060E070E18C2FF3
:100FA0000E949007CF5FC031C1F7CF9108952F9273
:100FB0003F924F925F926F927F928F929F92AF92E9
:100FC000BF92CF92DF92EF92FF920F931F93CF9336
:100FD000DF9300D000D000D01F92CDB7DEB78C8356
:100FE0002D83262F30E0A8EEB3E00E940A2B4B01A0
:100FF0005C011982842F90E09B838A8399812C81E4
:10100000921709F447C08A819B819F838E8310E0E9
:1010100000E09D812E812917C8F58E819F81C2979E
:1010200087369A4358F5CA80DB80C00ED11E160160
:10103000220C331C220C331C85E0281A3108CC0CFE
:10104000DD1CF12CE12C412C512C320148145904A7
:101050006A047B049CF461E085E00E942003C101E6
:101060000197F1F760E085E00E942003C10101973C
:10107000F1F74C0C5D1C6E1C7F1CE8CF0F5F1F4FFF
:101080008E819F8101969F838E83C3CF99819F5FBD
:101090009983B4CF27960FB6F894DEBF0FBECDBFAD
:1010A000DF91CF911F910F91FF90EF90DF90CF9044
:1010B000BF90AF909F908F907F906F905F904F9078
:1010C0003F902F9008959F92AF92BF92CF92DF9260
:1010D000EF92FF920F931F93CF93DF93EC0181E088
:1010E0008093B40284E58093B3021092B20210920E
:1010F000B1026D2F70E08EE993E00E948907BE0176
:1011000077278EE993E00E9489078EE993E00E9499
:10111000CB0561E084E50E947D04109295028093E6
:1011200094028EE993E00E945C05C090A004D090E8
:10113000A104F60180836091A00285EA92E00E94FA
:101140006C07EC01F12CE12C1C161D064CF56C2FE4
:10115000CF31D1050CF06EE184E50E947D04982E1C
:1011600010929502809394025E01FEE1AF1AB108DD
:101170008E0180919502981659F08EE993E00E94B5
:101180005C059FEFE91AF90AF601EE0DFF1D808359
:101190000150110929F0E5010A151B0551F7D4CFBB
:1011A000DF91CF911F910F91FF90EF90DF90CF9043
:1011B000BF90AF909F9008958F929F92AF92BF92F1
:1011C000CF92DF92EF92FF921F93CF93DF93EC01C8
:1011D0006A017B0120E030E040E85FE3CB01B6012B
:1011E0000E94452987FDA3C020E030EC4AE555E484
:1011F000C701B6010E94722C18163CF4C12C30ECC9
:10120000D32E3AE5E32E35E4F32E6B817C818D817C
:101210009E810E944A294B015C0120E030E040E8B9
:1012200055E4C701B6010E94AB299B01AC01C50181
:10123000B4010E948B2B20E030E040E05FE30E948D
:101240001A2B20E030E040E85FE30E94192B6B018D
:101250007C0120E030E040E450E40E94452987FD15
:101260006DC020E030E04FE753E4C701B6010E94B3
:10127000722C181634F4C12CD12C9FE7E92E93E47C
:10128000F92E89819A81288131E03093B40220932C
:10129000B3021092B2021092B102DC01ED91FC9106
:1012A0000190F081E02D60E0099589819A810E948A
:1012B000CB0561E088810E947D04109295028093A5
:1012C000940289819A81DC01ED91FC910284F3857D
:1012D000E02D0995182F482F4F76406160E0CE0130
:1012E0000E943C07C701B6010E94042C462F6EEFF6
:1012F000CE010E943C07412F60E0CE010E943C07D6
:1013000065E070E080E090E00E94E403412F406AD5
:1013100060E0CE01DF91CF911F91FF90EF90DF90C1
:10132000CF90BF90AF909F908F900C943C07C12CB2
:10133000D12C20E8E22E2FE3F22E67CFC12CD12C46
:1013400080E4E82EFE2C9DCFFC0101900020E9F7FF
:101350003197AF01481B590BBC0181E093E00C941D
:101360008F018EE691E00C94A409CF93DF930E9445
:10137000BC02EC010E94B1098C0F9D1FDF91CF913F
:101380000895CF93DF93682F81E093E00E946F026E
:10139000EC010E94B1098C0F9D1FDF91CF91089540
:1013A000CF93DF93FC01448155816081718181E09D
:1013B00093E00E948F01EC010E94B1098C0F9D1FE8
:1013C000DF91CF9108958F929F92AF92BF920F932A
:1013D0001F93CF93DF93CDB7DEB7A1970FB6F894E5
:1013E000DEBF0FBECDBF19A2423008F44AE08E0125
:1013F0000F5D1F4F842E912CB12CA12CA5019401BF
:101400000E94E82AE62FB901CA01EA30F4F4E05D4F
:10141000D801EE938D01232B242B252B79F790E017
:1014200080E0109719F0CD010E94A409A1960FB693
:10143000F894DEBF0FBECDBFDF91CF911F910F910A
:10144000BF90AF909F908F900895E95CE1CFCF92CD
:10145000DF92EF92FF92C12CD12C76014AE0C701B6
:10146000B6010E94E30969E081E093E00E946F0207
:101470008FEFC81AD80AE80AF80A80E1C816D10422
:10148000E104F10459F7FF90EF90DF90CF900C94B6
:10149000B109FC0124813581232B39F421E0FB01C2
:1014A0008081882349F020E007C0808191810E94DB
:1014B000302F21E0892BB9F7822F0895CF93DF9346
:1014C000EC0188819981009711F00E9425271982EB
:1014D00018821D821C821B821A82DF91CF9108958F
:1014E000FC0180819181009711F00C9425270895CB
:1014F0000F931F93CF93DF938C01EB01FC0180814D
:1015000091810097E1F06881798161157105A9F0F9
:10151000428153812C813D814217530770F00E9414
:10152000392F8C819D81F801958384831D821C82D3
:10153000DF91CF911F910F9108950E9425278881F7
:101540009981F801918380838A819B81938382832F
:101550008C819D8195838483198218821B821A82D3
:10156000E5CF0C94692A6F927F928F929F92AF92EF
:10157000BF92CF92DF92EF92FF920F931F93CF9380
:10158000DF936C01712CD0E0C0E083E191E00E9418
:10159000B10A082E000C990B781619060CF06DC0D4
:1015A0004E018FEF881A980ACE018A5E9E4F0E94E4
:1015B000B10A682EE82EF12CC70101960E948926F7
:1015C0008C015C01C95EDE4FC81BD90B8A2D801BC4
:1015D000861548F4CE018A0D9B1D0E94B10AF501C3
:1015E00081935F01F3CFE401CE0DDF1D5801AE0CF6
:1015F000BF1CF5011082B601C8010E94302F892B53
:1016000009F501151105A9F5CE01895E9E4F0E94CD
:10161000B10A8093A002682F85EA92E00E946C07CD
:10162000CE018A5E9E4FDF91CF911F910F91FF9067
:10163000EF90DF90CF90BF90AF909F908F907F9072
:101640006F900895F501319780818C3449F4A7019A
:1016500041505109B601C8010E94402F892B89F2DF
:101660000115110519F0C8010E94252724967394CD
:101670008CCFC8010E942527C7CF87EF91E00E9439
:10168000B5098FEF9FEFCFCF1F93CF93DF93EC017F
:101690000E94B10A182FCE0101960E94B10A90E073
:1016A000982F8827810F911DDF91CF911F91089569
:1016B000CF92DF92EF92FF920F931F93CF936A0125
:1016C0007B01082F10E0C801805B9F4F880F991F96
:1016D0000E94440BBC01990F880B990B0E944C2966
:1016E00020E030E04AE754E40E948B2BA7019601EA
:1016F0000E94AB296B017C0182E191E00E94B10A5A
:10170000C82FC8010E94B10A182F8AE0C89FB001F3
:101710001124072E000C880B990B0E944C29A7015D
:1017200096010E941A2B0E94042C812FCF911F91A9
:101730000F91FF90EF90DF90CF900C94900790E086
:10174000C096880F991F860F911D880F991F0C94C2
:10175000440B7F928F929F92AF92BF92CF92DF9273
:10176000EF92FF920F931F93CF93DF93B82E6A01EE
:10177000D62FC72F60E00E949F0BBC01990F880BEA
:10178000990B0E944C297B018C0161E08B2D0E94FA
:101790009F0BBC01990F880B990B0E944C29762E48
:1017A000872E982EA92E96014D2F5C2F0E94452939
:1017B00087FF71C0772D682D992D8A2D272F362F01
:1017C000492F582FB701C8010E94722C181694F0A7
:1017D00096014D2F5C2F672D782D892D9A2D0E9413
:1017E000452976010D2F1C2F87FF04C0E72CF82C0C
:1017F000092D1A2DCB2DD0E06E0180E3C80ED11C2F
:10180000CC0FDD1FCC5FDE4FB701C8010E94FD2B5E
:1018100079836883C601880F991F0E94440BEC01ED
:10182000C6010E94B10A682F880F770B880B990BAD
:101830000E944C299701A8010E94AB296B017C01F1
:10184000BE01DD0F880B990B0E944C299B01AC0156
:10185000C701B6010E941A2B0E94FD2B072E000C17
:10186000880B990B0E944C2920E030E0A9010E94CE
:101870001A2BAB01BC018B2DDF91CF911F910F91E2
:10188000FF90EF90DF90CF90BF90AF909F908F90A0
:101890007F900C94580B7C2D6D2DCE018FCF2F9205
:1018A0003F924F925F926F927F928F929F92AF92F0
:1018B000BF92CF92DF92EF92FF920F931F93CF933D
:1018C000DF93CDB7DEB72E970FB6F894DEBF0FBE0D
:1018D000CDBF5C016A017B0120E030E0A901CB01B2
:1018E000B6010E9445299501205E3F4F39018111C3
:1018F00030C089013FE03983D8017E916E918D011E
:10190000072E000C880B990B0E944C29AB01BC01DF
:1019100089810E94A90BB981B150B983BF3F61F79A
:101920002E960FB6F894DEBF0FBECDBFDF91CF91DC
:101930001F910F91FF90EF90DF90CF90BF90AF90ED
:101940009F908F907F906F905F904F903F902F90DF
:10195000089580E290E00E9489268C0184E0882E20
:1019600081E0982E9801F50170E060E0D4018D913E
:101970009D914D0141915191841B950BD9018D93FE
:101980009D939D0197FF03C09195819591096817DB
:1019900079070CF4BC01E615F70541F7072E000C9A
:1019A000880B990B0E944C29A70196010E948B2B52
:1019B0006B017C0120E030E0A9010E94722C20E044
:1019C00030E040E05FE387FD91C0C701B6010E94AF
:1019D0001A2B0E94FD2B7E876D87D12CC12C8D8503
:1019E0009E85092E000CAA0BBB0B89879A87AB87B3
:1019F000BC87AD85BE85AC15BD050CF47CC0480127
:101A00001501F12CC6010D2C000CAA0BBB0B8D830C
:101A10009E83AF83B887D1016D917D911D01072E03
:101A2000000C880B990B0E944C292B013C01ED8581
:101A3000FE8520E030E0A901EF2B09F443C06D8161
:101A40007E818F8198850E944C292BED3FE049E4EF
:101A500050E40E94AB2969837A838B839C836985D8
:101A60007A858B859C850E944C299B01AC016981FC
:101A70007A818B819C810E948B2B0E94862B20E097
:101A800030E040E85FE30E941A2B20E030E040E0C5
:101A90005FE30E94AB2969837A838B839C83D401A3
:101AA0006D917C91072E000C880B990B0E944C299C
:101AB0009B01AC0169817A818B819C810E94AB2959
:101AC0009B01AC01C301B2010E941A2BAB01BC0106
:101AD0008F2D0E94A90BF394B2E08B0E911CE0E1D4
:101AE000FE1299CFFFEFCF1ADF0A83CFC701B601ED
:101AF0000E94192B6ECF0115110509F411CFC801F1
:101B00002E960FB6F894DEBF0FBECDBFDF91CF91FA
:101B10001F910F91FF90EF90DF90CF90BF90AF900B
:101B20009F908F907F906F905F904F903F902F90FD
:101B30000C9425272F923F924F925F926F927F9243
:101B40008F929F92AF92BF92CF92DF92EF92FF92CD
:101B50000F931F93CF93DF93CDB7DEB72F970FB6B9
:101B6000F894DEBF0FBECDBF4C016D8369017A01D1
:101B7000202F30E03A83298320E030E0A901C7011B
:101B8000B6010E94452981111DC01FE0812F012E41
:101B9000000C990BA981BA818A179B070CF419C113
:101BA000880D991DFC016081062E000C770B880BB7
:101BB000990B0E944C29AB01BC01812F0E94A90BFB
:101BC0001150E4CF80E190E029813A81821B930B90
:101BD000811530E4930770F5880F991F0E948926BC
:101BE0005C01E981FA81EE0FFF1FCF018C5F9E4FF0
:101BF0003C012501D401402F70E060E04031E8F461
:101C0000F301819191913F012D915D812503900117
:101C10001124821B930BF201819391932F0197FF63
:101C200003C0919581959109681779070CF4BC015F
:101C30004F5FE4CF8FEF9FEFD1CF072E000C880BC3
:101C4000990B0E944C29A70196010E948B2B6B01D6
:101C50007C0120E030E0A9010E94722C20E030E0FD
:101C600040E05FE387FD8BC0C701B6010E941A2BDD
:101C70000E94FD2B1B011F861E86CB01770FAA0B2E
:101C8000BB0B8A879B87AC87BD87AE85BF852A162D
:101C90003B060CF480C0BA82A9829C828B82102FF2
:101CA000CD01092E000CAA0BBB0B8E839F83A88746
:101CB000B987103108F068C0AB81BC816D91BC83DD
:101CC000AB832D816203B0011124072E000C880B19
:101CD000990B0E944C296B017C0120E030E0A901A6
:101CE00021143104E1F16E817F81888599850E94FC
:101CF0004C292BED3FE049E450E40E94AB292B0135
:101D00003C016A857B858C859D850E944C299B01C1
:101D1000AC01C301B2010E948B2B0E94862B20E0F4
:101D200030E040E85FE30E941A2B20E030E040E022
:101D30005FE30E94AB292B013C01A981BA816D911F
:101D40007C91072E000C880B990B0E944C299B015B
:101D5000AC01C301B2010E94AB299B01AC01C701D8
:101D6000B6010E941A2BAB01BC01812F0E94A90B66
:101D70001F5FE981FA813296FA83E9839ACFC7011E
:101D8000B6010E94192B74CF2E853F852F5F3F4FE0
:101D90003F872E877ACFA114B104D9F0C5012F96C1
:101DA0000FB6F894DEBF0FBECDBFDF91CF911F916C
:101DB0000F91FF90EF90DF90CF90BF90AF909F90EA
:101DC0008F907F906F905F904F903F902F900C94EA
:101DD00025272F960FB6F894DEBF0FBECDBFDF913B
:101DE000CF911F910F91FF90EF90DF90CF90BF9018
:101DF000AF909F908F907F906F905F904F903F90AB
:101E00002F9008950F93CF93DF93E091A004F0916A
:101E1000A1046081CCE9D2E06C8385EA92E00E9463
:101E20006C070E94420110929702109296022D8137
:101E30003E814F8158850A896E858B899C890E94D5
:101E40009A0DDF91CF910F910895FF920F931F93F9
:101E5000CF93DF938C01FC0101900020E9F73297CA
:101E600080818C3409F4CEC0823509F0CDC087EE74
:101E700080939F02C8010E94B30AEC01CF3FDC07A8
:101E800009F40CC1CE010E94B10AF82ECE010296CF
:101E90000E94440BEC0189E4F812B8C0CE010E9404
:101EA00063080E94420161E771E0C8010E94302F7F
:101EB000892B09F4C5C08091A002813009F0C0C00F
:101EC0000E94562824E630E040E050E00E947F2A3D
:101ED0000E944C2920E030E040E251E40E948B2B2C
:101EE00020E030E040EA50E40E94192B6093900219
:101EF0007093910280939202909393028091A0023A
:101F000082300CF4A6C080919F0287FFB1C08091FF
:101F1000A6029091A7029195819591099093A702AD
:101F20008093A60290E080E04091A002242F042E2E
:101F3000000C330B37FF03C031952195310982170F
:101F400093070CF095C042301CF54091A502489FC4
:101F50009001499F300D1124E091AF02F091B00241
:101F6000E20FF31F2081219520832091A502289F55
:101F7000F001299FF00D11249F012E5F3F4FE0914A
:101F8000AF02F091B002E20FF31F20812195208370
:101F90002091A00260E022300CF462E0E62FF0E035
:101FA0002091A00222300CF47FC024E030E0409168
:101FB000AF025091B002E217F3070CF078C09F0116
:101FC000220F331F7091A502789FF001799FF00DC9
:101FD0001124E20FF31FE40FF51F4081518150835C
:101FE0005091A502589FD001599FB00D1124E09146
:101FF000AF02F091B002E20FF31FEA0FFB1F418323
:102000006F5FCCCF89E134CF80E032CF6091A00206
:1020100085EA92E00E946C072091A0043091A1040F
:10202000D901C21BD30BFE01EA0FFB1FAD01421BFE
:10203000530B481759070CF034CFE491ED93F3CFCD
:1020400010929002109291021092920210929302BA
:1020500055CF0E94562824E630E040E050E00E9430
:102060007F2A60FF05C080918F02833609F04FCF31
:1020700010929702109296022091A1023091A20232
:102080004091A3025091A4020091AE026091AA0275
:102090008091AF029091B0020E949A0DDF91CF9192
:1020A0001F910F91FF90089528E030E080CF0196B6
:1020B0003BCF0F931F93CF93DF93EC018B010E94D3
:1020C000692A081721F0602FCE010E94712A2196FB
:1020D000CE010E94692A181721F0612FCE010E94BB
:1020E000712A65E070E080E090E0DF91CF911F9170
:1020F0000F910C94E4030F931F93CF93DF93EC01A4
:1021000088819981009759F02A813B8126173707EA
:1021100030F081E0DF91CF911F910F9108958B01F5
:102120006F5F7F4F0E94552E009759F099838883E7
:102130001B830A832C813D81232B59F7FC011082DC
:10214000E8CF80E0E7CFEF92FF920F931F93CF93FA
:10215000DF936115710541F480E0DF91CF911F910C
:102160000F91FF90EF90089541155105B1F07B015B
:10217000EC010C811D81040F151FB8010E947B101A
:10218000882351F3288139818C819D81B701820F89
:10219000931F0E94392F1D830C8381E0DECFEF92C5
:1021A000FF920F931F93CF93DF93EC017B018A0182
:1021B000BA010E947B1081110BC0CE010E945E0A01
:1021C000CE01DF91CF911F910F91FF90EF90089575
:1021D0001D830C83B701888199810E94392FF0CF2C
:1021E000FB01DC0111961C921E9213961C921E920A
:1021F000129715961C921E9214978617970759F0FE
:10220000608171816115710521F0448155810C94C3
:10221000CF100C945E0A0895FB0101900020E9F7AD
:102220003197AF01461B570B0C94CF100F931F93A0
:10223000CF93DF93CDB7DEB762970FB6F894DEBFCA
:102240000FBECDBF8C01CB01F80111821082138229
:102250001282158214824AE0BE016F5F7F4F0E9496
:102260000829BE016F5F7F4FC8010E940C11629662
:102270000FB6F894DEBF0FBECDBFDF91CF911F9197
:102280000F910895FC01118210821382128215822F
:102290001482FB0101900020E9F73197AF01461B42
:1022A000570B0C94CF10EF92FF920F931F93CF9385
:1022B000DF9300D0CDB7DEB78C01E62E6EEC71E077
:1022C0000E9442110E94DF010E2C000CFF0897FDB6
:1022D00010C08E159F0569F089831A8241E050E095
:1022E000BE016F5F7F4FC8010E94A3100E94DF01F3
:1022F000EECFC8010F900F90DF91CF911F910F91FA
:10230000FF90EF900895EF92FF920F931F93CF935A
:10231000DF93EC018B01198218821B821A821D82C5
:102320001C82CB010E94D3287C01BC01CE010E94FB
:102330007B10811109C0CE01DF91CF911F910F91C8
:10234000FF90EF900C945E0AFD82EC82B8018881C8
:102350009981DF91CF911F910F91FF90EF900C9495
:10236000CC2885ED8093BC008091FD029091FE0207
:10237000A091FF02B09100030796A11DB11D23E0BB
:10238000B695A795979587952A95D1F72091BC008A
:1023900024FD03C01092FB0208954091FD0250916C
:1023A000FE026091FF0270910003452B462B472BE4
:1023B00069F30097A105B10541F025E32A95F1F7EE
:1023C00000000197A109B109E1CF8091FC020C94B2
:1023D0005C04EF92FF920F931F93CF93DF93EC0176
:1023E000888199818C01000F111F080F191FEA8045
:1023F000FB80A801B7018C819D810E941A2F892B37
:1024000009F432C0AE81BF818A853FB7F8942C9120
:10241000982F90959223822BF7010E0F1F1FE01724
:10242000F10781F0219148E08C9300C027FF9C9335
:10243000220F00C000C000C008F49C9300C04A9561
:1024400099F7EDCF3FBF88819981AC01440F551FAB
:10245000480F591F6A817B818C819D810E94272FA3
:102460008BEC97E00197F1F7DF91CF911F910F91DE
:10247000FF90EF900895CF93DF939B01AC01C4E9E7
:10248000D4E060E08A819B810E94E7068A819B817B
:10249000DF91CF910C94E9112F923F924F925F926E
:1024A0006F927F928F929F92AF92BF92CF92DF9264
:1024B000EF92FF920F931F93CF93DF93CDB7DEB7C9
:1024C00066970FB6F894DEBF0FBECDBF69877A87D7
:1024D0008B879C872D873E874F87588BC801EE8A54
:1024E00010E088248A94982C540168E4462E68EE03
:1024F000562E66246394712C05E078E0272E72E056
:10250000372E9C01990F440B550B298B3A8B4B8B23
:102510005C8B6D857E858F8598890E94042C6D83E8
:102520007E838F83988720E030E0A90169857A85D2
:102530008B859C850E944529882309F499C12985AA
:102540003A854B855C8563E67CE987E89FE30E94DA
:10255000772C20E030ED42E854E40E94AB290E9441
:10256000042C6B0180910001853009F06AC0EAE318
:10257000F1E0F491FD8BF7FDD9C161E085E00E94A7
:102580007A03FD89FF2321F02D89223009F024C12F
:10259000F12CE12C60E072E18AE790E0A70196015E
:1025A0000E947F2A29833A834B835C83DA01C90125
:1025B0000197A109B1098F3F9105A105B10509F066
:1025C0000CF4F0C060E472E48FE090E0A7019601A3
:1025D0000E947F2A21503109410951098D89823099
:1025E00009F0A2C082E02F3F31054105510509F0F5
:1025F0000CF48CC160E970ED83E090E0A7019601D6
:102600000E947F2A215031094109510983E02F3F5F
:1026100031054105510509F00CF478C1C301B2013F
:10262000A70196010E947F2A2150310941095109D1
:102630002F3F31054105510511F00CF092C084E0A7
:1026400065C18F3F09F072C100930001EAE3F1E038
:10265000F491FD8BFF3F09F469C1F13029F158F085
:10266000F23009F43FC03D8937FD60C161E085E08B
:102670000E947A0389CF14BC15BC84B5826084BDE6
:1026800085B5816085BDF1018491E82FF0E0EE0F02
:10269000FF1FE750FE4F85919491ECE1F2E08491A9
:1026A0008093E1011D8A69CF109280001092810011
:1026B0008091810088608093810080918100816099
:1026C00080938100F1018491E82FF0E0EE0FFF1F6D
:1026D000E750FE4F85919491ECE1F2E08491809374
:1026E000E0014BCF1092B0001092B1008091B00089
:1026F00082608093B0008091B10081608093B100CE
:10270000F1018491E82FF0E0EE0FFF1FE750FE4F3C
:10271000859194919093540280935302ECE1F2E0FE
:1027200084918093550229CF2F3F310541055105F2
:1027300009F00CF44FC0C301B201A70196010E9439
:102740007F2A21503109410951099D89992309F4B2
:10275000AFC02F3F31054105510511F00CF0B0C05D
:102760006ECF64E274EF80E090E0A70196010E94D2
:102770007F2A215031094109510985E02F3F310558
:102780004105510509F008F4C1C062E17AE780E033
:1027900090E0A70196010E947F2A2150310941094A
:1027A00051099DC09C0181E0FD89F111AFC095B533
:1027B000987F892B85BD27BD8092E6019092E70125
:1027C000A092E801B092E90180916E00826080934E
:1027D0006E00ACC082E0E8CFF12CE12C60E072E149
:1027E0008AE790E0A70196010E947F2A21503109D3
:1027F0004109510991E02115310581E04807510552
:102800005CF0C301B201A70196010E947F2A21500A
:1028100031094109510993E0ED89E13009F07CC0AB
:1028200080918100887F892B80938100309389007B
:10283000209388008092E2019092E301A092E4014B
:10284000B092E50180916F00826080936F006EC04E
:102850002093B3008092560290925702A0925802A1
:10286000B0925902809170008260809370005EC0C7
:102870006D817E818F8198850E94E40357C084E03A
:102880002F3F31054105510509F008F490CF29810A
:102890003A814B815C818AE055954795379527951C
:1028A0008A95D1F7215031094109510985E07FCF3F
:1028B00083E02F3F31054105510509F00CF477CF36
:1028C00062E17AE780E090E0A70196010E947F2A0A
:1028D0002150310941095109ED89EE2381F286E049
:1028E0002F3F31054105510589F080F029813A815A
:1028F0004B815C819AE055954795379527959A9538
:10290000D1F7215031094109510987E09091B10077
:10291000987F892B8093B100FD89F13009F486CF2F
:10292000F23009F495CFFF2309F445CF6D817E8104
:102930008F8198850E94E40385E00E944E03698997
:102940007A898B899C890E94E4031F5F2E89211359
:10295000E0CD66960FB6F894DEBF0FBECDBFDF9117
:10296000CF911F910F91FF90EF90DF90CF90BF908C
:10297000AF909F908F907F906F905F904F903F901F
:102980002F9008954F925F926F927F928F929F92B5
:10299000AF92BF92CF92DF92EF920F931F93CF939C
:1029A000DF93D82E192F0E94B10A8695CD2DD12FF5
:1029B000B12CA12CC82ED12C88EE882E83E0982E25
:1029C0002197AC14BD044CF5CE018C199D090E94D1
:1029D000B10A782ECE010E94B10A182F672D70E03F
:1029E000C4010E94182E072E000C880B990B0E9420
:1029F0004C292B013C01612F70E090E080E00E94A7
:102A00004A29EE24E39410E000E0A30192010E9421
:102A10004C128FEFA81AB80AD3CFDF91CF911F9134
:102A20000F91EF90DF90CF90BF90AF909F908F90DD
:102A30007F906F905F904F9008951F920F920FB606
:102A40000F9211242F933F934F935F936F937F9334
:102A50008F939F93AF93BF93EF93FF938091560211
:102A600090915702A0915802B0915902892B8A2B5C
:102A70008B2BD1F190915502E0915302F0915402C9
:102A80008081892780838091560290915702A0917E
:102A90005802B0915902181619061A061B069CF422
:102AA0008091560290915702A0915802B09159021C
:102AB0000197A109B1098093560290935702A09300
:102AC0005802B0935902FF91EF91BF91AF919F913E
:102AD0008F917F916F915F914F913F912F910F90C7
:102AE0000FBE0F901F901895809100010E944E0319
:102AF000EACF1F920F920FB60F9211242F933F939C
:102B00004F935F936F937F938F939F93AF93BF93F5
:102B1000EF93FF9381E093E00E944D02FF91EF91CC
:102B2000BF91AF919F918F917F916F915F914F91E5
:102B30003F912F910F900FBE0F901F9018951F92ED
:102B40000F920FB60F9211242F938F939F93EF93B1
:102B5000FF93E0911103F09112038081E09117033C
:102B6000F091180382FD1BC0908180911A038F5F42
:102B70008F7320911B03821741F0E0911A03F0E05C
:102B8000EF5FFC4F958F80931A03FF91EF919F9118
:102B90008F912F910F900FBE0F901F9018958081ED
:102BA000F4CF1F920F920FB60F9211242F933F93E1
:102BB0008F939F93AF93BF938091980290919902C6
:102BC000A0919A02B0919B0230914E0223E0230F14
:102BD0002D3758F50196A11DB11D20934E0280930B
:102BE000980290939902A0939A02B0939B028091CD
:102BF0004F0290915002A0915102B0915202019661
:102C0000A11DB11D80934F0290935002A0935102D9
:102C1000B0935202BF91AF919F918F913F912F91AD
:102C20000F900FBE0F901F90189526E8230F029665
:102C3000A11DB11DD2CF1F920F920FB60F9211247A
:102C40002F933F934F935F936F937F938F939F93B4
:102C5000AF93BF93EF93FF938091B900887F803645
:102C600009F44AC0F0F5883209F4A7C018F580319C
:102C700009F49BC0B8F4882309F4F9C0883009F43A
:102C800094C0FF91EF91BF91AF919F918F917F91F0
:102C90006F915F914F913F912F910F900FBE0F90C9
:102CA0001F901895883109F488C0803251F78093BD
:102CB000D90214C0803409F49DC040F48033B9F3C4
:102CC0008833F9F68093D90285ECB0C0803509F4D9
:102CD00085C0883509F496C0883499F60E94B111F0
:102CE000D0CF883909F48CC038F5883729F050F4F2
:102CF000883611F0803729F683E08093FB0210922A
:102D00004D0257C0883809F47BC0803919F08038EB
:102D100009F0B7CF80914D02803208F071C0E09188
:102D20004D0281E08E0F80934D028091BB00F0E058
:102D3000E35DFD4F80833DC0803B39F0E0F4803A95
:102D400009F479C0883A09F09CCF84E08093FB02B3
:102D500010922C0210922B02E0915C02F0915D0225
:102D6000099580912B0281110FC081E080932B0285
:102D700010920B0209C0803C09F4A6CF883C09F4EC
:102D8000A3CF883B09F07DCFE0912C0281E08E0F2C
:102D900080932C02F0E0E55FFD4F80818093BB00C3
:102DA00090912C0280912B0229C08091D6028093B1
:102DB000BB0085EC8093BC0064CF9091D8028091D9
:102DC000D702981758F5E091D80281E08E0F8093D2
:102DD000D802F0E0EB54FD4F8081E9CFE091D802BA
:102DE00081E08E0F8093D8028091BB00F0E0EB541D
:102DF000FD4F80839091D8028091D7029817C8F236
:102E000085E8D8CFE091D80281E08E0F8093D80278
:102E10008091BB00F0E0EB54FD4F80838091DA029B
:102E200081115CCF81E08093D50284EA8093BC005D
:102E30001092FB0226CF85EC8093BC001092FB021F
:102E400080914D02803230F4E0914D02F0E0E35D7C
:102E5000FD4F108260914D0270E0E0915A02F091B6
:102E60005B028DE292E0099510924D020ACF10921A
:102E7000D90234CF1F920F920FB60F9211242F93C5
:102E80003F934F935F936F937F938F939F93AF93F2
:102E9000BF93CF93DF93EF93FF932091AB0330E089
:102EA000F901EA5DFE4F8491F901E95EFD4FD4918D
:102EB000F901ED5FFD4FC491CC2379F081110E949F
:102EC000F702EC2FF0E0EE0FFF1FE359FE4FA59144
:102ED000B491EC91ED2381E009F480E02091B003FE
:102EE0003091B1032F5F3F4F3093B1032093B00374
:102EF0002091AE033091AF032536310518F094E0F0
:102F00009093AA039091AA03911130C0811169C0D6
:102F10002091B0033091B1032436310528F410928A
:102F2000B1031092B0035DC010927C041092AF0305
:102F30001092AE032091AE033091AF03A9014F5F11
:102F40005F4F5093AF034093AE034091B003509155
:102F5000B103220F331FF901EE54FC4F518340831C
:102F60001092B1031092B00391E021C09091AA0396
:102F7000913001F58130A9F52091AE033091AF0376
:102F8000A9014F5F5F4F5093AF034093AE03409151
:102F9000B0035091B103220F331FF901EE54FC4FDF
:102FA000518340831092B1031092B00392E090934A
:102FB000AA0317C09091AA03923061F4882309F400
:102FC000B9CF2091B0033091B1032536310548F0D7
:102FD00093E0EDCF9091AA03933099F4882309F4FC
:102FE0009ECF9091AD039923A9F0811126C08091C5
:102FF000AC03882371F08091AC0361E00E94200350
:1030000009C09091AA03943061F791E090937C04F9
:10301000DFCF2D9AFF91EF91DF91CF91BF91AF91CB
:103020009F918F917F916F915F914F913F912F91E0
:103030000F900FBE0F901F9018958091AC038823BE
:1030400021F08091AC0360E0D9CF2D98E3CFCF92EF
:10305000DF92EF92FF920F931F93E82FF92F05C095
:10306000015011092109310961F1908196239417CA
:10307000B9F305C0015011092109310911F19081FD
:1030800096239413F7CFC12CD12CE12CF12C0AC03C
:103090008FEFC81AD80AE80AF80A0C151D052E0584
:1030A0003F0579F080818623841791F36C2D7D2D67
:1030B0008E2D9F2D1F910F91FF90EF90DF90CF905D
:1030C000089560E070E080E090E01F910F91FF9024
:1030D000EF90DF90CF900895CF93DF931092040389
:1030E0001092030388EE93E0A0E0B0E08093050324
:1030F00090930603A0930703B09308032EE431E0F6
:10310000309302032093010325EC30E030930E034B
:1031100020930D0324EC30E03093100320930F0331
:1031200020EC30E0309312032093110321EC30E0C7
:10313000309314032093130322EC30E030931603F2
:103140002093150326EC30E03093180320931703E7
:1031500010921A0310921B0310921C0310921D036D
:103160001092A1031092A0038093A2039093A30353
:10317000A093A403B093A50380E691E090939F03EE
:1031800080939E038AE090E00E9489269093A50494
:103190008093A40482E090E00E9489269093A30487
:1031A0008093A20482EC91E00E9489269093A1046E
:1031B0008093A00484E08093AB031092AD0367E793
:1031C00071E08AE994E00E94421186E080939404C1
:1031D00087E0809395048BE090E00E948926EC01C3
:1031E000EEE1F2E0E491EA87EAE0F2E0E491F0E077
:1031F000EE0FFF1FE750FE4F859194919F838E83C2
:1032000061E087E00E947A0386E090E099838883FA
:1032100082E190E00E9489269B838A83892B21F496
:103220008AE791E00E944E2F30E020E048815981EA
:10323000CA01880F991F840F951F2817390740F47A
:10324000EA81FB81E20FF31F10822F5F3F4FEECF29
:103250000E9489269D838C83892B21F48AE791E043
:103260000E944E2F90E080E0488159819A01220F00
:10327000331F240F351F8217930738F4EC81FD812B
:10328000E80FF91F10820196EFCFD0939704C093F7
:103290009604E3E8F4E081E1DF011D928A95E9F705
:1032A00080E480937D048EE993E090937F04809383
:1032B0007E04DF91CF910895CF93DF93CDB7DEB732
:1032C000AC970FB6F894DEBF0FBECDBF789484B52F
:1032D000826084BD84B5816084BD85B5826085BD12
:1032E00085B5816085BD80916E00816080936E00A0
:1032F0001092810080918100826080938100809192
:103300008100816080938100809180008160809342
:1033100080008091B10084608093B1008091B00002
:1033200081608093B00080917A00846080937A00FD
:1033300080917A00826080937A0080917A00816027
:1033400080937A0080917A00806880937A0010924E
:10335000C100E0911103F091120312E01083E0919B
:103360000D03F0910E031082E0910F03F091100312
:1033700080E1808310921903E0911503F091160308
:1033800086E08083E0911303F091140380818061D3
:103390008083E0911303F09114038081886080831F
:1033A000E0911303F0911403808180688083E091A1
:1033B0001303F091140380818F7D808385E090E07A
:1033C000A0E0B0E08093050390930603A093070369
:1033D000B093080380E691E00E94B509109295022F
:1033E000109294021092B2021092B1020E943E0416
:1033F0008CE891E090935D0280935C028DE891E00F
:1034000090935B0280935A0288E18093B800F8940D
:103410001092800089E08093810080E293E0909395
:103420008900809388001092850010928400109388
:103430006F0078941092AA031092AF031092AE031B
:103440008091AB0360E00E947A0364E070E08AE957
:1034500094E00E947B1086E991E00E94A4090E94FA
:10346000B1097BE7E72E72E0F72E00E110E0C8011A
:103470000E94B10AD7018D937D010F5F1F4F00326B
:103480001105A9F710929502109294021092B202BF
:103490001092B1020E943E048CE891E090935D028C
:1034A00080935C028DE891E090935B0280935A02D6
:1034B00040E860E08DE794E00E943C076AE070E03D
:1034C00080E090E00E94E40340E050E06AE774E4AA
:1034D0008DE794E00E94DC0860E4C62E68E7D62EF3
:1034E0006DE7E62EFF24F394C0928004D09281040D
:1034F000E0928204F092830440E050E060EA73E4DA
:103500008DE794E00E94DC08C0928604D092870484
:10351000E0928804F0928904C0928004D0928104E1
:10352000E0928204F09283040E94CB0780E00E9424
:10353000AB03BC01990F880B990B611571058105CF
:10354000910511F00E94A5288BE391E00E94B50936
:1035500090E080E08C010F5F1F4F8A5E9E4F0E94BB
:10356000B10A080F111DC8018A5E9E4F0E94B10A60
:103570008E3419F0C8010496EDCF68E071E0C801FF
:10358000885E9E4F0E9459108FEF93E00E94C214F4
:1035900060ED77E080E090E00E94E40385E591E053
:1035A0000E94B5098EE491E00E94B50987E491E09C
:1035B0000E94B5095AE0252E312C85E10E94AB030B
:1035C0008C018A3892400CF048C080915E02909144
:1035D0005F020817190709F040C082E691E00E94D7
:1035E000BC02C80163E670E00E94182E6B01072E32
:1035F000000CEE08FF0877FF2CC06DE281E093E03D
:103600000E946F0266277727CB016C197D098E090E
:103610009F094AE00E94E30986E50E94C10981ED05
:1036200093E00E94C214EE24E394FF24F394EFEF9E
:10363000FE1202C0EE24EA9465E070E080E090E0C3
:103640000E94E403FE0C99F710935F0200935E0260
:10365000B4CF4AE0C701B601DDCF10935F020093FB
:103660005E028FB7F8944091980250919902609150
:103670009A0270919B028FBF8091620290916302C7
:10368000A0916402B0916502481B590B6A0B7B0B39
:103690008091010190910201092E000CAA0BBB0B35
:1036A00084179507A607B70708F00CC12FB7F89441
:1036B0008091980290919902A0919A02B0919B02F8
:1036C0002FBF8093620290936302A0936402B09331
:1036D0006502109202011092010161E08091940450
:1036E0000E947A0360E0809194040E94200383E0AA
:1036F00090E00197F1F761E0809194040E9420032B
:103700008BE490E00197F1F760E0809194040E94CF
:10371000200360E0809194040E947A0380919404D5
:1037200090E0FC01E95EFD4F6491FC01ED5FFD4F0F
:10373000E491F0E0EE0FFF1FE359FE4F8591949165
:1037400000E412E42FE030E0462F0E9427186115B4
:1037500071058105910529F06F5F7F4F8F4F9F4F56
:103760009F708B019C0102501109210931090E350E
:103770001A4E2105310508F50E944A2920E030E063
:1037800048E652E40E948B2B0E94042C709399040B
:103790006093980482EA91E00E94A40960919804E1
:1037A0007091990490E080E04AE00E94E30980EB88
:1037B00091E00E94A4090E94B1090091980410911F
:1037C00099041093610200936002003842E01407EC
:1037D00009F478C00D3311050CF4F0C032E3C32EA8
:1037E000D12CE12CF12C9E2D8D2D7C2D6627960160
:1037F00011270027602B712B822B932B6C297D299D
:103800008E299F290E943B1252E1C516D104E10482
:10381000F1040CF4CEC060E071E080E090E0A7011C
:1038200096010E947F2ACA01B9010E94E40381E047
:10383000C81AD108E108F10894E0C916D104E104DE
:10384000F10489F615E0C12ED12CE12CF12CC60132
:10385000772766273E2D2D2D1C2D0027602B712BE1
:10386000822B932B6C297D298E299F290E943B1244
:1038700022E130E040E050E0A2E1CA16D104E104C8
:10388000F10444F060E071E080E090E0A70196016F
:103890000E947F2ACA01B9010E94E403BFEFCB1A3C
:1038A000DB0AEB0AFB0AE2E3CE16D104E104F104E1
:1038B00071F688EE93E0909302018093010181E01C
:1038C00080938B0282EB93E0909374028093730257
:1038D0008091AE039091AF0390937602809375022E
:1038E00080917C0490E0909378028093770280919D
:1038F000AA03833009F0B5C28091B4039091B50357
:10390000875891098E35910508F0A5C28091AE03C4
:103910009091AF03049709F06DC28091B603909126
:10392000B7038097479708F065C28091B8039091DC
:10393000B9030997099708F05DC2109272021092BC
:1039400071028FEF9FEFDC0180936B0290936C020A
:10395000A0936D02B0936E0283E090E090936802B2
:103960008093670280916B0290916C02A0916D022E
:10397000B0916E02892F9A2FAB2FBB27823609F4A4
:10398000E3C308F0B7C3803309F4EDC308F09CC368
:10399000803109F4F1C308F045C36FEA71E0823069
:1039A00009F448C36EEC71E0CE0181960E94421189
:1039B00045C322E130E040E050E035CF0932110547
:1039C0000CF4AEC060E070E0CB010E943B1220E03E
:1039D0003FEF4FEF50E061E08091960490919704A3
:1039E0000E94E70620E03FEF4FEF50E064E0809157
:1039F0009604909197040E94E70680919604909116
:103A000097040E94E91164E670E080E090E00E9473
:103A1000E40320E030E0A90161E0809196049091F8
:103A200097040E94E70620E030E0A90164E080915D
:103A30009604909197040E94E70620E03FEF4FEF35
:103A400050E062E080919604909197040E94E7060E
:103A500020E03FEF4FEF50E065E0809196049091B9
:103A600097040E94E70680919604909197040E9423
:103A7000E91164E670E080E090E00E94E40320E059
:103A800030E0A90162E080919604909197040E9431
:103A9000E70620E030E0A90165E08091960490916E
:103AA00097040E94E70620E03FEF4FEF50E063E00D
:103AB00080919604909197040E94E70620E03FEFE2
:103AC0004FEF50E066E080919604909197040E9439
:103AD000E70680919604909197040E94E91164E6AC
:103AE00070E080E090E00E94E40320E030E0A90173
:103AF00063E080919604909197040E94E70620E08D
:103B000030E0A90166E080919604909197040E94AC
:103B1000E70680919604909197040E94E911D2CE15
:103B200002301105ACF48BE680938F0263EB71E0F9
:103B30008091A4049091A5040E94392F86E080937F
:103B40008E0280ED97E09093020180930101BACE3E
:103B5000043011050CF07FC013E060E070E0CB0191
:103B60000E943B1264E170E080E090E00E94E40378
:103B700060E070E08FEF90E00E943B12115069F717
:103B80000E94FA277C010E94FA278C01D0906002E3
:103B9000DD0C0E94FA27FC01C701B1010E94182E1A
:103BA0002CED280FC801B1010E94182E42ED480FDC
:103BB000CF0163E070E00E94182E6D2D8F5F0E9490
:103BC000D70789E480938F021A82198281E08B8360
:103BD00082E08D83F09004010E94FA2704E110E056
:103BE000B8010E94182EF6EFFF0E8F0D8A83F09019
:103BF00006010E94FA27B8010E94182E46EFF40E23
:103C00008F0D8C83109108010E94FA2760E570E007
:103C10000E94182E1852810F8E8386E090E09093B8
:103C20007A02809379026091A0047091A104CE0180
:103C30000196DB019B012A5F3F4FFC014191CF01BF
:103C40004D93A217B307C9F7DB0116961C9286E0C5
:103C500080938E0237CE0630110594F460E070E058
:103C60008FEF90E00E943B128BE680938F0266EB11
:103C700071E08091A4049091A5040E94392FE7CFB0
:103C800006501109109361020093600270E060E039
:103C9000073011052CF0C80167E070E00E94182E73
:103CA000660F771F660F771FFB01EE5CFE4F60818A
:103CB0007181828193810E943B128CE480938F02F8
:103CC000FE0135968CE1DF011D928A95E9F780911E
:103CD000040190910501880F991F63E070E00E9434
:103CE000182EC80117FD019695958795681B790BCD
:103CF0007A8369838091060190910701880F991F4B
:103D000063E070E00E94182E6A507109C801959511
:103D10008795680F791F7C836B83C801880F991F73
:103D2000080F191F025311090E94FA2762E370E07D
:103D30000E94182E181619060CF457C00E94FA2774
:103D400062E070E00E94182E0197089F9001099F81
:103D5000300D189F300D11243E832D832091600279
:103D600030916102C90137FD0196959587950F96AF
:103D70009A8B898B9C8B8B8BC901CC979E8B8D8B5F
:103D8000988F8F8B81E490E0821B930B9A8F898FA1
:103D90009C8F8B8FC101821B930B9E8F8D8F98A35D
:103DA0008F8F80E190E090937A0280937902609106
:103DB000A0047091A104DB019E012F5F3F4F40E002
:103DC000F901819191919F018F3791058CF4803891
:103DD000FFEF9F0714F480E89FEF8D934F5F403112
:103DE00079F7DB0150961C9232CF81E090E0ADCFA5
:103DF0008FE7F3CF8091AE039091AF0384349105A8
:103E000050F18091B6039091B703815491098F9737
:103E100010F590E080E040E050E0BA01FC01E85489
:103E2000FC4F20813181295031092930310598F426
:103E3000FC01E654FC4F20813181275131092231A8
:103E4000310508F4D1C02081318126503109273055
:103E5000310508F4E2C01092AA031092AF03109249
:103E6000AE0381E093E00E942D02181619068CF52E
:103E700082E080938E0281E093E00E94CB01182FB4
:103E800080938F0261E070E080E090E00E94E403A4
:103E90001B3409F00AC2E090A004F090A10410E0E5
:103EA00000E081E093E00E942D02892B51F081E037
:103EB00093E00E94CB01F701E00FF11F80830F5FB9
:103EC0001F4FF8013197EE0DFF1D80818E3749F7A6
:103ED000108260918E02662309F49EC2F0908F02D8
:103EE000653010F5B2E6FB16F9F0ECE4FE16E1F0F1
:103EF000F9E4FF16C9F08CE88F0D8230A8F070E06D
:103F00006B5F7F4F660F771F072E000C880B990B96
:103F10000E944C29EE24E39410E000E020E030E021
:103F200048E452E40E944C1280918D028356823004
:103F300030F443E6F41619F087E40E94C109809139
:103F40008F02803751F080918C02811106C081E090
:103F500080938C0280E70E94C109F0908F02EEEB03
:103F6000EF0DE93308F0FCC10E2E000CFF0BE554F9
:103F7000F04E0C942C2EC124B021B021B021B021E0
:103F8000B021B0217424B0210F25B4247424B021B1
:103F9000B021B021B021B021B021FF24B021B02147
:103FA000B021B021B021B021B021B021B021B02189
:103FB000B021B02115232C232C239A25B021B02128
:103FC000B021B0212C2381228425B0212C23B021C3
:103FD000B7226E22B021B021BC222C232C23B02189
:103FE000B021B021B021A421440F551F661F771FB7
:103FF000416004968038910509F010CF80E290E08E
:10400000909372028093710240936B0250936C0202
:1040100060936D0270936E029FCC440F551F661F14
:10402000771FE7CF883109F4A1C067EB71E08232D6
:1040300009F0B8CCCE0181960E9483116AEB71E041
:10404000CE0181960E94490A882309F4A1C063EB3E
:1040500071E08AE994E00E940C116AE974E0CE01F3
:1040600087960E94F010CE0181960E94700A6EEC35
:1040700071E0CE0187960E94490A81111AC0009111
:10408000A4041091A5046FA178A5C8010E94392F3E
:10409000D8010D900020E9F7CD0102978017910714
:1040A00009F001C1F801808180938F0281E0809343
:1040B0008E021092AA031092AF031092AE03CE01AB
:1040C00087960E94700ACDCE8A3409F45BC048F40A
:1040D000883309F454C063E871E0823409F4AACF4C
:1040E00061CC823509F451C069E871E08A3509F480
:1040F000A1CF58CC823A29F188F48A37D1F130F433
:1041000064EA71E0883609F495CF4CCC803941F1EE
:1041100061EA71E0883909F48DCF44CC823CB9F072
:1041200040F4883AD1F06EE971E0803B09F482CF27
:1041300039CC803E79F069EB71E0823E09F47ACFA8
:1041400031CC6DEB71E076CF6BEB71E073CF6DEA44
:1041500071E070CF6BEA71E06DCF69EA71E06ACF10
:1041600067EA71E067CF6BE971E064CF67E971E0FE
:1041700061CF63E971E05ECF60E971E05BCF6DE82C
:1041800071E058CF6CE771E055CF67E771E052CF2F
:104190006CEB71E0CE0181960E94490A811110C03A
:1041A0006EEB71E0CE0181960E94490A811108C030
:1041B00060EC71E0CE0181960E94490A8823D1F11A
:1041C0008DA19EA1892B21F0E9A1FAA1309721F4BC
:1041D00010926602E6E6F2E01081109303011634B5
:1041E00031F467E771E08AE994E00E940C116AE912
:1041F00074E0CE0101960E94F0101FA318A641E0C2
:1042000050E0BE01695D7F4FCE0101960E94A31070
:10421000811104C0CE0101960E945E0ABE016F5F4B
:104220007F4FCE0187960E94F010CE0101960E942A
:10423000700A19CF62EC71E0CE0181960E94490AA2
:1042400081111EC065EC71E0CE0181960E94490A81
:10425000811116C067E771E0CE0181960E94490A7C
:1042600081110EC018A61FA21AA619A61CA61BA66D
:10427000BE016F5D7F4FCE0187960E94780AF3CE14
:1042800069A17AA16115710549F04DA15EA18AE984
:1042900094E00E94CF1010910301A9CF8AE994E025
:1042A0000E945E0AF8CF8BE6FFCE81E093E00E9489
:1042B0002D02181619060CF020C56EEC71E0CE0127
:1042C00081960E944211193439F084EB810F8230BB
:1042D00018F06AE0123409F46EE7CE0101960E94EC
:1042E0005311BE016F5F7F4FCE0181960E94780A05
:1042F000CE0101960E94700A2DA13EA130937A0250
:10430000209379021B3631F08091A0049091A10492
:10431000143721F48091A4049091A50449A15AA1D5
:10432000DC01FA01BF01641B750B621773071CF4F3
:1043300061916D93F7CF820F931FDC011C92CE0128
:1043400081960E94700AC5CD80918B0291E08927E9
:1043500080938B02882311F05AE5F52EF0928F029C
:1043600080918F028B3621F49091A0021916E4F40B
:104370000E94C10910918F02812F012E000C990B10
:104380000E94122F873631F0863721F0823611F0E5
:104390001A3621F480918D028B3619F01B7F10376D
:1043A00019F48BE680938F020091A4041091A50468
:1043B00064ED71E0C8010E94302FF0908F02892BCC
:1043C00009F1E9E4FE16F1F085EB8F0D8330D0F0B2
:1043D0008091A2049091A304009711F00E942527D8
:1043E00081E090E00E948926F80101900020E9F721
:1043F000E01BDC01EC939093A3048093A204B8012A
:104400000E94392F10928E02F0928D028F2D877F9D
:10441000833611F010928F0280918F028B3609F053
:104420001CC41091A00217FF97C3D090AD02DA947C
:1044300010E082E3C82E212F30E08091A002082EE8
:10444000000C990B97FF03C091958195910928174E
:1044500039070CF002C4E090AF02F090B0028091F6
:10446000A502189FE00CF11C1124F7016089062EAB
:10447000000C770B880B990B0E944C2920E030E050
:1044800040E85EE30E94AB299B01AC0100E0609133
:10449000AA02C7010E949A0D8091A502E091AF0285
:1044A000F091B002189FE00DF11D11242189022E18
:1044B000000C330BAC2D0C2C000CBB0B0E94322ECD
:1044C0000E94E4038091AC02181306C01D1424F46A
:1044D0001091AB021150DA941F5FADCF80918C0226
:1044E00091E0811190E090938C02882311F040E5D7
:1044F000F42EF0928F02882309F432CF0E94CB076A
:104500002FCF0E94270A6EEC71E0CE0181960E94A7
:10451000421134E0E32E31E0F32E04E211E0D70142
:104520006D917D917D01CE0101960E9416114D8104
:104530005E8169817A81CE0181960E94A310CE01AD
:1045400001960E94700A42E050E06CEC71E0CE01EE
:1045500081960E94A3100E151F0509F7CE018196C2
:104560000E94D009CE0181960E94700AF9CE86EC95
:1045700093E00E94C214F4CE81EF91E00E94B5094D
:104580009BE7892E92E0992E20E4E22EF12C00E1A7
:1045900010E0F401D1904F01C8010E94692AD81699
:1045A00021F06D2DC8010E94712AC7010E94440BA1
:1045B0006C01C80180960E94B10AB82EF4013197AF
:1045C0006081062E000C770B880B990B0E944C29FA
:1045D0002B013C016B2DBB0C770B880B990B0E94B8
:1045E0004C299B01AC01C301B2010E94AB292B01F4
:1045F0003C01B601DD0C880B990B0E944C299B01F4
:10460000AC01C301B2010E941A2B0E94FD2BC7010D
:1046100080960E9459100F5F1F4FF2E0EF0EF11CC1
:104620000032110509F0B5CF9BCE89EE91E00E94D2
:10463000B5090BE712E080E1E82EF12CC7010E94DA
:10464000B10AD8018D938D01BFEFEB1AFB0AE0E2AE
:10465000EE16F10499F784CEE4E0F1E0DE01119664
:1046600084E291E03D01219131912D933D938E178C
:104670009F07C9F7F4E78091A4049091A504FF1661
:1046800021F08091A0049091A10468EC71E00E9457
:10469000DC286C011BE8412E12E0512EC114D1041C
:1046A00009F4C8C0C6010E94AE288C016BEC71E011
:1046B00090E080E00E94DC286C01F12CE12C992430
:1046C0009394009761F00E94AE287C016BEC71E03E
:1046D00090E080E00E94DC286C01B2E09B2EF801A3
:1046E000EE0FFF1FE60DF71DF182E08280918F0231
:1046F000833609F0A5C010928B0280918D0283361B
:1047000061F0A090A404B090A50461E771E0C50138
:104710000E94392FC5010E94250FA80145585D4F01
:104720005A0152E0951202C0D501EC92C801809660
:10473000880F991F0E94440B7C01C8019927C096DD
:104740000E94B10A182FF5016081062E000C770B2C
:10475000880B990B0E944C294B015C01612F110FB2
:10476000770B880B990B0E944C299B01AC01C5016A
:10477000B4010E94AB294B015C01B701FF0C880B0F
:10478000990B0E944C299B01AC01C501B4010E9408
:104790001A2B0E94FD2B072E000C880B990B0E94F0
:1047A0004C29AB01BC01802F0E94580B0E94270AA4
:1047B0006EEC71E0CE0187960E9442110BE712E089
:1047C000D8016D918D01062E000C770BCE018196DC
:1047D0000E9416114DA15EA169A17AA1CE01879612
:1047E0000E94A310CE0181960E94700A42E050E020
:1047F0006CEC71E0CE0187960E94A3104016510622
:10480000F9F6CE0187960E94D009CE0187960E94C4
:10481000700AC114D10409F041CF80918F0289360A
:1048200009F09ECD40E050E060E070E4C3010E94DA
:104830004F0C96CDF12CE12C10E000E0912C4FCFE5
:104840008D3641F440E050E060E070E4C3010E9426
:104850004F0CDFCF8437E9F2853761F50E94FA27E4
:104860005C010E94FA277C010E94FA278C010E94B9
:10487000FA27FC01C501B1010E94182E2CED280F6A
:10488000C701B1010E94182E42ED480FC80164E033
:1048900070E00E94182E0296382F330F330F380F16
:1048A000CF0162E070E00E94182E632F8F5F0E949C
:1048B000D707AFCF823609F0ACCFB701FF0C880B1A
:1048C000990B0E944C294B015C01B801110F880B18
:1048D000990B0E944C29EE24E39402E310E0A50119
:1048E00094010E944C1295CFE4E0F1E0DE011196B4
:1048F00084E291E07D01219131912D933D938E17BA
:104900009F07C9F710E000E020918F0280917902A3
:1049100090917A0208171907F4F4A091A004B091BD
:10492000A104A00FB11FEC91EE0FFF0BEE0DFF1DC8
:1049300011968C91082E000C990B918380832D3455
:1049400039F440E050E060E070E4C7010E944F0C91
:104950000E5F1F4FD9CF293409F002CD40E050E05F
:1049600060E070E4C70163CF00E020E030E040E0A9
:1049700050E461E08091A0049091A1040E949A0DFE
:10498000EFCCF12C68EEC62E63E0D62E2F2D30E052
:104990008091790290917A0297FD0196959587957D
:1049A000281739070CF0AEC10091A0041091A104A2
:1049B000220F331F020F131FF8016181062E000C16
:1049C000770BC6010E94182E072E000C880B990B3E
:1049D0000E944C294B015C01D8016C91062E000C01
:1049E000770B880B990B0E944C29EE24E39410E07E
:1049F00000E0A50194010E944C12F394C7CF84E11A
:104A000091E00E94440B0E9463080E94020F809173
:104A10008F020E94C1098BE680938F02A1CCA090E7
:104A2000A004B090A10484E191E00E94440B8C01A9
:104A3000F50160816093A00285EA92E00E946C0714
:104A400001967C01D12CC12C5524539424E5422E8F
:104A50001E141F049CF55092B4024092B3021092AF
:104A6000B2021092B102612F70E08EE993E00E94D1
:104A70008907B80177278EE993E00E9489074501ED
:104A80008C0C9D1C3801F0E16F0E711C011540E289
:104A90001407B9F40E94B1098FEB91E00E94B509A7
:104AA00092E0E92E02E310E020E030E048EC52E42E
:104AB00060E070E080E291E40E944C120E94020FDC
:104AC000AACF5FEFC51AD50AD4016D914D018EE9C9
:104AD00093E00E949C050F5F1F4FB1E0EB1AF108B5
:104AE00041F0C8018F719927892B19F06016710662
:104AF00069F68EE993E00E94CB0566E070E080E005
:104B000090E00E94E403A4CF0091A4041091A504B6
:104B1000B8018091A2049091A3040E94302F892BA8
:104B200029F48091A00282300CF0EAC0C8010E94F2
:104B3000250F16CC0091A4041091A5046FEC71E030
:104B4000C8010E94392FC8010E94250F0E94CB077F
:104B500087E60E94C10904CC80919C02803108F450
:104B6000A8C0209196023091970210929C028091E9
:104B70008C02820F932F911D212F012E000C330BDD
:104B8000821793070CF091C090939702809396023E
:104B900000919C022091AE02C0909602D0909702A4
:104BA000E02EF12C021708F08DC012300CF48AC0F0
:104BB000812C912C5401013059F060919F02062EF6
:104BC000000C770B880B990B0E944C294B015C0160
:104BD000F2E0EF0EF11CEC9CB001ED9C700DFC9C22
:104BE000700D1124072E000C880B990B0E944C2984
:104BF0002BED3FE049E450E40E94AB296B017C01BE
:104C0000612F110F770B880B990B0E944C299B0188
:104C1000AC01C701B6010E948B2B0E94C72C20E07B
:104C200030E040E251E40E94AB29A50194010E94CA
:104C30001A2B209190023091910240919202509152
:104C400093020E941A2BAB01BC01802F0E94A90B7A
:104C500080919C028F5F80939C028091A00287FFCD
:104C600014C00091A4041091A50467ED71E0C8017F
:104C70000E94392FF8018081882319F0C8010E9411
:104C8000250F80918F020E94C10980E090E0892B5E
:104C900011F40C94DD1A0E943902882311F40C944B
:104CA000DA1A0E9400000C94DA1A109297021092FD
:104CB000960280919C02843009F06ACF88E080934C
:104CC0009C0266CF3091A5023C9DC0013D9D900D98
:104CD0001124E80EF91EE21AF1088091AF029091BA
:104CE000B002E80EF91ED7016C91062E000C770B6E
:104CF000880B990B0E944C299CCF60918E02EEC8C4
:104D00008F2D32CB80918F0233CB8AE994E00C94C3
:104D1000700A0F931F93CF93DF938230910510F4A5
:104D200082E090E0E091AA04F091AB0430E020E052
:104D3000B0E0A0E0309799F42115310509F44AC09C
:104D4000281B390B24303105D8F58A819B816115E8
:104D5000710589F1FB0193838283FE0111C04081BB
:104D600051810281138148175907E0F0481759070C
:104D700099F4109761F012960C93129713961C9366
:104D80003296CF01DF91CF911F910F91089500933B
:104D9000AA041093AB04F4CF2115310551F042174A
:104DA000530738F0A901DB019A01BD01DF01F801C9
:104DB000C1CFEF01F9CF9093AB048093AA04CDCF7C
:104DC000FE01E20FF31F8193919322503109398341
:104DD0002883D7CF2091A8043091A904232B41F434
:104DE00020912601309127013093A9042093A80433
:104DF00020912401309125012115310541F42DB771
:104E00003EB74091280150912901241B350BE091B8
:104E1000A804F091A904E217F307A0F42E1B3F0B9E
:104E20002817390778F0AC014E5F5F4F241735071C
:104E300048F04E0F5F1F5093A9044093A80481933C
:104E400091939FCFF0E0E0E09CCFCF93DF9300976A
:104E5000E9F0FC01329713821282A091AA04B0916A
:104E6000AB04ED0130E020E01097A1F42081318106
:104E7000820F931F2091A8043091A90428173907A5
:104E800009F061C0F093A904E093A804DF91CF91E9
:104E90000895EA01CE17DF07E8F54A815B819E019C
:104EA00041155105B1F7E901FB83EA834991599115
:104EB000C40FD51FEC17FD0761F480819181029624
:104EC000840F951FE90199838883828193819B8355
:104ED0008A83F0E0E0E012968D919C911397009701
:104EE000B9F52D913C911197CD010296820F931F38
:104EF0002091A8043091A9042817390739F6309772
:104F000051F51092AB041092AA04B093A904A09397
:104F1000A804BCCFD383C28340815181840F951FE5
:104F2000C817D90761F44E5F5F4F88819981480F98
:104F3000591F518340838A819B81938382832115EA
:104F4000310509F0B0CFF093AB04E093AA049ECFF3
:104F5000FD01DC01C0CF13821282D7CF8F929F92C6
:104F6000AF92BF92CF92DF92EF92FF92CF93DF93F7
:104F7000EC01688179818A819B81611571058105C8
:104F8000910521F464E279ED8BE597E02DE133EFB3
:104F900041E050E00E947F2A49015A019B01AC0187
:104FA000A7EAB1E40E949E2A6B017C01ACEEB4EF4B
:104FB000A50194010E94AC2ADC01CB018C0D9D1D42
:104FC000AE1DBF1DB7FF03C00197A109B04888837C
:104FD0009983AA83BB839F77DF91CF91FF90EF9056
:104FE000DF90CF90BF90AF909F908F9008950E94D8
:104FF000AE2708958AE291E00E94AE270895B0E0BE
:10500000A0E080932A0190932B01A0932C01B093F0
:105010002D0108958F929F92AF92BF92CF92DF920F
:10502000EF92FF92CF93DF93EC01688179818A81BF
:105030009B81611571058105910521F464E279ED8B
:105040008BE597E02DE133EF41E050E00E947F2AAD
:1050500049015A019B01AC01A7EAB1E40E949E2AD2
:105060006B017C01ACEEB4EFA50194010E94AC2A67
:10507000C60ED71EE81EF91EF7FE06C081E0C81A4C
:10508000D108E10880E8F80AC882D982EA82FB8266
:10509000C701B6019F77DF91CF91FF90EF90DF902E
:1050A000CF90BF90AF909F908F9008958F929F92D6
:1050B000AF92BF92CF92DF92EF92FF9260912E015A
:1050C00070912F018091300190913101611571052E
:1050D0008105910521F464E279ED8BE597E02DE1FE
:1050E00033EF41E050E00E947F2A49015A019B01C1
:1050F000AC01A7EAB1E40E949E2A6B017C01ACEEF0
:10510000B4EFA50194010E94AC2AC60ED71EE81E7A
:10511000F91EF7FE06C081E0C81AD108E10880E850
:10512000F80AC0922E01D0922F01E0923001F09245
:105130003101C701B6019F77FF90EF90DF90CF90CC
:10514000BF90AF909F908F90089560932E017093C1
:105150002F0180933001909331010895FC0188273D
:105160009927E89421912032E9F3293010F02E306C
:10517000C8F32B3241F02D3239F4689404C00E94F8
:105180001329820F911D219120532A30C0F31EF460
:10519000909581959F4F0895FB01DC0105900D923C
:1051A0000020E1F70895FC0105900020E9F78095C3
:1051B00090958E0F9F1F089546EA54E00E94E128C3
:1051C0000895FA01A191B081009719F41097E1F0C8
:1051D000CD01DC01CD010D90002011F4C00113C000
:1051E000FB012191222319F02015D9F7F3CFFB0100
:1051F0002191201519F41E92119606C02223C1F7A1
:105200000D900020A1F7D001FA01A193B083089579
:10521000BB274A3031F4992322F4BDE29095819561
:105220009F4F0C941C297AE0979F902D879F802D8B
:10523000910D11240895BB27FB015527AA27880F3C
:10524000991FAA1FA41710F0A41B83955051B9F7FA
:10525000A05DAA3308F0A95DA193009779F7B11179
:10526000B1931192CB010C943529DC01FC01672F1D
:1052700071917723E1F7329704C07C916D9370832D
:105280006291AE17BF07C8F308950E94872908F4FA
:1052900081E00895E89409C097FB3EF490958095CD
:1052A000709561957F4F8F4F9F4F9923A9F0F92FEC
:1052B00096E9BB279395F695879577956795B7956A
:1052C000F111F8CFFAF4BB0F11F460FF1BC06F5F50
:1052D0007F4F8F4F9F4F16C0882311F096E911C062
:1052E000772321F09EE8872F762F05C0662371F083
:1052F00096E8862F70E060E02AF09A95660F771F97
:10530000881FDAF7880F9695879597F90895990F72
:105310000008550FAA0BE0E8FEEF16161706E8077F
:10532000F907C0F012161306E407F50798F0621BA0
:10533000730B840B950B39F40A2661F0232B242B75
:10534000252B21F408950A2609F4A140A6958FEF94
:10535000811D811D08950E94BE290C942F2A0E9450
:10536000212A38F00E94282A20F0952311F00C946D
:10537000182A0C941E2A11240C94632A0E94402A95
:1053800070F3959FC1F3950F50E0551F629FF00198
:10539000729FBB27F00DB11D639FAA27F00DB11DB1
:1053A000AA1F649F6627B00DA11D661F829F22273A
:1053B000B00DA11D621F739FB00DA11D621F839FC1
:1053C000A00D611D221F749F3327A00D611D231F97
:1053D000849F600D211D822F762F6A2F11249F57E5
:1053E00050409AF0F1F088234AF0EE0FFF1FBB1FE8
:1053F000661F771F881F91505040A9F79E3F5105A7
:1054000080F00C94182A0C94632A5F3FE4F3983ED2
:10541000D4F3869577956795B795F795E7959F5F50
:10542000C1F7FE2B880F911D9695879597F90895E2
:1054300097F99F6780E870E060E008959FEF80EC47
:10544000089500240A9416161706180609060895EA
:1054500000240A9412161306140605060895092E50
:105460000394000C11F4882352F0BB0F40F4BF2BBF
:1054700011F460FF04C06F5F7F4F8F4F9F4F0895FF
:1054800057FD9058440F551F59F05F3F71F04795F5
:10549000880F97FB991F61F09F3F79F087950895DA
:1054A000121613061406551FF2CF4695F1DF08C0F9
:1054B000161617061806991FF1CF86957105610516
:1054C00008940895E894BB2766277727CB0197F9BE
:1054D0000895F999FECF92BD81BDF89A992780B5BC
:1054E0000895262FF999FECF1FBA92BD81BD20BD28
:1054F0000FB6F894FA9AF99A0FBE01960895052E00
:1055000097FB1EF400940E94962A57FD07D00E9434
:10551000E82A07FC03D04EF40C94962A5095409547
:10552000309521953F4F4F4F5F4F0895909580954F
:10553000709561957F4F8F4F9F4F08950E940A2B62
:10554000A59F900DB49F900DA49F800D911D1124D7
:105550000895B7FF0C949E2A0E949E2A821B930BEB
:1055600008952F923F924F925F926F927F928F9207
:105570009F92AF92BF92CF92DF92EF92FF920F93E2
:105580001F93CF93DF93CDB7DEB7CA1BDB0B0FB6EC
:10559000F894DEBF0FBECDBF09942A8839884888A9
:1055A0005F846E847D848C849B84AA84B984C8843F
:1055B000DF80EE80FD800C811B81AA81B981CE0F36
:1055C000D11D0FB6F894DEBF0FBECDBFED0108951B
:1055D000A1E21A2EAA1BBB1BFD010DC0AA1FBB1FF7
:1055E000EE1FFF1FA217B307E407F50720F0A21B69
:1055F000B30BE40BF50B661F771F881F991F1A94D6
:1056000069F760957095809590959B01AC01BD01FF
:10561000CF010895A29FB001B39FC001A39F700D59
:10562000811D1124911DB29F700D811D1124911DAA
:1056300008955058BB27AA270E94312B0C942F2A7B
:105640000E94212A38F00E94282A20F039F49F3F36
:1056500019F426F40C941E2A0EF4E095E7FB0C9442
:10566000182AE92F0E94402A58F3BA1762077307D5
:105670008407950720F079F4A6F50C94622A0EF4BD
:10568000E0950B2EBA2FA02D0B01B90190010C0152
:10569000CA01A0011124FF27591B99F0593F50F46A
:1056A000503E68F11A16F040A22F232F342F4427C2
:1056B000585FF3CF469537952795A795F0405395BA
:1056C000C9F77EF41F16BA0B620B730B840BBAF08A
:1056D0009150A1F0FF0FBB1F661F771F881FC2F7F5
:1056E0000EC0BA0F621F731F841F48F48795779509
:1056F0006795B795F7959E3F08F0B0CF9395880FC3
:1057000008F09927EE0F9795879508950E94352CFC
:10571000E3950C945E2C0E949F2B0C942F2A0E94E0
:10572000282A58F00E94212A40F029F45F3F29F0EE
:105730000C94182A51110C94632A0C941E2A0E946E
:10574000402A68F39923B1F3552391F3951B550B28
:10575000BB27AA2762177307840738F09F5F5F4F44
:10576000220F331F441FAA1FA9F335D00E2E3AF083
:10577000E0E832D091505040E695001CCAF72BD09B
:10578000FE2F29D0660F771F881FBB1F26173707EC
:105790004807AB07B0E809F0BB0B802DBF01FF271E
:1057A00093585F4F3AF09E3F510578F00C94182AB9
:1057B0000C94632A5F3FE4F3983ED4F38695779583
:1057C0006795B795F7959F5FC9F7880F911D9695D7
:1057D000879597F90895E1E0660F771F881FBB1F33
:1057E000621773078407BA0720F0621B730B840BE0
:1057F000BA0BEE1F88F7E09508950E94042C689478
:10580000B1110C94632A08950E94482A88F09F578A
:1058100098F0B92F9927B751B0F0E1F0660F771FD4
:10582000881F991F1AF0BA95C9F714C0B13091F0CA
:105830000E94622AB1E008950C94622A672F782FA3
:105840008827B85F39F0B93FCCF38695779567958F
:10585000B395D9F73EF490958095709561957F4FFB
:105860008F4F9F4F08950C941E2A0E94482AD8F308
:10587000E894E0E0BB279F57F0F02AED3FE049ECC9
:1058800006C0EE0FBB0F661F771F881F28F0B23AC5
:1058900062077307840728F0B25A620B730B840BFC
:1058A000E3959A9572F7803830F49A95BB0F661F8E
:1058B000771F881FD2F790480C940B2DEF93E0FFD1
:1058C00007C0A2EA2AED3FE049EC5FEB0E94312BD2
:1058D0000E942F2A0F90039401FC9058E8E6F0E014
:1058E0000C943E2D0E94872908F48FEF0895FA0149
:1058F000EE0FFF1F309621053105A1F161157105ED
:1059000061F48038BFE39B0749F1689490388105C2
:1059100061F08038BFEF9B0741F099234AF5FF3FC4
:10592000E1053105210519F1E8940894E795D901BD
:10593000AA2329F4AB2FBE2FF85FD0F310C0FF5F6E
:1059400070F4A695E0F7F73950F019F0FF3A38F403
:105950009F779F930DD00F9007FC9058089546F0C5
:105960000C941E2A60E070E080E89FE308954FE702
:105970009F775F934F933F932F930E949C2D2F917E
:105980003F914F915F910E94AB290C94D72C9F932C
:105990000E94352C0F9007FCEE5F0C945E2C29F4CE
:1059A00016F00C94182A0C94622A0C941E2A0E9459
:1059B000482AA8F39638A0F707F80F92E8942BE34B
:1059C0003AEA48EB5FE70E94C1290F920F920F92CB
:1059D0004DB75EB70F920E94E42DE6E8F0E00E941A
:1059E000172D4F915F91EF91FF91E595EE1FFF1FEE
:1059F00049F0FE57E0684427EE0F441FFA95E1F79F
:105A00004195550B0E945E2D0F9007FE0C94522D70
:105A100008959F3F31F0915020F4879577956795D1
:105A2000B795880F911D9695879597F90895DF93FF
:105A3000CF931F930F93FF92EF92DF927B018C0124
:105A4000689406C0DA2EEF010E94BE29FE01E89498
:105A5000A5912591359145915591A6F3EF010E94AD
:105A6000312BFE019701A801DA9469F7DF90EF90DE
:105A7000FF900F911F91CF91DF9108959F938F9386
:105A80007F936F93FF93EF939B01AC010E94AB292F
:105A9000EF91FF910E94172D2F913F914F915F91B0
:105AA0000C94AB299B01AC0160E070E080E89FE3BF
:105AB0000C948B2B0C94182A0C94092D0E94482AC4
:105AC000D8F39923C9F3940F511DA3F3915050407B
:105AD00094F059F0882332F0660F771F881F915099
