:100000000C94C0010C94E8010C94E8010C94E801F4
:100010000C94E8010C94E8010C94E8010C9426146B
:100020000C94E8010C94E8010C94E8010C9443163C
:100030000C94E8010C94E8010C94E8010C94E8019C
:100040000C94DA140C94E8010C94A8140C94821407
:100050000C94E8010C94E8010C94E8010C94E8017C
:100060000C9424150C94E80105A84CCDB2D44EB9DB
:100070003836A9020C50B9918688083CA6AAAA2A4B
:10008000BE000000803F07634236B79BD8A71A39ED
:10009000685618AEBAAB558C1D3CB7CC5763BD6DD6
:1000A000EDFD753EF6177231BF000000803F08007D
:1000B0000000BE922449123EABAAAA2ABECDCCCCE7
:1000C0004C3E00000080BEABAAAAAA3E0000000081
:1000D000BF000000803F0000000000084178D3BB53
:1000E0004387D1133D190E3CC3BD4282AD2B3E6800
:1000F000EC8276BED98FE1A93E4C80EFFFBE01C4F1
:10010000FF7F3F0000000000010000010000000030
:1001100000000000000000000000000063686F6E37
:10012000672066753A54200079616F20746F753AC4
:100130006D30202D343520302034352030202D34C2
:100140003520302034350073692064616E20646589
:1001500020612070753A6B62616C616E6365006846
:1001600065206C6F753A6B6869006775616E206316
:1001700068613A6B636B0073687569206A69616FC7
:100180003A6420006C69616E67207A6869206C614E
:100190006F2068753A62382039302031302039308C
:1001A0002031322039302038203930203820393081
:1001B0002031302039302031322039302038203978
:1001C0003020313220393020313320393020313560
:1001D000203138302031322039302031332039304D
:1001E000203135203138300074612062753A6B76E9
:1001F00074006A696120796F753A6B6A7900667577
:1002000020776F206368656E673A6B7075007A754A
:100210006F207869613A6B736974007169206C6949
:100220003A6B62616C616E6365006E692068616F34
:100230003A6B6869006D61207069206A696E673A7F
:100240006D302035302030202D31302030203330BB
:100250000000000000230026002900000000080024
:10026000020100000304070000000000000000027B
:1002700000000000250028002B00000000002400E2
:1002800027002A00040404040404040402020202F5
:100290000202030303030303010204081020408049
:1002A0000102040810200102040810204C6F616450
:1002B00020736B696C6C7300526561647921004E28
:1002C0007962626C65000A2A205374617274202A74
:1002D000003E004C6F7720706F7765723A007A6548
:1002E000726F00627574745570007374616E64008F
:1002F00070656500707500686900737472007369D9
:100300007400747200776B0063720076740063008F
:1003100042007000520062616C616E6365004C00C7
:1003200067004600640035022A021B020E02FE012D
:10033000F201E801840177016A015F0147012801A8
:100340001C0149324320454550524F4D206F766580
:1003500072666C6F77212044656C65746520736FDD
:100360006D6520736B696C6C73210A0061626F723A
:10037000746564007361766564003F003017E222A3
:1003800011241FBECFEFD8E0DEBFCDBF11E0A0E04B
:10039000B1E0E6E5F7E502C005900D92A23AB1079B
:1003A000D9F724E0A2EAB1E001C01D92A636B20757
:1003B000E1F711E0CFEBD1E004C02197FE010E94EC
:1003C000892ACE3BD107C9F70E949D170C949E2B1A
:1003D0000C94000091E09093740280937302109249
:1003E000720210927102089580E090E0A0E0B0E403
:1003F0008093610290936202A0936302B0936402BF
:10040000E0915A04F0915B048181082E000C990B55
:1004100090936702809366028281082E000C990BEC
:100420009093690280936802838180936A0280912D
:10043000600287FF0CC0848180936B02858180936A
:100440006C02868180936D0287E090E005C0813068
:1004500061F05CF084E098E090936E02E80FF11D8B
:10046000F0937002E0936F02089584E0EECF8091E4
:10047000540290915502891B990B0895089508958F
:100480000895AF92BF92CF92DF92EF92FF920F93B7
:100490001F93CF93DF936C017B018B01040F151F1A
:1004A000EB015E01AE18BF08C017D10759F0699182
:1004B000D601ED91FC910190F081E02DC6010995E6
:1004C000892B79F7C501DF91CF911F910F91FF9093
:1004D000EF90DF90CF90BF90AF900895FC01538DC7
:1004E000448D252F30E0842F90E0821B930B54170E
:1004F00010F0CF96089501970895FC01918D828D9B
:10050000981761F0A28DAE0FBF2FB11D5D968C9133
:10051000928D9F5F9F73928F90E008958FEF9FEF72
:1005200008952FB7F8948091580290915902A091A4
:100530005A02B0915B022FBF8093C9029093CA0206
:10054000A093CB02B093CC0281EC92E00E947D029A
:1005500097FF26C02FB7F8948091580290915902C6
:10056000A0915A02B0915B022FBF4091C9025091F5
:10057000CA026091CB027091CC02841B950BA60B32
:10058000B70B4091C5025091C6026091C7027091AD
:10059000C80284179507A607B707B0F28FEF9FEF41
:1005A0000895FC01918D828D981731F0828DE80FAE
:1005B000F11D858D90E008958FEF9FEF0895FC0168
:1005C000918D228D892F90E0805C9F4F821B910935
:1005D0008F739927089581EC92E00E94DF0221E059
:1005E000892B09F420E0822F089580E090E0892B88
:1005F00029F00E94EB0281110C9400000895FC0187
:10060000A48DA80FB92FB11DA35ABF4F2C91848D73
:1006100090E001968F739927848FA689B7892C93D0
:10062000A089B1898C91837080648C93938D848D23
:10063000981306C00288F389E02D80818F7D808326
:100640000895EF92FF920F931F93CF93DF93EC01E6
:1006500081E0888F9B8D8C8D98131AC0E889F98969
:10066000808185FF15C09FB7F894EE89FF8960836C
:10067000E889F98980818370806480839FBF81E0ED
:1006800090E0DF91CF911F910F91FF90EF9008952F
:10069000F62E0B8D10E00F5F1F4F0F731127E02E0A
:1006A0008C8D8E110CC00FB607FCFACFE889F98942
:1006B000808185FFF5CFCE010E94FF02F1CFEB8D47
:1006C000EC0FFD2FF11DE35AFF4FF0829FB7F89416
:1006D0000B8FEA89FB8980818062CFCF0F931F93B4
:1006E000CF93DF938C01D0E0C0E0F801EC0FFD1F49
:1006F0006491662341F081EC92E00E942103892BF2
:1007000011F02196F2CFCE01DF91CF911F910F9181
:100710000895CF93DF93EC01888D8823B9F0AA89DF
:10072000BB89E889F9898C9185FD03C0808186FDAC
:100730000DC00FB607FCF7CF8C9185FFF2CF8081FB
:1007400085FFEDCFCE010E94FF02E9CFDF91CF916F
:100750000895833081F028F4813099F08230A9F037
:1007600008958730A9F08830C9F08430B1F48091C1
:1007700080008F7D03C0809180008F778093800000
:10078000089584B58F7784BD089584B58F7DFBCFA0
:100790008091B0008F778093B00008958091B00071
:1007A0008F7DF9CF1F93CF93DF93282F30E0F9018E
:1007B000E55AFD4F8491F901E856FD4FD491F901B6
:1007C000EC57FD4FC491CC23A9F0162F81110E9444
:1007D000A903EC2FF0E0EE0FFF1FE059FD4FA591AC
:1007E000B4918FB7F894EC91111108C0D095DE2325
:1007F000DC938FBFDF91CF911F910895DE2BF8CF4F
:100800009091000189130BC0EFE6F2E0E4919FEFB5
:1008100090930001E13049F028F0E23061F060E0AF
:100820000C94D20310926E00FACF90916F009D7FCE
:1008300090936F00F4CF909170009D7F9093700023
:1008400091E09093B0009091B100987F9460909364
:10085000B1001092B300E3CF8E3008F08E50806468
:1008600080937C0080917A00806480937A008091EC
:100870007A0086FDFCCF80917800909179000895F0
:100880003FB7F8948091110290911202A091130247
:10089000B091140226B5A89B05C02F3F19F0019610
:1008A000A11DB11D3FBFBA2FA92F982F8827BC01CA
:1008B000CD01620F711D811D911D42E0660F771FF2
:1008C000881F991F4A95D1F708958F929F92AF92F2
:1008D000BF92CF92DF92EF92FF926B017C010E9458
:1008E00040044B015C01C114D104E104F104B9F0EE
:1008F0000E944004681979098A099B09683E73407F
:100900008105910580F321E0C21AD108E108F108C0
:1009100088EE880E83E0981EA11CB11CE4CFFF90E6
:10092000EF90DF90CF90BF90AF909F908F90089501
:100930002091ED01260F3327331F21323105ECF4CE
:100940002091BB02FC0190E080E0243069F082E05D
:100950000895A091ED012191AC0143535E4FA40F86
:10096000B52FB11D2C930196861798F38091ED0158
:10097000680F6093ED0180E0089581E00895109282
:10098000BB0281E080939A021092950261E082E1BD
:100990000E94D20361E083E10E94D203E9EBF0E020
:1009A00080818E7F808380818D7F808388E48093A7
:1009B000B80085E48093BC000895CF93DF9391E065
:1009C0009093CC018823B9F0C091B800D091BA00BF
:1009D0008091BC008A7B8093BC0060E082E10E9431
:1009E000D20360E083E10E94D2030E94BF04D0934F
:1009F000BA00C093B800DF91CF910895CF92DF92F3
:100A0000EF92FF920F931F93CF93DF93D82FC62FB0
:100A1000613208F098C00E9440046B017C01809113
:100A2000BB0281116BC081E08093BB0280939A026C
:100A30009FEF90939902109298029C0F90939702C7
:100A40008093960280919602DD0FD82BD093960268
:100A500080919502813009F078C0109295020E9431
:100A600040046B017C01809196028093BB008091D1
:100A7000BD029091BE02A091BF02B091C002892B2D
:100A80008A2B8B2BA1F00E9440040091BD02109193
:100A9000BE022091BF023091C0026C197D098E09FF
:100AA0009F09061717072807390708F448C08091DF
:100AB000BC0083FDD8CF85EC8093BC000E9440042D
:100AC0006B017C018091BB02813009F440C08091B0
:100AD00098028C1710F4C0919802E5E7F2E0ABE9B8
:100AE000B2E080E08C1355C08C2FDF91CF911F9125
:100AF0000F91FF90EF90DF90CF9008958091BD020D
:100B00009091BE02A091BF02B091C002892B8A2BA6
:100B10008B2B09F484CF0E9440040091BD021091F8
:100B2000BE022091BF023091C0026C197D098E096E
:100B30009F09061717072807390708F070CF80911B
:100B4000BC020E94DD04C0E0CFCF85EEB5CF80911E
:100B5000BD029091BE02A091BF02B091C002892B4C
:100B60008A2B8B2B09F4AECF0E9440040091BD026A
:100B70001091BE022091BF023091C0026C197D0914
:100B80008E099F09061717072807390708F09ACF1B
:100B9000D6CF91919D938F5FA5CF0895E091550297
:100BA00080915402E81730F4F0E0E556FD4F808163
:100BB00090E008958FEF9FEF0895909155028091F6
:100BC00054022FEF3FEF981748F4E92FF0E0E55675
:100BD000FD4F208130E09F5F90935502C901089539
:100BE000CF92DF92EF92FF920F931F93CF93DF93F9
:100BF0007C01CB018A0120917402222389F0EB0150
:100C00006B01C40ED51ECC15DD0569F06991D701C5
:100C1000ED91FC910190F081E02DC7010995F3CF92
:100C2000642F0E949804C801DF91CF911F910F910A
:100C3000FF90EF90DF90CF900895CF93DF931F92B6
:100C4000CDB7DEB76983209174022223F9F0209199
:100C50007102203258F021E030E0FC01338322831E
:100C600090E080E00F90DF91CF9108958091720223
:100C7000E82FF0E0E455FE4F998190838F5F8093D9
:100C800072028093710281E090E0ECCF61E0CE01CE
:100C900001960E949804F7CFCF92DF92EF92FF92D5
:100CA0000F931F93CF93DF93D091710281E0D132E4
:100CB00008F09CC0C09173020E9440046B017C014B
:100CC0008091BB0281116CC082E08093BB0281E005
:100CD00080939A028FEF8093990210929802D0939A
:100CE0009702ACEAB1E0E5E7F2E080E0D8138DC00E
:100CF0001092960280919602CC0FC82BC093960258
:100D000080919502813009F084C0109295020E9472
:100D100040046B017C01809196028093BB0080911E
:100D2000BD029091BE02A091BF02B091C002892B7A
:100D30008A2B8B2BA1F00E9440040091BD021091E0
:100D4000BE022091BF023091C0026C197D098E094C
:100D50009F09061717072807390708F442C0809132
:100D6000BC0083FDD8CF85EC8093BC000E9440047A
:100D70006B017C018091BB02823009F44CC08091F0
:100D800099028F3F09F469C080919902803209F479
:100D900066C080919902803309F463C084E026C064
:100DA0008091BD029091BE02A091BF02B091C0029D
:100DB000892B8A2B8B2B09F483CF0E94400400914E
:100DC000BD021091BE022091BF023091C0026C1989
:100DD0007D098E099F09061717072807390708F0AC
:100DE0006FCF8091BC020E94DD0485E010927202F8
:100DF0001092710210927402DF91CF911F910F91A6
:100E0000FF90EF90DF90CF9008959D9191938F5F29
:100E10006DCF85EEA9CF8091BD029091BE02A091C9
:100E2000BF02B091C002892B8A2B8B2B09F4A2CF71
:100E30000E9440040091BD021091BE022091BF02A9
:100E40003091C0026C197D098E099F09061717079A
:100E50002807390708F08ECFC4CF80E0C7CF82E0E3
:100E6000C5CF83E0C3CF90E080E00895CF93C82F33
:100E700089E70E94EA016C2F8EE593E00E941D062F
:100E80008EE593E00E944C0691E0811190E0892F5D
:100E9000CF9108950F931F93CF93DF93EC01062F0B
:100EA000142F88810E94EA0189819A81DC01ED91E9
:100EB000FC910190F081E02D602F099589819A8144
:100EC000DC01ED91FC910190F081E02D612F0995FD
:100ED00089819A81DF91CF911F910F910C944C06DB
:100EE000DC01ED91FC910190F081E02D0994FC0171
:100EF00087E094E1161634F484E098E0613011F450
:100F000084E090E19083062E000C770B77FF03C0FE
:100F1000719561957109969FA001979F500D1124BD
:100F2000840F952F911D0895DC01ED91FC910190A6
:100F3000F081E02D0994FF920F931F93CF93DF93DD
:100F4000182FF62E072FCDE3D4E088810E94EA0106
:100F500084E0189FB00111246A5F7F4F89819A81D4
:100F60000E94940770E060E089819A810E94700776
:100F700070E060E089819A810E9470076F2D702F68
:100F800089819A810E947007602F70E089819A811F
:100F90000E94700789819A81DF91CF911F910F91F3
:100FA000FF900C944C06CF93C0E060E070E18C2F72
:100FB0000E949B07CF5FC031C1F7CF9108959F92E8
:100FC000AF92BF92CF92DF92EF92FF920F931F9357
:100FD000CF93DF93EC0184E50E94EA016D2F70E06E
:100FE0008EE593E00E949407BE0177278EE593E09B
:100FF0000E9494078EE593E00E944C0661E084E530
:101000000E94FE0410925502809354028EE593E0F4
:101010000E94DD05C0905A04D0905B04F6018083E5
:101020006091600285E692E00E947707EC01F12C66
:10103000E12C1C161D064CF56C2FCF31D1050CF0A0
:101040006EE184E50E94FE04982E10925502809372
:1010500054025E01FEE1AF1AB1088E018091550283
:10106000981659F08EE593E00E94DD059FEFE91A8E
:10107000F90AF601EE0DFF1D80830150110929F0D8
:10108000E5010A151B0551F7D4CFDF91CF911F91D0
:101090000F91FF90EF90DF90CF90BF90AF909F9017
:1010A00008958F929F92AF92BF92CF92DF92EF926C
:1010B000FF921F93CF93DF93EC016A017B0120E045
:1010C00030E040E85FE3CB01B6010E94A22587FD36
:1010D0009CC020E030EC4AE555E4C701B6010E940F
:1010E000CF2818163CF4C12C30ECD32E3AE5E32E71
:1010F00035E4F32E6B817C818D819E810E94A72532
:101100004B015C0120E030E040E855E4C701B60146
:101110000E9408269B01AC01C501B4010E94E8278A
:1011200020E030E040E05FE30E94772720E030E0FD
:1011300040E85FE30E9476276B017C0120E030E00D
:1011400040E450E40E94A22587FD66C020E030E024
:101150004FE753E4C701B6010E94CF28181634F4B4
:10116000C12CD12C9FE7E92E93E4F92E88810E94AF
:10117000EA0189819A81DC01ED91FC910190F08175
:10118000E02D60E0099589819A810E944C0661E01A
:1011900088810E94FE041092550280935402898136
:1011A0009A81DC01ED91FC910284F385E02D099593
:1011B000182F482F4F76406160E0CE010E944A0709
:1011C000C701B6010E946128462F6EEFCE010E9432
:1011D0004A07412F60E0CE010E944A0765E070E0B7
:1011E00080E090E00E946504412F406A60E0CE01FB
:1011F000DF91CF911F91FF90EF90DF90CF90BF9044
:10120000AF909F908F900C944A07C12CD12C20E86E
:10121000E22E2FE3F22E6ECFC12CD12C80E4E82EEB
:10122000FE2CA4CFFC0101900020E9F73197AF011B
:10123000481B590BBC0181EC92E00C94410284E5FF
:1012400091E00C941209CF93DF930E946E03EC019E
:101250000E941F098C0F9D1FDF91CF910895CF939E
:10126000DF93682F81EC92E00E942103EC010E9441
:101270001F098C0F9D1FDF91CF910895CF93DF93AE
:10128000FC01448155816081718181EC92E00E9472
:101290004102EC010E941F098C0F9D1FDF91CF912D
:1012A00008958F929F92AF92BF920F931F93CF9307
:1012B000DF93CDB7DEB7A1970FB6F894DEBF0FBEB0
:1012C000CDBF19A2423008F44AE08E010F5D1F4FD6
:1012D000842E912CB12CA12CA50194010E944527AC
:1012E000E62FB901CA01EA30F4F4E05DD801EE93CB
:1012F0008D01232B242B252B79F790E080E010978C
:1013000019F0CD010E941209A1960FB6F894DEBF24
:101310000FBECDBFDF91CF911F910F91BF90AF90C6
:101320009F908F900895E95CE1CFCF92DF92EF928A
:10133000FF92C12CD12C76014AE0C701B6010E9470
:10134000510969E081EC92E00E9421038FEFC81AF5
:10135000D80AE80AF80A80E1C816D104E104F104C9
:1013600059F7FF90EF90DF90CF900C941F09FC018C
:1013700024813581232B39F421E0FB0180818823EE
:1013800049F020E007C0808191810E94802B21E0FC
:10139000892BB9F7822F0895CF93DF93EC018881D1
:1013A0009981009711F00E948223198218821D8270
:1013B0001C821B821A82DF91CF910895FC018081EB
:1013C0009181009711F00C94822308950F931F933D
:1013D000CF93DF938C01EB01FC0180819181009719
:1013E000E1F06881798161157105A9F0428153812D
:1013F0002C813D814217530770F00E94892B8C810C
:101400009D81F801958384831D821C82DF91CF9199
:101410001F910F9108950E94822388819981F8017C
:10142000918380838A819B81938382838C819D8138
:1014300095838483198218821B821A82E5CF0C94CB
:10144000C6266F927F928F929F92AF92BF92CF9259
:10145000DF92EF92FF920F931F93CF93DF936C0174
:10146000712CD0E0C0E083E191E00E941F0A082EB9
:10147000000C990B781619060CF06DC04E018FEF19
:10148000881A980ACE018A5E9E4F0E941F0A682E13
:10149000E82EF12CC70101960E94E6228C015C0126
:1014A000C95EDE4FC81BD90B8A2D801B861548F4F8
:1014B000CE018A0D9B1D0E941F0AF50181935F01D9
:1014C000F3CFE401CE0DDF1D5801AE0CBF1CF501BA
:1014D0001082B601C8010E94802B892B09F50115E5
:1014E0001105A9F5CE01895E9E4F0E941F0A8093C7
:1014F0006002682F85E692E00E947707CE018A5E3F
:101500009E4FDF91CF911F910F91FF90EF90DF9051
:10151000CF90BF90AF909F908F907F906F900895E5
:10152000F501319780818C3449F4A701415051096C
:10153000B601C8010E94902B892B89F20115110573
:1015400019F0C8010E948223249673948CCFC8019D
:101550000E948223C7CF8AE793E00E9423098FEF7E
:101560009FEFCFCF1F93CF93DF93EC010E941F0A11
:10157000182FCE0101960E941F0A90E0982F88270D
:10158000810F911DDF91CF911F910895CF92DF922E
:10159000EF92FF920F931F93CF936A017B01082F65
:1015A00010E0C801805B9F4F880F991F0E94B20A0C
:1015B000BC01990F880B990B0E94A92520E030E00F
:1015C0004AE754E40E94E827A70196010E940826F2
:1015D0006B017C0182E191E00E941F0AC82FC801C3
:1015E0000E941F0A182F8AE0C89FB0011124072EFD
:1015F000000C880B990B0E94A925A70196010E9457
:1016000077270E946128812FCF911F910F91FF9022
:10161000EF90DF90CF900C949B0790E0C096880FDE
:10162000991F860F911D880F991F0C94B20A7F9203
:101630008F929F92AF92BF92CF92DF92EF92FF92E2
:101640000F931F93CF93DF93B82E6A01D62FC72F26
:1016500060E00E940D0BBC01990F880B990B0E9452
:10166000A9257B018C0161E08B2D0E940D0BBC0133
:10167000990F880B990B0E94A925762E872E982EFC
:10168000A92E96014D2F5C2F0E94A22587FF71C0C5
:10169000772D682D992D8A2D272F362F492F582FDA
:1016A000B701C8010E94CF28181694F096014D2F5B
:1016B0005C2F672D782D892D9A2D0E94A225760109
:1016C0000D2F1C2F87FF04C0E72CF82C092D1A2D95
:1016D000CB2DD0E06E0180E3C80ED11CCC0FDD1FF6
:1016E000CE5FDE4FB701C8010E945A287983688314
:1016F000C601880F991F0E94B20AEC01C6010E9420
:101700001F0A682F880F770B880B990B0E94A92559
:101710009701A8010E9408266B017C01BE01DD0F24
:10172000880B990B0E94A9259B01AC01C701B6014A
:101730000E9477270E945A28072E000C880B990BCD
:101740000E94A92520E030E0A9010E947727AB0183
:10175000BC018B2DDF91CF911F910F91FF90EF90E6
:10176000DF90CF90BF90AF909F908F907F900C9420
:10177000C60A7C2D6D2DCE018FCF2F923F924F92B6
:101780005F926F927F928F929F92AF92BF92CF9211
:10179000DF92EF92FF920F931F93CF93DF93CDB71A
:1017A000DEB72E970FB6F894DEBF0FBECDBF5C013B
:1017B0006A017B0120E030E0A901CB01B6010E9463
:1017C000A2259501205E3F4F3901811130C089016A
:1017D0003FE03983D8017E916E918D01072E000C78
:1017E000880B990B0E94A925AB01BC0189810E943D
:1017F000170BB981B150B983BF3F61F72E960FB671
:10180000F894DEBF0FBECDBFDF91CF911F910F9136
:10181000FF90EF90DF90CF90BF90AF909F908F9010
:101820007F906F905F904F903F902F90089580E24F
:1018300090E00E94E6228C0182E0882E81E0982EC2
:101840009801F50170E060E0D4018D919D914D010A
:1018500041915191841B950BD9018D939D939D01CD
:1018600097FF03C0919581959109681779070CF44A
:10187000BC01E615F70541F7072E000C880B990B04
:101880000E94A925A70196010E94E8276B017C010F
:1018900020E030E0A9010E94CF2820E030E040E0C5
:1018A0005FE387FD91C0C701B6010E9477270E94C0
:1018B0005A287E876D87D12CC12C8D859E85092E57
:1018C000000CAA0BBB0B89879A87AB87BC87AD85B9
:1018D000BE85AC15BD050CF47CC048011501F12C8A
:1018E000C6010D2C000CAA0BBB0B8D839E83AF830E
:1018F000B887D1016D917D911D01072E000C880BD9
:10190000990B0E94A9252B013C01ED85FE8520E065
:1019100030E0A901EF2B09F443C06D817E818F81F6
:1019200098850E94A9252BED3FE049E450E40E94F0
:10193000082669837A838B839C8369857A858B8566
:101940009C850E94A9259B01AC0169817A818B81CC
:101950009C810E94E8270E94E32720E030E040E8D5
:101960005FE30E94772720E030E040E05FE30E94E1
:10197000082669837A838B839C83D4016D917C9143
:10198000072E000C880B990B0E94A9259B01AC0126
:1019900069817A818B819C810E9408269B01AC0120
:1019A000C301B2010E947727AB01BC018F2D0E94B9
:1019B000170BF394B2E08B0E911CE0E1FE1299CF6D
:1019C000FFEFCF1ADF0A83CFC701B6010E94762747
:1019D0006ECF0115110509F411CFC8012E960FB66F
:1019E000F894DEBF0FBECDBFDF91CF911F910F9155
:1019F000FF90EF90DF90CF90BF90AF909F908F902F
:101A00007F906F905F904F903F902F900C94822327
:101A10002F923F924F925F926F927F928F929F92FE
:101A2000AF92BF92CF92DF92EF92FF920F931F93EC
:101A3000CF93DF93CDB7DEB72F970FB6F894DEBF05
:101A40000FBECDBF4C016D8369017A01202F30E0BC
:101A50003A83298320E030E0A901C701B6010E9442
:101A6000A22581111DC01FE0812F012E000C990BB2
:101A7000A981BA818A179B070CF419C1880D991D99
:101A8000FC016081062E000C770B880B990B0E94DD
:101A9000A925AB01BC01812F0E94170B1150E4CF87
:101AA00080E190E029813A81821B930B811530E41B
:101AB000930770F5880F991F0E94E6225C01E98167
:101AC000FA81EE0FFF1FCF018E5F9E4F3C01250173
:101AD000D401402F70E060E04031E8F4F3018191DF
:101AE00091913F012D915D81250390011124821B6D
:101AF000930BF201819391932F0197FF03C091956E
:101B000081959109681779070CF4BC014F5FE4CF08
:101B10008FEF9FEFD1CF072E000C880B990B0E94FF
:101B2000A925A70196010E94E8276B017C0120E00E
:101B300030E0A9010E94CF2820E030E040E05FE3E0
:101B400087FD8BC0C701B6010E9477270E945A28E3
:101B50001B011F861E86CB01770FAA0BBB0B8A8742
:101B60009B87AC87BD87AE85BF852A163B060CF4E4
:101B700080C0BA82A9829C828B82102FCD01092E4F
:101B8000000CAA0BBB0B8E839F83A887B9871031EB
:101B900008F068C0AB81BC816D91BC83AB832D81A3
:101BA0006203B0011124072E000C880B990B0E94D0
:101BB000A9256B017C0120E030E0A901211431044A
:101BC000E1F16E817F81888599850E94A9252BEDA1
:101BD0003FE049E450E40E9408262B013C016A855D
:101BE0007B858C859D850E94A9259B01AC01C30145
:101BF000B2010E94E8270E94E32720E030E040E89D
:101C00005FE30E94772720E030E040E05FE30E943E
:101C100008262B013C01A981BA816D917C91072E88
:101C2000000C880B990B0E94A9259B01AC01C301F4
:101C3000B2010E9408269B01AC01C701B6010E94B7
:101C40007727AB01BC01812F0E94170B1F5FE98131
:101C5000FA813296FA83E9839ACFC701B6010E94CE
:101C6000762774CF2E853F852F5F3F4F3F872E8786
:101C70007ACFA114B104D9F0C5012F960FB6F8940C
:101C8000DEBF0FBECDBFDF91CF911F910F91FF90AF
:101C9000EF90DF90CF90BF90AF909F908F907F900C
:101CA0006F905F904F903F902F900C9482232F96CF
:101CB0000FB6F894DEBF0FBECDBFDF91CF911F915D
:101CC0000F91FF90EF90DF90CF90BF90AF909F90DB
:101CD0008F907F906F905F904F903F902F900895DE
:101CE0000F93CF93DF93E0915A04F0915B046081EE
:101CF000CCE5D2E06C8385E692E00E9477070E94F3
:101D0000F40110925702109256022D813E814F81AC
:101D100058850A896E858B899C890E94080DDF9100
:101D2000CF910F910895FF920F931F93CF93DF935D
:101D30008C01FC0101900020E9F7329780818C34FE
:101D400009F4CEC0823509F0CDC087EE80935F02E2
:101D5000C8010E94210AEC01CF3FDC0709F40CC145
:101D6000CE010E941F0AF82ECE0102960E94B20AEE
:101D7000EC0189E4F812B8C0CE010E94DF070E948E
:101D8000F40167E571E0C8010E94802B892B09F4FA
:101D9000C5C080916002813009F0C0C00E94B324A8
:101DA00024E630E040E050E00E94DC260E94A925B5
:101DB00020E030E040E251E40E94E82720E030E0FB
:101DC00040EA50E40E9476276093500270935102DB
:101DD00080935202909353028091600282300CF4FF
:101DE000A6C080915F0287FFB1C08091660290918A
:101DF000670291958195910990936702809366029D
:101E000090E080E040916002242F042E000C330B00
:101E100037FF03C0319521953109821793070CF0E4
:101E200095C042301CF540916502489F9001499F42
:101E3000300D1124E0916F02F0917002E20FF31F58
:101E400020812195208320916502289FF001299F00
:101E5000F00D11249F012E5F3F4FE0916F02F09132
:101E60007002E20FF31F20812195208320916002F0
:101E700060E022300CF462E0E62FF0E02091600296
:101E800022300CF47FC024E030E040916F0250918A
:101E90007002E217F3070CF078C09F01220F331F86
:101EA00070916502789FF001799FF00D1124E20F87
:101EB000F31FE40FF51F408151815083509165025B
:101EC000589FD001599FB00D1124E0916F02F091FD
:101ED0007002E20FF31FEA0FFB1F41836F5FCCCF4D
:101EE00089E134CF80E032CF6091600285E692E0F4
:101EF0000E94770720915A0430915B04D901C21BDC
:101F0000D30BFE01EA0FFB1FAD01421B530B481719
:101F100059070CF034CFE491ED93F3CF10925002B7
:101F200010925102109252021092530255CF0E9409
:101F3000B32424E630E040E050E00E94DC2660FF5D
:101F400005C080914F02833609F04FCF109257029F
:101F50001092560220916102309162024091630218
:101F60005091640200916E0260916A0280916F024A
:101F7000909170020E94080DDF91CF911F910F91F7
:101F8000FF90089528E030E080CF01963BCF0F937B
:101F90001F93CF93DF93EC018B010E94C626081795
:101FA00021F0602FCE010E94CE262196CE010E9404
:101FB000C626181721F0612FCE010E94CE2665E0BB
:101FC00070E080E090E0DF91CF911F910F910C9431
:101FD00065040F931F93CF93DF93EC018881998160
:101FE000009759F02A813B812617370730F081E0AE
:101FF000DF91CF911F910F9108958B016F5F7F4FFC
:102000000E94B22A009759F0998388831B830A8320
:102010002C813D81232B59F7FC011082E8CF80E011
:10202000E7CFEF92FF920F931F93CF93DF9361154A
:10203000710541F480E0DF91CF911F910F91FF90E6
:10204000EF90089541155105B1F07B01EC010C8131
:102050001D81040F151FB8010E94E90F882351F359
:10206000288139818C819D81B701820F931F0E9445
:10207000892B1D830C8381E0DECFEF92FF920F93BB
:102080001F93CF93DF93EC017B018A01BA010E9479
:10209000E90F81110BC0CE010E94CC09CE01DF9166
:1020A000CF911F910F91FF90EF9008951D830C83A6
:1020B000B701888199810E94892BF0CFFB01DC0157
:1020C00011961C921E9213961C921E9212971596B0
:1020D0001C921E9214978617970759F060817181A0
:1020E0006115710521F0448155810C943D100C94CB
:1020F000CC090895FB0101900020E9F73197AF0169
:10210000461B570B0C943D100F931F93CF93DF93F7
:10211000CDB7DEB762970FB6F894DEBF0FBECDBF66
:102120008C01CB01F8011182108213821282158278
:1021300014824AE0BE016F5F7F4F0E946525BE0199
:102140006F5F7F4FC8010E947A1062960FB6F894B5
:10215000DEBF0FBECDBFDF91CF911F910F910895CC
:10216000FC01118210821382128215821482FB01FB
:1021700001900020E9F73197AF01461B570B0C94F3
:102180003D10EF92FF920F931F93CF93DF9300D0F8
:10219000CDB7DEB78C01E62E60E971E00E94B01089
:1021A0000E9491020E2C000CFF0897FD10C08E15A6
:1021B0009F0569F089831A8241E050E0BE016F5F9C
:1021C0007F4FC8010E9411100E949102EECFC801FA
:1021D0000F900F90DF91CF911F910F91FF90EF9093
:1021E0000895EF92FF920F931F93CF93DF93EC012B
:1021F0008B01198218821B821A821D821C82CB01DC
:102200000E9430257C01BC01CE010E94E90F8111A2
:1022100009C0CE01DF91CF911F910F91FF90EF90F8
:102220000C94CC09FD82EC82B80188819981DF9100
:10223000CF911F910F91FF90EF900C94292585ED80
:102240008093BC008091BD029091BE02A091BF021C
:10225000B091C0020796A11DB11D23E0B695A795C8
:10226000979587952A95D1F72091BC0024FD03C04E
:102270001092BB0208954091BD025091BE02609140
:10228000BF027091C002452B462B472B69F3009784
:10229000A105B10541F025E32A95F1F7000001976A
:1022A000A109B109E1CF8091BC020C94DD042F9209
:1022B0003F924F925F926F927F928F929F92AF92D6
:1022C000BF92CF92DF92EF92FF920F931F93CF9323
:1022D000DF93CDB7DEB767970FB6F894DEBF0FBEBA
:1022E000CDBF6A877B878C879D872E873F87488BEA
:1022F000598BC801EF8A19826DE9262E62E0362ECD
:1023000009E812E088248A94982C5401E8E44E2EBF
:10231000E8EE5E2E66246394712C9C01990F440BA9
:10232000550B2A8B3B8B4C8B5D8B6E857F8588890B
:1023300099890E9461286E837F838887998720E02E
:1023400030E0A9016A857B858C859D850E94A22548
:10235000882309F419C22A853B854C855D8563E68F
:102360007CE987E89FE30E94D4286B017C0180917F
:1023700000018530A9F5EFE6F2E0F491FE8BFE89CD
:10238000F7FF78C06E817F81888599850E946504FA
:1023900085E00E9400046A897B898C899D890E945E
:1023A000650429812F5F29833F893213BECF679649
:1023B0000FB6F894DEBF0FBECDBFDF91CF911F9156
:1023C0000F91FF90EF90DF90CF90BF90AF909F90D4
:1023D0008F907F906F905F904F903F902F900895D7
:1023E0008F3F81F625E020930001EFE6F2E0F491C3
:1023F000FE8BFF3F39F2F13009F40CC120F1F230CD
:1024000009F0BDCF1092B0001092B1008091B000E1
:1024100082608093B0008091B10081608093B100B0
:10242000F8018491E82FF0E0EE0FFF1FE059FD4F17
:10243000859194919093160280931502F1018491F5
:102440008093170217C014BC15BC84B5826084BD8C
:1024500085B5816085BDF8018491E82FF0E0EE0F2D
:10246000FF1FE059FD4F85919491F1018491809374
:10247000A3011E8AF1014491F8018491882399F007
:1024800090E0880F991FFC01E658FD4FA591B4918B
:10249000FC01E059FD4F259134918FB7F8949C9140
:1024A000492B4C938FBF20E030ED42E854E4C70144
:1024B000B6010E9408260E9461286B01F12CE12CD4
:1024C00060E072E18AE790E0A70196010E94DC26B5
:1024D0002A833B834C835D83BA01A9014150510992
:1024E000610971098E898D7F09F00EC14F3F510539
:1024F0006105710509F00CF4EEC060E472E48FE050
:1025000090E0A70196010E94DC26BA01A901415082
:10251000510961097109FE89F23009F098C082E021
:102520004F3F51056105710509F00CF463C060E986
:1025300070ED83E090E0A70196010E94DC26BA01CD
:10254000A901415051096109710983E04F3F5105CB
:102550006105710509F00CF44DC0C301B201A7017A
:1025600096010E94DC26BA01A90141505109610976
:10257000710984E04F3F510561057105D9F1D4F12E
:1025800064E274EF80E090E0A70196010E94DC26EF
:10259000BA01A901415051096109710985E04F3F14
:1025A00051056105710531F128F162E17AE780E0BA
:1025B00090E0A70196010E94DC26BA01A9014150D2
:1025C00051096109710986E04F3F510561057105A7
:1025D00089F080F04A815B816C817D819AE07595FC
:1025E0006795579547959A95D1F7415051096109DB
:1025F000710987E09091B100987F892B8093B10099
:10260000FE89F13009F49EC0F23009F4ADC0F11139
:10261000B9CE69C010928000109281008091810033
:102620008860809381008091810081608093810027
:10263000F8018491E82FF0E0EE0FFF1FE059FD4F05
:1026400085919491F10184918093A20113CF4F3F22
:1026500051056105710509F00CF454C0C301B201C4
:10266000A70196010E94DC26BA01A9014150510937
:10267000610971092E8984E0211191CF83E04F3FD8
:1026800051056105710559F154F162E17AE780E085
:1026900090E0A70196010E94DC26BA01A9014150F1
:1026A00051096109710984E04F3F510561057105C8
:1026B000B1F0A8F04A815B816C817D818AE07595DB
:1026C0006795579547958A95D1F74150510961090A
:1026D000710985E004C081E03E8931118BCF95B549
:1026E000987F892B85BD47BD8092A8019092A90152
:1026F000A092AA01B092AB0180916E00826080939B
:102700006E0040CE82E0E8CF91E04115510581E0B6
:10271000680771056CF0C301B201A70196010E9420
:10272000DC26BA01A901415051096109710993E000
:10273000EE89E13009F064CF80918100887F892B98
:102740008093810050938900409388008092A40177
:102750009092A501A092A601B092A70180916F006E
:10276000826080936F000ECE4093B3008092180277
:1027700090921902A0921A02B0921B0280917000EE
:10278000826080937000FECD6E817F8188859985FF
:102790000E946504F7CD4F925F926F927F928F9265
:1027A0009F92AF92BF92CF92DF92EF920F931F93BF
:1027B000CF93DF93D82E192F0E941F0A8695CD2D17
:1027C000D12FB12CA12CC82ED12C88EE882E83E0DD
:1027D000982E2197AC14BD044CF5CE018C199D099F
:1027E0000E941F0A782ECE010E941F0A182F672D03
:1027F00070E0C4010E94752A072E000C880B990B0B
:102800000E94A9252B013C01612F70E090E080E03F
:102810000E94A725EE24E39410E000E0A3019201BA
:102820000E9457118FEFA81AB80AD3CFDF91CF912A
:102830001F910F91EF90DF90CF90BF90AF909F903E
:102840008F907F906F905F904F9008951F920F929E
:102850000FB60F9211242F933F934F935F936F9373
:102860007F938F939F93AF93BF93EF93FF93809149
:10287000180290911902A0911A02B0911B02892BA3
:102880008A2B8B2BD1F190911702E0911502F091D8
:102890001602808189278083809118029091190205
:1028A000A0911A02B0911B02181619061A061B06EF
:1028B0009CF48091180290911902A0911A02B09193
:1028C0001B020197A109B109809318029093190284
:1028D000A0931A02B0931B02FF91EF91BF91AF91A9
:1028E0009F918F917F916F915F914F913F912F9128
:1028F0000F900FBE0F901F901895809100010E94BD
:102900000004EACF1F920F920FB60F9211242F935B
:102910003F934F935F936F937F938F939F93AF9367
:10292000BF93EF93FF9381EC92E00E94FF02FF912F
:10293000EF91BF91AF919F918F917F916F915F9137
:102940004F913F912F910F900FBE0F901F901895B0
:102950001F920F920FB60F9211242F938F939F9374
:10296000EF93FF93E091D102F091D2028081E09148
:10297000D702F091D80282FD1BC090818091DA02CB
:102980008F5F8F732091DB02821741F0E091DA02B2
:10299000F0E0EF53FD4F958F8093DA02FF91EF91B6
:1029A0009F918F912F910F900FBE0F901F901895B0
:1029B0008081F4CF1F920F920FB60F9211242F93A4
:1029C0003F938F939F93AF93BF93809158029091C1
:1029D0005902A0915A02B0915B023091100223E09B
:1029E000230F2D3758F50196A11DB11D209310021C
:1029F0008093580290935902A0935A02B0935B02BD
:102A00008091110290911202A0911302B0911402D0
:102A10000196A11DB11D8093110290931202A09303
:102A20001302B0931402BF91AF919F918F913F9188
:102A30002F910F900FBE0F901F90189526E8230F2F
:102A40000296A11DB11DD2CF1F920F920FB60F9209
:102A500011242F933F934F935F936F937F938F93A3
:102A60009F93AF93BF93EF93FF938091B900887FBB
:102A7000803609F44AC0F0F5883209F4A7C018F589
:102A8000803109F49BC0B8F4882309F4F9C0883078
:102A900009F494C0FF91EF91BF91AF919F918F91F5
:102AA0007F916F915F914F913F912F910F900FBE4A
:102AB0000F901F901895883109F488C0803251F723
:102AC0008093990214C0803409F49DC040F480338F
:102AD000B9F38833F9F68093990285ECB0C080355C
:102AE00009F485C0883509F496C0883499F60E94A7
:102AF0001F11D0CF883909F48CC038F5883729F0F8
:102B000050F4883611F0803729F683E08093BB02B9
:102B100010920F0257C0883809F47BC0803919F031
:102B2000803809F0B7CF80910F02803208F071C071
:102B3000E0910F0281E08E0F80930F028091BB0025
:102B4000F0E0E151FE4F80833DC0803B39F0E0F47E
:102B5000803A09F479C0883A09F09CCF84E08093E8
:102B6000BB021092EE011092ED01E0911E02F09175
:102B70001F0209958091ED0181110FC081E08093C2
:102B8000ED011092CD0109C0803C09F4A6CF883C2C
:102B900009F4A3CF883B09F07DCFE091EE0181E0FD
:102BA0008E0F8093EE01F0E0E353FE4F808180931F
:102BB000BB009091EE018091ED0129C080919602B9
:102BC0008093BB0085EC8093BC0064CF9091980209
:102BD00080919702981758F5E091980281E08E0F46
:102BE00080939802F0E0EB58FD4F8081E9CFE091AF
:102BF000980281E08E0F809398028091BB00F0E0F4
:102C0000EB58FD4F8083909198028091970298171E
:102C1000C8F285E8D8CFE091980281E08E0F8093CA
:102C200098028091BB00F0E0EB58FD4F80838091CB
:102C30009A0281115CCF81E08093950284EA8093AF
:102C4000BC001092BB0226CF85EC8093BC00109292
:102C5000BB0280910F02803230F4E0910F02F0E06D
:102C6000E151FE4F108260910F0270E0E0911C0272
:102C7000F0911D028FEE91E0099510920F020ACF9C
:102C80001092990234CF1F920F920FB60F92112417
:102C90002F933F934F935F936F937F938F939F9364
:102CA000AF93BF93CF93DF93EF93FF9320916B0389
:102CB00030E0F901E55AFD4F8491F901E856FD4FE6
:102CC000D491F901EC57FD4FC491CC2379F08111D7
:102CD0000E94A903EC2FF0E0EE0FFF1FEF5AFD4F0B
:102CE000A591B491EC91ED2381E009F480E020916D
:102CF0007003309171032F5F3F4F30937103209326
:102D0000700320916E0330916F032536310518F062
:102D100094E090936A0390916A03911130C08111FD
:102D200069C020917003309171032436310528F475
:102D300010927103109270035DC010923C041092C7
:102D40006F0310926E0320916E0330916F03A901FF
:102D50004F5F5F4F50936F0340936E03409170033A
:102D600050917103220F331FF901EE58FC4F51832C
:102D70004083109271031092700391E021C09091F2
:102D80006A03913001F58130A9F520916E033091ED
:102D90006F03A9014F5F5F4F50936F0340936E0322
:102DA0004091700350917103220F331FF901EE58C7
:102DB000FC4F51834083109271031092700392E094
:102DC00090936A0317C090916A03923061F488234C
:102DD00009F4B9CF20917003309171032536310584
:102DE00048F093E0EDCF90916A03933099F48823F3
:102DF00009F49ECF90916D039923A9F0811126C00B
:102E000080916C03882371F080916C0361E00E94D3
:102E1000D20309C090916A03943061F791E09093D6
:102E20003C04DFCF2D9AFF91EF91DF91CF91BF91BD
:102E3000AF919F918F917F916F915F914F913F9152
:102E40002F910F900FBE0F901F90189580916C03DB
:102E5000882321F080916C0360E0D9CF2D98E3CFD7
:102E6000CF93DF93E1ECF2E01382128288EE93E0DD
:102E7000A0E0B0E084839583A683B78324E331E0A8
:102E80003183208325EC30E03587248724EC30E043
:102E90003787268720EC30E0318B208B21EC30E027
:102EA000338B228B22EC30E0358B248B26EC30E008
:102EB000378B268B118E128E138E148ECEE5D3E0B7
:102EC0001B821A828C839D83AE83BF8386E491E04C
:102ED000998388838AE090E00E94E62290935F04C1
:102EE00080935E0482E090E00E94E62290935D046D
:102EF00080935C0482EC91E00E94E62290935B0454
:102F000080935A04EAE6F3E084E0818313826DE55E
:102F100071E084E594E00E94B010E3E4F4E081E124
:102F2000DF011D928A95E9F7EDE3F4E080E4808308
:102F3000D283C183DF91CF910895CF93DF93CDB733
:102F4000DEB7E8970FB6F894DEBF0FBECDBF78941A
:102F500084B5826084BD84B5816084BD85B582609E
:102F600085BD85B5816085BD80916E00816080934F
:102F70006E001092810080918100826080938100B8
:102F800080918100816080938100809180008160C8
:102F9000809380008091B10084608093B100809123
:102FA000B00081608093B00080917A00846080934B
:102FB0007A0080917A00826080937A0080917A0012
:102FC000816080937A0080917A00806880937A0093
:102FD0001092C100E091D102F091D20212E0108370
:102FE000E091CD02F091CE021082E091CF02F091FB
:102FF000D00280E180831092D902E091D502F09155
:10300000D60286E08083E091D302F091D4028081E1
:1030100080618083E091D302F091D4028081886046
:103020008083E091D302F091D40280818068808314
:10303000E091D302F091D40280818F7D808385E07E
:1030400090E0A0E0B0E08093C5029093C602A09308
:10305000C702B093C80281ED92E00E94230910924A
:1030600055021092540210927202109271020E9444
:10307000BF048EE392E090931F0280931E028FE3C1
:1030800092E090931D0280931C0288E18093B80027
:10309000F8941092800089E08093810080E293E0B0
:1030A000909389008093880010928500109284008C
:1030B00010936F00789410926A0310926F0310922D
:1030C0006E0380916B0390E0FC01E856FD4F249164
:1030D0008C579D4FFC0184918823C9F090E0880FA4
:1030E000991FFC01E658FD4FA591B491FC01E059F0
:1030F000FD4F459154919FB7F8948C91E22FE09544
:103100008E238C93DA018C91E823EC939FBF64E0CB
:1031100070E084E594E00E94E90F80E691E00E946F
:1031200012090E941F094BE3E42E42E0F42E00E155
:1031300010E0C8010E941F0AF70181937F010F5F11
:103140001F4F00321105A9F7109255021092540238
:1031500010927202109271020E94BF048EE392E0FC
:1031600090931F0280931E028FE392E090931D02C2
:1031700080931C0240E860E08DE394E00E944A07DF
:103180006AE070E080E090E00E94650440E050E07A
:103190006AE774E48DE394E00E94510830E4C32EA2
:1031A00038E7D32E3DE7E32EFF24F394C09240048A
:1031B000D0924104E0924204F092430440E050E097
:1031C00060EA73E48DE394E00E945108C0924604E3
:1031D000D0924704E0924804F0924904C09240041F
:1031E000D0924104E0924204F09243040E94D3073B
:1031F00080E00E942C04BC01990F880B990B61158B
:1032000071058105910511F00E9402258CEA92E07A
:103210000E94230990E080E08C010F5F1F4F8A5EBF
:103220009E4F0E941F0A080F111DC8018A5E9E4F03
:103230000E941F0A8E3419F0C8010496EDCF68E091
:1032400071E0C801885E9E4F0E94C70F8CE691E036
:103250000E9412090E941F0985E00E9436076CE255
:1032600071E080E090E00E94650489E70E94EA0135
:1032700062E070E08EE593E00E94940770E060E009
:103280008EE593E00E9494078EE593E00E944C0641
:10329000882309F4C6C06AE070E080E090E00E94F4
:1032A000650406E213E0C12CD12C7601F80165918A
:1032B000749180915A0490915B040E94292567E7DC
:1032C00071E080915A0490915B040E9439255C0161
:1032D00089E70E94EA0164E070E08EE593E00E94D5
:1032E00094076C2D8EE593E00E941D06F501019078
:1032F0000020E9F73197AF014A195B09B5018EE566
:1033000093E00E94F0058EE593E00E944C0688232E
:1033100009F48CC06AE070E080E090E00E946504EF
:103320004AE0C701B6010E9451090E941F090E5FC1
:103330001F4FFFEFCF1ADF0AEF0AFF0A8EE0C81611
:10334000D104E104F10409F0B1CF86E00E94360710
:103350006CE271E080E090E00E9465048FEF93E002
:103360000E94CB1360ED77E080E090E00E9465045E
:1033700086EC92E00E9423098FEB92E00E942309E1
:1033800088EB92E00E94230985E10E942C048C01C5
:103390000A3892E019070CF052C0809120029091F7
:1033A00021020817190709F04AC083ED92E00E9434
:1033B0006E03C80163E670E00E94752A6B01072E58
:1033C000000CEE08FF0877FF36C06DE281EC92E05A
:1033D0000E94210366277727CB016C197D098E098E
:1033E0009F094AE00E94510986E50E942F0981ED5C
:1033F00093E00E94CB13EE24E394FF24F394AFEF09
:10340000FA1202C0EE24EA9465E070E080E090E0F9
:103410000E946504FE0C99F710932102009320028C
:10342000B3CF6CE271E080E090E039CF6CE271E004
:1034300080E090E073CF4AE0C701B601D3CF10938C
:1034400021020093200282E793E090933002809360
:103450002F0280916E0390916F03909332028093BC
:10346000310280913C0490E09093340280933302C7
:1034700080916A03833009F093C080917403909126
:103480007503875891098E35910508F083C08091A6
:103490006E0390916F03049709F04BC080917603FF
:1034A000909177038097479708F043C08091780305
:1034B0009091790309970997E0F510922E021092E6
:1034C0002D028FEF9FEFDC0180932702909328025B
:1034D000A0932902B0932A0283E090E09093240203
:1034E000809323028091270290912802A0912902C3
:1034F000B0912A02892F9A2FAB2FBB27823609F46D
:103500003AC208F00EC2803309F444C208F0F3C195
:10351000803109F448C208F09CC166E173E0823052
:1035200009F49FC160E971E0CE0181960E94B0105C
:103530009CC180916E0390916F038434910550F18A
:103540008091760390917703815491098F9710F5BC
:1035500090E080E040E050E0BA01FC01E858FC4F08
:1035600020813181295031092930310598F4FC013D
:10357000E658FC4F20813181275131092231310534
:1035800008F449C1208131812650310927303105A5
:1035900008F45AC110926A0310926F0310926E03DE
:1035A00081EC92E00E94DF02181619068CF582E089
:1035B00080934E0281EC92E00E947D02182F80934E
:1035C0004F0261E070E080E090E00E9465041B34EF
:1035D00009F082C2E0905A04F0905B0410E000E031
:1035E00081EC92E00E94DF02892B51F081EC92E0A5
:1035F0000E947D02F701E00FF11F80830F5F1F4FD4
:10360000F8013197EE0DFF1D80818E3749F710824A
:103610002FB7F8948091580290915902A0915A02C4
:10362000B0915B022FBF40913502509136026091FC
:10363000370270913802841B950BA60BB70B893C9F
:103640009105A105B10508F45BC080E00E94360732
:10365000882379F061E089E70E94FE041092550208
:1036600080935402882329F08EE593E00E94DD05C3
:103670008FA7BFA5BF3F09F443C080E0EFA5E813C3
:103680007FC2F0E0EE0FFF1FEA5DFC4F6591749181
:1036900080915A0490915B040E94292567E771E0AC
:1036A00080915A0490915B040E94392567E771E08C
:1036B00090E080E00E943925DC018D91BD0180936E
:1036C0004F028B3609F057C280915E0490915F04DF
:1036D0000E94892B86E080934E022FB7F894809148
:1036E000580290915902A0915A02B0915B022FBFEB
:1036F0008093350290933602A0933702B09338023C
:1037000060914E02662309F4A8C2F0904F02653022
:1037100010F5B2E6FB16F9F0ECE4FE16E1F0F9E480
:10372000FF16C9F08CE88F0D8230A8F070E06B5F57
:103730007F4F660F771F072E000C880B990B0E9496
:10374000A925EE24E39410E000E020E030E048E416
:1037500052E40E94571180914D028356823030F41A
:1037600083E6F81619F087E40E942F0980914F0232
:10377000803751F080914C02811106C081E0809326
:103780004C0280E70E942F09F0904F02EEEBEF0D04
:10379000E93308F006C20E2E000CFF0BEE52F44E79
:1037A0000C94892A2D21D11DD11DD11DD11DD11DD2
:1037B000D11DE020D11D78212021E020D11DD11D77
:1037C000D11DD11DD11DD11D6821D11DD11DD11DEE
:1037D000D11DD11DD11DD11DD11DD11DD11DD11D79
:1037E000D11D371F4D1F4D1FFA21D11DD11DD11DD8
:1037F000D11D4D1FA21EE421D11D4D1FD11DD51E6F
:103800008F1ED11DD11DDA1E4D1F4D1FD11DD11D83
:10381000D11DD11DC51D440F551F661F771F416067
:1038200004968038910509F098CE80E290E090935C
:103830002E0280932D02409327025093280260931A
:10384000290270932A0248CE440F551F661F771F26
:10385000E7CF883109F4A1C06EE173E0823209F04C
:1038600061CECE0181960E94F11069E771E0CE0130
:1038700081960E94B709882309F4A1C06BE771E023
:1038800084E594E00E947A1064E574E0CE018796A6
:103890000E945E10CE0181960E94DE0960E971E00F
:1038A000CE0187960E94B70981111AC000915E046B
:1038B00010915F046FA178A5C8010E94892BD801DF
:1038C0000D900020E9F7CD0102978017910709F0CC
:1038D00001C1F801808180934F0281E080934E0204
:1038E00010926A0310926F0310926E03CE018796B6
:1038F0000E94DE0955CE8A3409F45BC048F488334F
:1039000009F454C06AEE72E0823409F4AACF0ACEF8
:10391000823509F451C060EF72E08A3509F4A1CF15
:1039200001CE823A29F188F48A37D1F130F46BE084
:1039300073E0883609F495CFF5CD803941F168E020
:1039400073E0883909F48DCFEDCD823CB9F040F4B5
:10395000883AD1F065E073E0803B09F482CFE2CD94
:10396000803E79F060E273E0823E09F47ACFDACDEE
:1039700064E273E076CF62E273E073CF64E173E0F8
:1039800070CF62E173E06DCF60E173E06ACF6EE00B
:1039900073E067CF62E073E064CF6EEF72E061CFF7
:1039A0006AEF72E05ECF67EF72E05BCF64EF72E0C8
:1039B00058CF63EE72E055CF6EED72E052CF6EE7F6
:1039C00071E0CE0181960E94B709811110C060E8B4
:1039D00071E0CE0181960E94B709811108C062E8AA
:1039E00071E0CE0181960E94B7098823D1F18DA1A3
:1039F0009EA1892B21F0E9A1FAA1309721F4109220
:103A00002202E2E2F2E0108110930101163431F457
:103A10006DE571E084E594E00E947A1064E574E05D
:103A2000CE0101960E945E101FA318A641E050E04F
:103A3000BE01695D7F4FCE0101960E941110811178
:103A400004C0CE0101960E94CC09BE016F5F7F4F7A
:103A5000CE0187960E945E10CE0101960E94DE097B
:103A600019CF64E871E0CE0181960E94B7098111F7
:103A70001EC067E871E0CE0181960E94B7098111EE
:103A800016C06DE571E0CE0181960E94B7098111E3
:103A90000EC018A61FA21AA619A61CA61BA6BE0118
:103AA0006F5D7F4FCE0187960E94E609F3CE69A134
:103AB0007AA16115710549F04DA15EA184E594E0FC
:103AC0000E943D1010910101A9CF84E594E00E946D
:103AD000CC09F8CF8BE6FFCE81EC92E00E94DF02AA
:103AE000181619060CF094CD60E971E0CE018196AC
:103AF0000E94B010193439F084EB810F823018F035
:103B00006AE0123409F46EE7CE0101960E94C110FA
:103B1000BE016F5F7F4FCE0181960E94E609CE0104
:103B200001960E94DE092DA13EA130933A02209316
:103B300039021B3631F080915A0490915B0414379E
:103B400021F480915E0490915F0449A15AA1DC01A7
:103B5000FA01BF01641B750B621773071CF46191B6
:103B60006D93F7CF820F931FDC011C92CE018196DB
:103B70000E94DE094DCD80915A0490915B04A8CD3E
:103B80008F5F8E3009F07ACDA5CD80914B0291E008
:103B9000892780934B02882311F06AE5F62EF09274
:103BA0004F0280914F028B3621F4909160021916DA
:103BB000E4F40E942F0910914F02812F012E000C76
:103BC000990B0E946F2B873631F0863721F08236B1
:103BD00011F01A3621F480914D028B3619F01B7FBB
:103BE000103719F48BE680934F0200915E04109118
:103BF0005F0466E971E0C8010E94802BF0904F02DB
:103C0000892B09F1E9E4FE16F1F085EB8F0D833085
:103C1000D0F080915C0490915D04009711F00E94B7
:103C2000822381E090E00E94E622F80101900020CA
:103C3000E9F7E01BDC01EC9390935D0480935C0456
:103C4000B8010E94892B10924E02F0924D028F2DE6
:103C5000877F833611F010924F0280914F028B368E
:103C600009F05BC4D0906002D7FED6C3D0906D023D
:103C7000DA9410E082E3C82E212F30E080916002B8
:103C8000082E000C990B97FF03C09195819591091F
:103C9000281739070CF041C4E0906F02F0907002D1
:103CA00080916502189FE00CF11C1124F7016089D6
:103CB000062E000C770B880B990B0E94A92520E09B
:103CC00030E040E85EE30E9408269B01AC0100E082
:103CD00060916A02C7010E94080D80916502E0911F
:103CE0006F02F0917002189FE00DF11D11242189DF
:103CF000022E000C330BAC2D0C2C000CBB0B0E94C5
:103D00008F2A0E94650480916C02181306C01D144E
:103D100024F410916B021150DA941F5FADCF8091A3
:103D20004C0291E0811190E090934C02882311F0B5
:103D300050E5F52EF0924F02882309F432CF0E940D
:103D4000D3072FCF0E94950960E971E0CE018196DB
:103D50000E94B01002E011E0D8016D917D918D01BB
:103D6000CE0101960E9484104D815E8169817A8125
:103D7000CE0181960E941110CE0101960E94DE09AB
:103D800042E050E06EE871E0CE0181960E94111091
:103D9000B1E002321B0701F7CE0181960E943E0975
:103DA000CE0181960E94DE09FCCE86EC93E00E9453
:103DB000CB13F7CE84E793E00E9423093BE3832EE5
:103DC00032E0932E00E310E040E4E42EF12CF40105
:103DD000B1904F016801F0E2CF1AD108C6010E94EC
:103DE000C626B81621F06B2DC6010E94CE26C7014B
:103DF0000E94B20A6C01C8010E941F0AB82EF40189
:103E000031976081062E000C770B880B990B0E946E
:103E1000A9252B013C016B2DBB0C770B880B990B53
:103E20000E94A9259B01AC01C301B2010E94082692
:103E30002B013C01B601DD0C880B990B0E94A925D2
:103E40009B01AC01C301B2010E9477270E945A284E
:103E5000C801880F991F0E94C70F82E0E80EF11C6D
:103E60000F5F1F4F0034110509F0B1CF9ACE8CE6D9
:103E700093E00E9423091BE3E12E12E0F12E00E102
:103E800010E0C8010E941F0AD7018D937D010F5FCA
:103E90001F4F00321105A9F784CEE2E0F1E0DE0108
:103EA00011961D01819191918D939D9381E0E23254
:103EB000F807C1F794E7F912D7C080915E0490919A
:103EC0005F046AE871E00E9439256C01C114D104D5
:103ED00009F4CFC0C6010E940B258C016DE871E08A
:103EE00090E080E00E9439256C01B12CA12C99242E
:103EF0009394009761F00E940B255C016DE871E0DE
:103F000090E080E00E9439256C01B2E09B2EF80120
:103F1000EE0FFF1FE20DF31DB182A08280914F02D0
:103F2000833609F0ACC010924B0280914D0283366B
:103F300061F0E0905E04F0905F0467E571E0C70116
:103F40000E94892BC7010E94930ED801A55CBD4F2A
:103F50007D01B2E09B1202C0F701A082C8018096E9
:103F6000880F991F0E94B20A5C01C8019927C09668
:103F70000E941F0A182FD7016C91062E000C770B98
:103F8000880B990B0E94A9252B013C01612F110F71
:103F9000770B880B990B0E94A9259B01AC01C301EB
:103FA000B2010E9408262B013C01B501BB0C880B15
:103FB000990B0E94A9259B01AC01C301B2010E948B
:103FC00077270E945A28072E000C880B990B0E9415
:103FD000A925AB01BC01802F0E94C60A0E94950949
:103FE00060E971E0CE0187960E94B0100BE312E009
:103FF000F80161918F01062E000C770BCE0181969E
:104000000E9484104DA15EA169A17AA1CE0187967C
:104010000E941110CE0181960E94DE0942E050E01C
:104020006EE871E0CE0187960E9411108BE492E059
:1040300080179107E9F6CE0187960E943E09CE01CE
:1040400087960E94DE09C114D10409F03FCF809108
:104050004F02893609F0A5CD40E050E060E070E401
:10406000C1010E94BD0B9DCD80915A0490915B04CB
:1040700028CFB12CA12C10E000E0912C48CF8D3638
:1040800041F440E050E060E070E4C1010E94BD0BEB
:10409000DACF8437C1F2853709F078C00E945724FF
:1040A0006AE070E00E94752A845289AB0E9457240E
:1040B0006AE070E00E94752A8E5288AB0E945724F5
:1040C0008C010E94572462E070E00E94752A8F5F85
:1040D0008AABC80164E070E00E94752A0296282F1E
:1040E000220F220F280F30E0A8EEB3E00E946727CE
:1040F0006BAB7CAB8DAB9EAB10E0B8A9AB2FB0E047
:10410000B8AFAFABEAA91E1708F09DCF08A91EA64D
:104110001DA6F9A90F17C0F58FA898AC8DA59EA56F
:10412000880E991E7401EE0CFF1CEE0CFF1C95E02E
:10413000E91AF108880C991CB12CA12C412C512CA6
:1041400032018BA99CA9ADA9BEA9481659066A06D9
:104150007B069CF461E085E00E94D203C7010197D1
:10416000F1F760E085E00E94D203C7010197F1F703
:10417000480C591C6A1C7B1CE4CF0F5FADA5BEA583
:104180001196BEA7ADA7C5CF1F5FBCCF823609F081
:104190005ACFB501BB0C880B990B0E94A9254B0186
:1041A0005C01B801110F880B990B0E94A925EE2420
:1041B000E39402E310E0A50194010E94571143CF5C
:1041C000E2E0F1E0DE01119682E291E07D012191D1
:1041D00031912D933D938E179F07C9F710E000E0B2
:1041E00020914F028091390290913A0208171907E5
:1041F000F4F4A0915A04B0915B04A00FB11FEC91AC
:10420000EE0FFF0BEE0DFF1D11968C91082E000C8A
:10421000990B918380832D3439F440E050E060E0C5
:1042200070E4C7010E94BD0B0E5F1F4FD9CF293428
:1042300009F0B7CC40E050E060E070E4C70111CF76
:1042400000E020E030E040E050E461E080915A047A
:1042500090915B040E94080DA4CCF12C2F2D30E02E
:104260008091390290913A0297FD01969595879534
:10427000281739070CF0A3C100915A0410915B0470
:10428000220F331F020F131FF8016181062E000C4D
:10429000770B88EE93E00E94752A072E000C880B9E
:1042A000990B0E94A9254B015C01D8016C91062E47
:1042B000000C770B880B990B0E94A925EE24E39440
:1042C00010E000E0A50194010E945711F394C6CFBD
:1042D00084E191E00E94B20A0E94DF070E94700E02
:1042E00080914F020E942F098BE680934F0259CC98
:1042F000A0905A04B0905B0484E191E00E94B20A5D
:104300008C01F50160816093600285E692E00E9475
:10431000770701967C01D12CC12C1E141F0474F563
:1043200084E50E94EA01612F70E08EE593E00E942F
:104330009407B80177278EE593E00E949407450122
:104340008C0C9D1C3801F0E16F0E711C011580E290
:104350001807B9F40E941F0982E493E00E94230920
:1043600092E0E92E02E310E020E030E048EC52E475
:1043700060E070E080E291E40E9457110E94700EAC
:10438000B3CF9FEFC91AD90AD4016D914D018EE5C3
:1043900093E00E941D060F5F1F4FB1E0EB1AF1087A
:1043A00041F0C8018F719927892B19F060167106A9
:1043B00069F68EE593E00E944C0666E070E080E0CE
:1043C00090E00E946504A9CF00915E0410915F0403
:1043D000B80180915C0490915D040E94802B892B30
:1043E00029F48091600282300CF0E7C0C8010E947D
:1043F000930ED7CB00915E0410915F0461E971E0E8
:10440000C8010E94892BC8010E94930E0E94D30705
:1044100087E60E942F09C5CB80915C02803108F4A9
:10442000A8C0209156023091570210925C028091F0
:104430004C02820F932F911D2D2D0D2C000C330B50
:10444000821793070CF091C0909357028093560205
:10445000C0905C0220916E02E0905602F0905702EC
:104460000C2D10E0C21608F08DC0F1E0FD150CF027
:1044700089C0812C912C5401CF1659F060915F02B4
:10448000062E000C770B880B990B0E94A9254B0177
:104490005C010E5F1F4F0E9DB0010F9D700D1E9DA4
:1044A000700D1124072E000C880B990B0E94A92572
:1044B0002BED3FE049E450E40E9408262B013C012B
:1044C0006D2DDD0C770B880B990B0E94A9259B01A4
:1044D000AC01C301B2010E94E8270E94242920E018
:1044E00030E040E251E40E940826A50194010E94B8
:1044F0007727209150023091510240915202509101
:1045000053020E947727AB01BC018C2D0E94170B30
:1045100080915C028F5F80935C028091600287FFD4
:1045200014C000915E0410915F0469E971E0C80154
:104530000E94892BF8018081882319F0C8010E940C
:10454000930E80914F020E942F0980E090E0892B0A
:1045500011F40C94C4190E94EB02882311F40C94FA
:10456000C4190E9400000C94C419109257021092B2
:10457000560280915C02843009F06ACF88E0809313
:104580005C0266CF309165023E9DC0013F9D900D5B
:104590001124080F191F021B110980916F029091BD
:1045A0007002080F191FD8016C91062E000C770BB2
:1045B000880B990B0E94A9259CCF8F2DF6CA80915C
:1045C0004F02F7CA84E594E00C94DE090F931F9321
:1045D000CF93DF938230910510F482E090E0E09178
:1045E0006404F091650430E020E0B0E0A0E0309792
:1045F00099F42115310509F44AC0281B390B2430E0
:104600003105D8F58A819B816115710589F1FB011E
:1046100093838283FE0111C0408151810281138105
:1046200048175907E0F04817590799F4109761F0B7
:1046300012960C93129713961C933296CF01DF912A
:10464000CF911F910F910895009364041093650416
:10465000F4CF2115310551F04217530738F0A90165
:10466000DB019A01BD01DF01F801C1CFEF01F9CFF4
:104670009093650480936404CDCFFE01E20FF31F95
:10468000819391932250310939832883D7CF209188
:10469000620430916304232B41F420912401309172
:1046A000250130936304209362042091220130910C
:1046B00023012115310541F42DB73EB74091260164
:1046C00050912701241B350BE0916204F0916304A3
:1046D000E217F307A0F42E1B3F0B2817390778F0D9
:1046E000AC014E5F5F4F2417350748F04E0F5F1F38
:1046F0005093630440936204819391939FCFF0E0C1
:10470000E0E09CCFCF93DF930097E9F0FC01329774
:1047100013821282A0916404B0916504ED0130E02F
:1047200020E01097A1F420813181820F931F209106
:104730006204309163042817390709F061C0F093CF
:104740006304E0936204DF91CF910895EA01CE17EC
:10475000DF07E8F54A815B819E0141155105B1F7FC
:10476000E901FB83EA8349915991C40FD51FEC17E6
:10477000FD0761F4808191810296840F951FE90104
:1047800099838883828193819B838A83F0E0E0E030
:1047900012968D919C9113970097B9F52D913C91AC
:1047A0001197CD010296820F931F209162043091E0
:1047B00063042817390739F6309751F510926504CC
:1047C00010926404B0936304A0936204BCCFD383BB
:1047D000C28340815181840F951FC817D90761F4A6
:1047E0004E5F5F4F88819981480F591F51834083E5
:1047F0008A819B81938382832115310509F0B0CF93
:10480000F0936504E09364049ECFFD01DC01C0CF0A
:1048100013821282D7CF8F929F92AF92BF92CF9284
:10482000DF92EF92FF92CF93DF93EC016881798161
:104830008A819B81611571058105910521F464E2EE
:1048400079ED8BE597E02DE133EF41E050E00E94F8
:10485000DC2649015A019B01AC01A7EAB1E40E94A0
:10486000FB266B017C01ACEEB4EFA50194010E9424
:104870000927DC01CB018C0D9D1DAE1DBF1DB7FFAF
:1048800003C00197A109B04888839983AA83BB8399
:104890009F77DF91CF91FF90EF90DF90CF90BF9007
:1048A000AF909F908F9008950E940B24089588E206
:1048B00091E00E940B240895B0E0A0E080932801CD
:1048C00090932901A0932A01B0932B0108958F9210
:1048D0009F92AF92BF92CF92DF92EF92FF92CF93CF
:1048E000DF93EC01688179818A819B816115710573
:1048F0008105910521F464E279ED8BE597E02DE1E6
:1049000033EF41E050E00E94DC2649015A019B014F
:10491000AC01A7EAB1E40E94FB266B017C01ACEE7E
:10492000B4EFA50194010E940927C60ED71EE81E08
:10493000F91EF7FE06C081E0C81AD108E10880E838
:10494000F80AC882D982EA82FB82C701B6019F7742
:10495000DF91CF91FF90EF90DF90CF90BF90AF901D
:104960009F908F9008958F929F92AF92BF92CF9217
:10497000DF92EF92FF9260912C0170912D01809156
:104980002E0190912F01611571058105910521F48A
:1049900064E279ED8BE597E02DE133EF41E050E003
:1049A0000E94DC2649015A019B01AC01A7EAB1E44F
:1049B0000E94FB266B017C01ACEEB4EFA5019401D3
:1049C0000E940927C60ED71EE81EF91EF7FE06C074
:1049D00081E0C81AD108E10880E8F80AC0922C01E9
:1049E000D0922D01E0922E01F0922F01C701B60165
:1049F0009F77FF90EF90DF90CF90BF90AF909F9008
:104A00008F90089560932C0170932D0180932E0157
:104A100090932F010895FC0188279927E89421910C
:104A20002032E9F3293010F02E30C8F32B3241F058
:104A30002D3239F4689404C00E947025820F911DB4
:104A4000219120532A30C0F31EF4909581959F4FF9
:104A50000895FB01DC0105900D920020E1F7089517
:104A6000FC0105900020E9F7809590958E0F9F1F1F
:104A7000089540E654E00E943E250895FA01A19170
:104A8000B081009719F41097E1F0CD01DC01CD0160
:104A90000D90002011F4C00113C0FB0121912223CD
:104AA00019F02015D9F7F3CFFB012191201519F446
:104AB0001E92119606C02223C1F70D900020A1F787
:104AC000D001FA01A193B0830895BB274A3031F495
:104AD000992322F4BDE2909581959F4F0C947925FE
:104AE0007AE0979F902D879F802D910D1124089536
:104AF000BB27FB015527AA27880F991FAA1FA417B8
:104B000010F0A41B83955051B9F7A05DAA3308F0AB
:104B1000A95DA193009779F7B111B1931192CB01DF
:104B20000C949225DC01FC01672F71917723E1F74A
:104B3000329704C07C916D9370836291AE17BF076A
:104B4000C8F308950E94E42508F481E00895E894EC
:104B500009C097FB3EF490958095709561957F4FC5
:104B60008F4F9F4F9923A9F0F92F96E9BB27939573
:104B7000F695879577956795B795F111F8CFFAF483
:104B8000BB0F11F460FF1BC06F5F7F4F8F4F9F4FB4
:104B900016C0882311F096E911C0772321F09EE812
:104BA000872F762F05C0662371F096E8862F70E078
:104BB00060E02AF09A95660F771F881FDAF7880F52
:104BC0009695879597F90895990F0008550FAA0BA8
:104BD000E0E8FEEF16161706E807F907C0F0121610
:104BE0001306E407F50798F0621B730B840B950B13
:104BF00039F40A2661F0232B242B252B21F4089568
:104C00000A2609F4A140A6958FEF811D811D089504
:104C10000E941B260C948C260E947E2638F00E944F
:104C2000852620F0952311F00C9475260C947B2694
:104C300011240C94C0260E949D2670F3959FC1F309
:104C4000950F50E0551F629FF001729FBB27F00D3A
:104C5000B11D639FAA27F00DB11DAA1F649F66278F
:104C6000B00DA11D661F829F2227B00DA11D621FDE
:104C7000739FB00DA11D621F839FA00D611D221F98
:104C8000749F3327A00D611D231F849F600D211D7C
:104C9000822F762F6A2F11249F5750409AF0F1F0FF
:104CA00088234AF0EE0FFF1FBB1F661F771F881F68
:104CB00091505040A9F79E3F510580F00C94752605
:104CC0000C94C0265F3FE4F3983ED4F38695779525
:104CD0006795B795F795E7959F5FC1F7FE2B880F0E
:104CE000911D9695879597F9089597F99F6780E8A4
:104CF00070E060E008959FEF80EC089500240A942E
:104D00001616170618060906089500240A941216A6
:104D10001306140605060895092E0394000C11F4D9
:104D2000882352F0BB0F40F4BF2B11F460FF04C086
:104D30006F5F7F4F8F4F9F4F089557FD9058440FDF
:104D4000551F59F05F3F71F04795880F97FB991FEA
:104D500061F09F3F79F087950895121613061406A7
:104D6000551FF2CF4695F1DF08C016161706180634
:104D7000991FF1CF86957105610508940895E8940F
:104D8000BB2766277727CB0197F90895F999FECFBE
:104D900092BD81BDF89A992780B50895262FF9997B
:104DA000FECF1FBA92BD81BD20BD0FB6F894FA9A0E
:104DB000F99A0FBE01960895052E97FB1EF40094F4
:104DC0000E94F32657FD07D00E94452707FC03D019
:104DD0004EF40C94F32650954095309521953F4F15
:104DE0004F4F5F4F089590958095709561957F4FD7
:104DF0008F4F9F4F08950E946727A59F900DB49FE6
:104E0000900DA49F800D911D11240895B7FF0C945F
:104E1000FB260E94FB26821B930B08952F923F9244
:104E20004F925F926F927F928F929F92AF92BF92BA
:104E3000CF92DF92EF92FF920F931F93CF93DF9366
:104E4000CDB7DEB7CA1BDB0B0FB6F894DEBF0FBEC3
:104E5000CDBF09942A88398848885F846E847D8410
:104E60008C849B84AA84B984C884DF80EE80FD8012
:104E70000C811B81AA81B981CE0FD11D0FB6F89488
:104E8000DEBF0FBECDBFED010895A1E21A2EAA1B11
:104E9000BB1BFD010DC0AA1FBB1FEE1FFF1FA217EA
:104EA000B307E407F50720F0A21BB30BE40BF50BE7
:104EB000661F771F881F991F1A9469F76095709570
:104EC000809590959B01AC01BD01CF010895A29FF3
:104ED000B001B39FC001A39F700D811D1124911DCE
:104EE000B29F700D811D1124911D08955058BB274C
:104EF000AA270E948E270C948C260E947E2638F0CA
:104F00000E94852620F039F49F3F19F426F40C9472
:104F10007B260EF4E095E7FB0C947526E92F0E94A2
:104F20009D2658F3BA17620773078407950720F088
:104F300079F4A6F50C94BF260EF4E0950B2EBA2F4B
:104F4000A02D0B01B90190010C01CA01A00111248F
:104F5000FF27591B99F0593F50F4503E68F11A163B
:104F6000F040A22F232F342F4427585FF3CF4695CC
:104F700037952795A795F0405395C9F77EF41F16EE
:104F8000BA0B620B730B840BBAF09150A1F0FF0FB8
:104F9000BB1F661F771F881FC2F70EC0BA0F621FA4
:104FA000731F841F48F4879577956795B795F79594
:104FB0009E3F08F0B0CF9395880F08F09927EE0F29
:104FC0009795879508950E949228E3950C94BB28A5
:104FD0000E94FC270C948C260E94852658F00E9483
:104FE0007E2640F029F45F3F29F00C94752651117C
:104FF0000C94C0260C947B260E949D2668F399236E
:10500000B1F3552391F3951B550BBB27AA276217C4
:105010007307840738F09F5F5F4F220F331F441FD1
:10502000AA1FA9F335D00E2E3AF0E0E832D0915005
:105030005040E695001CCAF72BD0FE2F29D0660FF2
:10504000771F881FBB1F261737074807AB07B0E835
:1050500009F0BB0B802DBF01FF2793585F4F3AF03B
:105060009E3F510578F00C9475260C94C0265F3F46
:10507000E4F3983ED4F3869577956795B795F795C1
:105080009F5FC9F7880F911D9695879597F90895A9
:10509000E1E0660F771F881FBB1F62177307840745
:1050A000BA0720F0621B730B840BBA0BEE1F88F754
:1050B000E09508950E9461286894B1110C94C0266F
:1050C00008950E94A52688F09F5798F0B92F992738
:1050D000B751B0F0E1F0660F771F881F991F1AF0E3
:1050E000BA95C9F714C0B13091F00E94BF26B1E063
:1050F00008950C94BF26672F782F8827B85F39F062
:10510000B93FCCF3869577956795B395D9F73EF47B
:1051100090958095709561957F4F8F4F9F4F089523
:105120000C947B260E94A526D8F3E894E0E0BB27E8
:105130009F57F0F02AED3FE049EC06C0EE0FBB0FA1
:10514000661F771F881F28F0B23A6207730784072B
:1051500028F0B25A620B730B840BE3959A9572F7A1
:10516000803830F49A95BB0F661F771F881FD2F7DF
:1051700090480C946829EF93E0FF07C0A2EA2AED5B
:105180003FE049EC5FEB0E948E270E948C260F9037
:10519000039401FC9058E8E6F0E00C949B290E94EF
:1051A000E42508F48FEF0895FA01EE0FFF1F309603
:1051B00021053105A1F16115710561F48038BFE366
:1051C0009B0749F168949038810561F08038BFEF02
:1051D0009B0741F099234AF5FF3FE1053105210581
:1051E00019F1E8940894E795D901AA2329F4AB2F83
:1051F000BE2FF85FD0F310C0FF5F70F4A695E0F704
:10520000F73950F019F0FF3A38F49F779F930DD09B
:105210000F9007FC9058089546F00C947B2660E0B0
:1052200070E080E89FE308954FE79F775F934F9387
:105230003F932F930E94F9292F913F914F915F91B6
:105240000E9408260C9434299F930E9492280F9064
:1052500007FCEE5F0C94BB2829F416F00C9475261D
:105260000C94BF260C947B260E94A526A8F39638A2
:10527000A0F707F80F92E8942BE33AEA48EB5FE7D0
:105280000E941E260F920F920F924DB75EB70F929B
:105290000E94412AE6E8F0E00E9474294F915F9154
:1052A000EF91FF91E595EE1FFF1F49F0FE57E06873
:1052B0004427EE0F441FFA95E1F74195550B0E94E4
:1052C000BB290F9007FE0C94AF2908959F3F31F042
:1052D000915020F4879577956795B795880F911D24
:1052E0009695879597F90895DF93CF931F930F9322
:1052F000FF92EF92DF927B018C01689406C0DA2E58
:10530000EF010E941B26FE01E894A591259135919D
:1053100045915591A6F3EF010E948E27FE0197015A
:10532000A801DA9469F7DF90EF90FF900F911F9139
:10533000CF91DF9108959F938F937F936F93FF9306
:10534000EF939B01AC010E940826EF91FF910E9410
:1053500074292F913F914F915F910C9408269B01E6
:10536000AC0160E070E080E89FE30C94E8270C94C7
:1053700075260C9466290E94A526D8F39923C9F3B3
:10538000940F511DA3F39150504094F059F088238D
:1053900032F0660F771F881F91505040C1F79E3F33
:1053A00051052CF7880F911D9695879597F90895CB
:1053B0005F3FACF0983E9CF0BB278695779567954C
:1053C000B79508F4B1609395C1F7BB0F58F711F486
:1053D00060FFE8CF6F5F7F4F8F4F9F4FE3CF0C94FD
:1053E000C02616F00C9466290C947B2668940C94C5
:1053F00075260E94A526A8F39923C1F3AEF3DF9387
:10540000CF931F930F93FF92C92FDD2788232AF094
:105410002197660F771F881FDAF720E030E040E819
:105420005FEB9FE3883920F0803E38F021968F773C
:105430000E947727EEEAF0E004C00E947727EBEDA8
:10544000F0E00E9474298B01BE01EC01FB2E6F5726
:1054500071097595771F880B990B0E94A92528E182
:1054600032E741E35FE30E941B26AF2D9801AE01B6
:10547000FF900F911F91CF91DF910E948E270C9486
:105480008C26FA01DC01AA0FBB1F9B01AC01BF57A0
:1054900028F4222733274427507820C0B75190F4AE
:1054A000AB2F0024469537952795011CA395D2F381
:1054B000002071F0220F331F441FB395DAF30ED092
:1054C0000C94762761307105A0E88A07B94630F45C
:1054D0009B01AC016627772788279078309621F0CA
:1054E0002083318342835383089597FB072E16F45C
:1054F000009407D077FD09D00E949E2A07FC05D0B2
:105500003EF4909581959F4F0895709561957F4FDA
:105510000895EE0FFF1F0590F491E02D09940E946D
:105520006727332312F48A1B9B0B0C94992A0E9441
:105530006727B7FF0895821B930B0895AA1BBB1B17
:1055400051E107C0AA1FBB1FA617B70710F0A61B83
:10555000B70B881F991F5A95A9F780959095BC01A4
:10556000CD010895B0E0A0E0E8EBFAE20C9410273A
:105570008C01009751F4CB010E94E6228C01C801F6
:10558000CDB7DEB7E0E10C942C27FC01E60FF71F46
:105590009C0122503109E217F30708F49DC0D9019C
:1055A000CD91DC911197C617D70798F0C530D1057A
:1055B00030F3CE0104978617970708F3C61BD70B65
:1055C0002297C193D1936D937C93CF010E94822344
:1055D000D6CF5B01AC1ABD0A4C018C0E9D1EA0916A
:1055E0006404B0916504512C412CF12CE12C1097EE
:1055F00031F580916204909163048815990509F052
:105600005CC04616570608F058C080912201909160
:105610002301009741F48DB79EB740912601509128
:105620002701841B950BE817F90708F055C0F09384
:105630006304E0936204F90171836083A0CF8D91CC
:105640009C91119712966C90129713967C901397D9
:10565000A815B90559F56C0142E0C40ED11CCA1455
:10566000DB0420F1AC014A195B09DA0112961597A7
:1056700080F06282738251834083D9016D937C9361
:10568000E114F10471F0D7011396FC93EE93129795
:1056900076CF22968C0F9D1FF90191838083F301B1
:1056A000EFCFF0936504E093640469CF4816590680
:1056B00008F42C017D01D3019ACFCB010E94E62290
:1056C0007C01009749F0AE01B8010E94772BC80118
:1056D0000E948223870153CF10E000E050CF911148
:1056E000089581548A5108F4805E855A0895FB011B
:1056F000DC0102C001900D9241505040D8F708954E
:10570000FB01DC018D91019080190110D9F3990BF7
:105710000895FB01DC0101900D920020E1F708954E
:10572000FB01DC014150504030F08D910190801917
:1057300019F40020B9F7881B990B089511E0CFEBFD
:10574000D1E004C0FE010E94892A2196C03CD10705
:06575000C9F7F894FFCF39
:10575600FF46E2FFB0FFD3FF00000000000000009C
:1057660000004B004B00B5FFB5FFC9FFC9FF37006E
:105776003700000066048000010000000100000000
:1057860000000000210341026E028903DF027D0250
:10579600D102000000001D06F0053307CD053702D3
:1057A600DD05CE050D0A0063616C69620074720046
:1057B600496E697420736572766F7300496E6974F9
:1057C60020766F696365003A004200626B0046000E
:1057D6004C005200637200776B00202C00202C09CD
:1057E60000726573740072630062616C616E63655A
:0257F6000000B1
:00000001FF
