:100000000C9434070C945C070C945C070C945C070C
:100010000C945C070C945C070C945C070C942F1FE9
:100020000C945C070C945C070C945C070C944C21BA
:100030000C945C070C945C070C945C070C945C07B4
:100040000C94E31F0C945C070C94B11F0C948B1F51
:100050000C945C070C945C070C945C070C945C0794
:100060000C942D200C945C07084AD73B3BCE016EC4
:1000700084BCBFFDC12F3D6C74319ABD56833DDAFF
:100080003D00C77F11BED9E4BB4C3E916BAAAABE0E
:10009000000000803F05A84CCDB2D44EB93836A937
:1000A000020C50B9918688083CA6AAAA2ABE000074
:1000B00000803F07634236B79BD8A71A39685618A5
:1000C000AEBAAB558C1D3CB7CC5763BD6DEDFD751D
:1000D0003EF6177231BF000000803F08000000BEEE
:1000E000922449123EABAAAA2ABECDCCCC4C3E00EB
:1000F000000080BEABAAAAAA3E00000000BF00001C
:1001000000803F0000000000084178D3BB4387D146
:10011000133D190E3CC3BD4282AD2B3E68EC827686
:10012000BED98FE1A93E4C80EFFFBE01C4FF7F3FE7
:1001300000000000000001000001000000000000BD
:10014000000000000000000000000000000023008C
:100150002600290000000008000201000003040737
:1001600000000000000000000200F8F62A3F68F5D9
:100170007A0006FFFE0003000000650054FFEF0058
:1001800000FA80000B12820001030C30C30A74567F
:100190002D0D62DBC716F4BA023883F8833000F8FD
:1001A00083258EF8833000F883FFFFFFFF0CBDD856
:1001B00011240004001A8279A10036003C000000DE
:1001C000000010000038836FA2003E0330400000A2
:1001D0000002CAE3093E8000002000000000000089
:1001E0000040000000600000001FA4E8E4FFF5DC10
:1001F000B9005B79CF1F3F787600867C5A00862352
:1002000047FAB986310074878A0000000000004375
:1002100005FFFFE9A800002182FAB84D46FFFADF8A
:100220003DFFFFB2B3000000003FFFBA98005DAC95
:1002300008000A637800014621FFFF000000004229
:10024000B500060064006400061406029F0F479183
:1002500032D90E9FC91DCF4C343BB67AE8006400FA
:100260000600C800000000FFFE10000000000000B3
:1002700000000000000000000000070000FFF10087
:1002800000FA460000A2B800001000000004D600EA
:100290000004CC000004CC000000000000000000BE
:1002A0000000000000000000000006000200050041
:1002B00007000000000064000000000000000000D3
:1002C0000C00050064002000000000000000000099
:1002D00000000040000000030000000032F8980019
:1002E00000FF650000830F000000060000FFF10022
:1002F00000FA460000A2B800000000000000000064
:1003000000000000000000000000000032000000BB
:1003100000000000000000100000000001000000CC
:100320000D0000B26A000200000001FB83007C00A7
:1003300000FB15FC001FB4FF8300000001006500F6
:1003400007006403E8006400280000FFFD000000CF
:100350000016A000000000000000001000002F00A8
:1003600000000001F40000100000280000FFFF451D
:1003700081FFFFFA7200000000000000000044004E
:10038000010005BAC6004778A20000000000000086
:10039000000000060000000014000023BB002EA295
:1003A0005B00000568000BCF490004FFFD00020060
:1003B000000000000200000000001B000000000020
:1003C00000000000000000000000640007000800BA
:1003D000060006FFFE000000000000000000000014
:1003E000000000000000000000000000000000000D
:1003F00000000000000000000000000000000000FD
:10040000000000000000000000002EA25B000005BC
:1004100068000BCF490000000000F8F62A3F68F59D
:100420007A0004FFFD00020000001B000000000035
:100430000000000000000E000EFFFFFFCF000400D0
:100440000000000032FFFFFF9C0000430500000099
:10045000000000000100000064FFE5000000000053
:10046000000000000000000000000000010000008B
:100470000000010000000000000001800000018079
:100480000000018000002426D300010001000000CC
:1004900000000600100096003C0000000000000074
:1004A00000000000001F9E655D0C0A4E68CDCF77EE
:1004B0000950166759C619CE8200000000000000DE
:1004C00000000000000047711C0000000000000058
:1004D0000017D78400030000000011DC4703000070
:1004E00000C7938F9D1E1B1C19FFFFFFFF0000001C
:1004F000000EDFA4381F9E655D00000000004771FC
:100500001C020318850000400000000000000000ED
:100510000300000000000000003FFFFFFDFFFFF4AC
:10052000C9FFFFBCF000010C0F000000000000003C
:1005300000000000000000000000000000000000BB
:10054000000000000000000000F5B7BAB3677DDFCF
:100550007E72902E554CF6E68800000000000000E8
:10056000000000000000000000D8DCB4B8B0D8B92A
:10057000ABF3F8FAB3B7BB8E9EAEF132F51BF1B414
:10058000B8B08097F1A9DFDFDFAADFDFDFF2AA4C86
:10059000CD6CA90CC92C97F1A989264666B2899918
:1005A000A92D557DB0B08AA896365676F1BAA3B477
:1005B000B280C0B8A89711B28398BAA3F0240844B7
:1005C000106418B2B9B49883F1A329557DBAB5B1B6
:1005D000A38393F0002850F5B2B6AA839328547CE5
:1005E000F1B9A3829361BAA2DADEDFDB819AB9AEF8
:1005F000F5606870F1DABAA2DFD9BAA2FAB9A382BB
:1006000092DB31BAA2D9BAA2F8DF85A4D0C1BBADC2
:1006100083C2C5C7B8A2DFDFDFBAA0DFDFDFD8D86B
:10062000F1B8AAB38DB4980D355DB2B6BAAF8C9659
:10063000198F9FA70E161EB49AB8AA872C547CBA9D
:10064000A4B08AB691325676B28494A4C808CDD8A4
:10065000B8B4B0F19982A82D557D98A80E161EA2A7
:100660002C547C92A4F02C5078F184A898C4CDFC32
:10067000D80DDBA8FC2DF3D9BAA6F8DABAA6DED8D5
:10068000BAB2B68696A6D0F3C841DAA6C8F8D8B0F2
:10069000B4B882A892F52C548898F135D9F418D8BA
:1006A000F1A2D0F8F9A884D9C7DFF8F883C5DADF5A
:1006B00069DF83C1D8F40114F1A8824EA884F31134
:1006C000D182F5D992289788F109F41C1CD884A806
:1006D000F3C0F9D1D99782F129F40DD8F3F9F9D102
:1006E000D982F4C203D8DEDF1AD8F1A2FAF9A884BD
:1006F00098D9C7DFF8F8F883C7DADF69DFF883C372
:10070000D8F40114F198A8822EA884F311D182F5AF
:10071000D992509788F109F41CD884A8F3C0F8F94D
:10072000D1D99782F149F40DD8F3F9F9D1D982F4EE
:10073000C403D8DEDFD8F1AD8898CCA809F9D982F6
:1007400092A8F57CF1883ACF944A6E98DB6931DA49
:10075000ADF2DEF9D88795A8F221D1DAA5F9F41720
:10076000D9F1AE8ED0C0C3AE82C684C3A88595C869
:10077000A588F2C0F1F4010EF18E9EA8C63E56F592
:1007800054F18872F40115F19845856EF58E9E043A
:1007900088F142985A8E9E068869F4011CF1981ED1
:1007A0001108D0F504F11E970202983625DBF9D91D
:1007B00085A5F3C1DA85A5F3DFD88595A8F309DA15
:1007C000A5FAD88292A8F578F1881A849F2688988D
:1007D00021DAF41DF3D8879F39D1AFD9DFDFFBF9D8
:1007E000F40CF3D8FAD0F8DAF9F9D0DFD9F9D8F463
:1007F0000BD8F3879F39D1AFD9DFDFF41DF3D8FAD7
:10080000FCA869F9F9AFD0DADEFAD9F88F9FA8F120
:10081000CCF398DB45D9AFDFD0F8D8F18F9FA8CAC9
:10082000F38809DAAF8FCBF8D8F2AD978D0CD9A544
:10083000DFF9BAA6F3FAF412F2D8950DD1D9BAA617
:10084000F3FADAA5F2C1BAA6F3DFD8F1BAB2B686E6
:1008500096A6D0CAF349DAA6CBF8D8B0B4B8D8ADCA
:1008600084F2C0DFF18FCBC3A8B2B68696C8C1CBE5
:10087000C3F3B0B48898A821DB718D9D7185952153
:10088000D9ADF2FAD88597A828D9F408D8F28D29DD
:10089000DAF405D9F285A4C2F2D8A88D9401D1D991
:1008A000F411F2D88721D8F40AD8F28498A8C801A4
:1008B000D1D9F411D8F3A4C8BBAFD0F2DEF8F8F860
:1008C000F8F8F8F8F8D8F1B8F6B5B9B08A95A3DE1B
:1008D0003CA3D9F8D85CA3D9F8D87CA3D9F8D8F828
:1008E000F9D1A5D9DFDAFAD8B18530F7D9DED8F851
:1008F00030ADDADED8F2B48C99A32D557DA083DF1C
:10090000DFDFB591A0F629D9FBD8A0FC29D9FAD808
:10091000A0D051D9F8D8FC51D9F9D879D9FBD8A0B1
:10092000D0FC79D9FAD8A1F9F9F9F9F9A0DADFDF21
:10093000DFD8A1F8F8F8F8F8ACDEF8ADDE8393ACB8
:100940002C547CF1A8DFDFDFF69D2CDAA0DFD9FA8A
:10095000DB2DF8D8A850DAA0D0DED9D0F8F8F8DB33
:1009600055F8D8A878DAA0D0DFD9D0FAF8F8F8F896
:10097000DB7DF8D89CA88CF530DB38D9D0DEDFA041
:10098000D0DEDFD8A848DB58D9DFD0DEA0DFD0DE4C
:10099000D8A868DB70D9DFDFA0DFDFD8F1A88890A6
:1009A0002C547C98A8D05C38D1DAF2AE8CDFF9D820
:1009B000B087A8C1C1B188A8C6F9F9DA36D8A8F9B4
:1009C000DA36D8A8F9DA36D8A8F9DA36D8A8F9DAB2
:1009D00036D8F78D9DADF818DAF2AEDFD8F7ADFA5C
:1009E00030D9A4DEF9D8F2AEDEFAF983A7D9C3C5AF
:1009F000C7F1889BA77AADF7DEDFA4F8849408A737
:100A000097F300AEF29819A488C6A39488F632DF53
:100A1000F28393DB09D9F2AADFD8D8AEF8F9D1DA9C
:100A2000F3A4DEA7F1889B7AD8F38494AE19F9DA9F
:100A3000AAF1DFD8A881C0C3C5C7A39283F628ADA9
:100A4000DED9F8D8A350ADD9F8D8A378ADD9F8D865
:100A5000F8F9D1A1DADEC3C5C7D8A18194F818F29C
:100A6000B089ACC3C5C7F1D8B8B4B09786A8319BDC
:100A7000069907AB9728889BF00C201440B0B4B8B7
:100A8000F0A88A9A285078B79BA8295179247059E0
:100A9000446938644831F1BBAB88002C547CF0B316
:100AA0008BB8A804285078F1B088B49726A8599834
:100AB000BBABB38B02264666B0B8F08A9CA829511E
:100AC000798B2951798A2470598B2058718A44690D
:100AD000388B3940688A6448318B30496088F1AC82
:100AE000002C547CF08CA804285078F1889726A814
:100AF0005998AC8C02264666F0899CA82951792425
:100B00007059446938644831A98809205970AB117B
:100B1000384069A8193148608CA83C415C207C00B1
:100B2000F187981986A86E767EA999882D557DD86B
:100B3000B1B5B9A3DFDFDFAED0DFAAD0DEF2ABF80C
:100B4000F9D9B087C4AAF1DFDFBBAFDFDFB9D8B115
:100B5000F1A3978E60DFB084F2C8F8F9D9DED8939C
:100B600085F14AB183A308B5839A0810B79F10D8BE
:100B7000F1B0BAAEB08AC2B2B68E9EF1FBD9F41D06
:100B8000D8F9D90CF1D8F8F8AD61D9AEFBD8F40C8E
:100B9000F1D8F8F8AD19D9AEFBDFD8F416F1D8F8D2
:100BA000AD8D61D9F4F4ACF59C9C8DDF2BBAB6AE5B
:100BB000FAF8F40BD8F1AED0F8AD51DAAEFAF8F19C
:100BC000D8B9B1B6A3839C08B9B1839AB5AAC0FDC0
:100BD0003083B79F10B58B93F20202D1ABDADED827
:100BE000F1B080BAABC0C3B284C1C3D8B1B9F38B82
:100BF000A391B609B4D9ABDEB0879CB9A3DDF1B33C
:100C00008B8B8B8B8BB08720283038B28BB69BF2C6
:100C1000A3C0C8C2C4CCC6A3A3A3F1B087B59AD859
:100C2000F39BA3A3DCBAACDFB9A3FEF2ABC4AAF179
:100C3000DFDFBBAFDFDFA3A3A3D8D8D8BBB3B7F147
:100C4000AAF9DAFFD9809AAA28B48098A720B79782
:100C500087A86688F07951F1902C870CA78197625C
:100C600093F071716085940129517990A5F1284C18
:100C70006C870C95188578A38390284C6C886CD869
:100C8000F3A28200F210A8921980A2F2D926D8F11C
:100C900088A84DD948D896A83980D93CD89580A83D
:100CA00039A68698D92CDA87A72CD8A8899519A9AE
:100CB00080D938D8A88939A980DA3CD8A82EA83993
:100CC00090D90CD8A8953198D90CD8A809D9FFD8B3
:100CD00001DAFFD89539A9DA26FFD890A80D8999AD
:100CE000A810809821DA2ED88999A83180DA2ED8D8
:100CF000A886963180DA2ED8A8873180DA2ED8A837
:100D00008292F34180F1D92ED8A882F31980F1D9CB
:100D10002ED882ACF3C0A28022F1A62EA72EA92243
:100D200098A829DAACDEFFD8A2F22AF1A92E829285
:100D3000A8F23180A696F1D900AC8C9C0C30ACDEC8
:100D4000D0DEFFD88C9CACD010ACDE8092A2F24CEE
:100D500082A8F1CAF235F19688A6D900D8F1FF44ED
:100D60004D50206661696C65642028636F6465205E
:100D700000496E697420494D5500000000002500AF
:100D800028002B0000000000240027002A00040493
:100D90000404040404040202020202020303030323
:100DA00003030102040810204080010204081020FF
:100DB0000102040810204C6F616420736B696C6C35
:100DC000730052656164792100426974746C650036
:100DD0000A2A205374617274202A003E004C6F77F7
:100DE00020706F7765723A007A65726F006A7900D9
:100DF000636B0070656500707500686900737472DC
:100E00000073697400747200776B0063720076740B
:100E100000630042007000520062616C616E6365A5
:100E2000004C0067004600640049324320454550AD
:100E3000524F4D206F766572666C6F772120446546
:100E40006C65746520736F6D6520736B696C6C7372
:100E5000210A0061626F7274656400736176656473
:100E6000003F000039227E3111241FBECFEFD8E0B1
:100E7000DEBFCDBF11E0A0E0B1E0E8E3F6E702C0DD
:100E800005900D92A23AB107D9F725E0A2EAB1E0A8
:100E900001C01D92A034B207E1F717E0C3E3D7E029
:100EA00004C02197FE010E94ED39C233D107C9F772
:100EB0000E94CD220C940F3B0C94000091E0909383
:100EC0006B0380936A03109269031092680308957C
:100ED00080E090E0A0E0B0E480930C0390930D03D9
:100EE000A0930E03B0930F03E0913405F091350504
:100EF0008181082E000C990B9093120380931103AB
:100F0000109206038281082E000C990B9093140313
:100F100080931303109205038381809315039091AE
:100F20000B0397FF0FC08481809316038581809304
:100F3000170386818093180387E040E050E060E06B
:100F40007FE307C084E040E050E060E87FE3913059
:100F5000A1F7409300035093010360930203709341
:100F60000303923054F098E090931903E80FF11DB9
:100F7000F0931B03E0931A03089590E0F5CF80915E
:100F8000FC029091FD02891B990B08950895089524
:100F90000895AF92BF92CF92DF92EF92FF920F939C
:100FA0001F93CF93DF936C017B018B01040F151FFF
:100FB000EB015E01AE18BF08C017D10759F0699167
:100FC000D601ED91FC910190F081E02DC6010995CB
:100FD000892B79F7C501DF91CF911F910F91FF9078
:100FE000EF90DF90CF90BF90AF900895FC01538DAC
:100FF000448D252F30E0842F90E0821B930B5417F3
:1010000010F0CF96089501970895FC01918D828D7F
:10101000981761F0A28DAE0FBF2FB11D5D968C9118
:10102000928D9F5F9F73928F90E008958FEF9FEF57
:101030000895FC01918D828D981731F0828DE80F13
:10104000F11D858D90E008958FEF9FEF0895FC01CD
:10105000918D228D892F90E0805C9F4F821B91099A
:101060008F73992708958CE693E00E94270821E06A
:10107000892B09F420E0822F089580E090E0892BED
:1010800029F00E94330881110C9400000895FC019E
:10109000A48DA80FB92FB11DA35ABF4F2C91848DD9
:1010A00090E001968F739927848FA689B7892C9336
:1010B000A089B1898C91837080648C93938D848D89
:1010C000981306C00288F389E02D80818F7D80838C
:1010D0000895EF92FF920F931F93CF93DF93EC014C
:1010E00081E0888F9B8D8C8D98131AC0E889F989CF
:1010F000808185FF15C09FB7F894EE89FF896083D2
:10110000E889F98980818370806480839FBF81E052
:1011100090E0DF91CF911F910F91FF90EF90089594
:10112000F62E0B8D10E00F5F1F4F0F731127E02E6F
:101130008C8D8E110CC00FB607FCFACFE889F989A7
:10114000808185FFF5CFCE010E944708F1CFEB8D5E
:10115000EC0FFD2FF11DE35AFF4FF0829FB7F8947B
:101160000B8FEA89FB8980818062CFCF682F8CE664
:1011700093E00C9469080F931F93CF93DF938C0136
:10118000D0E0C0E0F801EC0FFD1F6491662341F050
:101190008CE693E00E946908892B11F02196F2CF2A
:1011A000CE01DF91CF911F910F910895CF93DF93DF
:1011B000EC01888D8823B9F0AA89BB89E889F9896F
:1011C0008C9185FD03C0808186FD0DC00FB607FCA4
:1011D000F7CF8C9185FFF2CF808185FFEDCFCE01D7
:1011E0000E944708E9CFDF91CF910895833081F0C5
:1011F00028F4813099F08230A9F008958730A9F061
:101200008830C9F08430B1F4809180008F7D03C0B4
:10121000809180008F7780938000089584B58F77C8
:1012200084BD089584B58F7DFBCF8091B0008F770A
:101230008093B00008958091B0008F7DF9CF1F9307
:10124000CF93DF93282F30E0F901EC5AFE4F8491C1
:10125000F901EE55F24FD491F901E257F24FC491E2
:10126000CC23A9F0162F81110E94F608EC2FF0E094
:10127000EE0FFF1FE658F24FA591B4918FB7F89487
:10128000EC91111108C0D095DE23DC938FBFDF9164
:10129000CF911F910895DE2BF8CF90910001891313
:1012A0000BC0E8E6F1E0E4919FEF90930001E1309C
:1012B00049F028F0E23061F060E00C941F091092D0
:1012C0006E00FACF90916F009D7F90936F00F4CFE6
:1012D000909170009D7F9093700091E09093B0008A
:1012E0009091B100987F94609093B1001092B300F8
:1012F000E3CF8E3008F08E50806480937C00809124
:101300007A00806480937A0080917A0086FDFCCF19
:10131000809178009091790008953FB7F89480917A
:10132000550290915602A0915702B091580226B5ED
:10133000A89B05C02F3F19F00196A11DB11D3FBF0D
:10134000BA2FA92F982F8827BC01CD01620F711DDC
:10135000811D911D42E0660F771F881F991F4A95D6
:10136000D1F708958F929F92AF92BF92CF92DF9262
:10137000EF92FF926B017C010E948D094B015C0191
:10138000C114D104E104F104B9F00E948D09681977
:1013900079098A099B09683E73408105910580F3AC
:1013A00021E0C21AD108E108F10888EE880E83E036
:1013B000981EA11CB11CE4CFFF90EF90DF90CF905E
:1013C000BF90AF909F908F9008952FB7F894609141
:1013D00051027091520280915302909154022FBF9A
:1013E00008950F931F930E94E5096093740370930F
:1013F000750380937603909377038CE693E00E94C5
:10140000050897FF1DC00E94E50900917403109123
:1014100075032091760330917703601B710B820B6B
:10142000930B00917003109171032091720330911E
:1014300073036017710782079307F8F28FEF9FEF2E
:101440001F910F91089520912D02260F3327331FEE
:1014500021323105ECF420916203FC0190E080E040
:10146000243069F082E00895A0912D022191AC0111
:10147000435F5D4FA40FB52FB11D2C9301968617C6
:1014800098F380912D02680F60932D0280E00895FB
:1014900081E008951092620381E0809341031092ED
:1014A0003C0361E082E10E941F0961E083E10E9448
:1014B0001F09E9EBF0E080818E7F808380818D7F42
:1014C000808388E48093B80085E48093BC0008950D
:1014D000CF93DF9391E090930C028823B9F0C091F1
:1014E000B800D091BA008091BC008A7B8093BC0088
:1014F00060E082E10E941F0960E083E10E941F0911
:101500000E944A0AD093BA00C093B800DF91CF91ED
:101510000895CF92DF92EF92FF920F931F93CF9394
:10152000DF93D82FC62F613208F098C00E948D0932
:101530006B017C018091620381116BC081E080931B
:101540006203809341039FEF9093400310923F0307
:101550009C0F90933E0380933D0380913D03DD0FEC
:10156000D82BD0933D0380913C03813009F078C0A3
:1015700010923C030E948D096B017C0180913D0318
:101580008093BB008091640390916503A0916603F2
:10159000B0916703892B8A2B8B2BA1F00E948D09B8
:1015A00000916403109165032091660330916703F5
:1015B0006C197D098E099F09061717072807390737
:1015C00008F448C08091BC0083FDD8CF85EC80939F
:1015D000BC000E948D096B017C0180916203813007
:1015E00009F440C080913F038C1710F4C0913F0371
:1015F000ECE1F3E0A2E4B3E080E08C1355C08C2F63
:10160000DF91CF911F910F91FF90EF90DF90CF90DE
:1016100008958091640390916503A0916603B09151
:101620006703892B8A2B8B2B09F484CF0E948D09A9
:101630000091640310916503209166033091670364
:101640006C197D098E099F090617170728073907A6
:1016500008F070CF809163030E94680AC0E0CFCF8A
:1016600085EEB5CF8091640390916503A0916603E8
:10167000B0916703892B8A2B8B2B09F4AECF0E9484
:101680008D090091640310916503209166033091E8
:1016900067036C197D098E099F090617170728072C
:1016A000390708F09ACFD6CF91919D938F5FA5CF40
:1016B0000895E091FD028091FC02E81730F4F0E01B
:1016C000EE5BFC4F808190E008958FEF9FEF0895CF
:1016D0009091FD028091FC022FEF3FEF981748F4A4
:1016E000E92FF0E0EE5BFC4F208130E09F5F9093AC
:1016F000FD02C9010895CF92DF92EF92FF920F93FE
:101700001F93CF93DF937C01CB018A0120916B0360
:10171000222389F0EB016B01C40ED51ECC15DD052B
:1017200069F06991D701ED91FC910190F081E02D74
:10173000C7010995F3CF642F0E94230AC801DF91E6
:10174000CF911F910F91FF90EF90DF90CF90089570
:10175000CF93DF931F92CDB7DEB7698320916B03E0
:101760002223F9F020916803203258F021E030E084
:10177000FC013383228390E080E00F90DF91CF91D2
:10178000089580916903E82FF0E0E451FE4F9981BC
:1017900090838F5F809369038093680381E090E07A
:1017A000ECCF61E0CE0101960E94230AF7CFCF92E1
:1017B000DF92EF92FF920F931F93CF93DF93D0911D
:1017C000680381E0D13208F09CC0C0916A030E9496
:1017D0008D096B017C018091620381116CC082E0F4
:1017E0008093620381E0809341038FEF80934003F5
:1017F00010923F03D0933E03ACEEB1E0ECE1F3E096
:1018000080E0D8138DC010923D0380913D03CC0F32
:10181000C82BC0933D0380913C03813009F084C004
:1018200010923C030E948D096B017C0180913D0365
:101830008093BB008091640390916503A09166033F
:10184000B0916703892B8A2B8B2BA1F00E948D0905
:101850000091640310916503209166033091670342
:101860006C197D098E099F09061717072807390784
:1018700008F442C08091BC0083FDD8CF85EC8093F2
:10188000BC000E948D096B017C0180916203823053
:1018900009F44CC0809140038F3F09F469C08091E6
:1018A0004003803209F466C080914003803309F41C
:1018B00063C084E026C08091640390916503A09189
:1018C0006603B0916703892B8A2B8B2B09F483CF96
:1018D0000E948D09009164031091650320916603B5
:1018E000309167036C197D098E099F090617170748
:1018F0002807390708F06FCF809163030E94680AB8
:1019000085E0109269031092680310926B03DF91D7
:10191000CF911F910F91FF90EF90DF90CF9008959E
:101920009D9191938F5F6DCF85EEA9CF80916403D8
:1019300090916503A0916603B0916703892B8A2B70
:101940008B2B09F4A2CF0E948D09009164031091A2
:10195000650320916603309167036C197D098E0938
:101960009F09061717072807390708F08ECFC4CF3D
:1019700080E0C7CF82E0C5CF83E0C3CF1F93CF9372
:10198000DF93162FEA010E945E07612F89E094E041
:101990000E94A80B698189E094E00E94A80B6881ED
:1019A00089E094E00E94A80B89E094E00E94D70BA4
:1019B00091E0811190E0892FDF91CF911F910895DF
:1019C00090E080E00895FF920F931F93CF93DF93F1
:1019D000C62F042FF22E132F0E945E076C2F89E072
:1019E00094E00E94A80BCF2DD12F0C0F1D2F111D9D
:1019F000C017D10731F0699189E094E00E94A80BEB
:101A0000F7CF89E094E00E94D70B91E0811190E03C
:101A1000892FDF91CF911F910F91FF900895CF9360
:101A2000DF9300D0CDB7DEB75A834983AE014F5F55
:101A30005F4F0E94BE0C0F900F90DF91CF910895E1
:101A4000CF93DF931F92CDB7DEB749839E012F5FFF
:101A50003F4F41E00E94E30C0F90DF91CF9108953A
:101A60000F931F93CF93DF93EC01062F142F8881E0
:101A70000E945E0789819A81DC01ED91FC910190C1
:101A8000F081E02D602F099589819A81DC01ED912B
:101A9000FC910190F081E02D612F099589819A8157
:101AA000DF91CF911F910F910C94D70BDC01ED9139
:101AB000FC910190F081E02D0994FC0187E094E114
:101AC000161634F484E098E0613011F484E090E17B
:101AD0009083062E000C770B77FF03C071956195FC
:101AE0007109969FA001979F500D1124840F952F87
:101AF000911D08954F925F926F927F928F929F9265
:101B0000AF92BF92CF92DF92EF92FF920F931F930B
:101B1000CF93DF93EC019B01A8EEB3E00E94033664
:101B20002B013C018E01000F111F000F111F0550EA
:101B300011094E01880C991CB12CA12CC12CD12C5F
:101B40007601C414D504E604F704CCF461E085E022
:101B50000E941F09C230D10518F0C8010197F1F7A2
:101B600060E085E00E941F09C230D10518F0C8016D
:101B70000197F1F7C80CD91CEA1CFB1CE2CFDF91DE
:101B8000CF911F910F91FF90EF90DF90CF90BF907A
:101B9000AF909F908F907F906F905F904F9008953F
:101BA000DC01ED91FC910190F081E02D0994FF9210
:101BB0000F931F93CF93DF93182FF62E072FC8EEA6
:101BC000D4E088810E945E0784E0189FB001112450
:101BD0006A5F7F4F89819A810E94D00D70E060E03A
:101BE00089819A810E94560D70E060E089819A8116
:101BF0000E94560D6F2D702F89819A810E94560D7B
:101C0000602F70E089819A810E94560D89819A81A6
:101C1000DF91CF911F910F91FF900C94D70BCF9331
:101C2000C0E060E070E18C2F0E94D70DCF5FC03123
:101C3000C1F7CF9108959F92AF92BF92CF92DF925A
:101C4000EF92FF920F931F93CF93DF93EC0184E504
:101C50000E945E076D2F70E089E094E00E94D00D35
:101C6000BE01772789E094E00E94D00D89E094E0DE
:101C70000E94D70B61E084E50E94890A1092FD0260
:101C80008093FC0289E094E00E94680BC0903405C8
:101C9000D0903505F601808360910B0380E193E0DD
:101CA0000E945D0DEC01F12CE12C1C161D064CF57B
:101CB0006C2FCF31D1050CF06EE184E50E94890ACA
:101CC000982E1092FD028093FC025E01FEE1AF1A95
:101CD000B1088E018091FD02981659F089E094E0D8
:101CE0000E94680B9FEFE91AF90AF601EE0DFF1D3D
:101CF00080830150110929F0E5010A151B0551F7F0
:101D0000D4CFDF91CF911F910F91FF90EF90DF9093
:101D1000CF90BF90AF909F9008952F923F924F9297
:101D20005F926F927F928F929F92AF92BF92CF926B
:101D3000DF92EF92FF920F931F93CF93DF9300D028
:101D400000D0CDB7DEB7782E662E4C833A83298338
:101D50000E94E5096B017C01512C1B822C81222EF3
:101D6000312C4801B12CA12C8C81581608F049C0A7
:101D7000872D0E945E07662D89E094E00E94A80BE3
:101D800089E094E00E94D70B872D0E945E07B10185
:101D9000651971096132710514F060E270E0613219
:101DA00008F060E2872D0E94890A482E1092FD02F9
:101DB0008093FC028091FD024816E9F0011511059F
:101DC00079F489E094E00E94680BE981FA819B81B3
:101DD000E90FF11D97FDFA9580839F5F9B83EACF02
:101DE0000E94E5096C197D098E099F09681579051E
:101DF0008A059B0530F38C81813208F080E2580E11
:101E0000B3CF01151105C1F00E94E5096C197D09D8
:101E10008E099F0930E020E0601771078207930761
:101E200058F02B81822F220F990B2C81281719062D
:101E300019F014F08FEF8B838B810F900F900F9020
:101E40000F90DF91CF911F910F91FF90EF90DF9056
:101E5000CF90BF90AF909F908F907F906F905F904A
:101E60004F903F902F9008950F931F93CF93DF9340
:101E7000CBE1D5E008EE13E02CE135E042E062E78B
:101E800088810E948D0E89819A81982789279827B9
:101E9000DF91CF911F910F910895CF92DF92EF9232
:101EA000FF920F931F93CF93DF931F92CDB7DEB7AF
:101EB000F82EE62EC42ED22E08EE13E09E012F5FE0
:101EC0003F4F41E00E948D0E81E090E001C0880FFD
:101ED000CA94EAF74981DD2081F0482B49836E2DB1
:101EE0008F2D0E94200D0F90DF91CF911F910F91A8
:101EF000FF90EF90DF90CF90089580954823EECF2C
:101F00000F931F93CF93DF931F92CDB7DEB708EEE9
:101F100013E09E012F5F3F4F41E065E780911B0575
:101F20000E948D0E882339F089818E7790E09595F7
:101F3000879580931C0580911C050F90DF91CF91B0
:101F40001F910F910895BF92CF92DF92EF92FF926F
:101F50000F931F93CF93DF931F92CDB7DEB7F82E69
:101F6000E62EC42EB22ED02E08EE13E09E012F5F77
:101F70003F4F41E00E948D0E882371F18C2D8B190B
:101F8000990BAC014F5F5F4F81E090E002C0880F7A
:101F9000991FBA94E2F70197042E01C0880F0A94A2
:101FA000EAF70D2D01C0000F4A95EAF7482F40953A
:101FB000998149238023482B49836E2D8F2D0E94C0
:101FC000200D0F90DF91CF911F910F91FF90EF9017
:101FD000DF90CF90BF90089580E0F3CF8F929F92D3
:101FE000AF92BF92CF92DF92EF92FF921F93CF9367
:101FF000DF93EC016A017B0120E030E040E85FE321
:10200000CB01B6010E943E3487FD9CC020E030EC3D
:102010004AE555E4C701B6010E94043818163CF49D
:10202000C12C30ECD32E3AE5E32E35E4F32E6B8150
:102030007C818D819E810E9443344B015C0120E0B4
:1020400030E040E855E4C701B6010E94A4349B018A
:10205000AC01C501B4010E94F63620E030E040E05A
:102060005FE30E94133620E030E040E85FE30E9427
:1020700012366B017C0120E030E040E450E40E9425
:102080003E3487FD66C020E030E04FE753E4C701EF
:10209000B6010E940438181634F4C12CD12C9FE7E5
:1020A000E92E93E4F92E88810E945E0789819A8146
:1020B000DC01ED91FC910190F081E02D60E009954B
:1020C00089819A810E94D70B61E088810E94890AE8
:1020D0001092FD028093FC0289819A81DC01ED91CE
:1020E000FC910284F385E02D0995182F482F4F7637
:1020F000406160E0CE010E94300DC701B6010E9430
:102100006F37462F6EEFCE010E94300D412F60E0F9
:10211000CE010E94300D65E070E080E090E00E940A
:10212000B209412F406A60E0CE01DF91CF911F914B
:10213000FF90EF90DF90CF90BF90AF909F908F90E7
:102140000C94300DC12CD12C20E8E22E2FE3F22E7E
:102150006ECFC12CD12C80E4E82EFE2CA4CFFC0144
:1021600001900020E9F73197AF01481B590BBC01E2
:102170008CE693E00C94C90785E591E00C94AF10D0
:10218000CF93DF930E94BB08EC010E94BC108C0F20
:102190009D1FDF91CF910895CF93DF930E94B608E2
:1021A000EC010E94BC108C0F9D1FDF91CF91089510
:1021B000CF93DF93FC0144815581608171818CE66E
:1021C00093E00E94C907EC010E94BC108C0F9D1F78
:1021D000DF91CF9108958F929F92AF92BF920F930C
:1021E0001F93CF93DF93CDB7DEB7A1970FB6F894C7
:1021F000DEBF0FBECDBF19A2423008F44AE08E0107
:102200000F5D1F4F842E912CB12CA12CA5019401A0
:102210000E94E135E62FB901CA01EA30F4F4E05D2D
:10222000D801EE938D01232B242B252B79F790E0F9
:1022300080E0109719F0CD010E94AF10A1960FB663
:10224000F894DEBF0FBECDBFDF91CF911F910F91EC
:10225000BF90AF909F908F900895E95CE1CFCF92AF
:10226000DF92EF92FF92C12CD12C76014AE0C70198
:10227000B6010E94EB1089E00E94B6088FEFC81AE1
:10228000D80AE80AF80A80E1C816D104E104F1048A
:1022900069F7FF90EF90DF90CF900C94BC104F92B5
:1022A0005F926F927F928F929F92AF92BF92CF92E6
:1022B000DF92EF92FF920F931F93CF936B017C01FC
:1022C000742EAC019B010E94B338882399F088E5F5
:1022D00091E0CF911F910F91FF90EF90DF90CF9001
:1022E000BF90AF909F908F907F906F905F904F9036
:1022F0000C94AF1046015701E894B7F82FEF3FEF69
:102300004FE75FE7C501B4010E94B33881110DC0EA
:102310002FEF3FEF4FE75FE7C501B4010E943E3466
:1023200018161CF48CE591E0D4CF2FEF3FEF4FE768
:102330005FE4C701B6010E94043818161CF480E659
:1023400091E0C7CF2FEF3FEF4FE75FECC701B6013A
:102350000E943E3487FDF3CF20E030E0A901C701A1
:10236000B6010E943E3410E000E087FF08C08DE215
:102370000E94B6088C01F7FAF094F7F8F094C0E0E8
:1023800060E070E080E09FE37C1641F020E030E008
:1023900040E251E40E94F636CF5FF6CFA7019601E6
:1023A0000E9413362B013C010E946F374B015C01E8
:1023B0004AE00E94EB107C01E00EF11ECC23B1F14B
:1023C000C501B4010E9443349B01AC01C301B201B9
:1023D0000E9412364B015C018EE20E94B608E80EA4
:1023E000F91EC15018F120E030E040E251E4C5018F
:1023F000B4010E94A4342B013C010E946F374B01B1
:10240000B12CA12C4AE0C501B4010E94EB10E80EEA
:10241000F91EC501B4010E9443349B01AC01C30104
:10242000B2010E9412364B015C01DBCFC701CF9194
:102430001F910F91FF90EF90DF90CF90BF90AF90E2
:102440009F908F907F906F905F904F900895FC01C8
:1024500024813581232B39F421E0FB0180818823FD
:1024600049F020E007C0808191810E94F13A21E08B
:10247000892BB9F7822F0895CF93DF93EC018881E0
:102480009981009711F00E941E32198218821D82D4
:102490001C821B821A82DF91CF910895FC018081FA
:1024A0009181009711F00C941E3208950F931F93A1
:1024B000CF93DF938C01EB01FC0180819181009728
:1024C000E1F06881798161157105A9F0428153813C
:1024D0002C813D814217530770F00E94FA3A8C819B
:1024E0009D81F801958384831D821C82DF91CF91A9
:1024F0001F910F9108950E941E3288819981F801E1
:10250000918380838A819B81938382838C819D8147
:1025100095838483198218821B821A82E5CF0C94DA
:1025200062356F927F928F929F92AF92BF92CF92BD
:10253000DF92EF92FF920F931F93CF93DF936C0183
:10254000712CD0E0C0E083E191E00E948F12082E50
:10255000000C990B781619060CF06DC04E018FEF28
:10256000881A980ACE018A5E9E4F0E948F12682EAA
:10257000E82EF12CC70101960E9482318C015C018A
:10258000C95EDE4FC81BD90B8A2D801B861548F407
:10259000CE018A0D9B1D0E948F12F50181935F0170
:1025A000F3CFE401CE0DDF1D5801AE0CBF1CF501C9
:1025B0001082B601C8010E94F13A892B09F5011574
:1025C0001105A9F5CE01895E9E4F0E948F1280935E
:1025D0000B03682F80E193E00E945D0DCE018A5EBF
:1025E0009E4FDF91CF911F910F91FF90EF90DF9061
:1025F000CF90BF90AF909F908F907F906F900895F5
:10260000F501319780818C3449F4A701415051097B
:10261000B601C8010E94013B892B89F20115110501
:1026200019F0C8010E941E32249673948CCFC80101
:102630000E941E32C7CF81E69EE00E94C0108FEF3D
:102640009FEFCFCF1F93CF93DF93EC010E948F12A8
:10265000182FCE0101960E948F1290E0982F8827A4
:10266000810F911DDF91CF911F910895CF92DF923D
:10267000EF92FF920F931F93CF936A017B01082F74
:1026800010E0C801805B9F4F880F991F0E942213A2
:10269000BC01990F880B990B0E94453420E030E073
:1026A0004AE754E40E94F636A70196010E94A4343A
:1026B0006B017C0182E191E00E948F12C82FC8015A
:1026C0000E948F12182F8AE0C89FB0011124072E94
:1026D000000C880B990B0E944534A70196010E94BB
:1026E00013360E946F37812FCF911F910F91FF906A
:1026F000EF90DF90CF900C94D70D90E0C096880FAC
:10270000991F860F911D880F991F0C9422137F9299
:102710008F929F92AF92BF92CF92DF92EF92FF92F1
:102720000F931F93CF93DF93B82E6A01D62FC72F35
:1027300060E00E947D13BC01990F880B990B0E94E9
:1027400045347B018C0161E08B2D0E947D13BC011F
:10275000990F880B990B0E944534762E872E982E60
:10276000A92E96014D2F5C2F0E943E3487FF71C029
:10277000772D682D992D8A2D272F362F492F582FE9
:10278000B701C8010E940438181694F096014D2F25
:102790005C2F672D782D892D9A2D0E943E3476016D
:1027A0000D2F1C2F87FF04C0E72CF82C092D1A2DA4
:1027B000CB2DD0E06E0180E3C80ED11CCC0FDD1F05
:1027C000CD5FDE4FB701C8010E9468377983688307
:1027D000C601880F991F0E942213EC01C6010E94B6
:1027E0008F12682F880F770B880B990B0E94453446
:1027F0009701A8010E94A4346B017C01BE01DD0F8A
:10280000880B990B0E9445349B01AC01C701B601AE
:102810000E9413360E946837072E000C880B990B14
:102820000E94453420E030E0A9010E941336AB013C
:10283000BC018B2DDF91CF911F910F91FF90EF90F5
:10284000DF90CF90BF90AF909F908F907F900C942F
:1028500036137C2D6D2DCE018FCF2F923F924F924C
:102860005F926F927F928F929F92AF92BF92CF9220
:10287000DF92EF92FF920F931F93CF93DF93CDB729
:10288000DEB72E970FB6F894DEBF0FBECDBF5C014A
:102890006A017B0120E030E0A901CB01B6010E9472
:1028A0003E349501205E3F4F3901811130C08901CE
:1028B0003FE03983D8017E916E918D01072E000C87
:1028C000880B990B0E944534AB01BC0189810E94A1
:1028D0008713B981B150B983BF3F61F72E960FB608
:1028E000F894DEBF0FBECDBFDF91CF911F910F9146
:1028F000FF90EF90DF90CF90BF90AF909F908F9020
:102900007F906F905F904F903F902F90089580E25E
:1029100090E00E9482318C0183E0882E81E0982E25
:102920009801F50170E060E0D4018D919D914D0119
:1029300041915191841B950BD9018D939D939D01DC
:1029400097FF03C0919581959109681779070CF459
:10295000BC01E615F70541F7072E000C880B990B13
:102960000E944534A70196010E94F6366B017C0156
:1029700020E030E0A9010E94043820E030E040E08F
:102980005FE387FD91C0C701B6010E9413360E9424
:1029900068377E876D87D12CC12C8D859E85092E49
:1029A000000CAA0BBB0B89879A87AB87BC87AD85C8
:1029B000BE85AC15BD050CF47CC048011501F12C99
:1029C000C6010D2C000CAA0BBB0B8D839E83AF831D
:1029D000B887D1016D917D911D01072E000C880BE8
:1029E000990B0E9445342B013C01ED85FE8520E0CA
:1029F00030E0A901EF2B09F443C06D817E818F8106
:102A000098850E9445342BED3FE049E450E40E9454
:102A1000A43469837A838B839C8369857A858B85CB
:102A20009C850E9445349B01AC0169817A818B8130
:102A30009C810E94F6360E94F13620E030E040E8AA
:102A40005FE30E94133620E030E040E05FE30E9445
:102A5000A43469837A838B839C83D4016D917C91A8
:102A6000072E000C880B990B0E9445349B01AC018A
:102A700069817A818B819C810E94A4349B01AC0185
:102A8000C301B2010E941336AB01BC018F2D0E941D
:102A90008713F394B2E08B0E911CE0E1FE1299CF04
:102AA000FFEFCF1ADF0A83CFC701B6010E941236AB
:102AB0006ECF0115110509F411CFC8012E960FB67E
:102AC000F894DEBF0FBECDBFDF91CF911F910F9164
:102AD000FF90EF90DF90CF90BF90AF909F908F903E
:102AE0007F906F905F904F903F902F900C941E328C
:102AF0002F923F924F925F926F927F928F929F920E
:102B0000AF92BF92CF92DF92EF92FF920F931F93FB
:102B1000CF93DF93CDB7DEB72F970FB6F894DEBF14
:102B20000FBECDBF4C016D8369017A01202F30E0CB
:102B30003A83298320E030E0A901C701B6010E9451
:102B40003E3481111DC01FE0812F012E000C990B16
:102B5000A981BA818A179B070CF419C1880D991DA8
:102B6000FC016081062E000C770B880B990B0E94EC
:102B70004534AB01BC01812F0E9487131150E4CF73
:102B800080E190E029813A81821B930B811530E42A
:102B9000930770F5880F991F0E9482315C01E981CB
:102BA000FA81EE0FFF1FCF018D5F9E4F3C01250183
:102BB000D401402F70E060E04031E8F4F3018191EE
:102BC00091913F012D915D81250390011124821B7C
:102BD000930BF201819391932F0197FF03C091957D
:102BE00081959109681779070CF4BC014F5FE4CF18
:102BF0008FEF9FEFD1CF072E000C880B990B0E940F
:102C00004534A70196010E94F6366B017C0120E055
:102C100030E0A9010E94043820E030E040E05FE3AA
:102C200087FD8BC0C701B6010E9413360E9468372A
:102C30001B011F861E86CB01770FAA0BBB0B8A8751
:102C40009B87AC87BD87AE85BF852A163B060CF4F3
:102C500080C0BA82A9829C828B82102FCD01092E5E
:102C6000000CAA0BBB0B8E839F83A887B9871031FA
:102C700008F068C0AB81BC816D91BC83AB832D81B2
:102C80006203B0011124072E000C880B990B0E94DF
:102C900045346B017C0120E030E0A90121143104AE
:102CA000E1F16E817F81888599850E9445342BED05
:102CB0003FE049E450E40E94A4342B013C016A85C2
:102CC0007B858C859D850E9445349B01AC01C301A9
:102CD000B2010E94F6360E94F13620E030E040E872
:102CE0005FE30E94133620E030E040E05FE30E94A3
:102CF000A4342B013C01A981BA816D917C91072EEE
:102D0000000C880B990B0E9445349B01AC01C30158
:102D1000B2010E94A4349B01AC01C701B6010E941C
:102D20001336AB01BC01812F0E9487131F5FE9811D
:102D3000FA813296FA83E9839ACFC701B6010E94DD
:102D4000123674CF2E853F852F5F3F4F3F872E87EA
:102D50007ACFA114B104D9F0C5012F960FB6F8941B
:102D6000DEBF0FBECDBFDF91CF911F910F91FF90BE
:102D7000EF90DF90CF90BF90AF909F908F907F901B
:102D80006F905F904F903F902F900C941E322F9633
:102D90000FB6F894DEBF0FBECDBFDF91CF911F916C
:102DA0000F91FF90EF90DF90CF90BF90AF909F90EA
:102DB0008F907F906F905F904F903F902F900895ED
:102DC0000F93CF93DF93E0913405F0913505608147
:102DD000C7E0D3E06C8380E193E00E945D0D0E9428
:102DE00068071092FF021092FE022D813E814F81F2
:102DF00058850A896E858B899C890E947815DF9198
:102E0000CF910F910895FF920F931F93CF93DF936C
:102E10008C01FC0101900020E9F7329780818C340D
:102E200009F4CEC0823509F0CDC087EE80930A0345
:102E3000C8010E949112EC01CF3FDC0709F40CC1DC
:102E4000CE010E948F12F82ECE0102960E9422130C
:102E5000EC0189E4F812B8C0CE010E941B0E0E945A
:102E6000680764E671E0C8010E94F13A892B09F411
:102E7000C5C080910B03813009F0C0C00E944F3360
:102E800024E630E040E050E00E9478350E9445346E
:102E900020E030E040E251E40E94F63620E030E0ED
:102EA00040EA50E40E9412366093F8027093F902EF
:102EB0008093FA029093FB0280910B0382300CF412
:102EC000A6C080910A0387FFB1C080911103909141
:102ED00012039195819591099093120380931103A8
:102EE00090E080E040910B03242F042E000C330B64
:102EF00037FF03C0319521953109821793070CF0F4
:102F000095C042301CF540911003489F9001499FA5
:102F1000300D1124E0911A03F0911B03E20FF31F0F
:102F200020812195208320911003289FF001299F63
:102F3000F00D11249F012E5F3F4FE0911A03F09195
:102F40001B03E20FF31F20812195208320910B03A7
:102F500060E022300CF462E0E62FF0E020910B03F9
:102F600022300CF47FC024E030E040911A035091ED
:102F70001B03E217F3070CF078C09F01220F331FE9
:102F800070911003789FF001799FF00D1124E20FEA
:102F9000F31FE40FF51F40815181508350911003BE
:102FA000589FD001599FB00D1124E0911A03F09160
:102FB0001B03E20FF31FEA0FFB1F41836F5FCCCFB0
:102FC00089E134CF80E032CF60910B0380E193E060
:102FD0000E945D0D2091340530913505D901C21B49
:102FE000D30BFE01EA0FFB1FAD01421B530B481729
:102FF00059070CF034CFE491ED93F3CF1092F8021F
:103000001092F9021092FA021092FB0255CF0E9420
:103010004F3324E630E040E050E00E94783560FF16
:1030200005C08091F702833609F04FCF1092FF025E
:103030001092FE0220910C0330910D0340910E037B
:1030400050910F03009119036091150380911A03A9
:1030500090911B030E947815DF91CF911F910F91E2
:10306000FF90089528E030E080CF01963BCF0F938A
:103070001F93CF93DF93EC018B010E9462350817F9
:1030800021F0602FCE010E946A352196CE010E9468
:103090006235181721F0612FCE010E946A3565E074
:1030A00070E080E090E0DF91CF911F910F910C9440
:1030B000B2090F931F93CF93DF93EC01888199811D
:1030C000009759F02A813B812617370730F081E0BD
:1030D000DF91CF911F910F9108958B016F5F7F4F0B
:1030E0000E94163A009759F0998388831B830A83BC
:1030F0002C813D81232B59F7FC011082E8CF80E021
:10310000E7CFEF92FF920F931F93CF93DF93611559
:10311000710541F480E0DF91CF911F910F91FF90F5
:10312000EF90089541155105B1F07B01EC010C8140
:103130001D81040F151FB8010E945918882351F3EF
:10314000288139818C819D81B701820F931F0E9454
:10315000FA3A1D830C8381E0DECFEF92FF920F934A
:103160001F93CF93DF93EC017B018A01BA010E9488
:10317000591881110BC0CE010E943C12CE01DF9183
:10318000CF911F910F91FF90EF9008951D830C83B5
:10319000B701888199810E94FA3AF0CFFB01DC01E6
:1031A00011961C921E9213961C921E9212971596BF
:1031B0001C921E9214978617970759F060817181AF
:1031C0006115710521F0448155810C94AD180C9462
:1031D0003C120895FB0101900020E9F73197AF01FF
:1031E000461B570B0C94AD180F931F93CF93DF938F
:1031F000CDB7DEB762970FB6F894DEBF0FBECDBF76
:103200008C01CB01F8011182108213821282158287
:1032100014824AE0BE016F5F7F4F0E940134BE01FD
:103220006F5F7F4FC8010E94EA1862960FB6F8944C
:10323000DEBF0FBECDBFDF91CF911F910F910895DB
:10324000FC01118210821382128215821482FB010A
:1032500001900020E9F73197AF01461B570B0C9402
:10326000AD18EF92FF920F931F93CF93DF9300D08F
:10327000CDB7DEB78C01E62E63E971E00E9420191C
:103280000E94F1090E2C000CFF0897FD10C08E154E
:103290009F0569F089831A8241E050E0BE016F5FAB
:1032A0007F4FC8010E9481180E94F109EECFC8012A
:1032B0000F900F90DF91CF911F910F91FF90EF90A2
:1032C0000895EF92FF920F931F93CF93DF93EC013A
:1032D0008B01198218821B821A821D821C82CB01EB
:1032E0000E94CC337C01BC01CE010E94591881118F
:1032F00009C0CE01DF91CF911F910F91FF90EF9008
:103300000C943C12FD82EC82B80188819981DF9196
:10331000CF911F910F91FF90EF900C94C53385EDE5
:103320008093BC008091640390916503A091660333
:10333000B09167030796A11DB11D23E0B695A7952F
:10334000979587952A95D1F72091BC0024FD03C05D
:103350001092620308954091640350916503609157
:10336000660370916703452B462B472B69F3009743
:10337000A105B10541F025E32A95F1F70000019779
:10338000A109B109E1CF809163030C94680A4F92BF
:103390005F926F927F928F929F92AF92BF92CF92E5
:1033A000DF92EF92FF920F931F93CF93DF93CDB7EE
:1033B000DEB7E8970FB6F894DEBF0FBECDBF8090A2
:1033C0002C0590902D050E948D092B013C01540184
:1033D000BB240E94340F6C01A816B9060CF057C02C
:1033E000893C910584F121E042E06AE680911B0569
:1033F0000E944D0F0E94340F6C01892B09F04BC0C5
:103400000E948D096419750986099709693F7A42F6
:103410008105910578F380E0E8960FB6F894DEBF59
:103420000FBECDBFDF91CF911F910F91FF90EF9015
:10343000DF90CF90BF90AF909F908F907F906F90D4
:103440005F904F9008950E94340F6C01A816B90642
:10345000F4F47C01EA18FB08670181E2E816F10444
:103460001CF080E2C82ED12CCC2079F008EE13E0BD
:103470009E012F5F3F4F4C2D64E780911B050E94FA
:103480008D0EEC18FD0841F7DECF1982FACFC1147A
:10349000D10409F4C0CF0E948D0964197509860909
:1034A0009709693F7A428105910508F0B4CFAC14C1
:1034B000BD0409F08ECF882009F4FAC108EE13E0AC
:1034C0002CEA31E0482D64E780911B050E948D0EA7
:1034D0006090B0017090B1017624672476248090CA
:1034E000B4019090B501982489249824A090B80143
:1034F000B090B901BA24AB24BA246091AC017091A8
:10350000AD01762767277627072E000C880B990BCD
:103510000E94453420E030E040E858E30E94A434A3
:103520006B017C01C0920B05D0920C05E0920D0559
:10353000F0920E05B301770C880B990B0E9445346D
:1035400020E030E040E858E30E94A4342B013C0125
:1035500040920F055092100560921105709212056D
:10356000B401990C880B990B0E94453420E030E09F
:1035700040E858E30E94A43469A37AA38BA39CA3D8
:1035800060931305709314058093150590931605A9
:10359000B501BB0C880B990B0E94453420E030E04C
:1035A00040E858E30E94A4346DA37EA38FA398A79C
:1035B00060931705709318058093190590931A0569
:1035C0009B01AC01C301B2010E94A4344B015C0118
:1035D00029A13AA14BA15CA1C701B6010E94A43464
:1035E0009B01AC01C501B4010E9412369B01AC01E4
:1035F0000E9413366DA77EA78FA798AB6093FF0438
:10360000709300058093010590930205A301920138
:10361000C701B6010E94A4344B015C012DA13EA15B
:103620004FA158A569A17AA18BA19CA10E94A434A5
:103630009B01AC01C501B4010E9413369B01AC0192
:103640000E94133669A77AA78BA79CA760930305EE
:10365000709304058093050590930605A7019601D4
:10366000C701B6010E94A4344B015C01A301920181
:10367000C301B2010E94A4349B01AC01C501B40195
:103680000E9412364B015C0129A13AA14BA15CA119
:10369000CA01B9010E94A4349B01AC01C501B40167
:1036A0000E9412364B015C012DA13EA14FA158A5ED
:1036B000CA01B9010E94A4349B01AC01C501B40147
:1036C0000E9413364B015C01809207059092080519
:1036D000A0920905B0920A05A7019601C701B6019B
:1036E0000E94133669AB7AAB8BAB9CABA301920102
:1036F000C301B2010E9413366DAB7EAB8FAB98AFA6
:10370000A701960169A97AA98BA99CA90E94A43452
:103710006B017C01A30192016DA97EA98FA998ADCF
:103720000E94A4349B01AC01C701B6010E9413366C
:1037300020E030E040E85FE30E9412366B017C013C
:1037400029A13AA14BA15CA16DA97EA98FA998AD31
:103750000E94A4342B013C012DA13EA14FA158A5EC
:1037600069A97AA98BA99CA90E94A4349B01AC01E8
:10377000C301B2010E941236A70196010E9492363F
:1037800060939402709395028093960290939702AF
:1037900029A53AA54BA55CA5CA01B9010E94A4348C
:1037A0006B017C01A5019401C501B4010E94A43400
:1037B0009B01AC01C701B6010E9413360E946F380D
:1037C0009B01AC016DA57EA58FA598A90E9492369C
:1037D0006B017C01C0929802D0929902E0929A0209
:1037E000F0929B02A501940169A57AA58BA59CA5E1
:1037F0000E94923660939C0270939D0280939E0279
:1038000090939F0220E030E0A901C501B4010E941D
:103810003E3487FF1AC020E030E0A901C701B6019D
:103820000E940438A701960118160CF044C06BEDF5
:103830007FE089E490E40E941236609398027093CE
:10384000990280939A0290939B0204E912E0F80196
:1038500061917191819191918F017F01F4E0EF1A53
:10386000F10820EE3EE245E652E40E94A434D7017E
:103870006D937D938D939C931397B2E0003A1B0751
:1038800031F760919C0270919D0280919E0290910F
:103890009F029F7711E020E030E044EB52E40E9469
:1038A000043818160CF010E01093F60281E0B4CD45
:1038B0001092AC010DCE6BED7FE089E490ECBBCFB4
:1038C0002F923F924F925F926F927F928F929F9230
:1038D000AF92BF92CF92DF92EF92FF920F931F931E
:1038E000CF93DF93CDB7DEB767970FB6F894DEBFFF
:1038F0000FBECDBF6A877B878C879D872E873F87CA
:10390000488B598BC801EF8A198267EA262E6DE031
:10391000362E03E91DE088248A94982C5401E8E4AB
:103920004E2EE8EE5E2E66246394712C9C01990F56
:10393000440B550B2A8B3B8B4C8B5D8B6E857F85A7
:10394000888999890E946F376E837F8388879987DA
:1039500020E030E0A9016A857B858C859D850E94E9
:103960003E34882309F419C22A853B854C855D8540
:1039700063E67CE987E89FE30E9411386B017C01D4
:10398000809100018530A9F5E8E6F1E0F491FE8B25
:10399000FE89F7FF78C06E817F81888599850E94B6
:1039A000B20985E00E944D096A897B898C899D89CD
:1039B0000E94B20929812F5F29833F893213BECF2C
:1039C00067960FB6F894DEBF0FBECDBFDF91CF91E3
:1039D0001F910F91FF90EF90DF90CF90BF90AF902D
:1039E0009F908F907F906F905F904F903F902F901F
:1039F00008958F3F81F625E020930001E8E6F1E08D
:103A0000F491FE8BFF3F39F2F13009F40CC120F143
:103A1000F23009F0BDCF1092B0001092B100809149
:103A2000B00082608093B0008091B100816080938B
:103A3000B100F8018491E82FF0E0EE0FFF1FE65887
:103A4000F24F8591949190935A0280935902F1011B
:103A5000849180935B0217C014BC15BC84B582604E
:103A600084BD85B5816085BDF8018491E82FF0E0C3
:103A7000EE0FFF1FE658F24F85919491F10184916A
:103A80008093A3011E8AF1014491F8018491882357
:103A900099F090E0880F991FFC01EC57F24FA59127
:103AA000B491FC01E658F24F259134918FB7F89408
:103AB0009C91492B4C938FBF20E030ED42E854E4B9
:103AC000C701B6010E94A4340E946F376B01F12C2C
:103AD000E12C60E072E18AE790E0A70196010E9484
:103AE00078352A833B834C835D83BA01A901415019
:103AF0005109610971098E898D7F09F00EC14F3F0F
:103B000051056105710509F00CF4EEC060E472E442
:103B10008FE090E0A70196010E947835BA01A901D3
:103B20004150510961097109FE89F23009F098C0CC
:103B300082E04F3F51056105710509F00CF463C047
:103B400060E970ED83E090E0A70196010E9478356E
:103B5000BA01A901415051096109710983E04F3F40
:103B600051056105710509F00CF44DC0C301B201A6
:103B7000A70196010E947835BA01A9014150510967
:103B80006109710984E04F3F510561057105D9F163
:103B9000D4F164E274EF80E090E0A70196010E9406
:103BA0007835BA01A901415051096109710985E0CF
:103BB0004F3F51056105710531F128F162E17AE766
:103BC00080E090E0A70196010E947835BA01A90132
:103BD000415051096109710986E04F3F5105610566
:103BE000710589F080F04A815B816C817D819AE06A
:103BF00075956795579547959A95D1F74150510915
:103C00006109710987E09091B100987F892B8093B9
:103C1000B100FE89F13009F49EC0F23009F4ADC064
:103C2000F111B9CE69C0109280001092810080918C
:103C30008100886080938100809181008160809301
:103C40008100F8018491E82FF0E0EE0FFF1FE658A5
:103C5000F24F85919491F10184918093A20113CF49
:103C60004F3F51056105710509F00CF454C0C301C3
:103C7000B201A70196010E947835BA01A90141500D
:103C80005109610971092E8984E0211191CF83E0E6
:103C90004F3F51056105710559F154F162E17AE731
:103CA00080E090E0A70196010E947835BA01A90151
:103CB000415051096109710984E04F3F5105610587
:103CC0007105B1F0A8F04A815B816C817D818AE049
:103CD00075956795579547958A95D1F74150510944
:103CE0006109710985E004C081E03E8931118BCF03
:103CF00095B5987F892B85BD47BD8092A80190928C
:103D0000A901A092AA01B092AB0180916E008260DD
:103D100080936E0040CE82E0E8CF91E041155105DE
:103D200081E0680771056CF0C301B201A70196013B
:103D30000E947835BA01A901415051096109710900
:103D400093E0EE89E13009F064CF80918100887FB3
:103D5000892B809381005093890040938800809242
:103D6000A4019092A501A092A601B092A701809112
:103D70006F00826080936F000ECE4093B3008092FC
:103D80005C0290925D02A0925E02B0925F0280910E
:103D90007000826080937000FECD6E817F81888587
:103DA00099850E94B209F7CD4F925F926F927F92F0
:103DB0008F929F92AF92BF92CF92DF92EF920F932A
:103DC0001F93CF93DF93D82E192F0E948F128695C1
:103DD000CD2DD12FB12CA12CC82ED12C88EE882E20
:103DE00083E0982E2197AC14BD044CF5CE018C19BC
:103DF0009D090E948F12782ECE010E948F12182FDB
:103E0000672D70E0C4010E94D939072E000C880B81
:103E1000990B0E9445342B013C01612F70E090E02A
:103E200080E00E944334EE24E39410E000E0A3011C
:103E300092010E94601C8FEFA81AB80AD3CFDF91BD
:103E4000CF911F910F91EF90DF90CF90BF90AF90E7
:103E50009F908F907F906F905F904F9008951F92EA
:103E60000F920FB60F9211242F933F934F935F93AE
:103E70006F937F938F939F93AF93BF93EF93FF9332
:103E800080915C0290915D02A0915E02B0915F0210
:103E9000892B8A2B8B2BD1F190915B02E0915902F7
:103EA000F0915A0280818927808380915C029091F1
:103EB0005D02A0915E02B0915F02181619061A0603
:103EC0001B069CF480915C0290915D02A0915E02C1
:103ED000B0915F020197A109B10980935C029093B0
:103EE0005D02A0935E02B0935F02FF91EF91BF91DC
:103EF000AF919F918F917F916F915F914F913F9182
:103F00002F910F900FBE0F901F9018958091000178
:103F10000E944D09EACF1F920F920FB60F92112403
:103F20002F933F934F935F936F937F938F939F93C1
:103F3000AF93BF93EF93FF938CE693E00E94470803
:103F4000FF91EF91BF91AF919F918F917F916F9171
:103F50005F914F913F912F910F900FBE0F901F9047
:103F600018951F920F920FB60F9211242F938F93D3
:103F70009F93EF93FF93E0917C03F0917D03808109
:103F8000E0918203F091830382FD1BC090818091B8
:103F900085038F5F8F7320918603821741F0E09134
:103FA0008503F0E0E459FC4F958F80938503FF91E2
:103FB000EF919F918F912F910F900FBE0F901F90B7
:103FC00018958081F4CF1F920F920FB60F92112493
:103FD0002F933F938F939F93AF93BF938091510201
:103FE00090915202A0915302B0915402309150022C
:103FF00023E0230F2D3758F50196A11DB11D209305
:1040000050028093510290935202A0935302B093B6
:1040100054028091550290915602A0915702B0919E
:1040200058020196A11DB11D80935502909356022E
:10403000A0935702B0935802BF91AF919F918F9177
:104040003F912F910F900FBE0F901F90189526E86B
:10405000230F0296A11DB11DD2CF1F920F920FB652
:104060000F9211242F933F934F935F936F937F93FE
:104070008F939F93AF93BF93EF93FF938091B9007A
:10408000887F803609F44AC0F0F5883209F4A7C069
:1040900018F5803109F49BC0B8F4882309F4F9C0FD
:1040A000883009F494C0FF91EF91BF91AF919F9137
:1040B0008F917F916F915F914F913F912F910F90D1
:1040C0000FBE0F901F901895883109F488C0803278
:1040D00051F78093400314C0803409F49DC040F42C
:1040E0008033B9F38833F9F68093400385ECB0C090
:1040F000803509F485C0883509F496C0883499F66E
:104100000E948F19D0CF883909F48CC038F58837D0
:1041100029F050F4883611F0803729F683E0809337
:10412000620310924F0257C0883809F47BC080396F
:1041300019F0803809F0B7CF80914F02803208F033
:1041400071C0E0914F0281E08E0F80934F02809109
:10415000BB00F0E0E15DFD4F80833DC0803B39F066
:10416000E0F4803A09F479C0883A09F09CCF84E001
:104170008093620310922E0210922D02E09175023C
:10418000F0917602099580912D0281110FC081E096
:1041900080932D0210920D0209C0803C09F4A6CF35
:1041A000883C09F4A3CF883B09F07DCFE0912E0233
:1041B00081E08E0F80932E02F0E0E35FFD4F80815F
:1041C0008093BB0090912E0280912D0229C0809196
:1041D0003D038093BB0085EC8093BC0064CF90913D
:1041E0003F0380913E03981758F5E0913F0381E02B
:1041F0008E0F80933F03F0E0E45EFC4F8081E9CFB7
:10420000E0913F0381E08E0F80933F038091BB00DC
:10421000F0E0E45EFC4F808390913F0380913E0389
:104220009817C8F285E8D8CFE0913F0381E08E0F60
:1042300080933F038091BB00F0E0E45EFC4F8083FD
:104240008091410381115CCF81E080933C0384EA3B
:104250008093BC001092620326CF85EC8093BC0053
:104260001092620380914F02803230F4E0914F024D
:10427000F0E0E15DFD4F108260914F0270E0E0914F
:104280007302F09174028FE292E0099510924F024E
:104290000ACF1092400334CF1F920F920FB60F92A5
:1042A00011242F933F934F935F936F937F938F933B
:1042B0009F93AF93BF93CF93DF93EF93FF9320919F
:1042C000160430E0F901EC5AFE4F8491F901EE55E5
:1042D000F24FD491F901E257F24FC491CC2379F017
:1042E00081110E94F608EC2FF0E0EE0FFF1FE65B55
:1042F000FE4FA591B491EC91ED2381E009F480E0AB
:1043000020911B0430911C042F5F3F4F30931C04FD
:1043100020931B042091190430911A04253631058D
:1043200018F094E09093150490911504911130C009
:10433000811169C020911B0430911C042436310581
:1043400028F410921C0410921B045DC01092E70424
:1043500010921A04109219042091190430911A0431
:10436000A9014F5F5F4F50931A0440931904409185
:104370001B0450911C04220F331FF901E35EFB4F15
:104380005183408310921C0410921B0491E021C0C1
:1043900090911504913001F58130A9F5209119040F
:1043A00030911A04A9014F5F5F4F50931A04409354
:1043B000190440911B0450911C04220F331FF90172
:1043C000E35EFB4F5183408310921C0410921B0448
:1043D00092E09093150417C090911504923061F407
:1043E000882309F4B9CF20911B0430911C04253691
:1043F000310548F093E0EDCF90911504933099F496
:10440000882309F49ECF909118049923A9F0811173
:1044100026C080911704882371F08091170461E011
:104420000E941F0909C090911504943061F791E032
:104430009093E704DFCF2D9AFF91EF91DF91CF9119
:10444000BF91AF919F918F917F916F915F914F91AC
:104450003F912F910F900FBE0F901F901895809154
:104460001704882321F08091170460E0D9CF2D989C
:10447000E3CFCF93DF93ECE6F3E01382128288EE72
:1044800093E0A0E0B0E084839583A683B78325E31F
:1044900031E03183208325EC30E03587248724EC1C
:1044A00030E03787268720EC30E0318B208B21EC01
:1044B00030E0338B228B22EC30E0358B248B26ECE2
:1044C00030E0378B268B118E128E138E148EC9E03E
:1044D000D4E01B821A828C839D83AE83BF8387E4E2
:1044E00091E0998388838AE090E00E9482319093E2
:1044F00039058093380582E090E00E9482319093E4
:1045000037058093360582EC91E00E9482319093CA
:10451000350580933405E5E1F4E084E0818313827E
:104520006AE671E08EE295E00E94201988E68093A9
:104530001B05EBE0F5E080E090E0A0E8BFE38083BE
:104540009183A283B3831482158216821782108608
:104550001186128613861486158616861786EFEF47
:10456000F4E0108211821282138214821582168264
:1045700017821086118612861386EEEEF4E081E132
:10458000DF011D928A95E9F7E8EEF4E080E480838C
:10459000D283C183DF91CF910895CF93DF93CDB7BD
:1045A000DEB7EB970FB6F894DEBF0FBECDBF7894A1
:1045B00084B5826084BD84B5816084BD85B5826028
:1045C00085BD85B5816085BD80916E0081608093D9
:1045D0006E00109281008091810082608093810042
:1045E0008091810081608093810080918000816052
:1045F000809380008091B10084608093B1008091AD
:10460000B00081608093B00080917A0084608093D4
:104610007A0080917A00826080937A0080917A009B
:10462000816080937A0080917A00806880937A001C
:104630001092C100E0917C03F0917D0382E08083C1
:10464000E0917803F09179031082E0917A03F09180
:104650007B0380E1808310928403E0918003F091DA
:10466000810386E08083E0917E03F0917F03808167
:1046700080618083E0917E03F0917F038081886078
:104680008083E0917E03F0917F0380818068808346
:10469000E0917E03F0917F0380818F7D808385E0B0
:1046A00090E0A0E0B0E08093700390937103A0933A
:1046B0007203B09373038BED9DE00E94C0101092C3
:1046C000FD021092FC0210926903109268030E948E
:1046D0004A0A86EC97E0909376028093750287EC05
:1046E00097E0909374028093730288E18093B800FE
:1046F00064E670E080E090E00E94B20981E79DE00E
:104700000E94C01001E023E042E06BE680911B05AF
:104710000E94A30F00E022E044E06BE180911B05C2
:104720000E94A30F22E044E06CE180911B050E94EF
:10473000A30F20E046E06BE680911B050E944D0F21
:104740000E94800F843311F08C3091F611E019A390
:1047500021E047E06BE680911B050E944D0F64E667
:1047600070E080E090E00E94B20987E089A307E052
:1047700023E042E06AE680911B050E94A30F64E6F5
:1047800070E080E090E00E94B20919A39E012F5DC5
:104790003F4F41E06BE680911B050E94E30C19A29C
:1047A0009E012F5D3F4F41E068E380911B050E9411
:1047B000E30C19A29E012F5D3F4F41E063E280911F
:1047C0001B050E94E30C19A29E012F5D3F4F41E0A3
:1047D0006CE180911B050E94E30C80E889A39E0197
:1047E0002F5D3F4F41E067E380911B050E94E30C82
:1047F00019A39E012F5D3F4F41E06BE680911B05A1
:104800000E94E30C84E089A39E012F5D3F4F41E0AD
:1048100069E180911B050E94E30C19A39E012F5DA5
:104820003F4F41E06AE180911B050E94E30C40E0AC
:104830006DE680911B050E94200D40E06EE68091A0
:104840001B050E94200D80E190E00E9482315C01F6
:1048500080E190E00E9482312C01312CE12CD12C9E
:10486000C12C26EF222E612C77247394C60140962A
:10487000F22CFC18873F9B4010F490E1F92EC30105
:104880008E199109F816190619F014F0FE2CF194FE
:10489000D20190E080E0960127593E4F8F1538F401
:1048A000F901E80FF91FE491ED930196F7CF92011A
:1048B0004F2D6FE680911B050E94E30C8F2C912CED
:1048C000A114B10409F464C1432D4F716DE68091C8
:1048D0001B050E94200D4E2D6EE680911B050E9447
:1048E000200D08EE13E095014F2D6FE680911B051A
:1048F0000E948D0EA401B501C2010E94DB3A892BF2
:1049000009F446C1C5010E941E32C2010E941E3236
:10491000FF24F394F092720280E6C82E82E0D82E33
:1049200000E011E0C8010E942213D6018D939D93EF
:104930006D010E5F1F4F0C30B1E01B0799F700911E
:104940006002109161020E94800F66E0883308F0D7
:1049500067E7A80180911B050E940F0D009162027C
:10496000109163020E94800F68E0883308F06AE7C4
:10497000A80180911B050E940F0D00916402109107
:1049800065020E94800F6AE0883308F06DE7A80195
:1049900080911B050E940F0D4091660250916702A5
:1049A00063E180911B050E940F0D409168025091B8
:1049B000690265E180911B050E940F0D40916A021A
:1049C00050916B0267E180911B050E940F0DF11061
:1049D000F9C021E047E06AE680911B050E944D0F77
:1049E000F8941092800089E08093810080E293E047
:1049F0009093890080938800109285001092840023
:104A000082E080936F0078941092150410921A043B
:104A1000109219048091160490E0FC01EE55F24FBB
:104A200024918257924FFC0184918823C9F090E031
:104A3000880F991FFC01EC57F24F45915491FC01EE
:104A4000E658F24FA591B4919FB7F894FA0180818E
:104A50002095822380838C91E22FE823EC939FBFE3
:104A600064E070E08EE295E00E9459188DE691E0D6
:104A70000E94AF100E94BC1012EEE12E12E0F12E47
:104A800000E110E0C8010E948F12D7018D937D01D3
:104A90000F5F1F4F00321105A9F71092FD0210920F
:104AA000FC0210926903109268030E944A0A86EC85
:104AB00097E0909376028093750287EC97E090934D
:104AC00074028093730240E860E088EE94E00E94F4
:104AD000300D6AE070E080E090E00E94B20940E0B2
:104AE00050E06AE774E488EE94E00E94EE0FB0E4D0
:104AF000CB2EB8E7DB2EBDE7EB2EFF24F394C0925C
:104B0000EB04D092EC04E092ED04F092EE0440E06D
:104B100050E060EA73E488EE94E00E94EE0FC092E9
:104B2000F104D092F204E092F304F092F404C09203
:104B3000EB04D092EC04E092ED04F092EE040E94BB
:104B40000F0E80E00E947909BC01990F880B990B28
:104B5000611571058105910511F00E949E3386EB68
:104B60009DE00E94C01090E080E08C010F5F1F4F1D
:104B70008A5E9E4F0E948F12080F111DC8018A5E27
:104B80009E4F0E948F128E3461F1C8010496EDCFC2
:104B9000C80CD91C46EFC4164BE0D40610F00C9498
:104BA0002B31EF0C09F43394432D4F716DE6809156
:104BB0001B050E94200D4E2D6EE680911B050E9464
:104BC000200D54CE8FE59DE00E94BB084AE061E0D5
:104BD00070E080E090E00E94EB1089E20E94CC102F
:104BE000FFCE66E371E0C801885E9E4F0E943718D1
:104BF0008FEF93E00E94D41E60ED77E080E090E0BC
:104C00000E94B2090E94C71960919802709199029E
:104C100080919A0290919B029F7720E030E040EFD4
:104C200051E40E940438181694F060919C0270912F
:104C30009D0280919E0290919F029F7720E030E03C
:104C400040EF51E40E94043818160CF05CC083E673
:104C50008093F70282E08093F50280ED9DE00E9450
:104C6000C01089EC9DE00E94C01082EC9DE00E9483
:104C7000C01085E10E9479098C018A3892400CF0BD
:104C800048C080917702909178020817190709F0BF
:104C900040C08DED9DE00E94BB08C80163E670E056
:104CA0000E94D9396B01072E000CEE08FF0877FF30
:104CB0002CC08DE20E94B60866277727CB016C19BD
:104CC0007D098E099F094AE00E94EB1086E50E944B
:104CD000CC1081ED93E00E94D41EEE24E394FF24D7
:104CE000F394EFEFFE1202C0EE24EA9465E070E068
:104CF00080E090E00E94B209FE0C99F710937802D0
:104D000000937702B6CF84E6A3CF4AE0C701B6018D
:104D1000DBCF109378020093770280910201882301
:104D200029F08091FE0280FF0E94C7198091F7024E
:104D30008336D1F18091F6028823B1F10E94F332DB
:104D40006AE070E00E94D939ACEDDA2ED80E0E94EC
:104D5000F3326AE070E00E94D9398E52082F10E0D9
:104D60007801ED1448F46AE070E0C7010E947A0D02
:104D7000FFEFEF1AFF0AF5CF0D1540F46AE070E07F
:104D8000C8010E947A0D0F5F1F4FF6CF8BE680930C
:104D9000F70269E771E080913805909139050E942A
:104DA000FA3A8FEF8093F5028DE194E090938702B9
:104DB000809386028091190490911A04909389023D
:104DC000809388028091E70490E090938B02809317
:104DD0008A0280911504833009F093C080911F04EA
:104DE00090912004875891098E35910508F083C071
:104DF0008091190490911A04049709F04BC0809196
:104E00002104909122048097479708F043C0809135
:104E100023049091240409970997E0F510928502E4
:104E2000109284024FEF5FEFBA0140937E025093DD
:104E30007F02609380027093810283E090E0909300
:104E40007B0280937A0280917E0290917F02A091F2
:104E50008002B0918102892F9A2FAB2FBB27823617
:104E600009F4BDC108F091C1803309F4C7C108F04D
:104E700076C1803109F4CBC108F01FC169E17EE041
:104E8000823009F422C163E971E0CE0181960E946B
:104E900020191FC18091190490911A04843491053E
:104EA00050F18091210490912204815491098F97AF
:104EB00010F590E080E040E050E0BA01FC01ED5DCB
:104EC000FB4F20813181295031092930310598F477
:104ED000FC01EB5DFB4F20813181275131092231EB
:104EE000310508F4D4C020813181265031092730A2
:104EF000310508F4DDC01092150410921A041092C6
:104F000019048CE693E00E942708181619068CF500
:104F100082E08093F5028CE693E00E940508182F4A
:104F20008093F70261E070E080E090E00E94B209B7
:104F30001B3409F005C2E0903405F090350510E00F
:104F400000E08CE693E00E942708892B51F08CE664
:104F500093E00E940508F701E00FF11F80830F5FC7
:104F60001F4FF8013197EE0DFF1D80818E3749F7F5
:104F700010826091F502662309F49AC2F090F7025C
:104F8000653010F5B2E6FB16F9F0ECE4FE16E1F040
:104F9000F9E4FF16C9F08CE88F0D8230A8F070E0BC
:104FA0006B5F7F4F660F771F072E000C880B990BE6
:104FB0000E944534EE24E39410E000E020E030E06D
:104FC00048E452E40E94601C8091F40283568230CF
:104FD00048F423E6F21631F081E08093020187E481
:104FE0000E94CC108091F702803751F08091F3023B
:104FF000811106C081E08093F30280E70E94CC100B
:105000001091F702EEEBE10FE93308F0F5C10E2E37
:10501000000CFF0BE25FF74D0C94ED39972DFC2946
:10502000FC29FC29FC29FC29FC294A2DFC29E32D1B
:105030008A2D4A2DFC29FC29FC29FC29FC29FC2964
:10504000D32DFC29FC29FC29FC29FC29FC29FC295D
:10505000FC29FC29FC29FC29FC29DA2BF12BF12B5A
:10506000652EFC29FC29EF29FC29F12B462B4F2E1C
:10507000FC29F12BFC297C2B352BFC29FC29812BCD
:10508000F12BF12BFC29FC29FC29FC29EF29440FE9
:10509000551F661F771F416004968038910509F0FF
:1050A0000DCF80E290E09093850280938402BDCE84
:1050B000440F551F661F771FEFCF883109F4A1C039
:1050C00061E27EE0823209F0DECECE0181960E945E
:1050D00061196CE771E0CE0181960E942712882346
:1050E00009F4A1C06EE771E08EE295E00E94EA1833
:1050F0006EE275E0CE0187960E94CE18CE018196B1
:105100000E944E1263E971E0CE0187960E94271239
:1051100081111AC000913805109139056FA178A549
:10512000C8010E94FA3AD8010D900020E9F7CD019C
:1051300002978017910709F001C1F80180818093DF
:10514000F70281E08093F5021092150410921A0480
:1051500010921904CE0187960E944E12D2CE8A3444
:1051600009F45BC048F4883309F454C060EF7DE073
:10517000823409F4AACF87CE823509F451C063EF97
:105180007DE08A3509F4A1CF7ECE823A29F188F4F8
:105190008A37D1F130F46EE07EE0883609F495CF9D
:1051A00072CE803941F16BE07EE0883909F48DCF11
:1051B0006ACE823CB9F040F4883AD1F068E07EE0F3
:1051C000803B09F482CF5FCE803E79F063E27EE0DF
:1051D000823E09F47ACF57CE67E27EE076CF65E271
:1051E0007EE073CF67E17EE070CF65E17EE06DCF5A
:1051F00063E17EE06ACF61E17EE067CF65E07EE05B
:1052000064CF61E07EE061CF6DEF7DE05ECF6AEF5D
:105210007DE05BCF67EF7DE058CF6DEE7DE055CF51
:1052200068EE7DE052CF61E871E0CE0181960E9488
:105230002712811110C063E871E0CE0181960E94AF
:105240002712811108C065E871E0CE0181960E94A5
:1052500027128823D1F18DA19EA1892B21F0E9A1EC
:10526000FAA1309721F410927902E9E7F2E0108177
:1052700010930101163431F46AE671E08EE295E094
:105280000E94EA186EE275E0CE0101960E94CE18E7
:105290001FA318A641E050E0BE01695D7F4FCE011B
:1052A00001960E948118811104C0CE0101960E94CE
:1052B0003C12BE016F5F7F4FCE0187960E94CE18D1
:1052C000CE0101960E944E1219CF67E871E0CE011F
:1052D00081960E94271281111EC06AE871E0CE01FA
:1052E00081960E942712811116C06AE671E0CE01F4
:1052F00081960E94271281110EC018A61FA21AA61D
:1053000019A61CA61BA6BE016F5D7F4FCE01879616
:105310000E945612F3CE69A17AA16115710549F078
:105320004DA15EA18EE295E00E94AD1810910101A1
:10533000A9CF8EE295E00E943C12F8CF8BE6FFCE1B
:105340008CE693E00E942708181619060CF0CDC7CA
:1053500063E971E0CE0181960E942019193439F079
:1053600084EB810F823018F06AE0123409F46EE7A2
:10537000CE0101960E943119BE016F5F7F4FCE01B1
:1053800081960E945612CE0101960E944E122DA1C6
:105390003EA13093E1022093E0021B3631F0809170
:1053A000340590913505143721F48091380590919A
:1053B000390549A15AA1DC01FA01BF01641B750B33
:1053C000621773071CF461916D93F7CF820F931FDF
:1053D000DC011C92CE0181960E944E12CACD173676
:1053E00009F035C18091020191E089278093020183
:1053F000811117E41093F7028091F7028B3621F4A4
:1054000090910B031916E4F40E94CC101091F7024E
:10541000812F012E000C990B0E94D33A873631F070
:10542000863721F0823611F01A3621F48091F40289
:105430008B3619F01B7F103719F48BE68093F70237
:10544000009138051091390569E771E0C8010E94A3
:10545000F13AF090F702892B09F1E9E4FE16F1F038
:1054600085EB8F0D8330D0F0809136059091370514
:10547000009711F00E941E3281E090E00E9482317C
:10548000F80101900020E9F7E01BDC01EC93909318
:10549000370580933605B8010E94FA3A1092F5025A
:1054A000F092F4028F2D877F833611F01092F7026D
:1054B0008091F7028B3609F02AC630900B0337FE35
:1054C0002BC4309018033A9410E0212F30E08091E3
:1054D0000B03082E000C990B97FF03C09195819543
:1054E0009109281739070CF012C6E0901A03F090C2
:1054F0001B0380911003189FE00CF11C1124F7018D
:105500006089062E000C770B880B990B0E9445349E
:1055100020E030E040E85EE30E94A4349B01AC014F
:1055200000E060911503C7010E947815A0911A034D
:10553000B0911B0380911003189FA00DB11D112481
:1055400052962C915297222309F4D8C3E22F022EAF
:10555000000CFF0BF7FF03C0F195E195F109EE0F89
:10556000FF1FEE0FFF1FEC56FD4F0081218042818F
:105570004DA753815EA75396AC91F9ABE8AB622F70
:10558000022E000C770B880B990B6CAB7DAB8EABAE
:105590009FAB022E000C330B0A2E000CBB0B0E949B
:1055A000F33968AF79AF8AAF9BAF0E94C719A8A93A
:1055B000B9A94D905D906D907C90A30192015F77A9
:1055C00060E070E084E393E40E94123620E030E073
:1055D00040E050E40E94043818160CF08AC36CA90D
:1055E0007DA98EA99FA90E9445344B015C0168AD3D
:1055F00079AD8AAD9BAD0E9445346B017C01A5015C
:105600009401C301B2010E94A434A70196010E9433
:105610003E3487FF6EC3202F322D4DA55EA5C501F8
:10562000B4010E94A4349B01AC01C701B6010E94E1
:105630003E3487FF5EC380911703181306C013140E
:1056400024F41091160311503A941F5F3ECF1A377D
:1056500009F0D2CE8091F20291E089278093F20284
:10566000882309F4C7CE1AE5C5CE8091F30291E0F4
:10567000811190E09093F302811110E51093F702ED
:10568000882309F4B9CE0E940F0EB6CE0E942F11C6
:1056900063E971E0CE0181960E94201943E0E42E77
:1056A00041E0F42E03E211E0D7016D917D917D017F
:1056B000CE0101960E94F4184D815E8169817A8144
:1056C000CE0181960E948118CE0101960E944E1251
:1056D00042E050E061E971E0CE0181960E948118BC
:1056E0000E151F0509F7CE0181960E94D810CE0134
:1056F00081960E944E1280CE86EC93E00E94D41ECA
:105700007BCE8BE59EE00E94C01022EE822E22E02E
:10571000922E30E4E32EF12C00E110E0F401D19060
:105720004F01C8010E946235D81621F06D2DC801C5
:105730000E946A35C7010E9422136C01C80180963D
:105740000E948F12B82EF40131976081062E000C52
:10575000770B880B990B0E9445342B013C016B2D74
:10576000BB0C770B880B990B0E9445349B01AC0155
:10577000C301B2010E94A4342B013C01B601DD0C2F
:10578000880B990B0E9445349B01AC01C301B20107
:105790000E9413360E946837C70180960E9437180E
:1057A0000F5F1F4FF2E0EF0EF11C0032110509F000
:1057B000B5CF22CE83E59EE00E94C01002EE12E03B
:1057C00090E1E92EF12CC7010E948F12D8018D9330
:1057D0008D01BFEFEB1AFB0AE0E2EE16F10499F738
:1057E0000BCEE3E0F1E0DE01119683E291E05D0192
:1057F000219131912D933D938E179F07C9F7809189
:10580000380590913905143721F080913405909135
:1058100035056DE871E00E94D5336C01C114D104E7
:1058200009F4CCC0C6010E94A7338C0160E971E085
:1058300090E080E00E94D5336C01F12CE12C7724BC
:105840007394009761F00E94A7337C0160E971E0D6
:1058500090E080E00E94D5336C0182E0782EF80160
:10586000EE0FFF1FEA0DFB1DF182E0828091F7022F
:10587000833609F0A9C0109202011092F2028091C1
:10588000F402833661F0809038059090390564E623
:1058900071E0C4010E94FA3AC4010E940317A801F2
:1058A0004E515D4F4A0152E0751202C0D401EC9294
:1058B000C8018096880F991F0E9422137C01C8019D
:1058C0009927C0960E948F12182FF4016081062E2E
:1058D000000C770B880B990B0E9445342B013C017F
:1058E000612F110F770B880B990B0E9445349B0198
:1058F000AC01C301B2010E94A4342B013C01B701E9
:10590000FF0C880B990B0E9445349B01AC01C3012D
:10591000B2010E9413360E946837072E000C880BD4
:10592000990B0E944534AB01BC01802F0E943613B5
:105930000E942F1163E971E0CE0187960E94201921
:1059400002EE12E0D8016D918D01062E000C770B4E
:10595000CE0181960E94F4184DA15EA169A17AA1A1
:10596000CE0187960E948118CE0181960E944E1228
:1059700042E050E061E971E0CE0187960E94811813
:10598000E2EFF2E0E017F107E9F6CE0187960E9418
:10599000D810CE0187960E944E12C114D10409F08E
:1059A0003DCF8091F702893609F026CD40E050E0E6
:1059B00060E070E4C5010E942D141ECDF12CE12C95
:1059C00010E000E0712C4BCF8D3641F440E050E008
:1059D00060E070E4C5010E942D14DFCF843729F404
:1059E000F801EC5FFC4FE082D8CF8537C9F50E9403
:1059F000F3326AE070E00E94D939ECED8E2E880E09
:105A00000E94F3326AE070E00E94D939F2ED7F2EF5
:105A1000780E0E94F33264E070E00E94D939029659
:105A2000082F000F000F080F0E94F33262E070E0B1
:105A30000E94D93966246394680E912C10E0961464
:105A400008F0ABCFE72CF12CE81440F4B801C70103
:105A50000E947A0DFFEFEF1AFF0AF6CF9394EFCF73
:105A6000823609F09ACFB701FF0C880B990B0E9480
:105A700045342B013C01B801110F880B990B0E9492
:105A80004534EE24E39402E310E0A30192010E9466
:105A9000601C83CFE3E0F1E0DE01119683E291E048
:105AA0007D01219131912D933D938E179F07C9F769
:105AB00010E000E02091F7028091E0029091E10275
:105AC00008171907F4F4A0913405B0913505A00F1B
:105AD000B11FEC91EE0FFF0BEE0DFF1D11968C9197
