:100000000C9422010C944A010C944A010C944A016C
:100010000C944A010C944A010C944A010C947E13EE
:100020000C944A010C944A010C944A010C949B15BF
:100030000C944A010C944A010C944A010C944A0114
:100040000C9432140C944A010C9400140C94DA139E
:100050000C944A010C944A010C944A010C944A01F4
:100060000C947C140C944A0105A84CCDB2D44EB922
:100070003836A9020C50B9918688083CA6AAAA2A4B
:10008000BE000000803F07634236B79BD8A71A39ED
:10009000685618AEBAAB558C1D3CB7CC5763BD6DD6
:1000A000EDFD753EF6177231BF000000803F08007D
:1000B0000000BE922449123EABAAAA2ABECDCCCCE7
:1000C0004C3E00000080BEABAAAAAA3E0000000081
:1000D000BF000000803F0000000000084178D3BB53
:1000E0004387D1133D190E3CC3BD4282AD2B3E6800
:1000F000EC8276BED98FE1A93E4C80EFFFBE01C4F1
:10010000FF7F3F0000000000010000010000000030
:100110000000000000000000000000006B636B00A6
:100120007520006B736974006952616E6400000091
:100130000000230026002900000000080002010042
:10014000000304070000000000000000020000009F
:1001500000250028002B0000000000240027002AB2
:100160000004040404040404040202020202020360
:10017000030303030301020408102040800102046A
:100180000810200102040810204C6F616420736B7A
:10019000696C6C7300526561647921004269747402
:1001A0006C65000A2A205374617274202A003E0094
:1001B0004C6F7720706F7765723A0028012801280C
:1001C00001230120011C017A006A7900636B007031
:1001D00065650070750068690073747200736974F6
:1001E00000747200776B00637200767400630042E3
:1001F000007000520062616C616E6365004C0067C4
:10020000004600640049324320454550524F4D207E
:100210006F766572666C6F77212044656C657465D6
:1002200020736F6D6520736B696C6C73210A0061BC
:10023000626F72746564007361766564003F0000EC
:1002400088166D2211241FBECFEFD8E0DEBFCDBFD0
:1002500011E0A0E0B1E0ECE6F6E502C005900D92F9
:10026000A63AB107D9F724E0A6EAB1E001C01D9291
:10027000AA36B207E1F711E0C1E2D1E004C021974C
:10028000FE010E94282AC032D107C9F70E94F51644
:100290000C94292B0C94000080E090E0A0E0B0E4E6
:1002A0008093650290936602A0936702B093680200
:1002B000E0915E04F0915F048181082E000C990B9F
:1002C00090936B0280936A028281082E000C990B36
:1002D00090936D0280936C02838180936E02809173
:1002E000640287FF0CC0848180936F0285818093B4
:1002F000700286818093710287E090E005C08130B2
:1003000061F05CF084E098E090937202E80FF11DD8
:10031000F0937402E0937302089584E0EECF80912D
:10032000580290915902891B990B089508950895D8
:100330000895AF92BF92CF92DF92EF92FF920F9308
:100340001F93CF93DF936C017B018B01040F151F6B
:10035000EB015E01AE18BF08C017D10759F06991D3
:10036000D601ED91FC910190F081E02DC601099537
:10037000892B79F7C501DF91CF911F910F91FF90E4
:10038000EF90DF90CF90BF90AF900895FC01538D18
:10039000448D252F30E0842F90E0821B930B54175F
:1003A00010F0CF96089501970895FC01918D828DEC
:1003B000981761F0A28DAE0FBF2FB11D5D968C9185
:1003C000928D9F5F9F73928F90E008958FEF9FEFC4
:1003D00008952FB7F89480915C0290915D02A091EE
:1003E0005E02B0915F022FBF8093CD029093CE0248
:1003F000A093CF02B093D00285EC92E00E94D50189
:1004000097FF26C02FB7F89480915C0290915D020F
:10041000A0915E02B0915F022FBF4091CD0250913A
:10042000CE026091CF027091D002841B950BA60B77
:10043000B70B4091C9025091CA026091CB027091F2
:10044000CC0284179507A607B707B0F28FEF9FEF8E
:100450000895FC01918D828D981731F0828DE80FFF
:10046000F11D858D90E008958FEF9FEF0895FC01B9
:10047000918D228D892F90E0805C9F4F821B910986
:100480008F739927089585EC92E00E94370221E04E
:10049000892B09F420E0822F089580E090E0892BD9
:1004A00029F00E94430281110C9400000895FC0180
:1004B000A48DA80FB92FB11DA35ABF4F2C91848DC5
:1004C00090E001968F739927848FA689B7892C9322
:1004D000A089B1898C91837080648C93938D848D75
:1004E000981306C00288F389E02D80818F7D808378
:1004F0000895EF92FF920F931F93CF93DF93EC0138
:1005000081E0888F9B8D8C8D98131AC0E889F989BA
:10051000808185FF15C09FB7F894EE89FF896083BD
:10052000E889F98980818370806480839FBF81E03E
:1005300090E0DF91CF911F910F91FF90EF90089580
:10054000F62E0B8D10E00F5F1F4F0F731127E02E5B
:100550008C8D8E110CC00FB607FCFACFE889F98993
:10056000808185FFF5CFCE010E945702F1CFEB8D40
:10057000EC0FFD2FF11DE35AFF4FF0829FB7F89467
:100580000B8FEA89FB8980818062CFCF0F931F9305
:10059000CF93DF938C01D0E0C0E0F801EC0FFD1F9A
:1005A0006491662341F085EC92E00E947902892BE8
:1005B00011F02196F2CFCE01DF91CF911F910F91D3
:1005C0000895CF93DF93EC01888D8823B9F0AA8931
:1005D000BB89E889F9898C9185FD03C0808186FDFE
:1005E0000DC00FB607FCF7CF8C9185FFF2CF80814D
:1005F00085FFEDCFCE010E945702E9CFDF91CF9169
:100600000895833081F028F4813099F08230A9F088
:1006100008958730A9F08830C9F08430B1F4809112
:1006200080008F7D03C0809180008F778093800051
:10063000089584B58F7784BD089584B58F7DFBCFF1
:100640008091B0008F778093B00008958091B000C2
:100650008F7DF9CF1F93CF93DF93282F30E0F901DF
:10066000E85CFE4F8491F901EB58FE4FD491F901FB
:10067000EF59FE4FC491CC23A9F0162F81110E948F
:100680000103EC2FF0E0EE0FFF1FE35BFE4FA5919F
:10069000B4918FB7F894EC91111108C0D095DE2376
:1006A000DC938FBFDF91CF911F910895DE2BF8CFA0
:1006B0009091000189130BC0ECE4F1E0E4919FEF0D
:1006C00090930001E13049F028F0E23061F060E001
:1006D0000C942A0310926E00FACF90916F009D7FC8
:1006E00090936F00F4CF909170009D7F9093700075
:1006F00091E09093B0009091B100987F94609093B6
:10070000B1001092B300E3CF8E3008F08E508064B9
:1007100080937C0080917A00806480937A0080913D
:100720007A0086FDFCCF8091780090917900089541
:100730003FB7F8948091150290911602A09117028C
:10074000B091180226B5A89B05C02F3F19F001965D
:10075000A11DB11D3FBFBA2FA92F982F8827BC011B
:10076000CD01620F711D811D911D42E0660F771F43
:10077000881F991F4A95D1F708958F929F92AF9243
:10078000BF92CF92DF92EF92FF926B017C010E94A9
:1007900098034B015C01C114D104E104F104B9F0E8
:1007A0000E949803681979098A099B09683E734079
:1007B0008105910580F321E0C21AD108E108F10812
:1007C00088EE880E83E0981EA11CB11CE4CFFF9038
:1007D000EF90DF90CF90BF90AF909F908F90089553
:1007E0002091F101260F3327331F21323105ECF41C
:1007F0002091BF02FC0190E080E0243069F082E0AB
:100800000895A091F1012191AC014F525E4FA40FC8
:10081000B52FB11D2C930196861798F38091F101A5
:10082000680F6093F10180E0089581E008951092CF
:10083000BF0281E080939E021092990261E082E102
:100840000E942A0361E083E10E942A03E9EBF0E0C1
:1008500080818E7F808380818D7F808388E48093F8
:10086000B80085E48093BC000895CF93DF9391E0B6
:100870009093D0018823B9F0C091B800D091BA000C
:100880008091BC008A7B8093BC0060E082E10E9482
:100890002A0360E083E10E942A030E941704D09398
:1008A000BA00C093B800DF91CF910895CF92DF9244
:1008B000EF92FF920F931F93CF93DF93D82FC62F02
:1008C000613208F098C00E9498036B017C0180910E
:1008D000BF0281116BC081E08093BF0280939E02B2
:1008E0009FEF90939D0210929C029C0F90939B020D
:1008F00080939A0280919A02DD0FD82BD0939A02AE
:1009000080919902813009F078C0109299020E947A
:1009100098036B017C0180919A028093BB008091C7
:10092000C1029091C202A091C302B091C402892B6E
:100930008A2B8B2BA1F00E9498030091C102109189
:10094000C2022091C3023091C4026C197D098E0944
:100950009F09061717072807390708F448C0809130
:10096000BC0083FDD8CF85EC8093BC000E94980327
:100970006B017C018091BF02813009F440C08091FD
:100980009C028C1710F4C0919C02E9E7F2E0AFE9F9
:10099000B2E080E08C1355C08C2FDF91CF911F9176
:1009A0000F91FF90EF90DF90CF9008958091C1025A
:1009B0009091C202A091C302B091C402892B8A2BEC
:1009C0008B2B09F484CF0E9498030091C1021091EF
:1009D000C2022091C3023091C4026C197D098E09B4
:1009E0009F09061717072807390708F070CF80916D
:1009F000C0020E943504C0E0CFCF85EEB5CF809114
:100A0000C1029091C202A091C302B091C402892B8D
:100A10008A2B8B2B09F4AECF0E9498030091C10260
:100A20001091C2022091C3023091C4026C197D0959
:100A30008E099F09061717072807390708F09ACF6C
:100A4000D6CF91919D938F5FA5CF0895E0915902E4
:100A500080915802E81730F4F0E0E156FD4F8081B4
:100A600090E008958FEF9FEF089590915902809143
:100A700058022FEF3FEF981748F4E92FF0E0E156C6
:100A8000FD4F208130E09F5F90935902C901089586
:100A9000CF92DF92EF92FF920F931F93CF93DF934A
:100AA0007C01CB018A0120917802222389F0EB019D
:100AB0006B01C40ED51ECC15DD0569F06991D70117
:100AC000ED91FC910190F081E02DC7010995F3CFE4
:100AD000642F0E94F003C801DF91CF911F910F9105
:100AE000FF90EF90DF90CF900895CF93DF931F9208
:100AF000CDB7DEB76983209178022223F9F02091E7
:100B00007502203258F021E030E0FC01338322836B
:100B100090E080E00F90DF91CF9108958091760270
:100B2000E82FF0E0E055FE4F998190838F5F80932E
:100B300076028093750281E090E0ECCF61E0CE0117
:100B400001960E94F003F7CFCF92DF92EF92FF92CF
:100B50000F931F93CF93DF93D091750281E0D13231
:100B600008F09CC0C09177020E9498036B017C0141
:100B70008091BF0281116CC082E08093BF0281E04E
:100B800080939E028FEF80939D0210929C02D093DF
:100B90009B02A0EBB1E0E9E7F2E080E0D8138DC062
:100BA00010929A0280919A02CC0FC82BC0939A029D
:100BB00080919902813009F084C0109299020E94BC
:100BC00098036B017C0180919A028093BB00809115
:100BD000C1029091C202A091C302B091C402892BBC
:100BE0008A2B8B2BA1F00E9498030091C1021091D7
:100BF000C2022091C3023091C4026C197D098E0992
:100C00009F09061717072807390708F442C0809183
:100C1000BC0083FDD8CF85EC8093BC000E94980374
:100C20006B017C018091BF02823009F44CC080913D
:100C30009D028F3F09F469C080919D02803209F4C2
:100C400066C080919D02803309F463C084E026C0B1
:100C50008091C1029091C202A091C302B091C402DE
:100C6000892B8A2B8B2B09F483CF0E949803009148
:100C7000C1021091C2022091C3023091C4026C19CA
:100C80007D098E099F09061717072807390708F0FD
:100C90006FCF8091C0020E94350485E010927602E9
:100CA0001092750210927802DF91CF911F910F91EF
:100CB000FF90EF90DF90CF9008959D9191938F5F7B
:100CC0006DCF85EEA9CF8091C1029091C202A09113
:100CD000C302B091C402892B8A2B8B2B09F4A2CFBB
:100CE0000E9498030091C1021091C2022091C30298
:100CF0003091C4026C197D098E099F0906171707E8
:100D00002807390708F08ECFC4CF80E0C7CF82E034
:100D1000C5CF83E0C3CF90E080E008951F93CF93C9
:100D2000DF93EC01142F89819A81288131E030937F
:100D30007802209377021092760210927502DC01FD
:100D4000ED91FC910190F081E02D099589819A81C6
:100D5000DC01ED91FC910190F081E02D612F09956E
:100D600089819A81DF91CF911F910C94A405DC01B8
:100D7000ED91FC910190F081E02D0994FC0187E058
:100D800094E1161634F484E098E0613011F484E0C4
:100D900090E19083062E000C770B77FF03C07195CE
:100DA00061957109969FA001979F500D1124840FA2
:100DB000952F911D0895DC01ED91FC910190F0813A
:100DC000E02D09940F931F93CF93DF938B01C1E420
:100DD000D4E029813A81988141E040937802909350
:100DE0007702109276021092750294E0899FB0010A
:100DF00011246A5F7F4FC9010E94DB0670E060E04A
:100E000089819A810E94B70670E060E089819A81A9
:100E10000E94B706B80189819A810E94B706612FA6
:100E200070E089819A810E94B70689819A81DF9159
:100E3000CF911F910F910C94A405CF93C0E060E077
:100E400070E18C2F0E94E206CF5FC031C1F7CF91D5
:100E500008959F92AF92BF92CF92DF92EF92FF924E
:100E60000F931F93CF93DF93EC0181E0809378027F
:100E700084E58093770210927602109275026D2FAE
:100E800070E082E693E00E94DB06BE01772782E6EF
:100E900093E00E94DB0682E693E00E94A40561E0F5
:100EA00084E50E945604109259028093580282E60B
:100EB00093E00E943505C0905E04D0905F04F60177
:100EC00080836091640289E692E00E94BE06EC0194
:100ED000F12CE12C1C161D064CF56C2FCF31D105E1
:100EE0000CF06EE184E50E945604982E109259028F
:100EF000809358025E01FEE1AF1AB1088E01809125
:100F00005902981659F082E693E00E9435059FEF4A
:100F1000E91AF90AF601EE0DFF1D8083015011094F
:100F200029F0E5010A151B0551F7D4CFDF91CF91C8
:100F30001F910F91FF90EF90DF90CF90BF90AF90F7
:100F40009F9008958F929F92AF92BF92CF92DF921F
:100F5000EF92FF921F93CF93DF93EC016A017B0125
:100F600020E030E040E85FE3CB01B6010E942D2590
:100F700087FDA3C020E030EC4AE555E4C701B60187
:100F80000E945A2818163CF4C12C30ECD32E3AE5B6
:100F9000E32E35E4F32E6B817C818D819E810E944E
:100FA00032254B015C0120E030E040E855E4C70108
:100FB000B6010E9493259B01AC01C501B4010E94BA
:100FC000732720E030E040E05FE30E94022720E04A
:100FD00030E040E85FE30E9401276B017C0120E0E4
:100FE00030E040E450E40E942D2587FD6DC020E0F4
:100FF00030E04FE753E4C701B6010E945A281816A3
:1010000034F4C12CD12C9FE7E92E93E4F92E898189
:101010009A81288131E030937802209377021092F0
:10102000760210927502DC01ED91FC910190F08145
:10103000E02D60E0099589819A810E94A40561E014
:1010400088810E9456041092590280935802898127
:101050009A81DC01ED91FC910284F385E02D0995E4
:10106000182F482F4F76406160E0CE010E948E0617
:10107000C701B6010E94EC27462F6EEFCE010E94F9
:101080008E06412F60E0CE010E948E0665E070E082
:1010900080E090E00E94BD03412F406A60E0CE01F5
:1010A000DF91CF911F91FF90EF90DF90CF90BF9095
:1010B000AF909F908F900C948E06C12CD12C20E87D
:1010C000E22E2FE3F22E67CFC12CD12C80E4E82E44
:1010D000FE2C9DCFFC0101900020E9F73197AF0174
:1010E000481B590BBC0185EC92E00C94990186E6F3
:1010F00091E00C946A08CF93DF930E94C602EC0142
:101100000E9477088C0F9D1FDF91CF910895CF9398
:10111000DF93682F85EC92E00E947902EC010E9437
:1011200077088C0F9D1FDF91CF910895CF93DF93A8
:10113000FC01448155816081718185EC92E00E94BF
:101140009901EC010E9477088C0F9D1FDF91CF91D0
:1011500008958F929F92AF92BF920F931F93CF9358
:10116000DF93CDB7DEB7A1970FB6F894DEBF0FBE01
:10117000CDBF19A2423008F44AE08E010F5D1F4F27
:10118000842E912CB12CA12CA50194010E94D02673
:10119000E62FB901CA01EA30F4F4E05DD801EE931C
:1011A0008D01232B242B252B79F790E080E01097DD
:1011B00019F0CD010E946A08A1960FB6F894DEBF1F
:1011C0000FBECDBFDF91CF911F910F91BF90AF9018
:1011D0009F908F900895E95CE1CFCF92DF92EF92DC
:1011E000FF92C12CD12C76014AE0C701B6010E94C2
:1011F000A90869E085EC92E00E9479028FEFC81A95
:10120000D80AE80AF80A80E1C816D104E104F1041A
:1012100059F7FF90EF90DF90CF900C947708FC0186
:1012200024813581232B39F421E0FB01808188233F
:1012300049F020E007C0808191810E940B2B21E0C2
:10124000892BB9F7822F0895CF93DF93EC01888122
:101250009981009711F00E940D23198218821D8236
:101260001C821B821A82DF91CF910895FC0180813C
:101270009181009711F00C940D2308950F931F9303
:10128000CF93DF938C01EB01FC018081918100976A
:10129000E1F06881798161157105A9F0428153817E
:1012A0002C813D814217530770F00E94142B8C81D2
:1012B0009D81F801958384831D821C82DF91CF91EB
:1012C0001F910F9108950E940D2388819981F80143
:1012D000918380838A819B81938382838C819D818A
:1012E00095838483198218821B821A82E5CF0C941D
:1012F00051266F927F928F929F92AF92BF92CF9220
:10130000DF92EF92FF920F931F93CF93DF936C01C5
:10131000712CD0E0C0E083E191E00E947709082EB3
:10132000000C990B781619060CF06DC04E018FEF6A
:10133000881A980ACE018A5E9E4F0E947709682E0D
:10134000E82EF12CC70101960E9471228C015C01EC
:10135000C95EDE4FC81BD90B8A2D801B861548F449
:10136000CE018A0D9B1D0E947709F50181935F01D3
:10137000F3CFE401CE0DDF1D5801AE0CBF1CF5010B
:101380001082B601C8010E940B2B892B09F50115AB
:101390001105A9F5CE01895E9E4F0E9477098093C1
:1013A0006402682F89E692E00E94BE06CE018A5E42
:1013B0009E4FDF91CF911F910F91FF90EF90DF90A3
:1013C000CF90BF90AF909F908F907F906F90089537
:1013D000F501319780818C3449F4A70141505109BE
:1013E000B601C8010E941B2B892B89F2011511053A
:1013F00019F0C8010E940D23249673948CCFC80164
:101400000E940D23C7CF8DE392E00E947B088FEFEF
:101410009FEFCFCF1F93CF93DF93EC010E9477090B
:10142000182FCE0101960E94770990E0982F882707
:10143000810F911DDF91CF911F910895CF92DF927F
:10144000EF92FF920F931F93CF936A017B01082FB6
:1014500010E0C801805B9F4F880F991F0E940A0A05
:10146000BC01990F880B990B0E94342520E030E0D5
:101470004AE754E40E947327A70196010E9493252E
:101480006B017C0182E191E00E947709C82FC801BD
:101490000E947709182F8AE0C89FB0011124072EF7
:1014A000000C880B990B0E943425A70196010E941D
:1014B00002270E94EC27812FCF911F910F91FF905F
:1014C000EF90DF90CF900C94E20690E0C096880FEA
:1014D000991F860F911D880F991F0C940A0A7F92FD
:1014E0008F929F92AF92BF92CF92DF92EF92FF9234
:1014F0000F931F93CF93DF93B82E6A01D62FC72F78
:1015000060E00E94650ABC01990F880B990B0E944C
:1015100034257B018C0161E08B2D0E94650ABC01A2
:10152000990F880B990B0E943425762E872E982EC2
:10153000A92E96014D2F5C2F0E942D2587FF71C08B
:10154000772D682D992D8A2D272F362F492F582F2B
:10155000B701C8010E945A28181694F096014D2F21
:101560005C2F672D782D892D9A2D0E942D257601CF
:101570000D2F1C2F87FF04C0E72CF82C092D1A2DE6
:10158000CB2DD0E06E0180E3C80ED11CCC0FDD1F47
:10159000CE5FDE4FB701C8010E94E52779836883DB
:1015A000C601880F991F0E940A0AEC01C6010E9419
:1015B0007709682F880F770B880B990B0E943425C9
:1015C0009701A8010E9493256B017C01BE01DD0FEC
:1015D000880B990B0E9434259B01AC01C701B60111
:1015E0000E9402270E94E527072E000C880B990B0A
:1015F0000E94342520E030E0A9010E940227AB01BF
:10160000BC018B2DDF91CF911F910F91FF90EF9037
:10161000DF90CF90BF90AF909F908F907F900C9471
:101620001E0A7C2D6D2DCE018FCF2F923F924F92AF
:101630005F926F927F928F929F92AF92BF92CF9262
:10164000DF92EF92FF920F931F93CF93DF93CDB76B
:10165000DEB72E970FB6F894DEBF0FBECDBF5C018C
:101660006A017B0120E030E0A901CB01B6010E94B4
:101670002D259501205E3F4F3901811130C0890130
:101680003FE03983D8017E916E918D01072E000CC9
:10169000880B990B0E943425AB01BC0189810E9403
:1016A0006F0AB981B150B983BF3F61F72E960FB66B
:1016B000F894DEBF0FBECDBFDF91CF911F910F9188
:1016C000FF90EF90DF90CF90BF90AF909F908F9062
:1016D0007F906F905F904F903F902F90089580E2A1
:1016E00090E00E9471228C0182E0882E81E0982E89
:1016F0009801F50170E060E0D4018D919D914D015C
:1017000041915191841B950BD9018D939D939D011E
:1017100097FF03C0919581959109681779070CF49B
:10172000BC01E615F70541F7072E000C880B990B55
:101730000E943425A70196010E9473276B017C014A
:1017400020E030E0A9010E945A2820E030E040E08B
:101750005FE387FD91C0C701B6010E9402270E9486
:10176000E5277E876D87D12CC12C8D859E85092E1E
:10177000000CAA0BBB0B89879A87AB87BC87AD850A
:10178000BE85AC15BD050CF47CC048011501F12CDB
:10179000C6010D2C000CAA0BBB0B8D839E83AF835F
:1017A000B887D1016D917D911D01072E000C880B2A
:1017B000990B0E9434252B013C01ED85FE8520E02C
:1017C00030E0A901EF2B09F443C06D817E818F8148
:1017D00098850E9434252BED3FE049E450E40E94B7
:1017E000932569837A838B839C8369857A858B852E
:1017F0009C850E9434259B01AC0169817A818B8193
:101800009C810E9473270E946E2720E030E040E810
:101810005FE30E94022720E030E040E05FE30E94A7
:10182000932569837A838B839C83D4016D917C910A
:10183000072E000C880B990B0E9434259B01AC01EC
:1018400069817A818B819C810E9493259B01AC01E7
:10185000C301B2010E940227AB01BC018F2D0E947F
:101860006F0AF394B2E08B0E911CE0E1FE1299CF67
:10187000FFEFCF1ADF0A83CFC701B6010E9401270D
:101880006ECF0115110509F411CFC8012E960FB6C0
:10189000F894DEBF0FBECDBFDF91CF911F910F91A6
:1018A000FF90EF90DF90CF90BF90AF909F908F9080
:1018B0007F906F905F904F903F902F900C940D23EE
:1018C0002F923F924F925F926F927F928F929F9250
:1018D000AF92BF92CF92DF92EF92FF920F931F933E
:1018E000CF93DF93CDB7DEB72F970FB6F894DEBF57
:1018F0000FBECDBF4C016D8369017A01202F30E00E
:101900003A83298320E030E0A901C701B6010E9493
:101910002D2581111DC01FE0812F012E000C990B78
:10192000A981BA818A179B070CF419C1880D991DEA
:10193000FC016081062E000C770B880B990B0E942E
:101940003425AB01BC01812F0E946F0A1150E4CFF6
:1019500080E190E029813A81821B930B811530E46C
:10196000930770F5880F991F0E9471225C01E9812D
:10197000FA81EE0FFF1FCF018E5F9E4F3C012501C4
:10198000D401402F70E060E04031E8F4F301819130
:1019900091913F012D915D81250390011124821BBE
:1019A000930BF201819391932F0197FF03C09195BF
:1019B00081959109681779070CF4BC014F5FE4CF5A
:1019C0008FEF9FEFD1CF072E000C880B990B0E9451
:1019D0003425A70196010E9473276B017C0120E04A
:1019E00030E0A9010E945A2820E030E040E05FE3A7
:1019F00087FD8BC0C701B6010E9402270E94E52720
:101A00001B011F861E86CB01770FAA0BBB0B8A8793
:101A10009B87AC87BD87AE85BF852A163B060CF435
:101A200080C0BA82A9829C828B82102FCD01092EA0
:101A3000000CAA0BBB0B8E839F83A887B98710313C
:101A400008F068C0AB81BC816D91BC83AB832D81F4
:101A50006203B0011124072E000C880B990B0E9421
:101A600034256B017C0120E030E0A9012114310410
:101A7000E1F16E817F81888599850E9434252BED67
:101A80003FE049E450E40E9493252B013C016A8524
:101A90007B858C859D850E9434259B01AC01C3010B
:101AA000B2010E9473270E946E2720E030E040E8D8
:101AB0005FE30E94022720E030E040E05FE30E9405
:101AC00093252B013C01A981BA816D917C91072E50
:101AD000000C880B990B0E9434259B01AC01C301BB
:101AE000B2010E9493259B01AC01C701B6010E947F
:101AF0000227AB01BC01812F0E946F0A1F5FE981A1
:101B0000FA813296FA83E9839ACFC701B6010E941F
:101B1000012774CF2E853F852F5F3F4F3F872E874C
:101B20007ACFA114B104D9F0C5012F960FB6F8945D
:101B3000DEBF0FBECDBFDF91CF911F910F91FF9000
:101B4000EF90DF90CF90BF90AF909F908F907F905D
:101B50006F905F904F903F902F900C940D232F9695
:101B60000FB6F894DEBF0FBECDBFDF91CF911F91AE
:101B70000F91FF90EF90DF90CF90BF90AF909F902C
:101B80008F907F906F905F904F903F902F9008952F
:101B90000F93CF93DF93E0915E04F0915F04608137
:101BA000C0E6D2E06C8389E692E00E94BE060E9405
:101BB0004C0110925B0210925A022D813E814F819E
:101BC00058850A896E858B899C890E94600CDF91FB
:101BD000CF910F910895FF920F931F93CF93DF93AF
:101BE0008C01FC0101900020E9F7329780818C3450
:101BF00009F4CEC0823509F0CDC087EE8093630230
:101C0000C8010E947909EC01CF3FDC0709F40CC13F
:101C1000CE010E947709F82ECE0102960E940A0A90
:101C2000EC0189E4F812B8C0CE010E9429070E9495
:101C30004C0169E671E0C8010E940B2B892B09F465
:101C4000C5C080916402813009F0C0C00E943E246A
:101C500024E630E040E050E00E9467260E943425F0
:101C600020E030E040E251E40E94732720E030E0C1
:101C700040EA50E40E940127609354027093550299
:101C800080935602909357028091640282300CF444
:101C9000A6C08091630287FFB1C080916A029091D3
:101CA0006B0291958195910990936B0280936A02E2
:101CB00090E080E040916402242F042E000C330B4E
:101CC00037FF03C0319521953109821793070CF036
:101CD00095C042301CF540916902489F9001499F90
:101CE000300D1124E0917302F0917402E20FF31FA2
:101CF00020812195208320916902289FF001299F4E
:101D0000F00D11249F012E5F3F4FE0917302F0917F
:101D10007402E20FF31F2081219520832091640239
:101D200060E022300CF462E0E62FF0E020916402E3
:101D300022300CF47FC024E030E0409173025091D7
:101D40007402E217F3070CF078C09F01220F331FD3
:101D500070916902789FF001799FF00D1124E20FD4
:101D6000F31FE40FF51F40815181508350916902A8
:101D7000589FD001599FB00D1124E0917302F0914A
:101D80007402E20FF31FEA0FFB1F41836F5FCCCF9A
:101D900089E134CF80E032CF6091640289E692E03D
:101DA0000E94BE0620915E0430915F04D901C21BDF
:101DB000D30BFE01EA0FFB1FAD01421B530B48176B
:101DC00059070CF034CFE491ED93F3CF1092540205
:101DD00010925502109256021092570255CF0E944F
:101DE0003E2424E630E040E050E00E94672660FF99
:101DF00005C080915302833609F04FCF10925B02E9
:101E000010925A0220916502309166024091670259
:101E1000509168020091720260916E02809173028B
:101E2000909174020E94600CDF91CF911F910F91ED
:101E3000FF90089528E030E080CF01963BCF0F93CC
:101E40001F93CF93DF93EC018B010E94512608175B
:101E500021F0602FCE010E9459262196CE010E94CA
:101E60005126181721F0612FCE010E94592665E0F6
:101E700070E080E090E0DF91CF911F910F910C9482
:101E8000BD030F931F93CF93DF93EC01888199815A
:101E9000009759F02A813B812617370730F081E0FF
:101EA000DF91CF911F910F9108958B016F5F7F4F4D
:101EB0000E943D2A009759F0998388831B830A83E7
:101EC0002C813D81232B59F7FC011082E8CF80E063
:101ED000E7CFEF92FF920F931F93CF93DF9361159C
:101EE000710541F480E0DF91CF911F910F91FF9038
:101EF000EF90089541155105B1F07B01EC010C8183
:101F00001D81040F151FB8010E94410F882351F352
:101F1000288139818C819D81B701820F931F0E9496
:101F2000142B1D830C8381E0DECFEF92FF920F9381
:101F30001F93CF93DF93EC017B018A01BA010E94CA
:101F4000410F81110BC0CE010E942409CE01DF9107
:101F5000CF911F910F91FF90EF9008951D830C83F7
:101F6000B701888199810E94142BF0CFFB01DC011D
:101F700011961C921E9213961C921E921297159601
:101F80001C921E9214978617970759F060817181F1
:101F90006115710521F0448155810C94950F0C94C5
:101FA00024090895FB0101900020E9F73197AF0162
:101FB000461B570B0C94950F0F931F93CF93DF93F2
:101FC000CDB7DEB762970FB6F894DEBF0FBECDBFB8
:101FD0008C01CB01F80111821082138212821582CA
:101FE00014824AE0BE016F5F7F4F0E94F024BE0161
:101FF0006F5F7F4FC8010E94D20F62960FB6F894B0
:10200000DEBF0FBECDBFDF91CF911F910F9108951D
:10201000FC01118210821382128215821482FB014C
:1020200001900020E9F73197AF01461B570B0C9444
:10203000950FEF92FF920F931F93CF93DF9300D0F2
:10204000CDB7DEB78C01E62E65E971E00E9408107D
:102050000E94E9010E2C000CFF0897FD10C08E15A0
:102060009F0569F089831A8241E050E0BE016F5FED
:102070007F4FC8010E94690F0E94E901EECFC8019D
:102080000F900F90DF91CF911F910F91FF90EF90E4
:102090000895EF92FF920F931F93CF93DF93EC017C
:1020A0008B01198218821B821A821D821C82CB012D
:1020B0000E94BB247C01BC01CE010E94410F811112
:1020C00009C0CE01DF91CF911F910F91FF90EF904A
:1020D0000C942409FD82EC82B80188819981DF91FA
:1020E000CF911F910F91FF90EF900C94B42485ED48
:1020F0008093BC008091C1029091C202A091C30262
:10210000B091C4020796A11DB11D23E0B695A79515
:10211000979587952A95D1F72091BC0024FD03C09F
:102120001092BF0208954091C1025091C202609185
:10213000C3027091C402452B462B472B69F30097CD
:10214000A105B10541F025E32A95F1F700000197BB
:10215000A109B109E1CF8091C0020C9435042F92FE
:102160003F924F925F926F927F928F929F92AF9227
:10217000BF92CF92DF92EF92FF920F931F93CF9374
:10218000DF93CDB7DEB767970FB6F894DEBF0FBE0B
:10219000CDBF6A877B878C879D872E873F87488B3B
:1021A000598BC801EF8A19826AE7262E61E0362E24
:1021B00006E611E088248A94982C5401E8E44E2E17
:1021C000E8EE5E2E66246394712C9C01990F440BFB
:1021D000550B2A8B3B8B4C8B5D8B6E857F8588895D
:1021E00099890E94EC276E837F838887998720E0F6
:1021F00030E0A9016A857B858C859D850E942D250F
:10220000882309F419C22A853B854C855D8563E6E0
:102210007CE987E89FE30E945F286B017C01809145
:1022200000018530A9F5ECE4F1E0F491FE8BFE8924
:10223000F7FF78C06E817F81888599850E94BD03F4
:1022400085E00E9458036A897B898C899D890E9458
:10225000BD0329812F5F29833F893213BECF679643
:102260000FB6F894DEBF0FBECDBFDF91CF911F91A7
:102270000F91FF90EF90DF90CF90BF90AF909F9025
:102280008F907F906F905F904F903F902F90089528
:102290008F3F81F625E020930001ECE4F1E0F4911A
:1022A000FE8BFF3F39F2F13009F40CC120F1F2301E
:1022B00009F0BDCF1092B0001092B1008091B00033
:1022C00082608093B0008091B10081608093B10002
:1022D000F8018491E82FF0E0EE0FFF1FE35BFE4F63
:1022E0008591949190931A0280931902F10184913F
:1022F00080931B0217C014BC15BC84B5826084BDDA
:1023000085B5816085BDF8018491E82FF0E0EE0F7E
:10231000FF1FE35BFE4F85919491F10184918093BF
:10232000A7011E8AF1014491F8018491882399F054
:1023300090E0880F991FFC01E95AFE4FA591B491D6
:10234000FC01E35BFE4F259134918FB7F8949C918B
:10235000492B4C938FBF20E030ED42E854E4C70195
:10236000B6010E9493250E94EC276B01F12CE12C11
:1023700060E072E18AE790E0A70196010E9467267B
:102380002A833B834C835D83BA01A90141505109E3
:10239000610971098E898D7F09F00EC14F3F51058A
:1023A0006105710509F00CF4EEC060E472E48FE0A1
:1023B00090E0A70196010E946726BA01A901415049
:1023C000510961097109FE89F23009F098C082E073
:1023D0004F3F51056105710509F00CF463C060E9D8
:1023E00070ED83E090E0A70196010E946726BA0194
:1023F000A901415051096109710983E04F3F51051D
:102400006105710509F00CF44DC0C301B201A701CB
:1024100096010E946726BA01A9014150510961093C
:10242000710984E04F3F510561057105D9F1D4F17F
:1024300064E274EF80E090E0A70196010E946726B5
:10244000BA01A901415051096109710985E04F3F65
:1024500051056105710531F128F162E17AE780E00B
:1024600090E0A70196010E946726BA01A901415098
:1024700051096109710986E04F3F510561057105F8
:1024800089F080F04A815B816C817D819AE075954D
:102490006795579547959A95D1F74150510961092C
:1024A000710987E09091B100987F892B8093B100EA
:1024B000FE89F13009F49EC0F23009F4ADC0F1118B
:1024C000B9CE69C010928000109281008091810085
:1024D0008860809381008091810081608093810079
:1024E000F8018491E82FF0E0EE0FFF1FE35BFE4F51
:1024F00085919491F10184918093A60113CF4F3F70
:1025000051056105710509F00CF454C0C301B20115
:10251000A70196010E946726BA01A90141505109FD
:10252000610971092E8984E0211191CF83E04F3F29
:1025300051056105710559F154F162E17AE780E0D6
:1025400090E0A70196010E946726BA01A9014150B7
:1025500051096109710984E04F3F51056105710519
:10256000B1F0A8F04A815B816C817D818AE075952C
:102570006795579547958A95D1F74150510961095B
:10258000710985E004C081E03E8931118BCF95B59A
:10259000987F892B85BD47BD8092AC019092AD019B
:1025A000A092AE01B092AF0180916E0082608093E4
:1025B0006E0040CE82E0E8CF91E04115510581E008
:1025C000680771056CF0C301B201A70196010E9472
:1025D0006726BA01A901415051096109710993E0C7
:1025E000EE89E13009F064CF80918100887F892BEA
:1025F0008093810050938900409388008092A801C5
:102600009092A901A092AA01B092AB0180916F00B3
:10261000826080936F000ECE4093B30080921C02C4
:1026200090921D02A0921E02B0921F028091700033
:10263000826080937000FECD6E817F818885998550
:102640000E94BD03F7CD4F925F926F927F928F925F
:102650009F92AF92BF92CF92DF92EF920F931F9310
:10266000CF93DF93D82E192F0E9477098695CD2D11
:10267000D12FB12CA12CC82ED12C88EE882E83E02E
:10268000982E2197AC14BD044CF5CE018C199D09F0
:102690000E947709782ECE010E947709182F672DA6
:1026A00070E0C4010E94142A072E000C880B990BBD
:1026B0000E9434252B013C01612F70E090E080E006
:1026C0000E943225EE24E39410E000E0A301920181
:1026D0000E94AF108FEFA81AB80AD3CFDF91CF9125
:1026E0001F910F91EF90DF90CF90BF90AF909F9090
:1026F0008F907F906F905F904F9008951F920F92F0
:102700000FB60F9211242F933F934F935F936F93C4
:102710007F938F939F93AF93BF93EF93FF9380919A
:102720001C0290911D02A0911E02B0911F02892BE4
:102730008A2B8B2BD1F190911B02E0911902F09121
:102740001A0280818927808380911C0290911D024A
:10275000A0911E02B0911F02181619061A061B0638
:102760009CF480911C0290911D02A0911E02B091D8
:102770001F020197A109B10980931C0290931D02C9
:10278000A0931E02B0931F02FF91EF91BF91AF91F2
:102790009F918F917F916F915F914F913F912F9179
:1027A0000F900FBE0F901F901895809100010E940E
:1027B0005803EACF1F920F920FB60F9211242F9356
:1027C0003F934F935F936F937F938F939F93AF93B9
:1027D000BF93EF93FF9385EC92E00E945702FF9125
:1027E000EF91BF91AF919F918F917F916F915F9189
:1027F0004F913F912F910F900FBE0F901F90189502
:102800001F920F920FB60F9211242F938F939F93C5
:10281000EF93FF93E091D502F091D6028081E09191
:10282000DB02F091DC0282FD1BC090818091DE0210
:102830008F5F8F732091DF02821741F0E091DE02FB
:10284000F0E0EB53FD4F958F8093DE02FF91EF9107
:102850009F918F912F910F900FBE0F901F90189501
:102860008081F4CF1F920F920FB60F9211242F93F5
:102870003F938F939F93AF93BF9380915C0290910E
:102880005D02A0915E02B0915F023091140223E0DC
:10289000230F2D3758F50196A11DB11D2093140269
:1028A00080935C0290935D02A0935E02B0935F02FE
:1028B0008091150290911602A0911702B091180212
:1028C0000196A11DB11D8093150290931602A0934D
:1028D0001702B0931802BF91AF919F918F913F91D2
:1028E0002F910F900FBE0F901F90189526E8230F81
:1028F0000296A11DB11DD2CF1F920F920FB60F925B
:1029000011242F933F934F935F936F937F938F93F4
:102910009F93AF93BF93EF93FF938091B900887F0C
:10292000803609F44AC0F0F5883209F4A7C018F5DA
:10293000803109F49BC0B8F4882309F4F9C08830C9
:1029400009F494C0FF91EF91BF91AF919F918F9146
:102950007F916F915F914F913F912F910F900FBE9B
:102960000F901F901895883109F488C0803251F774
:1029700080939D0214C0803409F49DC040F48033DC
:10298000B9F38833F9F680939D0285ECB0C08035A9
:1029900009F485C0883509F496C0883499F60E94F8
:1029A0007710D0CF883909F48CC038F5883729F0F2
:1029B00050F4883611F0803729F683E08093BF0207
:1029C0001092130257C0883809F47BC0803919F07F
:1029D000803809F0B7CF80911302803208F071C0BF
:1029E000E091130281E08E0F809313028091BB006F
:1029F000F0E0ED50FE4F80833DC0803B39F0E0F4C5
:102A0000803A09F479C0883A09F09CCF84E0809339
:102A1000BF021092F2011092F101E0912202F091B6
:102A2000230209958091F10181110FC081E080930B
:102A3000F1011092D10109C0803C09F4A6CF883C75
:102A400009F4A3CF883B09F07DCFE091F20181E04A
:102A50008E0F8093F201F0E0EF52FE4F8081809361
:102A6000BB009091F2018091F10129C080919A02FE
:102A70008093BB0085EC8093BC0064CF90919C0256
:102A800080919B02981758F5E0919C0281E08E0F8F
:102A900080939C02F0E0E758FD4F8081E9CFE09100
:102AA0009C0281E08E0F80939C028091BB00F0E03D
:102AB000E758FD4F808390919C0280919B0298176C
:102AC000C8F285E8D8CFE0919C0281E08E0F809318
:102AD0009C028091BB00F0E0E758FD4F808380911D
:102AE0009E0281115CCF81E08093990284EA8093F9
:102AF000BC001092BF0226CF85EC8093BC001092E0
:102B0000BF0280911302803230F4E0911302F0E0B2
:102B1000ED50FE4F10826091130270E0E0912002B0
:102B2000F091210283EF91E00995109213020ACFF0
:102B300010929D0234CF1F920F920FB60F92112464
:102B40002F933F934F935F936F937F938F939F93B5
:102B5000AF93BF93CF93DF93EF93FF9320916F03D6
:102B600030E0F901E85CFE4F8491F901EB58FE4F2B
:102B7000D491F901EF59FE4FC491CC2379F0811122
:102B80000E940103EC2FF0E0EE0FFF1FE25DFE4F0D
:102B9000A591B491EC91ED2381E009F480E02091BE
:102BA0007403309175032F5F3F4F3093750320936B
:102BB000740320917203309173032536310518F0A8
:102BC00094E090936E0390916E03911130C0811147
:102BD00069C020917403309175032436310528F4BF
:102BE00010927503109274035DC01092400410920D
:102BF0007303109272032091720330917303A90141
:102C00004F5F5F4F5093730340937203409174037F
:102C100050917503220F331FF901EA58FC4F51837D
:102C20004083109275031092740391E021C090913B
:102C30006E03913001F58130A9F520917203309136
:102C40007303A9014F5F5F4F509373034093720367
:102C50004091740350917503220F331FF901EA5814
:102C6000FC4F51834083109275031092740392E0DD
:102C700090936E0317C090916E03923061F4882395
:102C800009F4B9CF209174033091750325363105CD
:102C900048F093E0EDCF90916E03933099F4882340
:102CA00009F49ECF909171039923A9F0811126C058
:102CB00080917003882371F08091700361E00E941D
:102CC0002A0309C090916E03943061F791E09093CC
:102CD0004004DFCF2D9AFF91EF91DF91CF91BF910B
:102CE000AF919F918F917F916F915F914F913F91A4
:102CF0002F910F900FBE0F901F9018958091700329
:102D0000882321F08091700360E0D9CF2D98E3CF24
:102D1000CF93DF93E5ECF2E01382128288EE93E02A
:102D2000A0E0B0E084839583A683B78326E431E0F6
:102D30003183208325EC30E03587248724EC30E094
:102D40003787268720EC30E0318B208B21EC30E078
:102D5000338B228B22EC30E0358B248B26EC30E059
:102D6000378B268B118E128E138E148EC2E6D3E013
:102D70001B821A828C839D83AE83BF8388E591E09A
:102D8000998388838AE090E00E9471229093630483
:102D90008093620482E090E00E947122909361042B
:102DA0008093600482EC91E00E94712290935F0412
:102DB00080935E04EEE6F3E084E0818313826FE6A5
:102DC00071E088E594E00E940810E7E4F4E081E116
:102DD000DF011D928A95E9F7E1E4F4E080E4808365
:102DE000D283C183DF91CF910895CF93DF93CDB785
:102DF000DEB7EA970FB6F894DEBF0FBECDBF78946A
:102E000084B5826084BD84B5816084BD85B58260EF
:102E100085BD85B5816085BD80916E0081608093A0
:102E20006E00109281008091810082608093810009
:102E30008091810081608093810080918000816019
:102E4000809380008091B10084608093B100809174
:102E5000B00081608093B00080917A00846080939C
:102E60007A0080917A00826080937A0080917A0063
:102E7000816080937A0080917A00806880937A00E4
:102E80001092C100E091D502F091D60212E01083B9
:102E9000E091D102F091D2021082E091D302F09140
:102EA000D40280E180831092DD02E091D902F0919A
:102EB000DA0286E08083E091D702F091D802808127
:102EC00080618083E091D702F091D8028081886090
:102ED0008083E091D702F091D8028081806880835E
:102EE000E091D702F091D80280818F7D808385E0C8
:102EF00090E0A0E0B0E08093C9029093CA02A09352
:102F0000CB02B093CC028EEA91E00E947B08109233
:102F100059021092580210927602109275020E9485
:102F2000170486E991E0909323028093220287E9B7
:102F300091E0909321028093200288E18093B80071
:102F4000F8941092800089E08093810080E293E001
:102F500090938900809388001092850010928400DD
:102F600010936F00789410926E0310927303109276
:102F7000720380916F0390E0FC01EB58FE4F2491A7
:102F80008F599E4FFC0184918823C9F090E0880FEF
:102F9000991FFC01E95AFE4F45915491FC01E35BF6
:102FA000FE4FA591B4919FB7F894FA0180812095C6
:102FB000822380838C91E22FE823EC939FBF64E00F
:102FC00070E088E594E00E94410F82E791E00E9462
:102FD0006A080E9477089FE3E92E92E0F92E00E14B
:102FE00010E0C8010E947709D7018D937D010F5F22
:102FF0001F4F00321105A9F7109259021092580282
:1030000010927602109275020E94170486E991E0F0
:10301000909323028093220287E991E0909321020A
:103020008093200240E860E081E494E00E948E06F4
:103030006AE070E080E090E00E94BD0340E050E074
:103040006AE774E481E494E00E94A20780E4C82E59
:1030500088E7D82E8DE7E82EFF24F394C09244042D
:10306000D0924504E0924604F092470440E050E0DC
:1030700060EA73E481E494E00E94A207C0924A04EB
:10308000D0924B04E0924C04F0924D04C092440460
:10309000D0924504E0924604F09247040E941D0736
:1030A00080E00E948403BC01990F880B990B611585
:1030B00071058105910511F00E948D2489E891E048
:1030C0000E947B0890E080E08C010F5F1F4F8A5EBA
:1030D0009E4F0E947709080F111DC8018A5E9E4FFE
:1030E0000E9477098E3419F0C8010496EDCF68E08C
:1030F00071E0C801885E9E4F0E941F0F8FEF93E022
:103100000E94231360ED77E080E090E00E94BD0311
:1031100083EA91E00E947B088CE991E00E947B08A1
:1031200085E991E00E947B0885E10E9484038C017F
:103130008A3892400CF048C0809124029091250278
:103140000817190709F040C080EB91E00E94C60201
:10315000C80163E670E00E94142A6B01072E000C80
:10316000EE08FF0877FF2CC06DE285EC92E00E942C
:10317000790266277727CB016C197D098E099F0993
:103180004AE00E94A90886E50E94870881ED93E045
:103190000E942313EE24E394FF24F394EFEFFE1236
:1031A00002C0EE24EA9465E070E080E090E00E94C6
:1031B000BD03FE0C99F71093250200932402B4CFAF
:1031C0004AE0C701B601DDCF109325020093240227
:1031D00080914F02882309F40BC10E943E242FB72F
:1031E000F894C0905C02D0905D02E0905E02F09096
:1031F0005F022FBF00912602109127022091280222
:103200003091290246015701801A910AA20AB30A95
:1032100095018401093E13402105310508F4E8C0F9
:103220002CE030E040E050E00E9467264FB7F89471
:10323000C0905C02D0905D02E0905E02F0905F0270
:103240004FBFC0922602D0922702E0922802F0924D
:103250002902663071050CF0CBC0633071050CF0AB
:103260003FC189E48AA78DE48BA789E0E0E3F1E020
:10327000DE01919601900D928A95E1F74AE069E0AE
:1032800070E080E090E00E94A9080E94770889E041
:10329000E9E3F1E0DE01119601900D928A95E1F7E4
:1032A0000E943E2422E030E040E050E00E94672689
:1032B0006C0F7D1FDB019A968C91809353020E94C4
:1032C000E22364E070E00E94142A049690933E0288
:1032D00080933D02612C80913D0290913E02462CEC
:1032E000512C481659060CF072C00E94E22369E086
:1032F00070E00E94002A7C01440C551CE1E2F0E0E1
:10330000EC0FFD1FE80FF91F0081E0915E04F091C2
:103310005F04E40DF51D0083000F110BF801EE5F53
:10332000FE4F5F01808091800E94E223E1E0F0E0A7
:10333000EC0FFD1FEE0DFF1D7080E72CF12C769435
:10334000C72CD12CB7010E94142A880E991E8C1804
:103350009D08F1E88F16FFEF9F06F4F40E5F1E4FF5
:10336000D801AD90BC900E94E223B7010E94142ABC
:10337000A80EB91EAC18BD0880E8B1E8AB16BFEFC7
:10338000BB06DCF0D8011C910E94E2231719B7019B
:103390000E94142A810F11C0F501A080B1800E9403
:1033A000E223B7010E94142AA80EB91EAC18BD086A
:1033B0008FE7FFE7AF16B1048CF220915E043091E5
:1033C0005F04420E531EF2018183639484CF880F01
:1033D000991F90933E0280933D0220915E043091AC
:1033E0005F04820F931FDC011C9285E080935202E0
:1033F00086E793E0909338028093370280917203BE
:103400009091730390933A02809339028091400423
:1034100090E090933C0280933B0280916E03833056
:1034200009F0B5C08091780390917903875891098C
:103430008E35910508F0A5C08091720390917303B9
:10344000049709F06DC080917A0390917B03809777
:10345000479708F065C080917C0390917D030997A0
:10346000099708F05DC01092360210923502882448
:103470008A94982C540180922F0290923002A0924C
:103480003102B092320283E090E090932C0280935C
:103490002B0280912F0290913002A0913102B091C5
:1034A0003202892F9A2FAB2FBB27823609F4E3C152
:1034B00008F0B7C1803309F4EDC108F09CC1803138
:1034C00009F4F1C108F045C165EF71E0823009F4FB
:1034D00048C165E971E0CE0181960E94081045C19E
:1034E000FB01EE0FFF1FE554FE4F65917491809133
:1034F0005E0490915F040E94B42480915E049091D8
:103500005F04BC01FB012191BF01209353022B36C4
:1035100021F480916204909163040E94142B65CF82
:1035200080917203909173038434910550F18091DE
:103530007A0390917B03815491098F9710F590E065
:1035400080E040E050E0BA01FC01E458FC4F2081EB
:103550003181295031092930310598F4FC01E258B4
:10356000FC4F20813181275131092231310508F486
:10357000D2C020813181265031092730310508F42D
:10358000E3C010926E03109273031092720385ECE5
:1035900092E00E943702181619068CF582E080939B
:1035A000520285EC92E00E94D501182F80935302BD
:1035B00061E070E080E090E00E94BD031B3409F000
:1035C0000BC2E0905E04F0905F0410E000E085EC38
:1035D00092E00E943702892B51F085EC92E00E9424
:1035E000D501F701E00FF11F80830F5F1F4FF80136
:1035F0003197EE0DFF1D80818E3749F71082609163
:103600005202662309F49FC2F0905302653010F510
:10361000B2E6FB16F9F0ECE4FE16E1F0F9E4FF1671
:10362000C9F08CE88F0D8230A8F070E06B5F7F4F9F
:10363000660F771F072E000C880B990B0E9434250C
:10364000EE24E39410E000E020E030E048E452E4AF
:103650000E94AF10809151028356823038F443E6C5
:10366000842EF81419F087E40E9487088091530291
:10367000803751F080915002811106C081E0809323
:10368000500280E70E948708F0905302EEEBEF0DA6
:10369000E93308F0FCC10E2E000CFF0BEE5AF44E7D
:1036A0000C94282AA420471D471D471D471D471D70
:1036B000471D5720471DF02097205720471D471DC5
:1036C000471D471D471D471DE020471D471D471D3E
:1036D000471D471D471D471D471D471D471D471DCA
:1036E000471DAC1EC21EC21E7B21471D471D471D24
:1036F000471DC21E181E6521471DC21E471D4E1EB6
:10370000051E471D471D531EC21EC21E471D471DD5
:10371000471D471D3B1D440F551F661F771F416006
:1037200004968038910509F00FCF80E290E09093E5
:1037300036028093350240932F02509330026093FB
:103740003102709332029FCE440F551F661F771FC0
:10375000E7CF883109F4A1C06DEF71E0823209F042
:10376000B8CECE0181960E9449106EE771E0CE017D
:1037700081960E940F09882309F4A1C060E871E0D6
:1037800088E594E00E94D20F68E574E0CE018A9645
:103790000E94B60FCE0181960E94360965E971E05C
:1037A000CE018A960E940F0981111AC0009162040D
:1037B000109163046AA57BA5C8010E94142BD8014F
:1037C0000D900020E9F7CD0102978017910709F0CD
:1037D00001C1F80180818093530281E080935202FD
:1037E00010926E031092730310927203CE018A96A8
:1037F0000E943609CCCE8A3409F45BC048F4883381
:1038000009F454C06CEC71E0823409F4AACF61CEA3
:10381000823509F451C06FEC71E08A3509F4A1CF0B
:1038200058CE823A29F188F48A37D1F130F46AEE21
:1038300071E0883609F495CF4CCE803941F167EEBE
:1038400071E0883909F48DCF44CE823CB9F040F460
:10385000883AD1F064EE71E0803B09F482CF39CE32
:10386000803E79F06FEF71E0823E09F47ACF31CE7D
:1038700063E072E076CF61E072E073CF63EF71E0F6
:1038800070CF61EF71E06DCF6FEE71E06ACF6DEEDA
:1038900071E067CF61EE71E064CF6DED71E061CFF3
:1038A00069ED71E05ECF66ED71E05BCF63ED71E0D5
:1038B00058CF69EC71E055CF67EC71E052CF63E807
:1038C00071E0CE0181960E940F09811110C065E858
:1038D00071E0CE0181960E940F09811108C067E84E
:1038E00071E0CE0181960E940F098823D1F18DA14C
:1038F0009EA1892B21F0E9A1FAA1309721F4109221
:103900002A02EAE2F2E0108110930101163431F448
:103910006FE671E088E594E00E94D20F68E574E0FC
:10392000CE0101960E94B60F1AA71BA641E050E0F7
:10393000BE01665D7F4FCE0101960E94690F811125
:1039400004C0CE0101960E942409BE016F5F7F4F23
:10395000CE018A960E94B60FCE0101960E943609CA
:1039600019CF69E871E0CE0181960E940F0981119B
:103970001EC06CE871E0CE0181960E940F09811192
:1039800016C06FE671E0CE0181960E940F09811189
:103990000EC01BA61AA61DA61CA61FA61EA6BE010B
:1039A0006F5D7F4FCE018A960E943E09F3CE69A1DA
:1039B0007AA16115710549F04DA15EA188E594E0F9
:1039C0000E94950F10910101A9CF88E594E00E9413
:1039D0002409F8CF8BE6FFCE85EC92E00E943702F7
:1039E000181619060CF071C565E971E0CE018196D3
:1039F0000E940810193439F084EB810F823018F0DE
:103A00006AE0123409F46EE7CE0101960E941910A3
:103A1000BE016F5F7F4FCE0181960E943E09CE01AD
:103A200001960E9436092DA13EA130933E022093BB
:103A30003D021B3631F080915E0490915F04143793
:103A400021F4809162049091630449A15AA1DC01A0
:103A5000FA01BF01641B750B621773071CF46191B7
:103A60006D93F7CF820F931FDC011C92CE018196DC
:103A70000E943609C4CD80914F0291E0892780933E
:103A80004F02882311F03AE5F32EF0925302809111
:103A900053028B3621F4909164021916E4F40E94CB
:103AA000870810915302812F012E000C990B0E9460
:103AB000FA2A873631F0863721F0823611F01A362D
:103AC00021F4809151028B3619F01B7F103719F4C5
:103AD0008BE68093530200916204109163046BE9BA
:103AE00071E0C8010E940B2BF0905302892B09F161
:103AF000E9E4FE16F1F085EB8F0D8330D0F0809174
:103B0000600490916104009711F00E940D2381E000
:103B100090E00E947122F80101900020E9F7E01B7B
:103B2000DC01EC939093610480936004B8010E94DF
:103B3000142B10925202F09251028F2D877F833600
:103B400011F010925302809153028B3609F06DC42C
:103B50001091640217FFE1C3D0907102DA9410E073
:103B600082E3C82E212F30E080916402082E000CE1
:103B7000990B97FF03C091958195910928173907F3
:103B80000CF053C4E0907302F090740280916902CB
:103B9000189FE00CF11C1124F7016089062E000C1F
:103BA000770B880B990B0E94342520E030E040E829
:103BB0005EE30E9493259B01AC0100E060916E02E0
:103BC000C7010E94600C80916902E0917302F0913C
:103BD0007402189FE00DF11D11242189022E000CA2
:103BE000330BAC2D0C2C000CBB0B0E942E2A0E9418
:103BF000BD0380917002181306C01D1424F41091A7
:103C00006F021150DA941F5FADCF8091500291E0A6
:103C1000811190E090935002882311F020E5F22E5C
:103C2000F0925302882309F432CF0E941D072FCF50
:103C30000E94ED0865E971E0CE0181960E940810AE
:103C400002E011E092E2E92E91E0F92ED8016D91A7
:103C50007D918D01CE0101960E94DC0F4D815E8128
:103C600069817A81CE0181960E94690FCE01019609
:103C70000E94360942E050E063E971E0CE0181968E
:103C80000E94690FE016F10609F7CE0181960E94A5
:103C90009608CE0181960E943609F9CE86EC93E013
:103CA0000E942313F4CE87E392E00E947B080FE387
:103CB000802E02E0902E80E4E82EF12C00E110E04E
:103CC000F401D1904F01C8010E945126D81621F06D
:103CD0006D2DC8010E945926C7010E940A0A6C0175
:103CE000C80180960E947709B82EF401319760814F
:103CF000062E000C770B880B990B0E9434252B01A4
:103D00003C016B2DBB0C770B880B990B0E94342563
:103D10009B01AC01C301B2010E9493252B013C0120
:103D2000B601DD0C880B990B0E9434259B01AC0178
:103D3000C301B2010E9402270E94E527C7018096B5
:103D40000E941F0F0F5F1F4FF2E0EF0EF11C0032B9
:103D5000110509F0B5CF9BCE8FE292E00E947B085F
:103D60001FE3E12E12E0F12E00E110E0C8010E94F5
:103D70007709D7018D937D010F5F1F4F0032110529
:103D8000A9F785CEE2E0F1E0DE01119682E291E052
:103D90001D01219131912D933D938E179F07C9F7F6
:103DA000B4E78091620490916304FB1621F0809146
:103DB0005E0490915F046FE871E00E94C4243C01AE
:103DC0006114710409F4CAC0C3010E9496248C01D5
:103DD00062E971E090E080E00E94C4243C01F12C93
:103DE000E12CBB24B394009761F00E9496247C01DF
:103DF00062E971E090E080E00E94C4243C01B2E0FE
:103E0000BB2EF801EE0FFF1FE20DF31DF182E082E1
:103E100080915302833609F0A7C010924F0280911F
:103E20005102833661F0C0906204D090630469E669
:103E300071E0C6010E94142BC6010E94EB0DF8012F
:103E4000E15CFD4F6F01F2E0BF1202C0D601EC92BF
:103E5000C8018096880F991F0E940A0A7C01C80138
:103E60009927C0960E947709182FF6016081062EC7
:103E7000000C770B880B990B0E9434254B015C01D9
:103E8000612F110F770B880B990B0E9434259B0132
:103E9000AC01C501B4010E9493254B015C01B7013F
:103EA000FF0C880B990B0E9434259B01AC01C501C6
:103EB000B4010E9402270E94E527072E000C880B00
:103EC000990B0E943425AB01BC01802F0E941E0A71
:103ED0000E94ED0865E971E0CE018A960E94081003
:103EE0000FE312E0D8016D918D01062E000C770BC7
:103EF000CE0181960E94DC0F4DA15EA169A17AA13D
:103F0000CE018A960E94690FCE0181960E943609E1
:103F100042E050E063E971E0CE018A960E94690FA9
:103F2000EFE4F2E0E017F107E9F6CE018A960E948D
:103F30009608CE018A960E9436096114710409F030
:103F40003FCF80915302893609F0A1CD40E050E087
:103F500060E070E4C1010E94150B99CDF12CE12CB9
:103F600010E000E0B12C4DCF8D3641F440E050E040
:103F700060E070E4C1010E94150BDFCF8437E9F2E5
:103F8000853709F07AC00E94E2236AE070E00E945F
:103F9000142A845289AB0E94E2236AE070E00E94F6
:103FA000142A8E5288AB0E94E2238C010E94E223E5
:103FB00062E070E00E94142A8F5F8AABC80164E05F
:103FC00070E00E94142A0296282F220F220F280F39
:103FD00030E0A8EEB3E00E94F2266BAB7CAB8DAB79
:103FE0009EABB12C88A8482C512C9AA8B91408F083
:103FF000A4CFA8A8912C812C49A9A41608F03BC0F5
:104000006201C80CD91C8601000F111F000F111F7F
:1040100005501109CC0CDD1CC601B0E0A0E08FAB4F
:1040200098AFA9AFBAAFC12CD12C76018BA99CA9AE
:10403000ADA9BEA9C816D906EA06FB06BCF461E024
:1040400085E00E942A03C8010197F1F760E085E04E
:104050000E942A03C8010197F1F78FA998ADA9AD75
:10406000BAADC80ED91EEA1EFB1EE0CFA3949FEF87
:10407000891A990AC1CFB394B8CF823609F05DCFBF
:10408000B701FF0C880B990B0E9434254B015C0192
:10409000B801110F880B990B0E943425EE24E3948C
:1040A00002E310E0A50194010E94AF1046CFE2E0C8
:1040B000F1E0DE01119682E291E07D0121913191E2
:1040C0002D933D938E179F07C9F710E000E02091D4
:1040D000530280913D0290913E0208171907F4F4B3
:1040E000A0915E04B0915F04A00FB11FEC91EE0FA0
:1040F000FF0BEE0DFF1D11968C91082E000C990BF5
:10410000918380832D3439F440E050E060E070E426
:10411000C7010E94150B0E5F1F4FD9CF293409F03C
:10412000B6CC40E050E060E070E4C70114CF00E09E
:1041300020E030E040E050E461E080915E04909146
:104140005F040E94600CA3CCF12C2F2D30E08091F5
:104150003D0290913E0297FD01969595879528170F
:1041600039070CF0B5C100915E0410915F04220F75
:10417000331F020F131FD80111966C91062E000CED
:10418000770B88EE93E00E94142A072E000C880B10
:10419000990B0E9434254B015C01F8016081062EC9
:1041A000000C770B880B990B0E943425EE24E394C6
:1041B00010E000E0A50194010E94AF10F394C5CF78
:1041C00084E191E00E940A0A0E9429070E94C80D1A
:1041D000809153020E9487088BE68093530257CC4C
:1041E00060905E0470905F0484E191E00E940A0A8E
:1041F0008C01D3016C916093640289E692E00E9485
:10420000BE0601967C01D12CC12C5524539424E583
:10421000422E1E141F049CF55092780240927702A1
:104220001092760210927502612F70E082E693E0A0
:104230000E94DB06B801772782E693E00E94DB0646
:104240005301AC0CBD1C4801B0E18B0E911C011553
:10425000E0E21E07B9F40E94770885E092E00E9430
:104260007B0892E0E92E02E310E020E030E048EC29
:1042700052E460E070E080E291E40E94AF100E949E
:10428000C80DAACFFFEFCF1ADF0AD5016D915D01EE
:1042900082E693E00E9475050F5F1F4FB1E0EB1AB5
:1042A000F10841F0C8018F719927892B19F0801608
:1042B000910669F682E693E00E94A40566E070E04C
:1042C00080E090E00E94BD03A4CF009162041091B1
:1042D0006304B80180916004909161040E940B2BEB
:1042E000892B29F48091640282300CF0F4C0C8015B
:1042F0000E94EB0DCCCB009162041091630466E93F
:1043000071E0C8010E94142BC8010E94EB0D0E94AD
:104310001D0787E60E948708BACB80916002803132
:1043200008F4AFC020915A0230915B0210926002F3
:1043300080915002820F932F911D212F012E000C8E
:10434000330B821793070CF098C090935B02809315
:104350005A0280916002843019F488E080936002F0
:104360000091600220917202C0905A02D0905B02CC
:10437000E02EF12C021708F08DC012300CF48AC028
:10438000812C912C5401013059F060916302062E6A
:10439000000C770B880B990B0E9434254B015C01B4
:1043A000F2E0EF0EF11CEC9CB001ED9C700DFC9C5A
:1043B000700D1124072E000C880B990B0E943425D8
:1043C0002BED3FE049E450E40E9493256B017C0112
:1043D000612F110F770B880B990B0E9434259B01DD
:1043E000AC01C701B6010E9473270E94AF2820E0EC
:1043F00030E040E251E40E949325A50194010E941F
:10440000022720915402309155024091560250915A
:1044100057020E940227AB01BC01802F0E946F0A45
:10442000809160028F5F809360028091640287FFB9
:1044300014C000916204109163046EE971E0C80138
:104440000E94142BF8018081882319F0C8010E9472
:10445000EB0D809153020E94870880E090E0892B49
:1044600011F40C9494180E944302882311F40C94C4
:1044700094180E9400000C94941810925B02109201
:104480005A0280916002823009F063CF88E0809305
:1044900060025FCF309169023C9DC0013D9D900D4F
:1044A0001124E80EF91EE21AF1088091730290912E
:1044B0007402E80EF91ED7016C91062E000C770BE2
:1044C000880B990B0E9434259CCF609152029CC8A6
:1044D00080915302E4CA8F2DDECA88E594E00C94E3
:1044E00036090F931F93CF93DF938230910510F419
:1044F00082E090E0E0916804F091690430E020E00F
:10450000B0E0A0E0309799F42115310509F44AC0D4
:10451000281B390B24303105D8F58A819B81611520
:10452000710589F1FB0193838283FE0111C04081F3
:1045300051810281138148175907E0F04817590744
:1045400099F4109761F012960C93129713961C939E
:104550003296CF01DF91CF911F910F910895009373
:10456000680410936904F4CF2115310551F0421706
:10457000530738F0A901DB019A01BD01DF01F80101
:10458000C1CFEF01F9CF9093690480936804CDCF38
:10459000FE01E20FF31F8193919322503109398379
:1045A0002883D7CF2091660430916704232B41F4F0
:1045B00020912401309125013093670420936604F3
:1045C00020912201309123012115310541F42DB7AD
:1045D0003EB74091260150912701241B350BE091F5
:1045E0006604F0916704E217F307A0F42E1B3F0B5B
:1045F0002817390778F0AC014E5F5F4F2417350755
:1046000048F04E0F5F1F50936704409366048193F8
:1046100091939FCFF0E0E0E09CCFCF93DF930097A2
:10462000E9F0FC01329713821282A0916804B091E4
:104630006904ED0130E020E01097A1F42081318180
:10464000820F931F20916604309167042817390761
:1046500009F061C0F0936704E0936604DF91CF91A5
:104660000895EA01CE17DF07E8F54A815B819E01D4
:1046700041155105B1F7E901FB83EA83499159914D
:10468000C40FD51FEC17FD0761F48081918102965C
:10469000840F951FE90199838883828193819B838D
:1046A0008A83F0E0E0E012968D919C911397009739
:1046B000B9F52D913C911197CD010296820F931F70
:1046C00020916604309167042817390739F630972E
:1046D00051F51092690410926804B0936704A09396
:1046E0006604BCCFD383C28340815181840F951F60
:1046F000C817D90761F44E5F5F4F88819981480FD1
:10470000591F518340838A819B8193838283211522
:10471000310509F0B0CFF0936904E09368049ECFAF
:10472000FD01DC01C0CF13821282D7CF8F929F92FE
:10473000AF92BF92CF92DF92EF92FF92CF93DF932F
:10474000EC01688179818A819B8161157105810500
:10475000910521F464E279ED8BE597E02DE133EFEB
:1047600041E050E00E94672649015A019B01AC01DB
:10477000A7EAB1E40E9486266B017C01ACEEB4EF9F
:10478000A50194010E949426DC01CB018C0D9D1D96
:10479000AE1DBF1DB7FF03C00197A109B0488883B4
:1047A0009983AA83BB839F77DF91CF91FF90EF908E
:1047B000DF90CF90BF90AF909F908F9008950E9410
:1047C0009623089588E291E00E9496230895B0E030
:1047D000A0E08093280190932901A0932A01B0932F
:1047E0002B0108958F929F92AF92BF92CF92DF924A
:1047F000EF92FF92CF93DF93EC01688179818A81F8
:104800009B81611571058105910521F464E279EDC3
:104810008BE597E02DE133EF41E050E00E94672601
:1048200049015A019B01AC01A7EAB1E40E94862626
:104830006B017C01ACEEB4EFA50194010E949426BB
:10484000C60ED71EE81EF91EF7FE06C081E0C81A84
:10485000D108E10880E8F80AC882D982EA82FB829E
:10486000C701B6019F77DF91CF91FF90EF90DF9066
:10487000CF90BF90AF909F908F9008958F929F920E
:10488000AF92BF92CF92DF92EF92FF9260912C0194
:1048900070912D0180912E0190912F01611571056C
:1048A0008105910521F464E279ED8BE597E02DE136
:1048B00033EF41E050E00E94672649015A019B0115
:1048C000AC01A7EAB1E40E9486266B017C01ACEE44
:1048D000B4EFA50194010E949426C60ED71EE81ECF
:1048E000F91EF7FE06C081E0C81AD108E10880E889
:1048F000F80AC0922C01D0922D01E0922E01F09284
:104900002F01C701B6019F77FF90EF90DF90CF9006
:10491000BF90AF909F908F90089560932C017093FB
:104920002D0180932E0190932F010895FC0188277B
:104930009927E89421912032E9F3293010F02E30A4
:10494000C8F32B3241F02D3239F4689404C00E9430
:10495000FB24820F911D219120532A30C0F31EF4B5
:10496000909581959F4F0895FB01DC0105900D9274
:104970000020E1F70895FC0105900020E9F78095FB
:1049800090958E0F9F1F089544E654E00E94C9241D
:104990000895FA01A191B081009719F41097E1F000
:1049A000CD01DC01CD010D90002011F4C00113C038
:1049B000FB012191222319F02015D9F7F3CFFB0138
:1049C0002191201519F41E92119606C02223C1F7D9
:1049D0000D900020A1F7D001FA01A193B0830895B2
:1049E000BB274A3031F4992322F4BDE2909581959A
:1049F0009F4F0C9404257AE0979F902D879F802DE0
:104A0000910D11240895BB27FB015527AA27880F74
:104A1000991FAA1FA41710F0A41B83955051B9F732
:104A2000A05DAA3308F0A95DA193009779F7B111B1
:104A3000B1931192CB010C941D25DC01FC01672F71
:104A400071917723E1F7329704C07C916D93708365
:104A50006291AE17BF07C8F308950E946F2508F44E
:104A600081E00895E89409C097FB3EF49095809505
:104A7000709561957F4F8F4F9F4F9923A9F0F92F24
:104A800096E9BB279395F695879577956795B795A2
:104A9000F111F8CFFAF4BB0F11F460FF1BC06F5F88
:104AA0007F4F8F4F9F4F16C0882311F096E911C09A
:104AB000772321F09EE8872F762F05C0662371F0BB
:104AC00096E8862F70E060E02AF09A95660F771FCF
:104AD000881FDAF7880F9695879597F90895990FAB
:104AE0000008550FAA0BE0E8FEEF16161706E807B8
:104AF000F907C0F012161306E407F50798F0621BD9
:104B0000730B840B950B39F40A2661F0232B242BAD
:104B1000252B21F408950A2609F4A140A6958FEFCC
:104B2000811D811D08950E94A6250C9417260E94C0
:104B3000092638F00E94102620F0952311F00C94DD
:104B400000260C94062611240C944B260E9428263D
:104B500070F3959FC1F3950F50E0551F629FF001D0
:104B6000729FBB27F00DB11D639FAA27F00DB11DE9
:104B7000AA1F649F6627B00DA11D661F829F222772
:104B8000B00DA11D621F739FB00DA11D621F839FF9
:104B9000A00D611D221F749F3327A00D611D231FCF
:104BA000849F600D211D822F762F6A2F11249F571D
:104BB00050409AF0F1F088234AF0EE0FFF1FBB1F20
:104BC000661F771F881F91505040A9F79E3F5105DF
:104BD00080F00C9400260C944B265F3FE4F3983E43
:104BE000D4F3869577956795B795F795E7959F5F89
:104BF000C1F7FE2B880F911D9695879597F908951B
:104C000097F99F6780E870E060E008959FEF80EC7F
:104C1000089500240A941616170618060906089522
:104C200000240A9412161306140605060895092E88
:104C30000394000C11F4882352F0BB0F40F4BF2BF7
:104C400011F460FF04C06F5F7F4F8F4F9F4F089537
:104C500057FD9058440F551F59F05F3F71F047952D
:104C6000880F97FB991F61F09F3F79F08795089512
:104C7000121613061406551FF2CF4695F1DF08C031
:104C8000161617061806991FF1CF8695710561054E
:104C900008940895E894BB2766277727CB0197F9F6
:104CA0000895F999FECF92BD81BDF89A992780B5F4
:104CB0000895262FF999FECF1FBA92BD81BD20BD60
:104CC0000FB6F894FA9AF99A0FBE01960895052E38
:104CD00097FB1EF400940E947E2657FD07D00E9489
:104CE000D02607FC03D04EF40C947E2650954095B8
:104CF000309521953F4F4F4F5F4F08959095809588
:104D0000709561957F4F8F4F9F4F08950E94F226B7
:104D1000A59F900DB49F900DA49F800D911D11240F
:104D20000895B7FF0C9486260E948626821B930B5B
:104D300008952F923F924F925F926F927F928F923F
:104D40009F92AF92BF92CF92DF92EF92FF920F931A
:104D50001F93CF93DF93CDB7DEB7CA1BDB0B0FB624
:104D6000F894DEBF0FBECDBF09942A8839884888E1
:104D70005F846E847D848C849B84AA84B984C88477
:104D8000DF80EE80FD800C811B81AA81B981CE0F6E
:104D9000D11D0FB6F894DEBF0FBECDBFED01089553
:104DA000A1E21A2EAA1BBB1BFD010DC0AA1FBB1F2F
:104DB000EE1FFF1FA217B307E407F50720F0A21BA1
:104DC000B30BE40BF50B661F771F881F991F1A940E
:104DD00069F760957095809590959B01AC01BD0138
:104DE000CF010895A29FB001B39FC001A39F700D92
:104DF000811D1124911DB29F700D811D1124911DE3
:104E000008955058BB27AA270E9419270C941726EB
:104E10000E94092638F00E94102620F039F49F3FA6
:104E200019F426F40C9406260EF4E095E7FB0C9496
:104E30000026E92F0E94282658F3BA176207730745
:104E40008407950720F079F4A6F50C944A260EF411
:104E5000E0950B2EBA2FA02D0B01B90190010C018A
:104E6000CA01A0011124FF27591B99F0593F50F4A2
:104E7000503E68F11A16F040A22F232F342F4427FA
:104E8000585FF3CF469537952795A795F0405395F2
:104E9000C9F77EF41F16BA0B620B730B840BBAF0C2
:104EA0009150A1F0FF0FBB1F661F771F881FC2F72D
:104EB0000EC0BA0F621F731F841F48F48795779541
:104EC0006795B795F7959E3F08F0B0CF9395880FFB
:104ED00008F09927EE0F9795879508950E941D2851
:104EE000E3950C9446280E9487270C9417260E946D
:104EF000102658F00E94092640F029F45F3F29F05F
:104F00000C94002651110C944B260C9406260E94FA
:104F1000282668F39923B1F3552391F3951B550B7C
:104F2000BB27AA2762177307840738F09F5F5F4F7C
:104F3000220F331F441FAA1FA9F335D00E2E3AF0BB
:104F4000E0E832D091505040E695001CCAF72BD0D3
:104F5000FE2F29D0660F771F881FBB1F2617370724
:104F60004807AB07B0E809F0BB0B802DBF01FF2756
:104F700093585F4F3AF09E3F510578F00C9400260D
:104F80000C944B265F3FE4F3983ED4F386957795D7
:104F90006795B795F7959F5FC9F7880F911D96950F
:104FA000879597F90895E1E0660F771F881FBB1F6B
:104FB000621773078407BA0720F0621B730B840B18
:104FC000BA0BEE1F88F7E09508950E94EC276894CD
:104FD000B1110C944B2608950E94302688F09F57FB
:104FE00098F0B92F9927B751B0F0E1F0660F771F0D
:104FF000881F991F1AF0BA95C9F714C0B13091F003
:105000000E944A26B1E008950C944A26672F782F13
:105010008827B85F39F0B93FCCF3869577956795C7
:10502000B395D9F73EF490958095709561957F4F33
:105030008F4F9F4F08950C9406260E943026D8F378
:10504000E894E0E0BB279F57F0F02AED3FE049EC01
:1050500006C0EE0FBB0F661F771F881F28F0B23AFD
:1050600062077307840728F0B25A620B730B840B34
:10507000E3959A9572F7803830F49A95BB0F661FC6
:10508000771F881FD2F790480C94F328EF93E0FF26
:1050900007C0A2EA2AED3FE049EC5FEB0E94192726
:1050A0000E9417260F90039401FC9058E8E6F0E068
:1050B0000C9426290E946F2508F48FEF0895FA01B9
:1050C000EE0FFF1F309621053105A1F16115710525
:1050D00061F48038BFE39B0749F1689490388105FB
:1050E00061F08038BFEF9B0741F099234AF5FF3FFD
:1050F000E1053105210519F1E8940894E795D901F6
:10510000AA2329F4AB2FBE2FF85FD0F310C0FF5FA6
:1051100070F4A695E0F7F73950F019F0FF3A38F43B
:105120009F779F930DD00F9007FC9058089546F0FD
:105130000C94062660E070E080E89FE308954FE756
:105140009F775F934F933F932F930E9484292F91D2
:105150003F914F915F910E9493250C94BF289F939C
:105160000E941D280F9007FCEE5F0C94462829F43E
:1051700016F00C9400260C944A260C9406260E94E5
:105180003026A8F39638A0F707F80F92E8942BE39F
:105190003AEA48EB5FE70E94A9250F920F920F921F
:1051A0004DB75EB70F920E94CC29E6E8F0E00E946E
:1051B000FF284F915F91EF91FF91E595EE1FFF1F43
:1051C00049F0FE57E0684427EE0F441FFA95E1F7D7
:1051D0004195550B0E9446290F9007FE0C943A29E1
:1051E00008959F3F31F0915020F48795779567950A
:1051F000B795880F911D9695879597F90895DF9338
:10520000CF931F930F93FF92EF92DF927B018C015C
:10521000689406C0DA2EEF010E94A625FE01E894EC
:10522000A5912591359145915591A6F3EF010E94E5
:105230001927FE019701A801DA9469F7DF90EF9032
:10524000FF900F911F91CF91DF9108959F938F93BE
:105250007F936F93FF93EF939B01AC010E94932583
:10526000EF91FF910E94FF282F913F914F915F9105
:105270000C9493259B01AC0160E070E080E89FE313
:105280000C9473270C9400260C94F1280E9430266D
:10529000D8F39923C9F3940F511DA3F391505040B3
:1052A00094F059F0882332F0660F771F881F9150D1
:1052B0005040C1F79E3F51052CF7880F911D9695E0
:1052C000879597F908955F3FACF0983E9CF0BB2717
:1052D000869577956795B79508F4B1609395C1F772
:1052E000BB0F58F711F460FFE8CF6F5F7F4F8F4F10
:1052F0009F4FE3CF0C944B2616F00C94F1280C949E
:10530000062668940C9400260E943026A8F3992360
:10531000C1F3AEF3DF93CF931F930F93FF92C92F87
:10532000DD2788232AF02197660F771F881FDAF779
:1053300020E030E040E85FEB9FE3883920F0803EDA
:1053400038F021968F770E940227EEEAF0E004C041
:105350000E940227EBEDF0E00E94FF288B01BE01C6
:10536000EC01FB2E6F5771097595771F880B990B10
:105370000E94342528E132E741E35FE30E94A6253D
:10538000AF2D9801AE01FF900F911F91CF91DF914A
:105390000E9419270C941726FA01DC01AA0FBB1FE3
:1053A0009B01AC01BF5728F42227332744275078AC
:1053B00020C0B75190F4AB2F002446953795279520
:1053C000011CA395D2F3002071F0220F331F441F5C
:1053D000B395DAF30ED00C94012761307105A0E883
:1053E0008A07B94630F49B01AC01662777278827E6
:1053F0009078309621F0208331834283538308953F
:10540000AA1BBB1B51E107C0AA1FBB1FA617B707EA
:1054100010F0A61BB70B881F991F5A95A9F7809506
:105420009095BC01CD01089597FB072E16F40094CA
:1054300007D077FD09D00E94002A07FC05D03EF472
:10544000909581959F4F0895709561957F4F089530
:10545000EE0FFF1F0590F491E02D09940E94F226B3
:10546000332312F48A1B9B0B0C94382A0E94F226D9
:10547000B7FF0895821B930B0895B0E0A0E0E3E42A
:10548000FAE20C949B268C01009751F4CB010E9408
:1054900071228C01C801CDB7DEB7E0E10C94B726CC
:1054A000FC01E60FF71F9C0122503109E217F307B8
:1054B00008F49DC0D901CD91DC911197C617D7078B
:1054C00098F0C530D10530F3CE01049786179707C1
:1054D00008F3C61BD70B2297C193D1936D937C938E
:1054E000CF010E940D23D6CF5B01AC1ABD0A4C013F
:1054F0008C0E9D1EA0916804B0916904512C412C22
:10550000F12CE12C109731F580916604909167049D
:105510008815990509F05CC04616570608F058C072
:105520008091220190912301009741F48DB79EB79D
:105530004091260150912701841B950BE817F9072C
:1055400008F055C0F0936704E0936604F901718395
:105550006083A0CF8D919C91119712966C901297B9
:1055600013967C901397A815B90559F56C0142E084
:10557000C40ED11CCA14DB0420F1AC014A195B092A
:10558000DA011296159780F062827382518340830C
:10559000D9016D937C93E114F10471F0D701139656
:1055A000FC93EE93129776CF22968C0F9D1FF901F4
:1055B00091838083F301EFCFF0936904E093680453
:1055C00069CF4816590608F42C017D01D3019ACF02
:1055D000CB010E9471227C01009749F0AE01B80115
:1055E0000E94022BC8010E940D23870153CF10E0B7
:1055F00000E050CF9111089581548A5108F4805EE3
:10560000855A0895FB01DC0102C001900D924150C2
:105610005040D8F70895FB01DC018D91019080196D
:105620000110D9F3990B0895FB01DC0101900D9253
:105630000020E1F70895FB01DC014150504030F0BB
:105640008D910190801919F40020B9F7881B990BEE
:10565000089511E0C1E2D1E004C0FE010E94282AB1
:0C5660002196C232D107C9F7F894FFCFA1
:10566C00FF46E2FFB0FFD3FF000000000000000087
:10567C0000004B004B004B004B00C9FFC9FFC9FF9A
:10568C00C9FF00006A048000010000000100000056
:10569C0000010208090C0D0E0F5A5AB405050A0A2E
:1056AC0005050000000079029901C601E1023702EC
:1056BC00D501290200000000750548058B0625055B
:1056CC008F01350526050D0A0063616C6962007453
:1056DC007200496E697420736572766F73004200B4
:1056EC00626B0046004C005200637200776B002026
:1056FC002C00202C090072657374007263006261C7
:06570C006C616E63650094
:00000001FF
